{
  "contractName": "CdpSaver",
  "abi": [
    {
      "constant": false,
      "inputs": [],
      "name": "payBack",
      "outputs": [],
      "payable": false,
      "stateMutability": "nonpayable",
      "type": "function"
    }
  ],
  "bytecode": "0x6080604052348015600f57600080fd5b5060868061001e6000396000f3fe608060405260043610603f576000357c0100000000000000000000000000000000000000000000000000000000900463ffffffff168063019f64cc146044575b600080fd5b348015604f57600080fd5b5060566058565b005b56fea165627a7a7230582076f2aed67713681a95fe7b5c2363f26611ea40ec288b2208a4f947128bc36a150029",
  "source": "pragma solidity ^0.5.0;\n\ncontract CdpSaver {\n    function payBack() public {\n        \n    }\n\n}",
  "sourcePath": "/Users/nenadpalinkasevic/Desktop/blockchain/cdpsaver/contracts/CdpSaver.sol",
  "compiler": {
    "name": "solc",
    "version": "0.5.0+commit.1d4f565a.Emscripten.clang"
  },
  "schemaVersion": "3.0.0",
  "updatedAt": "2018-12-21T13:49:09.616Z",
  "devdoc": {
    "methods": {}
  },
  "userdoc": {
    "methods": {}
  }
}