{
  "contractName": "DSProxyCache",
  "abi": [
    {
      "constant": true,
      "inputs": [
        {
          "name": "_code",
          "type": "bytes"
        }
      ],
      "name": "read",
      "outputs": [
        {
          "name": "",
          "type": "address"
        }
      ],
      "payable": false,
      "stateMutability": "view",
      "type": "function"
    },
    {
      "constant": false,
      "inputs": [
        {
          "name": "_code",
          "type": "bytes"
        }
      ],
      "name": "write",
      "outputs": [
        {
          "name": "target",
          "type": "address"
        }
      ],
      "payable": false,
      "stateMutability": "nonpayable",
      "type": "function"
    }
  ],
  "bytecode": "0x608060405234801561001057600080fd5b5061035b806100206000396000f3fe60806040526004361061004c576000357c0100000000000000000000000000000000000000000000000000000000900463ffffffff1680637ed0c3b2146100515780638bf4515c14610159575b600080fd5b34801561005d57600080fd5b506101176004803603602081101561007457600080fd5b810190808035906020019064010000000081111561009157600080fd5b8201836020820111156100a357600080fd5b803590602001918460018302840111640100000000831117156100c557600080fd5b91908080601f016020809104026020016040519081016040528093929190818152602001838380828437600081840152601f19601f820116905080830192505050505050509192919290505050610261565b604051808273ffffffffffffffffffffffffffffffffffffffff1673ffffffffffffffffffffffffffffffffffffffff16815260200191505060405180910390f35b34801561016557600080fd5b5061021f6004803603602081101561017c57600080fd5b810190808035906020019064010000000081111561019957600080fd5b8201836020820111156101ab57600080fd5b803590602001918460018302840111640100000000831117156101cd57600080fd5b91908080601f016020809104026020016040519081016040528093929190818152602001838380828437600081840152601f19601f8201169050808301925050505050505091929192905050506102e7565b604051808273ffffffffffffffffffffffffffffffffffffffff1673ffffffffffffffffffffffffffffffffffffffff16815260200191505060405180910390f35b60008151602083016000f09050803b156001811461027e57610283565b600080fd5b506000828051906020012090508160008083815260200190815260200160002060006101000a81548173ffffffffffffffffffffffffffffffffffffffff021916908373ffffffffffffffffffffffffffffffffffffffff16021790555050919050565b6000808280519060200120905060008082815260200190815260200160002060009054906101000a900473ffffffffffffffffffffffffffffffffffffffff1691505091905056fea165627a7a72305820ec7f199dacc544c402ba07cef3d9f19f832ef936a2feb4867a9ba68e756e6b8a0029",
  "source": "pragma solidity ^0.5.0;\n\nimport \"./DSAuth.sol\";\nimport \"./DSNote.sol\";\n\ncontract DSProxy is DSAuth, DSNote {\n    DSProxyCache public cache;  // global cache for contracts\n\n    constructor(address _cacheAddr) public {\n        require(setCache(_cacheAddr));\n    }\n\n    function() external payable {\n    }\n\n    // use the proxy to execute calldata _data on contract _code\n    function execute(bytes memory _code, bytes memory _data)\n        public\n        payable\n        returns (address target, bytes32 response)\n    {\n        target = cache.read(_code);\n        if (target == address(0)) {\n            // deploy contract & store its address in cache\n            target = cache.write(_code);\n        }\n\n        response = execute(target, _data);\n    }\n\n    function execute(address _target, bytes memory _data)\n        public\n        auth\n        note\n        payable\n        returns (bytes32 response)\n    {\n        require(_target != address(0));\n\n        // call contract in current context\n        assembly {\n            let succeeded := delegatecall(sub(gas, 5000), _target, add(_data, 0x20), mload(_data), 0, 32)\n            response := mload(0)      // load delegatecall output\n            switch iszero(succeeded)\n            case 1 {\n                // throw if delegatecall failed\n                revert(0, 0)\n            }\n        }\n    }\n\n    //set new cache\n    function setCache(address _cacheAddr)\n        public\n        payable\n        auth\n        note\n        returns (bool)\n    {\n        require(_cacheAddr != address(0));        // invalid cache address\n        cache = DSProxyCache(_cacheAddr);  // overwrite cache\n        return true;\n    }\n}\n\ncontract DSProxyCache {\n    mapping(bytes32 => address) cache;\n\n    function read(bytes memory _code) public view returns (address) {\n        bytes32 hash = keccak256(_code);\n        return cache[hash];\n    }\n\n    function write(bytes memory _code) public returns (address target) {\n        assembly {\n            target := create(0, add(_code, 0x20), mload(_code))\n            switch iszero(extcodesize(target))\n            case 1 {\n                // throw if contract failed to deploy\n                revert(0, 0)\n            }\n        }\n        bytes32 hash = keccak256(_code);\n        cache[hash] = target;\n    }\n}",
  "sourcePath": "/Users/nenadpalinkasevic/Desktop/blockchain/cdpsaver/contracts/DS/DSProxy.sol",
  "compiler": {
    "name": "solc",
    "version": "0.5.0+commit.1d4f565a.Emscripten.clang"
  },
  "schemaVersion": "3.0.0",
  "updatedAt": "2019-01-08T08:07:58.502Z",
  "devdoc": {
    "methods": {}
  },
  "userdoc": {
    "methods": {}
  }
}