{
  "contractName": "MarketplaceAuthority",
  "abi": [
    {
      "constant": true,
      "inputs": [],
      "name": "MARKETPLACE_CONTRACT",
      "outputs": [
        {
          "name": "",
          "type": "address"
        }
      ],
      "payable": false,
      "stateMutability": "view",
      "type": "function"
    },
    {
      "inputs": [
        {
          "name": "_marketplace",
          "type": "address"
        }
      ],
      "payable": false,
      "stateMutability": "nonpayable",
      "type": "constructor"
    },
    {
      "constant": true,
      "inputs": [
        {
          "name": "src",
          "type": "address"
        },
        {
          "name": "dst",
          "type": "address"
        },
        {
          "name": "sig",
          "type": "bytes4"
        }
      ],
      "name": "canCall",
      "outputs": [
        {
          "name": "",
          "type": "bool"
        }
      ],
      "payable": false,
      "stateMutability": "view",
      "type": "function"
    }
  ],
  "bytecode": "0x608060405234801561001057600080fd5b506040516020806103158339810180604052602081101561003057600080fd5b8101908080519060200190929190505050806000806101000a81548173ffffffffffffffffffffffffffffffffffffffff021916908373ffffffffffffffffffffffffffffffffffffffff16021790555050610284806100916000396000f3fe60806040526004361061004c576000357c0100000000000000000000000000000000000000000000000000000000900463ffffffff168063b700961314610051578063d3cd0b9514610103575b600080fd5b34801561005d57600080fd5b506100e96004803603606081101561007457600080fd5b81019080803573ffffffffffffffffffffffffffffffffffffffff169060200190929190803573ffffffffffffffffffffffffffffffffffffffff16906020019092919080357bffffffffffffffffffffffffffffffffffffffffffffffffffffffff1916906020019092919050505061015a565b604051808215151515815260200191505060405180910390f35b34801561010f57600080fd5b50610118610233565b604051808273ffffffffffffffffffffffffffffffffffffffff1673ffffffffffffffffffffffffffffffffffffffff16815260200191505060405180910390f35b6000817bffffffffffffffffffffffffffffffffffffffffffffffffffffffff191660405180807f6578656375746528616464726573732c62797465732900000000000000000000815250601601905060405180910390207bffffffffffffffffffffffffffffffffffffffffffffffffffffffff191614801561022a57506000809054906101000a900473ffffffffffffffffffffffffffffffffffffffff1673ffffffffffffffffffffffffffffffffffffffff168473ffffffffffffffffffffffffffffffffffffffff16145b90509392505050565b6000809054906101000a900473ffffffffffffffffffffffffffffffffffffffff168156fea165627a7a72305820f4eba1c6606ffdacbf956d638ae28786b56e68880bec0f3831045876072980740029",
  "source": "pragma solidity ^0.5.0; \n\n//NOTICE: Prototyping different ideas for interaction with smart contracts\n\ncontract DSAuthority {\n    function canCall(\n        address src, address dst, bytes4 sig\n    ) public view returns (bool);\n}\n\ncontract DSAuthEvents {\n    event LogSetAuthority (address indexed authority);\n    event LogSetOwner     (address indexed owner);\n}\n\ncontract DSAuth is DSAuthEvents {\n    DSAuthority  public  authority;\n    address      public  owner;\n\n    constructor() public {\n        owner = msg.sender;\n        emit LogSetOwner(msg.sender);\n    }\n\n    function setOwner(address owner_)\n        public\n        auth\n    {\n        owner = owner_;\n        emit LogSetOwner(owner);\n    }\n\n    function setAuthority(DSAuthority authority_)\n        public\n        auth\n    {\n        authority = authority_;\n        emit LogSetAuthority(address(authority));\n    }\n\n    modifier auth {\n        require(isAuthorized(msg.sender, msg.sig));\n        _;\n    }\n\n    function isAuthorized(address src, bytes4 sig) internal view returns (bool) {\n        if (src == address(this)) {\n            return true;\n        } else if (src == owner) {\n            return true;\n        } else if (authority == DSAuthority(0)) {\n            return false;\n        } else {\n            return authority.canCall(src, address(this), sig);\n        }\n    }\n}\n\ncontract DSProxyInterface {\n    function execute(bytes memory _code, bytes memory _data) public payable returns (address target, bytes32 response);\n    function execute(address _target, bytes memory _data) public payable returns (bytes32 response);\n}\n\ncontract CDPInterface {\n    function lad(bytes32 cup) public view returns (address);\n\n    function open() public returns (bytes32 cup);\n    function give(bytes32 cup, address guy) public;\n    function lock(bytes32 cup, uint wad) public;\n    function free(bytes32 cup, uint wad) public;\n    function draw(bytes32 cup, uint wad) public;\n    function wipe(bytes32 cup, uint wad) public;\n    function shut(bytes32 cup) public;\n    function bite(bytes32 cup) public;\n}\n\ncontract MarketplaceAuthority is DSAuthority {\n\n    address public MARKETPLACE_CONTRACT;\n\n    constructor(address _marketplace) public {\n        MARKETPLACE_CONTRACT = _marketplace;\n    }\n\n    function canCall(address src, address dst, bytes4 sig) public view returns (bool) {\n        return (bytes4(keccak256(\"execute(address,bytes)\")) == sig) && (src == MARKETPLACE_CONTRACT);\n    }\n}\n\ncontract MarketplaceProxy {\n    \n    address constant TUB_ADDRESS = 0xa71937147b55Deb8a530C7229C442Fd3F31b7db2; //KOVAN\n    CDPInterface cdp = CDPInterface(TUB_ADDRESS);\n    \n    Marketplace public marketplace;\n    \n    constructor(address _marketplace) public {\n        marketplace = Marketplace(_marketplace);\n    }\n    \n    function marketSale(uint _cupId, uint _price) public {\n        marketplace.putOnSale(_cupId, _price);\n    }\n    \n    function transfer(uint _cupId, address _newOwner) public {\n        cdp.give(bytes32(_cupId), _newOwner);\n    }\n}\n\ncontract Marketplace is DSAuth {\n\n    struct SaleItem {\n        uint price;\n        uint time;\n        address payable lad;\n        bool active;\n    }\n    \n\n    mapping (bytes32 => SaleItem) public items;\n    bytes32[] public itemsArr;\n    uint public numItems;\n\n    // address constant TUB_ADDRESS = 0x448a5065aebb8e423f0896e6c5d525c040f59af3;\n    address constant TUB_ADDRESS = 0xa71937147b55Deb8a530C7229C442Fd3F31b7db2; //KOVAN\n\n    CDPInterface cdp = CDPInterface(TUB_ADDRESS);\n\n    event OnSale(bytes32 indexed cup, address indexed lad, uint price);\n    event Bought(bytes32 indexed cup, address indexed newLad, address indexed oldLad, uint price);\n\n    function putOnSale(uint _cup, uint _price) public {\n        bytes32 cup = bytes32(_cup);\n        \n        // require(cdp.lad(cup) == msg.sender, \"msg.sender must be cup owner\");\n\n        items[cup] = SaleItem({\n            price: _price,\n            time: now,\n            lad: msg.sender,\n            active: true\n        });\n\n        itemsArr.push(cup);\n        \n        numItems++;\n        \n        emit OnSale(cup, msg.sender, _price);\n\n    }\n\n    function buy(uint _cup) public payable {\n        bytes32 cup = bytes32(_cup);\n        \n        require(items[cup].active == true, \"Check if cup is on sale\");\n        require(msg.value >= items[cup].price, \"Check if enough ether is sent for this cup\");\n\n        DSProxyInterface usersProxy =  DSProxyInterface(items[cup].lad);\n\n        // give the cup to the buyer, him becoming the lad that owns the cup\n        usersProxy.execute(TUB_ADDRESS, \n            abi.encodeWithSignature(\"give(bytes32, address)\", cup, msg.sender));\n\n        //TODO: take a fee?\n\n        items[cup].lad.transfer(items[cup].price); // transfer money to the seller\n\n        //TODO: delete the sales item\n        items[cup].active = false;\n    }\n\n    function cancel(uint cdpId) public {\n\n    }\n\n}\n\ncontract TestContract {\n    address constant TUB_ADDRESS = 0xa71937147b55Deb8a530C7229C442Fd3F31b7db2; //KOVAN\n\n    CDPInterface cdp = CDPInterface(TUB_ADDRESS);\n    \n    function callSell(uint _cup, uint _price) public pure returns(bytes memory) {\n        bytes memory data = abi.encodeWithSignature(\"marketSale(uint256,uint256)\", _cup, _price);\n        \n        return data;\n\n    }\n    \n    function callM() public pure returns(bytes memory) {\n        bytes memory data = abi.encodeWithSignature(\"callsMarketplace()\");\n        \n        return data;\n\n    }\n    \n    function getOwner(uint _cup) public view returns(address) {\n        bytes32 cup = bytes32(_cup);\n        \n        return cdp.lad(cup);\n    }\n}\n",
  "sourcePath": "/Users/nenadpalinkasevic/Desktop/blockchain/cdpsaver/contracts/Marketplace2.sol",
  "compiler": {
    "name": "solc",
    "version": "0.5.0+commit.1d4f565a.Emscripten.clang"
  },
  "schemaVersion": "3.0.0",
  "updatedAt": "2018-12-19T10:16:01.408Z",
  "devdoc": {
    "methods": {}
  },
  "userdoc": {
    "methods": {}
  }
}