{
  "contractName": "Marketplace",
  "abi": [
    {
      "constant": false,
      "inputs": [
        {
          "name": "owner_",
          "type": "address"
        }
      ],
      "name": "setOwner",
      "outputs": [],
      "payable": false,
      "stateMutability": "nonpayable",
      "type": "function"
    },
    {
      "constant": true,
      "inputs": [
        {
          "name": "",
          "type": "uint256"
        }
      ],
      "name": "itemsArr",
      "outputs": [
        {
          "name": "",
          "type": "bytes32"
        }
      ],
      "payable": false,
      "stateMutability": "view",
      "type": "function"
    },
    {
      "constant": true,
      "inputs": [
        {
          "name": "",
          "type": "bytes32"
        }
      ],
      "name": "items",
      "outputs": [
        {
          "name": "price",
          "type": "uint256"
        },
        {
          "name": "time",
          "type": "uint256"
        },
        {
          "name": "lad",
          "type": "address"
        },
        {
          "name": "active",
          "type": "bool"
        }
      ],
      "payable": false,
      "stateMutability": "view",
      "type": "function"
    },
    {
      "constant": false,
      "inputs": [
        {
          "name": "authority_",
          "type": "address"
        }
      ],
      "name": "setAuthority",
      "outputs": [],
      "payable": false,
      "stateMutability": "nonpayable",
      "type": "function"
    },
    {
      "constant": true,
      "inputs": [],
      "name": "owner",
      "outputs": [
        {
          "name": "",
          "type": "address"
        }
      ],
      "payable": false,
      "stateMutability": "view",
      "type": "function"
    },
    {
      "constant": true,
      "inputs": [],
      "name": "authority",
      "outputs": [
        {
          "name": "",
          "type": "address"
        }
      ],
      "payable": false,
      "stateMutability": "view",
      "type": "function"
    },
    {
      "anonymous": false,
      "inputs": [
        {
          "indexed": true,
          "name": "cup",
          "type": "bytes32"
        },
        {
          "indexed": true,
          "name": "lad",
          "type": "address"
        },
        {
          "indexed": false,
          "name": "price",
          "type": "uint256"
        }
      ],
      "name": "OnSale",
      "type": "event"
    },
    {
      "anonymous": false,
      "inputs": [
        {
          "indexed": true,
          "name": "cup",
          "type": "bytes32"
        },
        {
          "indexed": true,
          "name": "newLad",
          "type": "address"
        },
        {
          "indexed": true,
          "name": "oldLad",
          "type": "address"
        },
        {
          "indexed": false,
          "name": "price",
          "type": "uint256"
        }
      ],
      "name": "Bought",
      "type": "event"
    },
    {
      "anonymous": false,
      "inputs": [
        {
          "indexed": true,
          "name": "authority",
          "type": "address"
        }
      ],
      "name": "LogSetAuthority",
      "type": "event"
    },
    {
      "anonymous": false,
      "inputs": [
        {
          "indexed": true,
          "name": "owner",
          "type": "address"
        }
      ],
      "name": "LogSetOwner",
      "type": "event"
    },
    {
      "constant": false,
      "inputs": [
        {
          "name": "_cup",
          "type": "bytes32"
        },
        {
          "name": "_price",
          "type": "uint256"
        }
      ],
      "name": "putOnSale",
      "outputs": [],
      "payable": false,
      "stateMutability": "nonpayable",
      "type": "function"
    },
    {
      "constant": false,
      "inputs": [
        {
          "name": "_cup",
          "type": "bytes32"
        }
      ],
      "name": "buy",
      "outputs": [],
      "payable": true,
      "stateMutability": "payable",
      "type": "function"
    },
    {
      "constant": false,
      "inputs": [
        {
          "name": "cdpId",
          "type": "uint256"
        }
      ],
      "name": "cancel",
      "outputs": [],
      "payable": false,
      "stateMutability": "nonpayable",
      "type": "function"
    }
  ],
  "bytecode": "0x608060405273a71937147b55deb8a530c7229c442fd3f31b7db2600460006101000a81548173ffffffffffffffffffffffffffffffffffffffff021916908373ffffffffffffffffffffffffffffffffffffffff16021790555033600160006101000a81548173ffffffffffffffffffffffffffffffffffffffff021916908373ffffffffffffffffffffffffffffffffffffffff1602179055503373ffffffffffffffffffffffffffffffffffffffff167fce241d7ca1f669fee44b6fc00b8eba2df3bb514eed0f6f668f8f89096e81ed9460405160405180910390a2610fd4806100ec6000396000f3fe608060405260043610610099576000357c0100000000000000000000000000000000000000000000000000000000900463ffffffff16806313af40351461009e5780631c19eb23146100ef57806340e58ee51461013e57806348f343f3146101795780634db4f9811461020d5780637a9e5e4b146102525780638da5cb5b146102a35780639c9a1061146102fa578063bf7e214f14610328575b600080fd5b3480156100aa57600080fd5b506100ed600480360360208110156100c157600080fd5b81019080803573ffffffffffffffffffffffffffffffffffffffff16906020019092919050505061037f565b005b3480156100fb57600080fd5b506101286004803603602081101561011257600080fd5b8101908080359060200190929190505050610461565b6040518082815260200191505060405180910390f35b34801561014a57600080fd5b506101776004803603602081101561016157600080fd5b8101908080359060200190929190505050610484565b005b34801561018557600080fd5b506101b26004803603602081101561019c57600080fd5b8101908080359060200190929190505050610487565b604051808581526020018481526020018373ffffffffffffffffffffffffffffffffffffffff1673ffffffffffffffffffffffffffffffffffffffff1681526020018215151515815260200194505050505060405180910390f35b34801561021957600080fd5b506102506004803603604081101561023057600080fd5b8101908080359060200190929190803590602001909291905050506104e4565b005b34801561025e57600080fd5b506102a16004803603602081101561027557600080fd5b81019080803573ffffffffffffffffffffffffffffffffffffffff16906020019092919050505061079b565b005b3480156102af57600080fd5b506102b861087b565b604051808273ffffffffffffffffffffffffffffffffffffffff1673ffffffffffffffffffffffffffffffffffffffff16815260200191505060405180910390f35b6103266004803603602081101561031057600080fd5b81019080803590602001909291905050506108a1565b005b34801561033457600080fd5b5061033d610d0e565b604051808273ffffffffffffffffffffffffffffffffffffffff1673ffffffffffffffffffffffffffffffffffffffff16815260200191505060405180910390f35b6103ad336000357fffffffff0000000000000000000000000000000000000000000000000000000016610d33565b15156103b857600080fd5b80600160006101000a81548173ffffffffffffffffffffffffffffffffffffffff021916908373ffffffffffffffffffffffffffffffffffffffff160217905550600160009054906101000a900473ffffffffffffffffffffffffffffffffffffffff1673ffffffffffffffffffffffffffffffffffffffff167fce241d7ca1f669fee44b6fc00b8eba2df3bb514eed0f6f668f8f89096e81ed9460405160405180910390a250565b60038181548110151561047057fe5b906000526020600020016000915090505481565b50565b60026020528060005260406000206000915090508060000154908060010154908060020160009054906101000a900473ffffffffffffffffffffffffffffffffffffffff16908060020160149054906101000a900460ff16905084565b3373ffffffffffffffffffffffffffffffffffffffff16600460009054906101000a900473ffffffffffffffffffffffffffffffffffffffff1673ffffffffffffffffffffffffffffffffffffffff1663de5f5517846040518263ffffffff167c01000000000000000000000000000000000000000000000000000000000281526004018082815260200191505060206040518083038186803b15801561058a57600080fd5b505afa15801561059e573d6000803e3d6000fd5b505050506040513d60208110156105b457600080fd5b810190808051906020019092919050505073ffffffffffffffffffffffffffffffffffffffff16141515610650576040517f08c379a000000000000000000000000000000000000000000000000000000000815260040180806020018281038252601c8152602001807f6d73672e73656e646572206d75737420626520637570206f776e65720000000081525060200191505060405180910390fd5b6080604051908101604052808281526020014281526020013373ffffffffffffffffffffffffffffffffffffffff1681526020016001151581525060026000848152602001908152602001600020600082015181600001556020820151816001015560408201518160020160006101000a81548173ffffffffffffffffffffffffffffffffffffffff021916908373ffffffffffffffffffffffffffffffffffffffff16021790555060608201518160020160146101000a81548160ff02191690831515021790555090505060038290806001815401808255809150509060018203906000526020600020016000909192909190915055503373ffffffffffffffffffffffffffffffffffffffff16827fd9310634db65d7865013c3450ccc956f471c3b8e6f8395daabdc228de3ebf99b836040518082815260200191505060405180910390a35050565b6107c9336000357fffffffff0000000000000000000000000000000000000000000000000000000016610d33565b15156107d457600080fd5b806000806101000a81548173ffffffffffffffffffffffffffffffffffffffff021916908373ffffffffffffffffffffffffffffffffffffffff1602179055506000809054906101000a900473ffffffffffffffffffffffffffffffffffffffff1673ffffffffffffffffffffffffffffffffffffffff167f1abebea81bfa2637f28358c371278fb15ede7ea8dd28d2e03b112ff6d936ada460405160405180910390a250565b600160009054906101000a900473ffffffffffffffffffffffffffffffffffffffff1681565b600115156002600083815260200190815260200160002060020160149054906101000a900460ff161515141515610940576040517f08c379a00000000000000000000000000000000000000000000000000000000081526004018080602001828103825260178152602001807f436865636b20696620637570206973206f6e2073616c6500000000000000000081525060200191505060405180910390fd5b600260008281526020019081526020016000206000015434101515156109f4576040517f08c379a000000000000000000000000000000000000000000000000000000000815260040180806020018281038252602a8152602001807f436865636b20696620656e6f7567682065746865722069732073656e7420666f81526020017f722074686973206375700000000000000000000000000000000000000000000081525060400191505060405180910390fd5b60006002600083815260200190815260200160002060020160009054906101000a900473ffffffffffffffffffffffffffffffffffffffff1690508073ffffffffffffffffffffffffffffffffffffffff16631cff79cd73a71937147b55deb8a530c7229c442fd3f31b7db28433604051602401808381526020018273ffffffffffffffffffffffffffffffffffffffff1673ffffffffffffffffffffffffffffffffffffffff168152602001925050506040516020818303038152906040527f0f0ae483000000000000000000000000000000000000000000000000000000007bffffffffffffffffffffffffffffffffffffffffffffffffffffffff19166020820180517bffffffffffffffffffffffffffffffffffffffffffffffffffffffff83818316178352505050506040518363ffffffff167c0100000000000000000000000000000000000000000000000000000000028152600401808373ffffffffffffffffffffffffffffffffffffffff1673ffffffffffffffffffffffffffffffffffffffff16815260200180602001828103825283818151815260200191508051906020019080838360005b83811015610bbf578082015181840152602081019050610ba4565b50505050905090810190601f168015610bec5780820380516001836020036101000a031916815260200191505b509350505050602060405180830381600087803b158015610c0c57600080fd5b505af1158015610c20573d6000803e3d6000fd5b505050506040513d6020811015610c3657600080fd5b8101908080519060200190929190505050506002600083815260200190815260200160002060020160009054906101000a900473ffffffffffffffffffffffffffffffffffffffff1673ffffffffffffffffffffffffffffffffffffffff166108fc60026000858152602001908152602001600020600001549081150290604051600060405180830381858888f19350505050158015610cda573d6000803e3d6000fd5b5060006002600084815260200190815260200160002060020160146101000a81548160ff0219169083151502179055505050565b6000809054906101000a900473ffffffffffffffffffffffffffffffffffffffff1681565b60003073ffffffffffffffffffffffffffffffffffffffff168373ffffffffffffffffffffffffffffffffffffffff161415610d725760019050610fa2565b600160009054906101000a900473ffffffffffffffffffffffffffffffffffffffff1673ffffffffffffffffffffffffffffffffffffffff168373ffffffffffffffffffffffffffffffffffffffff161415610dd15760019050610fa2565b600073ffffffffffffffffffffffffffffffffffffffff166000809054906101000a900473ffffffffffffffffffffffffffffffffffffffff1673ffffffffffffffffffffffffffffffffffffffff161415610e305760009050610fa2565b6000809054906101000a900473ffffffffffffffffffffffffffffffffffffffff1673ffffffffffffffffffffffffffffffffffffffff1663b70096138430856040518463ffffffff167c0100000000000000000000000000000000000000000000000000000000028152600401808473ffffffffffffffffffffffffffffffffffffffff1673ffffffffffffffffffffffffffffffffffffffff1681526020018373ffffffffffffffffffffffffffffffffffffffff1673ffffffffffffffffffffffffffffffffffffffff168152602001827bffffffffffffffffffffffffffffffffffffffffffffffffffffffff19167bffffffffffffffffffffffffffffffffffffffffffffffffffffffff19168152602001935050505060206040518083038186803b158015610f6457600080fd5b505afa158015610f78573d6000803e3d6000fd5b505050506040513d6020811015610f8e57600080fd5b810190808051906020019092919050505090505b9291505056fea165627a7a723058202103842acaad24cbe4dae21c5661f86e3551233cb06e1b838afab16312cbc7c10029",
  "source": "pragma solidity ^0.5.0;\n\nimport \"./DS/DSProxy.sol\";\nimport \"./interfaces/TubInterface.sol\";\n\ncontract Marketplace is DSAuth {\n\n    struct SaleItem {\n        uint price;\n        uint time;\n        address payable lad;\n        bool active;\n    }\n\n    mapping (bytes32 => SaleItem) public items;\n    bytes32[] public itemsArr;\n\n    // address constant TUB_ADDRESS = 0x448a5065aebb8e423f0896e6c5d525c040f59af3;\n    address constant TUB_ADDRESS = 0xa71937147b55Deb8a530C7229C442Fd3F31b7db2; //KOVAN\n\n    TubInterface cdp = TubInterface(TUB_ADDRESS);\n\n    event OnSale(bytes32 indexed cup, address indexed lad, uint price);\n    event Bought(bytes32 indexed cup, address indexed newLad, address indexed oldLad, uint price);\n\n    function putOnSale(bytes32 _cup, uint _price) public {\n        require(cdp.lad(_cup) == msg.sender, \"msg.sender must be cup owner\");\n\n        items[_cup] = SaleItem({\n            price: _price,\n            time: now,\n            lad: msg.sender,\n            active: true\n        });\n\n        itemsArr.push(_cup);\n\n        emit OnSale(_cup, msg.sender, _price);\n\n    }\n\n    function buy(bytes32 _cup) public payable {\n        require(items[_cup].active == true, \"Check if cup is on sale\");\n        require(msg.value >= items[_cup].price, \"Check if enough ether is sent for this cup\");\n\n        DSProxy usersProxy =  DSProxy(items[_cup].lad);\n\n        // give the cup to the buyer, him becoming the lad that owns the cup\n        usersProxy.execute(TUB_ADDRESS, \n            abi.encodeWithSignature(\"give(bytes32, address)\", _cup, msg.sender));\n\n        //TODO: take a fee?\n\n        items[_cup].lad.transfer(items[_cup].price); // transfer money to the seller\n\n        //TODO: delete the sales item\n        items[_cup].active = false;\n    }\n\n    function cancel(uint cdpId) public {\n\n    }\n\n}\n",
  "sourcePath": "/Users/nenadpalinkasevic/Desktop/blockchain/cdpsaver/contracts/Marketplace.sol",
  "compiler": {
    "name": "solc",
    "version": "0.5.0+commit.1d4f565a.Emscripten.clang"
  },
  "schemaVersion": "3.0.0",
  "updatedAt": "2019-01-15T13:17:18.803Z",
  "devdoc": {
    "methods": {}
  },
  "userdoc": {
    "methods": {}
  }
}