{
  "contractName": "Monitor",
  "abi": [
    {
      "constant": true,
      "inputs": [
        {
          "name": "",
          "type": "address"
        }
      ],
      "name": "hodlers",
      "outputs": [
        {
          "name": "cup",
          "type": "bytes32"
        },
        {
          "name": "minRatio",
          "type": "uint256"
        },
        {
          "name": "timeCreated",
          "type": "uint256"
        },
        {
          "name": "exists",
          "type": "bool"
        }
      ],
      "payable": false,
      "stateMutability": "view",
      "type": "function"
    },
    {
      "constant": true,
      "inputs": [],
      "name": "saverProxy",
      "outputs": [
        {
          "name": "",
          "type": "address"
        }
      ],
      "payable": false,
      "stateMutability": "view",
      "type": "function"
    },
    {
      "inputs": [
        {
          "name": "_saverProxy",
          "type": "address"
        }
      ],
      "payable": false,
      "stateMutability": "nonpayable",
      "type": "constructor"
    },
    {
      "constant": false,
      "inputs": [
        {
          "name": "_cup",
          "type": "bytes32"
        },
        {
          "name": "_minRatio",
          "type": "uint256"
        }
      ],
      "name": "subscribe",
      "outputs": [],
      "payable": false,
      "stateMutability": "nonpayable",
      "type": "function"
    },
    {
      "constant": false,
      "inputs": [
        {
          "name": "_cup",
          "type": "bytes32"
        }
      ],
      "name": "unsubscribe",
      "outputs": [],
      "payable": false,
      "stateMutability": "nonpayable",
      "type": "function"
    },
    {
      "constant": false,
      "inputs": [
        {
          "name": "_user",
          "type": "address"
        }
      ],
      "name": "saveUser",
      "outputs": [],
      "payable": false,
      "stateMutability": "nonpayable",
      "type": "function"
    },
    {
      "constant": false,
      "inputs": [
        {
          "name": "_cdpId",
          "type": "bytes32"
        }
      ],
      "name": "getRatio",
      "outputs": [
        {
          "name": "",
          "type": "uint256"
        }
      ],
      "payable": false,
      "stateMutability": "nonpayable",
      "type": "function"
    }
  ],
  "bytecode": "0x608060405273a944bd4b25c9f186a846fd5668941aa3d3b8425f6000806101000a81548173ffffffffffffffffffffffffffffffffffffffff021916908373ffffffffffffffffffffffffffffffffffffffff16021790555073a71937147b55deb8a530c7229c442fd3f31b7db2600160006101000a81548173ffffffffffffffffffffffffffffffffffffffff021916908373ffffffffffffffffffffffffffffffffffffffff1602179055507364a436ae831c1672ae81f674cab8b6775df3475c600260006101000a81548173ffffffffffffffffffffffffffffffffffffffff021916908373ffffffffffffffffffffffffffffffffffffffff16021790555034801561010e57600080fd5b506040516020806111828339810180604052602081101561012e57600080fd5b810190808051906020019092919050505080600360006101000a81548173ffffffffffffffffffffffffffffffffffffffff021916908373ffffffffffffffffffffffffffffffffffffffff16021790555050610ff2806101906000396000f3fe608060405260043610610078576000357c0100000000000000000000000000000000000000000000000000000000900463ffffffff1680630778f0ac1461007d5780632bd63f0c146100c25780634a3f17e714610111578063500173a11461018f578063ebc723cb146101e0578063f8c6014614610237575b600080fd5b34801561008957600080fd5b506100c0600480360360408110156100a057600080fd5b810190808035906020019092919080359060200190929190505050610272565b005b3480156100ce57600080fd5b506100fb600480360360208110156100e557600080fd5b81019080803590602001909291905050506104e0565b6040518082815260200191505060405180910390f35b34801561011d57600080fd5b506101606004803603602081101561013457600080fd5b81019080803573ffffffffffffffffffffffffffffffffffffffff169060200190929190505050610771565b604051808581526020018481526020018381526020018215151515815260200194505050505060405180910390f35b34801561019b57600080fd5b506101de600480360360208110156101b257600080fd5b81019080803573ffffffffffffffffffffffffffffffffffffffff1690602001909291905050506107ae565b005b3480156101ec57600080fd5b506101f5610c17565b604051808273ffffffffffffffffffffffffffffffffffffffff1673ffffffffffffffffffffffffffffffffffffffff16815260200191505060405180910390f35b34801561024357600080fd5b506102706004803603602081101561025a57600080fd5b8101908080359060200190929190505050610c3d565b005b61027c3383610dab565b151561028757600080fd5b6001609601811015151561029a57600080fd5b6000600260009054906101000a900473ffffffffffffffffffffffffffffffffffffffff1673ffffffffffffffffffffffffffffffffffffffff1663c4552791336040518263ffffffff167c0100000000000000000000000000000000000000000000000000000000028152600401808273ffffffffffffffffffffffffffffffffffffffff1673ffffffffffffffffffffffffffffffffffffffff16815260200191505060206040518083038186803b15801561035757600080fd5b505afa15801561036b573d6000803e3d6000fd5b505050506040513d602081101561038157600080fd5b81019080805190602001909291905050509050600460008273ffffffffffffffffffffffffffffffffffffffff1673ffffffffffffffffffffffffffffffffffffffff16815260200190815260200160002060030160009054906101000a900460ff16156104355781600460008373ffffffffffffffffffffffffffffffffffffffff1673ffffffffffffffffffffffffffffffffffffffff168152602001908152602001600020600101819055506104db565b60806040519081016040528084815260200183815260200142815260200160011515815250600460008373ffffffffffffffffffffffffffffffffffffffff1673ffffffffffffffffffffffffffffffffffffffff16815260200190815260200160002060008201518160000155602082015181600101556040820151816002015560608201518160030160006101000a81548160ff0219169083151502179055509050505b505050565b60006298968061076061068f610681600160009054906101000a900473ffffffffffffffffffffffffffffffffffffffff1673ffffffffffffffffffffffffffffffffffffffff16631f3634ed876040518263ffffffff167c010000000000000000000000000000000000000000000000000000000002815260040180828152602001915050602060405180830381600087803b15801561058057600080fd5b505af1158015610594573d6000803e3d6000fd5b505050506040513d60208110156105aa57600080fd5b8101908080519060200190929190505050600160009054906101000a900473ffffffffffffffffffffffffffffffffffffffff1673ffffffffffffffffffffffffffffffffffffffff166351f910666040518163ffffffff167c0100000000000000000000000000000000000000000000000000000000028152600401602060405180830381600087803b15801561064157600080fd5b505af1158015610655573d6000803e3d6000fd5b505050506040513d602081101561066b57600080fd5b8101908080519060200190929190505050610ef2565b670de0b6b3a7640000610ef2565b600160009054906101000a900473ffffffffffffffffffffffffffffffffffffffff1673ffffffffffffffffffffffffffffffffffffffff1663f7c8d634866040518263ffffffff167c010000000000000000000000000000000000000000000000000000000002815260040180828152602001915050602060405180830381600087803b15801561072057600080fd5b505af1158015610734573d6000803e3d6000fd5b505050506040513d602081101561074a57600080fd5b8101908080519060200190929190505050610f3e565b81151561076957fe5b049050919050565b60046020528060005260406000206000915090508060000154908060010154908060020154908060030160009054906101000a900460ff16905084565b6000600260009054906101000a900473ffffffffffffffffffffffffffffffffffffffff1673ffffffffffffffffffffffffffffffffffffffff1663c4552791836040518263ffffffff167c0100000000000000000000000000000000000000000000000000000000028152600401808273ffffffffffffffffffffffffffffffffffffffff1673ffffffffffffffffffffffffffffffffffffffff16815260200191505060206040518083038186803b15801561086b57600080fd5b505afa15801561087f573d6000803e3d6000fd5b505050506040513d602081101561089557600080fd5b81019080805190602001909291905050509050600073ffffffffffffffffffffffffffffffffffffffff168173ffffffffffffffffffffffffffffffffffffffff16141515156108e457600080fd5b600460008273ffffffffffffffffffffffffffffffffffffffff1673ffffffffffffffffffffffffffffffffffffffff16815260200190815260200160002060030160009054906101000a900460ff16151561093f57600080fd5b600460008273ffffffffffffffffffffffffffffffffffffffff1673ffffffffffffffffffffffffffffffffffffffff168152602001908152602001600020600101546109cd600460008473ffffffffffffffffffffffffffffffffffffffff1673ffffffffffffffffffffffffffffffffffffffff168152602001908152602001600020600001546104e0565b111515156109da57600080fd5b8073ffffffffffffffffffffffffffffffffffffffff16631cff79cd600360009054906101000a900473ffffffffffffffffffffffffffffffffffffffff16600460008573ffffffffffffffffffffffffffffffffffffffff1673ffffffffffffffffffffffffffffffffffffffff1681526020019081526020016000206000015460019004604051602401808281526020019150506040516020818303038152906040527f371fd8e6000000000000000000000000000000000000000000000000000000007bffffffffffffffffffffffffffffffffffffffffffffffffffffffff19166020820180517bffffffffffffffffffffffffffffffffffffffffffffffffffffffff83818316178352505050506040518363ffffffff167c0100000000000000000000000000000000000000000000000000000000028152600401808373ffffffffffffffffffffffffffffffffffffffff1673ffffffffffffffffffffffffffffffffffffffff16815260200180602001828103825283818151815260200191508051906020019080838360005b83811015610b8a578082015181840152602081019050610b6f565b50505050905090810190601f168015610bb75780820380516001836020036101000a031916815260200191505b509350505050602060405180830381600087803b158015610bd757600080fd5b505af1158015610beb573d6000803e3d6000fd5b505050506040513d6020811015610c0157600080fd5b8101908080519060200190929190505050505050565b600360009054906101000a900473ffffffffffffffffffffffffffffffffffffffff1681565b610c473382610dab565b1515610c5257600080fd5b6000600260009054906101000a900473ffffffffffffffffffffffffffffffffffffffff1673ffffffffffffffffffffffffffffffffffffffff1663c4552791336040518263ffffffff167c0100000000000000000000000000000000000000000000000000000000028152600401808273ffffffffffffffffffffffffffffffffffffffff1673ffffffffffffffffffffffffffffffffffffffff16815260200191505060206040518083038186803b158015610d0f57600080fd5b505afa158015610d23573d6000803e3d6000fd5b505050506040513d6020811015610d3957600080fd5b810190808051906020019092919050505090506000600460008373ffffffffffffffffffffffffffffffffffffffff1673ffffffffffffffffffffffffffffffffffffffff16815260200190815260200160002060030160006101000a81548160ff0219169083151502179055505050565b600080600260009054906101000a900473ffffffffffffffffffffffffffffffffffffffff1673ffffffffffffffffffffffffffffffffffffffff1663c4552791856040518263ffffffff167c0100000000000000000000000000000000000000000000000000000000028152600401808273ffffffffffffffffffffffffffffffffffffffff1673ffffffffffffffffffffffffffffffffffffffff16815260200191505060206040518083038186803b158015610e6957600080fd5b505afa158015610e7d573d6000803e3d6000fd5b505050506040513d6020811015610e9357600080fd5b81019080805190602001909291905050509050600073ffffffffffffffffffffffffffffffffffffffff168173ffffffffffffffffffffffffffffffffffffffff16141515610ee6576001915050610eec565b60009150505b92915050565b60006b033b2e3c9fd0803ce8000000610f2c610f0e8585610f7a565b60026b033b2e3c9fd0803ce8000000811515610f2657fe5b04610faa565b811515610f3557fe5b04905092915050565b600081610f68610f5685670de0b6b3a7640000610f7a565b600285811515610f6257fe5b04610faa565b811515610f7157fe5b04905092915050565b600080821480610f9957508282838502925082811515610f9657fe5b04145b1515610fa457600080fd5b92915050565b60008282840191508110151515610fc057600080fd5b9291505056fea165627a7a72305820e93a3e10ab732ebbeb2cff238b544c7b21339dbf03374be88337c32c718a55a90029",
  "source": "pragma solidity ^0.5.0;\n\nimport \"./interfaces/TubInterface.sol\";\nimport \"./interfaces/ProxyRegistryInterface.sol\";\nimport \"./interfaces/ERC20.sol\";\nimport \"./DS/DSMath.sol\";\nimport \"./DS/DSProxy.sol\";\n\ncontract Monitor is DSMath {\n\n    PipInterface pip = PipInterface(0xA944bd4b25C9F186A846fd5668941AA3d3B8425F); //KOVAN\n    TubInterface tub = TubInterface(0xa71937147b55Deb8a530C7229C442Fd3F31b7db2); //KOVAN\n    ProxyRegistryInterface registry = ProxyRegistryInterface(0x64A436ae831C1672AE81F674CAb8B6775df3475C); //KOVAN\n\n    address public saverProxy;\n\n    struct CupHolder {\n        bytes32 cup;\n        uint minRatio;\n        uint timeCreated;\n        bool exists;\n    }\n\n    uint constant MIN_RATIO = 150;\n\n    mapping(address => CupHolder) public hodlers;\n\n    constructor(address _saverProxy) public {\n        saverProxy = _saverProxy;\n    }\n\n    //TODO: what if user changes the proxy or cdp changes owners??\n    function subscribe(bytes32 _cup, uint _minRatio) public {\n        require(isOwner(msg.sender, _cup));\n        require(_minRatio >= MIN_RATIO + 1);\n\n        DSProxy proxy = registry.proxies(msg.sender);\n\n        if (hodlers[address(proxy)].exists) {\n            hodlers[address(proxy)].minRatio = _minRatio;\n        } else {\n            hodlers[address(proxy)] = CupHolder({\n                cup: _cup,\n                minRatio: _minRatio,\n                timeCreated: now,\n                exists: true\n            });\n        }\n    }\n\n    function unsubscribe(bytes32 _cup) public {\n        require(isOwner(msg.sender, _cup));\n\n        DSProxy proxy = registry.proxies(msg.sender);\n\n        hodlers[address(proxy)].exists = false;\n    }\n\n    function saveUser(address payable _user) public {\n        DSProxy proxy = registry.proxies(_user);\n\n        require(address(proxy) != address(0));\n        require(hodlers[address(proxy)].exists);\n        require(getRatio(hodlers[address(proxy)].cup) <= hodlers[address(proxy)].minRatio);\n\n        proxy.execute(saverProxy, abi.encodeWithSignature(\"repay(uint256)\", uint(hodlers[address(proxy)].cup)));\n\n    }\n\n    function getRatio(bytes32 _cdpId) public returns(uint) {\n        return (wdiv(rmul(rmul(tub.ink(_cdpId), tub.tag()), WAD), tub.tab(_cdpId)))/10000000;\n    }\n\n    function isOwner(address _owner, bytes32 _cup) internal returns(bool) {\n         DSProxy reg = registry.proxies(_owner);\n         \n         if(address(reg) != address(0x0)) {\n             return true;\n         }\n        \n        return false;\n    }\n}",
  "sourcePath": "/Users/nenadpalinkasevic/Desktop/blockchain/cdpsaver/contracts/Monitor.sol",
  "compiler": {
    "name": "solc",
    "version": "0.5.0+commit.1d4f565a.Emscripten.clang"
  },
  "schemaVersion": "3.0.0",
  "updatedAt": "2019-01-15T13:17:19.681Z",
  "devdoc": {
    "methods": {}
  },
  "userdoc": {
    "methods": {}
  }
}