{
  "contractName": "Monitor",
  "abi": [
    {
      "constant": false,
      "inputs": [
        {
          "name": "_cupId",
          "type": "uint256"
        }
      ],
      "name": "saveUser",
      "outputs": [],
      "payable": false,
      "stateMutability": "nonpayable",
      "type": "function"
    }
  ],
  "bytecode": "0x608060405234801561001057600080fd5b5060aa8061001f6000396000f3fe608060405260043610603f576000357c0100000000000000000000000000000000000000000000000000000000900463ffffffff168063e3c124da146044575b600080fd5b348015604f57600080fd5b50607960048036036020811015606457600080fd5b8101908080359060200190929190505050607b565b005b5056fea165627a7a723058209fa7fd7e5e8337a91ef05d3ea8b133be842de9b44bda39a02d820af6d755d6ac0029",
  "source": "pragma solidity ^0.5.0;\n\ncontract Monitor {\n\n    //TODO: called by the bots, to trigger a function to repay the users cdp to avoid liquidation\n    function saveUser(uint _cupId) public {\n\n    }\n\n}",
  "sourcePath": "/Users/nenadpalinkasevic/Desktop/blockchain/cdpsaver/contracts/Monitor.sol",
  "compiler": {
    "name": "solc",
    "version": "0.5.0+commit.1d4f565a.Emscripten.clang"
  },
  "schemaVersion": "3.0.0",
  "updatedAt": "2019-01-08T08:34:23.712Z",
  "devdoc": {
    "methods": {}
  },
  "userdoc": {
    "methods": {}
  }
}