{
  "contractName": "SaiProxy",
  "abi": [
    {
      "constant": false,
      "inputs": [
        {
          "name": "tub_",
          "type": "address"
        }
      ],
      "name": "open",
      "outputs": [
        {
          "name": "",
          "type": "bytes32"
        }
      ],
      "payable": false,
      "stateMutability": "nonpayable",
      "type": "function"
    },
    {
      "constant": false,
      "inputs": [
        {
          "name": "tub_",
          "type": "address"
        },
        {
          "name": "cup",
          "type": "bytes32"
        },
        {
          "name": "lad",
          "type": "address"
        }
      ],
      "name": "give",
      "outputs": [],
      "payable": false,
      "stateMutability": "nonpayable",
      "type": "function"
    },
    {
      "constant": false,
      "inputs": [
        {
          "name": "tub_",
          "type": "address"
        },
        {
          "name": "cup",
          "type": "bytes32"
        }
      ],
      "name": "lock",
      "outputs": [],
      "payable": true,
      "stateMutability": "payable",
      "type": "function"
    },
    {
      "constant": false,
      "inputs": [
        {
          "name": "tub_",
          "type": "address"
        },
        {
          "name": "cup",
          "type": "bytes32"
        },
        {
          "name": "wad",
          "type": "uint256"
        }
      ],
      "name": "draw",
      "outputs": [],
      "payable": false,
      "stateMutability": "nonpayable",
      "type": "function"
    },
    {
      "constant": false,
      "inputs": [
        {
          "name": "tub_",
          "type": "address"
        },
        {
          "name": "cup",
          "type": "bytes32"
        },
        {
          "name": "wad",
          "type": "uint256"
        },
        {
          "name": "otc_",
          "type": "address"
        },
        {
          "name": "fromContract",
          "type": "bool"
        }
      ],
      "name": "wipe",
      "outputs": [],
      "payable": false,
      "stateMutability": "nonpayable",
      "type": "function"
    },
    {
      "constant": false,
      "inputs": [
        {
          "name": "tub_",
          "type": "address"
        },
        {
          "name": "cup",
          "type": "bytes32"
        },
        {
          "name": "wad",
          "type": "uint256"
        },
        {
          "name": "fromContract",
          "type": "bool"
        }
      ],
      "name": "wipe",
      "outputs": [],
      "payable": false,
      "stateMutability": "nonpayable",
      "type": "function"
    },
    {
      "constant": false,
      "inputs": [
        {
          "name": "tub_",
          "type": "address"
        },
        {
          "name": "cup",
          "type": "bytes32"
        },
        {
          "name": "jam",
          "type": "uint256"
        },
        {
          "name": "fromContract",
          "type": "bool"
        }
      ],
      "name": "free",
      "outputs": [],
      "payable": false,
      "stateMutability": "nonpayable",
      "type": "function"
    },
    {
      "constant": false,
      "inputs": [
        {
          "name": "tub_",
          "type": "address"
        },
        {
          "name": "cup",
          "type": "bytes32"
        },
        {
          "name": "wad",
          "type": "uint256"
        }
      ],
      "name": "lockAndDraw",
      "outputs": [],
      "payable": true,
      "stateMutability": "payable",
      "type": "function"
    },
    {
      "constant": false,
      "inputs": [
        {
          "name": "tub_",
          "type": "address"
        },
        {
          "name": "wad",
          "type": "uint256"
        }
      ],
      "name": "lockAndDraw",
      "outputs": [
        {
          "name": "cup",
          "type": "bytes32"
        }
      ],
      "payable": true,
      "stateMutability": "payable",
      "type": "function"
    },
    {
      "constant": false,
      "inputs": [
        {
          "name": "tub_",
          "type": "address"
        },
        {
          "name": "cup",
          "type": "bytes32"
        },
        {
          "name": "jam",
          "type": "uint256"
        },
        {
          "name": "wad",
          "type": "uint256"
        }
      ],
      "name": "wipeAndFree",
      "outputs": [],
      "payable": true,
      "stateMutability": "payable",
      "type": "function"
    },
    {
      "constant": false,
      "inputs": [
        {
          "name": "tub_",
          "type": "address"
        },
        {
          "name": "cup",
          "type": "bytes32"
        },
        {
          "name": "jam",
          "type": "uint256"
        },
        {
          "name": "wad",
          "type": "uint256"
        },
        {
          "name": "otc_",
          "type": "address"
        }
      ],
      "name": "wipeAndFree",
      "outputs": [],
      "payable": true,
      "stateMutability": "payable",
      "type": "function"
    },
    {
      "constant": false,
      "inputs": [
        {
          "name": "tub_",
          "type": "address"
        },
        {
          "name": "cup",
          "type": "bytes32"
        }
      ],
      "name": "shut",
      "outputs": [],
      "payable": false,
      "stateMutability": "nonpayable",
      "type": "function"
    },
    {
      "constant": false,
      "inputs": [
        {
          "name": "tub_",
          "type": "address"
        },
        {
          "name": "cup",
          "type": "bytes32"
        },
        {
          "name": "otc_",
          "type": "address"
        }
      ],
      "name": "shut",
      "outputs": [],
      "payable": false,
      "stateMutability": "nonpayable",
      "type": "function"
    }
  ],
  "bytecode": "0x608060405234801561001057600080fd5b5061385a806100206000396000f3fe6080604052600436106100c5576000357c0100000000000000000000000000000000000000000000000000000000900463ffffffff1680630344a36f146100ca5780631b9681601461012f5780631edf0c1e146101b1578063516e9aec146102095780635612a8b71461026b5780636905ede6146102dc578063792037e31461036d578063b95460f8146103e8578063bc244c111461044d578063bc25a810146104a8578063da93dfcf146104f6578063edcd503f14610571578063faed77ab146105e2575b600080fd5b3480156100d657600080fd5b5061012d600480360360608110156100ed57600080fd5b81019080803573ffffffffffffffffffffffffffffffffffffffff1690602001909291908035906020019092919080359060200190929190505050610644565b005b6101af600480360360a081101561014557600080fd5b81019080803573ffffffffffffffffffffffffffffffffffffffff169060200190929190803590602001909291908035906020019092919080359060200190929190803573ffffffffffffffffffffffffffffffffffffffff169060200190929190505050610865565b005b610207600480360360608110156101c757600080fd5b81019080803573ffffffffffffffffffffffffffffffffffffffff1690602001909291908035906020019092919080359060200190929190505050610887565b005b6102556004803603604081101561021f57600080fd5b81019080803573ffffffffffffffffffffffffffffffffffffffff169060200190929190803590602001909291905050506108a1565b6040518082815260200191505060405180910390f35b34801561027757600080fd5b506102da6004803603608081101561028e57600080fd5b81019080803573ffffffffffffffffffffffffffffffffffffffff16906020019092919080359060200190929190803590602001909291908035151590602001909291905050506108bf565b005b3480156102e857600080fd5b5061036b600480360360a08110156102ff57600080fd5b81019080803573ffffffffffffffffffffffffffffffffffffffff1690602001909291908035906020019092919080359060200190929190803573ffffffffffffffffffffffffffffffffffffffff169060200190929190803515159060200190929190505050610f56565b005b34801561037957600080fd5b506103e66004803603606081101561039057600080fd5b81019080803573ffffffffffffffffffffffffffffffffffffffff16906020019092919080359060200190929190803573ffffffffffffffffffffffffffffffffffffffff1690602001909291905050506119b8565b005b3480156103f457600080fd5b506104376004803603602081101561040b57600080fd5b81019080803573ffffffffffffffffffffffffffffffffffffffff169060200190929190505050611c50565b6040518082815260200191505060405180910390f35b34801561045957600080fd5b506104a66004803603604081101561047057600080fd5b81019080803573ffffffffffffffffffffffffffffffffffffffff16906020019092919080359060200190929190505050611cf8565b005b6104f4600480360360408110156104be57600080fd5b81019080803573ffffffffffffffffffffffffffffffffffffffff16906020019092919080359060200190929190505050611f8e565b005b34801561050257600080fd5b5061056f6004803603606081101561051957600080fd5b81019080803573ffffffffffffffffffffffffffffffffffffffff16906020019092919080359060200190929190803573ffffffffffffffffffffffffffffffffffffffff169060200190929190505050612914565b005b34801561057d57600080fd5b506105e06004803603608081101561059457600080fd5b81019080803573ffffffffffffffffffffffffffffffffffffffff16906020019092919080359060200190929190803590602001909291908035151590602001909291905050506129d4565b005b610642600480360360808110156105f857600080fd5b81019080803573ffffffffffffffffffffffffffffffffffffffff1690602001909291908035906020019092919080359060200190929190803590602001909291905050506129e8565b005b60008111156108605760008390508073ffffffffffffffffffffffffffffffffffffffff1663440f19ba84846040518363ffffffff167c01000000000000000000000000000000000000000000000000000000000281526004018083815260200182815260200192505050600060405180830381600087803b1580156106c957600080fd5b505af11580156106dd573d6000803e3d6000fd5b505050508073ffffffffffffffffffffffffffffffffffffffff16639166cba46040518163ffffffff167c0100000000000000000000000000000000000000000000000000000000028152600401602060405180830381600087803b15801561074557600080fd5b505af1158015610759573d6000803e3d6000fd5b505050506040513d602081101561076f57600080fd5b810190808051906020019092919050505073ffffffffffffffffffffffffffffffffffffffff1663a9059cbb33846040518363ffffffff167c0100000000000000000000000000000000000000000000000000000000028152600401808373ffffffffffffffffffffffffffffffffffffffff1673ffffffffffffffffffffffffffffffffffffffff16815260200182815260200192505050602060405180830381600087803b15801561082257600080fd5b505af1158015610836573d6000803e3d6000fd5b505050506040513d602081101561084c57600080fd5b810190808051906020019092919050505050505b505050565b610873858584846000610f56565b61088085858560006108bf565b5050505050565b6108918383611f8e565b61089c838383610644565b505050565b60006108ac83611c50565b90506108b9838284610887565b92915050565b6000821115610f505760008490506000610977848373ffffffffffffffffffffffffffffffffffffffff16637ec9c3b86040518163ffffffff167c0100000000000000000000000000000000000000000000000000000000028152600401602060405180830381600087803b15801561093757600080fd5b505af115801561094b573d6000803e3d6000fd5b505050506040513d602081101561096157600080fd5b8101908080519060200190929190505050612a08565b90508173ffffffffffffffffffffffffffffffffffffffff1663a5cd184e86836040518363ffffffff167c01000000000000000000000000000000000000000000000000000000000281526004018083815260200182815260200192505050600060405180830381600087803b1580156109f057600080fd5b505af1158015610a04573d6000803e3d6000fd5b505050507fffffffffffffffffffffffffffffffffffffffffffffffffffffffffffffffff8273ffffffffffffffffffffffffffffffffffffffff16630f8a771e6040518163ffffffff167c0100000000000000000000000000000000000000000000000000000000028152600401602060405180830381600087803b158015610a8d57600080fd5b505af1158015610aa1573d6000803e3d6000fd5b505050506040513d6020811015610ab757600080fd5b810190808051906020019092919050505073ffffffffffffffffffffffffffffffffffffffff1663dd62ed3e30856040518363ffffffff167c0100000000000000000000000000000000000000000000000000000000028152600401808373ffffffffffffffffffffffffffffffffffffffff1673ffffffffffffffffffffffffffffffffffffffff1681526020018273ffffffffffffffffffffffffffffffffffffffff1673ffffffffffffffffffffffffffffffffffffffff16815260200192505050602060405180830381600087803b158015610b9657600080fd5b505af1158015610baa573d6000803e3d6000fd5b505050506040513d6020811015610bc057600080fd5b8101908080519060200190929190505050141515610d52578173ffffffffffffffffffffffffffffffffffffffff16630f8a771e6040518163ffffffff167c0100000000000000000000000000000000000000000000000000000000028152600401602060405180830381600087803b158015610c3c57600080fd5b505af1158015610c50573d6000803e3d6000fd5b505050506040513d6020811015610c6657600080fd5b810190808051906020019092919050505073ffffffffffffffffffffffffffffffffffffffff1663095ea7b3837fffffffffffffffffffffffffffffffffffffffffffffffffffffffffffffffff6040518363ffffffff167c0100000000000000000000000000000000000000000000000000000000028152600401808373ffffffffffffffffffffffffffffffffffffffff1673ffffffffffffffffffffffffffffffffffffffff16815260200182815260200192505050600060405180830381600087803b158015610d3957600080fd5b505af1158015610d4d573d6000803e3d6000fd5b505050505b8173ffffffffffffffffffffffffffffffffffffffff16637f8661a1826040518263ffffffff167c010000000000000000000000000000000000000000000000000000000002815260040180828152602001915050600060405180830381600087803b158015610dc157600080fd5b505af1158015610dd5573d6000803e3d6000fd5b505050508173ffffffffffffffffffffffffffffffffffffffff16637bd2bea76040518163ffffffff167c0100000000000000000000000000000000000000000000000000000000028152600401602060405180830381600087803b158015610e3d57600080fd5b505af1158015610e51573d6000803e3d6000fd5b505050506040513d6020811015610e6757600080fd5b810190808051906020019092919050505073ffffffffffffffffffffffffffffffffffffffff16632e1a7d4d856040518263ffffffff167c010000000000000000000000000000000000000000000000000000000002815260040180828152602001915050600060405180830381600087803b158015610ee657600080fd5b505af1158015610efa573d6000803e3d6000fd5b50505050821515610f4d573373ffffffffffffffffffffffffffffffffffffffff166108fc859081150290604051600060405180830381858888f19350505050158015610f4b573d6000803e3d6000fd5b505b50505b50505050565b60008311156119b157600085905081151561128c578073ffffffffffffffffffffffffffffffffffffffff16639166cba46040518163ffffffff167c0100000000000000000000000000000000000000000000000000000000028152600401602060405180830381600087803b158015610fcf57600080fd5b505af1158015610fe3573d6000803e3d6000fd5b505050506040513d6020811015610ff957600080fd5b810190808051906020019092919050505073ffffffffffffffffffffffffffffffffffffffff166323b872dd3330876040518463ffffffff167c0100000000000000000000000000000000000000000000000000000000028152600401808473ffffffffffffffffffffffffffffffffffffffff1673ffffffffffffffffffffffffffffffffffffffff1681526020018373ffffffffffffffffffffffffffffffffffffffff1673ffffffffffffffffffffffffffffffffffffffff1681526020018281526020019350505050602060405180830381600087803b1580156110e057600080fd5b505af11580156110f4573d6000803e3d6000fd5b505050506040513d602081101561110a57600080fd5b81019080805190602001909291905050505061128b81611285866112808573ffffffffffffffffffffffffffffffffffffffff16636f78ee0d8b6040518263ffffffff167c010000000000000000000000000000000000000000000000000000000002815260040180828152602001915050602060405180830381600087803b15801561119657600080fd5b505af11580156111aa573d6000803e3d6000fd5b505050506040513d60208110156111c057600080fd5b81019080805190602001909291905050508673ffffffffffffffffffffffffffffffffffffffff1663f7c8d6348c6040518263ffffffff167c010000000000000000000000000000000000000000000000000000000002815260040180828152602001915050602060405180830381600087803b15801561124057600080fd5b505af1158015611254573d6000803e3d6000fd5b505050506040513d602081101561126a57600080fd5b8101908080519060200190929190505050612a08565b612a48565b85612a94565b5b7fffffffffffffffffffffffffffffffffffffffffffffffffffffffffffffffff8173ffffffffffffffffffffffffffffffffffffffff16639166cba46040518163ffffffff167c0100000000000000000000000000000000000000000000000000000000028152600401602060405180830381600087803b15801561131157600080fd5b505af1158015611325573d6000803e3d6000fd5b505050506040513d602081101561133b57600080fd5b810190808051906020019092919050505073ffffffffffffffffffffffffffffffffffffffff1663dd62ed3e30846040518363ffffffff167c0100000000000000000000000000000000000000000000000000000000028152600401808373ffffffffffffffffffffffffffffffffffffffff1673ffffffffffffffffffffffffffffffffffffffff1681526020018273ffffffffffffffffffffffffffffffffffffffff1673ffffffffffffffffffffffffffffffffffffffff16815260200192505050602060405180830381600087803b15801561141a57600080fd5b505af115801561142e573d6000803e3d6000fd5b505050506040513d602081101561144457600080fd5b81019080805190602001909291905050501415156115d6578073ffffffffffffffffffffffffffffffffffffffff16639166cba46040518163ffffffff167c0100000000000000000000000000000000000000000000000000000000028152600401602060405180830381600087803b1580156114c057600080fd5b505af11580156114d4573d6000803e3d6000fd5b505050506040513d60208110156114ea57600080fd5b810190808051906020019092919050505073ffffffffffffffffffffffffffffffffffffffff1663095ea7b3827fffffffffffffffffffffffffffffffffffffffffffffffffffffffffffffffff6040518363ffffffff167c0100000000000000000000000000000000000000000000000000000000028152600401808373ffffffffffffffffffffffffffffffffffffffff1673ffffffffffffffffffffffffffffffffffffffff16815260200182815260200192505050600060405180830381600087803b1580156115bd57600080fd5b505af11580156115d1573d6000803e3d6000fd5b505050505b7fffffffffffffffffffffffffffffffffffffffffffffffffffffffffffffffff8173ffffffffffffffffffffffffffffffffffffffff166312d43a516040518163ffffffff167c0100000000000000000000000000000000000000000000000000000000028152600401602060405180830381600087803b15801561165b57600080fd5b505af115801561166f573d6000803e3d6000fd5b505050506040513d602081101561168557600080fd5b810190808051906020019092919050505073ffffffffffffffffffffffffffffffffffffffff1663dd62ed3e30846040518363ffffffff167c0100000000000000000000000000000000000000000000000000000000028152600401808373ffffffffffffffffffffffffffffffffffffffff1673ffffffffffffffffffffffffffffffffffffffff1681526020018273ffffffffffffffffffffffffffffffffffffffff1673ffffffffffffffffffffffffffffffffffffffff16815260200192505050602060405180830381600087803b15801561176457600080fd5b505af1158015611778573d6000803e3d6000fd5b505050506040513d602081101561178e57600080fd5b8101908080519060200190929190505050141515611920578073ffffffffffffffffffffffffffffffffffffffff166312d43a516040518163ffffffff167c0100000000000000000000000000000000000000000000000000000000028152600401602060405180830381600087803b15801561180a57600080fd5b505af115801561181e573d6000803e3d6000fd5b505050506040513d602081101561183457600080fd5b810190808051906020019092919050505073ffffffffffffffffffffffffffffffffffffffff1663095ea7b3827fffffffffffffffffffffffffffffffffffffffffffffffffffffffffffffffff6040518363ffffffff167c0100000000000000000000000000000000000000000000000000000000028152600401808373ffffffffffffffffffffffffffffffffffffffff1673ffffffffffffffffffffffffffffffffffffffff16815260200182815260200192505050600060405180830381600087803b15801561190757600080fd5b505af115801561191b573d6000803e3d6000fd5b505050505b8073ffffffffffffffffffffffffffffffffffffffff166373b3810186866040518363ffffffff167c01000000000000000000000000000000000000000000000000000000000281526004018083815260200182815260200192505050600060405180830381600087803b15801561199757600080fd5b505af11580156119ab573d6000803e3d6000fd5b50505050505b5050505050565b6000839050611bc38484611b138473ffffffffffffffffffffffffffffffffffffffff16631f3634ed886040518263ffffffff167c010000000000000000000000000000000000000000000000000000000002815260040180828152602001915050602060405180830381600087803b158015611a3457600080fd5b505af1158015611a48573d6000803e3d6000fd5b505050506040513d6020811015611a5e57600080fd5b81019080805190602001909291905050508573ffffffffffffffffffffffffffffffffffffffff16637ec9c3b86040518163ffffffff167c0100000000000000000000000000000000000000000000000000000000028152600401602060405180830381600087803b158015611ad357600080fd5b505af1158015611ae7573d6000803e3d6000fd5b505050506040513d6020811015611afd57600080fd5b8101908080519060200190929190505050612a48565b8473ffffffffffffffffffffffffffffffffffffffff1663f7c8d634886040518263ffffffff167c010000000000000000000000000000000000000000000000000000000002815260040180828152602001915050602060405180830381600087803b158015611b8257600080fd5b505af1158015611b96573d6000803e3d6000fd5b505050506040513d6020811015611bac57600080fd5b810190808051906020019092919050505086610865565b8073ffffffffffffffffffffffffffffffffffffffff1663b84d2106846040518263ffffffff167c010000000000000000000000000000000000000000000000000000000002815260040180828152602001915050600060405180830381600087803b158015611c3257600080fd5b505af1158015611c46573d6000803e3d6000fd5b5050505050505050565b60008173ffffffffffffffffffffffffffffffffffffffff1663fcfff16f6040518163ffffffff167c0100000000000000000000000000000000000000000000000000000000028152600401602060405180830381600087803b158015611cb657600080fd5b505af1158015611cca573d6000803e3d6000fd5b505050506040513d6020811015611ce057600080fd5b81019080805190602001909291905050509050919050565b6000829050611f028383611e538473ffffffffffffffffffffffffffffffffffffffff16631f3634ed876040518263ffffffff167c010000000000000000000000000000000000000000000000000000000002815260040180828152602001915050602060405180830381600087803b158015611d7457600080fd5b505af1158015611d88573d6000803e3d6000fd5b505050506040513d6020811015611d9e57600080fd5b81019080805190602001909291905050508573ffffffffffffffffffffffffffffffffffffffff16637ec9c3b86040518163ffffffff167c0100000000000000000000000000000000000000000000000000000000028152600401602060405180830381600087803b158015611e1357600080fd5b505af1158015611e27573d6000803e3d6000fd5b505050506040513d6020811015611e3d57600080fd5b8101908080519060200190929190505050612a48565b8473ffffffffffffffffffffffffffffffffffffffff1663f7c8d634876040518263ffffffff167c010000000000000000000000000000000000000000000000000000000002815260040180828152602001915050602060405180830381600087803b158015611ec257600080fd5b505af1158015611ed6573d6000803e3d6000fd5b505050506040513d6020811015611eec57600080fd5b81019080805190602001909291905050506129e8565b8073ffffffffffffffffffffffffffffffffffffffff1663b84d2106836040518263ffffffff167c010000000000000000000000000000000000000000000000000000000002815260040180828152602001915050600060405180830381600087803b158015611f7157600080fd5b505af1158015611f85573d6000803e3d6000fd5b50505050505050565b60003411156129105760008290508073ffffffffffffffffffffffffffffffffffffffff16637bd2bea76040518163ffffffff167c0100000000000000000000000000000000000000000000000000000000028152600401602060405180830381600087803b15801561200057600080fd5b505af1158015612014573d6000803e3d6000fd5b505050506040513d602081101561202a57600080fd5b810190808051906020019092919050505073ffffffffffffffffffffffffffffffffffffffff1663d0e30db0346040518263ffffffff167c01000000000000000000000000000000000000000000000000000000000281526004016000604051808303818588803b15801561209e57600080fd5b505af11580156120b2573d6000803e3d6000fd5b50505050506000612161348373ffffffffffffffffffffffffffffffffffffffff16637ec9c3b86040518163ffffffff167c0100000000000000000000000000000000000000000000000000000000028152600401602060405180830381600087803b15801561212157600080fd5b505af1158015612135573d6000803e3d6000fd5b505050506040513d602081101561214b57600080fd5b8101908080519060200190929190505050612a08565b90507fffffffffffffffffffffffffffffffffffffffffffffffffffffffffffffffff8273ffffffffffffffffffffffffffffffffffffffff16637bd2bea76040518163ffffffff167c0100000000000000000000000000000000000000000000000000000000028152600401602060405180830381600087803b1580156121e857600080fd5b505af11580156121fc573d6000803e3d6000fd5b505050506040513d602081101561221257600080fd5b810190808051906020019092919050505073ffffffffffffffffffffffffffffffffffffffff1663dd62ed3e30856040518363ffffffff167c0100000000000000000000000000000000000000000000000000000000028152600401808373ffffffffffffffffffffffffffffffffffffffff1673ffffffffffffffffffffffffffffffffffffffff1681526020018273ffffffffffffffffffffffffffffffffffffffff1673ffffffffffffffffffffffffffffffffffffffff16815260200192505050602060405180830381600087803b1580156122f157600080fd5b505af1158015612305573d6000803e3d6000fd5b505050506040513d602081101561231b57600080fd5b81019080805190602001909291905050501415156124ad578173ffffffffffffffffffffffffffffffffffffffff16637bd2bea76040518163ffffffff167c0100000000000000000000000000000000000000000000000000000000028152600401602060405180830381600087803b15801561239757600080fd5b505af11580156123ab573d6000803e3d6000fd5b505050506040513d60208110156123c157600080fd5b810190808051906020019092919050505073ffffffffffffffffffffffffffffffffffffffff1663095ea7b3837fffffffffffffffffffffffffffffffffffffffffffffffffffffffffffffffff6040518363ffffffff167c0100000000000000000000000000000000000000000000000000000000028152600401808373ffffffffffffffffffffffffffffffffffffffff1673ffffffffffffffffffffffffffffffffffffffff16815260200182815260200192505050600060405180830381600087803b15801561249457600080fd5b505af11580156124a8573d6000803e3d6000fd5b505050505b8173ffffffffffffffffffffffffffffffffffffffff1663049878f3826040518263ffffffff167c010000000000000000000000000000000000000000000000000000000002815260040180828152602001915050600060405180830381600087803b15801561251c57600080fd5b505af1158015612530573d6000803e3d6000fd5b505050507fffffffffffffffffffffffffffffffffffffffffffffffffffffffffffffffff8273ffffffffffffffffffffffffffffffffffffffff16630f8a771e6040518163ffffffff167c0100000000000000000000000000000000000000000000000000000000028152600401602060405180830381600087803b1580156125b957600080fd5b505af11580156125cd573d6000803e3d6000fd5b505050506040513d60208110156125e357600080fd5b810190808051906020019092919050505073ffffffffffffffffffffffffffffffffffffffff1663dd62ed3e30856040518363ffffffff167c0100000000000000000000000000000000000000000000000000000000028152600401808373ffffffffffffffffffffffffffffffffffffffff1673ffffffffffffffffffffffffffffffffffffffff1681526020018273ffffffffffffffffffffffffffffffffffffffff1673ffffffffffffffffffffffffffffffffffffffff16815260200192505050602060405180830381600087803b1580156126c257600080fd5b505af11580156126d6573d6000803e3d6000fd5b505050506040513d60208110156126ec57600080fd5b810190808051906020019092919050505014151561287e578173ffffffffffffffffffffffffffffffffffffffff16630f8a771e6040518163ffffffff167c0100000000000000000000000000000000000000000000000000000000028152600401602060405180830381600087803b15801561276857600080fd5b505af115801561277c573d6000803e3d6000fd5b505050506040513d602081101561279257600080fd5b810190808051906020019092919050505073ffffffffffffffffffffffffffffffffffffffff1663095ea7b3837fffffffffffffffffffffffffffffffffffffffffffffffffffffffffffffffff6040518363ffffffff167c0100000000000000000000000000000000000000000000000000000000028152600401808373ffffffffffffffffffffffffffffffffffffffff1673ffffffffffffffffffffffffffffffffffffffff16815260200182815260200192505050600060405180830381600087803b15801561286557600080fd5b505af1158015612879573d6000803e3d6000fd5b505050505b8173ffffffffffffffffffffffffffffffffffffffff1663b3b77a5184836040518363ffffffff167c01000000000000000000000000000000000000000000000000000000000281526004018083815260200182815260200192505050600060405180830381600087803b1580156128f557600080fd5b505af1158015612909573d6000803e3d6000fd5b5050505050505b5050565b8273ffffffffffffffffffffffffffffffffffffffff1663baa8529c83836040518363ffffffff167c0100000000000000000000000000000000000000000000000000000000028152600401808381526020018273ffffffffffffffffffffffffffffffffffffffff1673ffffffffffffffffffffffffffffffffffffffff16815260200192505050600060405180830381600087803b1580156129b757600080fd5b505af11580156129cb573d6000803e3d6000fd5b50505050505050565b6129e2848484600085610f56565b50505050565b6129f584848360006129d4565b612a0284848460006108bf565b50505050565b600081612a36612a24856b033b2e3c9fd0803ce80000006137a6565b600285811515612a3057fe5b046137d6565b811515612a3f57fe5b04905092915050565b60006b033b2e3c9fd0803ce8000000612a82612a6485856137a6565b60026b033b2e3c9fd0803ce8000000811515612a7c57fe5b046137d6565b811515612a8b57fe5b04905092915050565b6000808473ffffffffffffffffffffffffffffffffffffffff1663ace237f56040518163ffffffff167c0100000000000000000000000000000000000000000000000000000000028152600401602060405180830381600087803b158015612afb57600080fd5b505af1158015612b0f573d6000803e3d6000fd5b505050506040513d6020811015612b2557600080fd5b810190808051906020019092919050505073ffffffffffffffffffffffffffffffffffffffff166359e02dd76040518163ffffffff167c01000000000000000000000000000000000000000000000000000000000281526004016040805180830381600087803b158015612b9857600080fd5b505af1158015612bac573d6000803e3d6000fd5b505050506040513d6040811015612bc257600080fd5b8101908080519060200190929190805190602001909291905050508092508193505050808015612bf6575060006001028214155b1561379f576000612c0b8584600190046137f2565b9050600073ffffffffffffffffffffffffffffffffffffffff168473ffffffffffffffffffffffffffffffffffffffff161415156135eb5760008473ffffffffffffffffffffffffffffffffffffffff1663ff1fd9748873ffffffffffffffffffffffffffffffffffffffff16639166cba46040518163ffffffff167c0100000000000000000000000000000000000000000000000000000000028152600401602060405180830381600087803b158015612cc557600080fd5b505af1158015612cd9573d6000803e3d6000fd5b505050506040513d6020811015612cef57600080fd5b81019080805190602001909291905050508973ffffffffffffffffffffffffffffffffffffffff166312d43a516040518163ffffffff167c0100000000000000000000000000000000000000000000000000000000028152600401602060405180830381600087803b158015612d6457600080fd5b505af1158015612d78573d6000803e3d6000fd5b505050506040513d6020811015612d8e57600080fd5b8101908080519060200190929190505050856040518463ffffffff167c0100000000000000000000000000000000000000000000000000000000028152600401808473ffffffffffffffffffffffffffffffffffffffff1673ffffffffffffffffffffffffffffffffffffffff1681526020018373ffffffffffffffffffffffffffffffffffffffff1673ffffffffffffffffffffffffffffffffffffffff168152602001828152602001935050505060206040518083038186803b158015612e5657600080fd5b505afa158015612e6a573d6000803e3d6000fd5b505050506040513d6020811015612e8057600080fd5b810190808051906020019092919050505090507fffffffffffffffffffffffffffffffffffffffffffffffffffffffffffffffff8773ffffffffffffffffffffffffffffffffffffffff16639166cba46040518163ffffffff167c0100000000000000000000000000000000000000000000000000000000028152600401602060405180830381600087803b158015612f1857600080fd5b505af1158015612f2c573d6000803e3d6000fd5b505050506040513d6020811015612f4257600080fd5b810190808051906020019092919050505073ffffffffffffffffffffffffffffffffffffffff1663dd62ed3e30886040518363ffffffff167c0100000000000000000000000000000000000000000000000000000000028152600401808373ffffffffffffffffffffffffffffffffffffffff1673ffffffffffffffffffffffffffffffffffffffff1681526020018273ffffffffffffffffffffffffffffffffffffffff1673ffffffffffffffffffffffffffffffffffffffff16815260200192505050602060405180830381600087803b15801561302157600080fd5b505af1158015613035573d6000803e3d6000fd5b505050506040513d602081101561304b57600080fd5b81019080805190602001909291905050501415156131dd578673ffffffffffffffffffffffffffffffffffffffff16639166cba46040518163ffffffff167c0100000000000000000000000000000000000000000000000000000000028152600401602060405180830381600087803b1580156130c757600080fd5b505af11580156130db573d6000803e3d6000fd5b505050506040513d60208110156130f157600080fd5b810190808051906020019092919050505073ffffffffffffffffffffffffffffffffffffffff1663095ea7b3867fffffffffffffffffffffffffffffffffffffffffffffffffffffffffffffffff6040518363ffffffff167c0100000000000000000000000000000000000000000000000000000000028152600401808373ffffffffffffffffffffffffffffffffffffffff1673ffffffffffffffffffffffffffffffffffffffff16815260200182815260200192505050600060405180830381600087803b1580156131c457600080fd5b505af11580156131d8573d6000803e3d6000fd5b505050505b8673ffffffffffffffffffffffffffffffffffffffff16639166cba46040518163ffffffff167c0100000000000000000000000000000000000000000000000000000000028152600401602060405180830381600087803b15801561324157600080fd5b505af1158015613255573d6000803e3d6000fd5b505050506040513d602081101561326b57600080fd5b810190808051906020019092919050505073ffffffffffffffffffffffffffffffffffffffff166323b872dd3330846040518463ffffffff167c0100000000000000000000000000000000000000000000000000000000028152600401808473ffffffffffffffffffffffffffffffffffffffff1673ffffffffffffffffffffffffffffffffffffffff1681526020018373ffffffffffffffffffffffffffffffffffffffff1673ffffffffffffffffffffffffffffffffffffffff1681526020018281526020019350505050602060405180830381600087803b15801561335257600080fd5b505af1158015613366573d6000803e3d6000fd5b505050506040513d602081101561337c57600080fd5b8101908080519060200190929190505050508473ffffffffffffffffffffffffffffffffffffffff16638185402b8873ffffffffffffffffffffffffffffffffffffffff166312d43a516040518163ffffffff167c0100000000000000000000000000000000000000000000000000000000028152600401602060405180830381600087803b15801561340e57600080fd5b505af1158015613422573d6000803e3d6000fd5b505050506040513d602081101561343857600080fd5b8101908080519060200190929190505050848a73ffffffffffffffffffffffffffffffffffffffff16639166cba46040518163ffffffff167c0100000000000000000000000000000000000000000000000000000000028152600401602060405180830381600087803b1580156134ae57600080fd5b505af11580156134c2573d6000803e3d6000fd5b505050506040513d60208110156134d857600080fd5b8101908080519060200190929190505050856040518563ffffffff167c0100000000000000000000000000000000000000000000000000000000028152600401808573ffffffffffffffffffffffffffffffffffffffff1673ffffffffffffffffffffffffffffffffffffffff1681526020018481526020018373ffffffffffffffffffffffffffffffffffffffff1673ffffffffffffffffffffffffffffffffffffffff168152602001828152602001945050505050602060405180830381600087803b1580156135a957600080fd5b505af11580156135bd573d6000803e3d6000fd5b505050506040513d60208110156135d357600080fd5b8101908080519060200190929190505050505061379d565b8573ffffffffffffffffffffffffffffffffffffffff166312d43a516040518163ffffffff167c0100000000000000000000000000000000000000000000000000000000028152600401602060405180830381600087803b15801561364f57600080fd5b505af1158015613663573d6000803e3d6000fd5b505050506040513d602081101561367957600080fd5b810190808051906020019092919050505073ffffffffffffffffffffffffffffffffffffffff166323b872dd3330846040518463ffffffff167c0100000000000000000000000000000000000000000000000000000000028152600401808473ffffffffffffffffffffffffffffffffffffffff1673ffffffffffffffffffffffffffffffffffffffff1681526020018373ffffffffffffffffffffffffffffffffffffffff1673ffffffffffffffffffffffffffffffffffffffff1681526020018281526020019350505050602060405180830381600087803b15801561376057600080fd5b505af1158015613774573d6000803e3d6000fd5b505050506040513d602081101561378a57600080fd5b8101908080519060200190929190505050505b505b5050505050565b6000808214806137c5575082828385029250828115156137c257fe5b04145b15156137d057600080fd5b92915050565b600082828401915081101515156137ec57600080fd5b92915050565b60008161381c61380a85670de0b6b3a76400006137a6565b60028581151561381657fe5b046137d6565b81151561382557fe5b0490509291505056fea165627a7a723058200c6e7009dd7b481f875d43ec44445b3a23bba8572a017d0b793a552c4b64b20e0029",
  "source": "pragma solidity ^0.5.0;\n\nimport \"./DS/DSMath.sol\";\nimport \"./interfaces/TubInterface.sol\";\nimport \"./interfaces/OtcInterface.sol\";\n\ncontract SaiProxy is DSMath {\n    function open(address tub_) public returns (bytes32) {\n        return TubInterface(tub_).open();\n    }\n\n    function give(address tub_, bytes32 cup, address lad) public {\n        TubInterface(tub_).give(cup, lad);\n    }\n\n    function lock(address tub_, bytes32 cup) public payable {\n        if (msg.value > 0) {\n            TubInterface tub = TubInterface(tub_);\n\n            tub.gem().deposit.value(msg.value)();\n\n            uint ink = rdiv(msg.value, tub.per());\n            if (tub.gem().allowance(address(this), address(tub)) != uint(-1)) {\n                tub.gem().approve(address(tub), uint(-1));\n            }\n            tub.join(ink);\n\n            if (tub.skr().allowance(address(this), address(tub)) != uint(-1)) {\n                tub.skr().approve(address(tub), uint(-1));\n            }\n            tub.lock(cup, ink);\n        }\n    }\n\n    function draw(address tub_, bytes32 cup, uint wad) public {\n        if (wad > 0) {\n            TubInterface tub = TubInterface(tub_);\n            tub.draw(cup, wad);\n            tub.sai().transfer(msg.sender, wad);\n        }\n    }\n\n    function handleGovFee(TubInterface tub, uint saiDebtFee, address otc_) internal {\n        bytes32 val;\n        bool ok;\n        (val, ok) = tub.pep().peek();\n        if (ok && val != 0) {\n            uint govAmt = wdiv(saiDebtFee, uint(val));\n            if (otc_ != address(0)) {\n                uint saiGovAmt = OtcInterface(otc_).getPayAmount(address(tub.sai()), address(tub.gov()), govAmt);\n                if (tub.sai().allowance(address(this), otc_) != uint(-1)) {\n                    tub.sai().approve(otc_, uint(-1));\n                }\n          \n                tub.sai().transferFrom(msg.sender, address(this), saiGovAmt);\n                \n                \n                OtcInterface(otc_).buyAllAmount(address(tub.gov()), govAmt, address(tub.sai()), saiGovAmt);\n            } else {\n                tub.gov().transferFrom(msg.sender, address(this), govAmt);\n            }\n        }\n    }\n\n    function wipe(address tub_, bytes32 cup, uint wad, address otc_, bool fromContract) public {\n        if (wad > 0) {\n            TubInterface tub = TubInterface(tub_);\n\n            if(!fromContract) {\n                tub.sai().transferFrom(msg.sender, address(this), wad);\n                handleGovFee(tub, rmul(wad, rdiv(tub.rap(cup), tub.tab(cup))), otc_);\n            }\n            \n\n            if (tub.sai().allowance(address(this), address(tub)) != uint(-1)) {\n                tub.sai().approve(address(tub), uint(-1));\n            }\n            if (tub.gov().allowance(address(this), address(tub)) != uint(-1)) {\n                tub.gov().approve(address(tub), uint(-1));\n            }\n            tub.wipe(cup, wad);\n        }\n    }\n\n    function wipe(address tub_, bytes32 cup, uint wad, bool fromContract) public {\n        wipe(tub_, cup, wad, address(0), fromContract);\n    }\n\n    function free(address tub_, bytes32 cup, uint jam, bool fromContract) public {\n        if (jam > 0) {\n            TubInterface tub = TubInterface(tub_);\n            uint ink = rdiv(jam, tub.per());\n            tub.free(cup, ink);\n            if (tub.skr().allowance(address(this), address(tub)) != uint(-1)) {\n                tub.skr().approve(address(tub), uint(-1));\n            }\n            tub.exit(ink);\n            tub.gem().withdraw(jam);\n            \n            if(!fromContract) {\n                address(msg.sender).transfer(jam);\n            }\n        }\n    }\n\n    function lockAndDraw(address tub_, bytes32 cup, uint wad) public payable {\n        lock(tub_, cup);\n        draw(tub_, cup, wad);\n    }\n\n    function lockAndDraw(address tub_, uint wad) public payable returns (bytes32 cup) {\n        cup = open(tub_);\n        lockAndDraw(tub_, cup, wad);\n    }\n\n    function wipeAndFree(address tub_, bytes32 cup, uint jam, uint wad) public payable {\n        wipe(tub_, cup, wad, false);\n        free(tub_, cup, jam, false);\n    }\n\n    function wipeAndFree(address tub_, bytes32 cup, uint jam, uint wad, address otc_) public payable {\n        wipe(tub_, cup, wad, otc_, false);\n        free(tub_, cup, jam, false);\n    }\n\n    function shut(address tub_, bytes32 cup) public {\n        TubInterface tub = TubInterface(tub_);\n        wipeAndFree(tub_, cup, rmul(tub.ink(cup), tub.per()), tub.tab(cup));\n        tub.shut(cup);\n    }\n\n    function shut(address tub_, bytes32 cup, address otc_) public {\n        TubInterface tub = TubInterface(tub_);\n        wipeAndFree(tub_, cup, rmul(tub.ink(cup), tub.per()), tub.tab(cup), otc_);\n        tub.shut(cup);\n    }\n}",
  "sourcePath": "/Users/nenadpalinkasevic/Desktop/blockchain/cdpsaver/contracts/SaiProxy.sol",
  "compiler": {
    "name": "solc",
    "version": "0.5.0+commit.1d4f565a.Emscripten.clang"
  },
  "schemaVersion": "3.0.0",
  "updatedAt": "2019-01-14T13:26:54.104Z",
  "devdoc": {
    "methods": {}
  },
  "userdoc": {
    "methods": {}
  }
}