{
  "contractName": "SaverProxy",
  "abi": [
    {
      "constant": false,
      "inputs": [
        {
          "name": "tub_",
          "type": "address"
        },
        {
          "name": "cup",
          "type": "bytes32"
        },
        {
          "name": "wad",
          "type": "uint256"
        }
      ],
      "name": "draw",
      "outputs": [],
      "payable": false,
      "stateMutability": "nonpayable",
      "type": "function"
    },
    {
      "constant": false,
      "inputs": [
        {
          "name": "tub_",
          "type": "address"
        },
        {
          "name": "cup",
          "type": "bytes32"
        },
        {
          "name": "jam",
          "type": "uint256"
        },
        {
          "name": "wad",
          "type": "uint256"
        },
        {
          "name": "otc_",
          "type": "address"
        }
      ],
      "name": "wipeAndFree",
      "outputs": [],
      "payable": true,
      "stateMutability": "payable",
      "type": "function"
    },
    {
      "constant": false,
      "inputs": [
        {
          "name": "tub_",
          "type": "address"
        },
        {
          "name": "cup",
          "type": "bytes32"
        },
        {
          "name": "wad",
          "type": "uint256"
        }
      ],
      "name": "lockAndDraw",
      "outputs": [],
      "payable": true,
      "stateMutability": "payable",
      "type": "function"
    },
    {
      "constant": false,
      "inputs": [
        {
          "name": "tub_",
          "type": "address"
        },
        {
          "name": "wad",
          "type": "uint256"
        }
      ],
      "name": "lockAndDraw",
      "outputs": [
        {
          "name": "cup",
          "type": "bytes32"
        }
      ],
      "payable": true,
      "stateMutability": "payable",
      "type": "function"
    },
    {
      "constant": false,
      "inputs": [
        {
          "name": "tub_",
          "type": "address"
        },
        {
          "name": "cup",
          "type": "bytes32"
        },
        {
          "name": "jam",
          "type": "uint256"
        },
        {
          "name": "fromContract",
          "type": "bool"
        }
      ],
      "name": "free",
      "outputs": [],
      "payable": false,
      "stateMutability": "nonpayable",
      "type": "function"
    },
    {
      "constant": false,
      "inputs": [
        {
          "name": "tub_",
          "type": "address"
        },
        {
          "name": "cup",
          "type": "bytes32"
        },
        {
          "name": "wad",
          "type": "uint256"
        },
        {
          "name": "otc_",
          "type": "address"
        },
        {
          "name": "fromContract",
          "type": "bool"
        }
      ],
      "name": "wipe",
      "outputs": [],
      "payable": false,
      "stateMutability": "nonpayable",
      "type": "function"
    },
    {
      "constant": false,
      "inputs": [
        {
          "name": "tub_",
          "type": "address"
        },
        {
          "name": "cup",
          "type": "bytes32"
        },
        {
          "name": "otc_",
          "type": "address"
        }
      ],
      "name": "shut",
      "outputs": [],
      "payable": false,
      "stateMutability": "nonpayable",
      "type": "function"
    },
    {
      "constant": false,
      "inputs": [
        {
          "name": "tub_",
          "type": "address"
        }
      ],
      "name": "open",
      "outputs": [
        {
          "name": "",
          "type": "bytes32"
        }
      ],
      "payable": false,
      "stateMutability": "nonpayable",
      "type": "function"
    },
    {
      "constant": false,
      "inputs": [
        {
          "name": "tub_",
          "type": "address"
        },
        {
          "name": "cup",
          "type": "bytes32"
        }
      ],
      "name": "shut",
      "outputs": [],
      "payable": false,
      "stateMutability": "nonpayable",
      "type": "function"
    },
    {
      "constant": false,
      "inputs": [
        {
          "name": "tub_",
          "type": "address"
        },
        {
          "name": "cup",
          "type": "bytes32"
        }
      ],
      "name": "lock",
      "outputs": [],
      "payable": true,
      "stateMutability": "payable",
      "type": "function"
    },
    {
      "constant": false,
      "inputs": [
        {
          "name": "tub_",
          "type": "address"
        },
        {
          "name": "cup",
          "type": "bytes32"
        },
        {
          "name": "lad",
          "type": "address"
        }
      ],
      "name": "give",
      "outputs": [],
      "payable": false,
      "stateMutability": "nonpayable",
      "type": "function"
    },
    {
      "constant": false,
      "inputs": [
        {
          "name": "tub_",
          "type": "address"
        },
        {
          "name": "cup",
          "type": "bytes32"
        },
        {
          "name": "wad",
          "type": "uint256"
        },
        {
          "name": "fromContract",
          "type": "bool"
        }
      ],
      "name": "wipe",
      "outputs": [],
      "payable": false,
      "stateMutability": "nonpayable",
      "type": "function"
    },
    {
      "constant": false,
      "inputs": [
        {
          "name": "tub_",
          "type": "address"
        },
        {
          "name": "cup",
          "type": "bytes32"
        },
        {
          "name": "jam",
          "type": "uint256"
        },
        {
          "name": "wad",
          "type": "uint256"
        }
      ],
      "name": "wipeAndFree",
      "outputs": [],
      "payable": true,
      "stateMutability": "payable",
      "type": "function"
    },
    {
      "anonymous": false,
      "inputs": [
        {
          "indexed": true,
          "name": "owner",
          "type": "address"
        },
        {
          "indexed": false,
          "name": "collateralAmount",
          "type": "uint256"
        },
        {
          "indexed": false,
          "name": "daiAmount",
          "type": "uint256"
        }
      ],
      "name": "Repay",
      "type": "event"
    },
    {
      "anonymous": false,
      "inputs": [
        {
          "indexed": true,
          "name": "owner",
          "type": "address"
        },
        {
          "indexed": false,
          "name": "daiAmount",
          "type": "uint256"
        },
        {
          "indexed": false,
          "name": "collateralAmount",
          "type": "uint256"
        }
      ],
      "name": "Boost",
      "type": "event"
    },
    {
      "constant": false,
      "inputs": [
        {
          "name": "_cdpId",
          "type": "uint256"
        }
      ],
      "name": "repay",
      "outputs": [],
      "payable": false,
      "stateMutability": "nonpayable",
      "type": "function"
    },
    {
      "constant": false,
      "inputs": [
        {
          "name": "_cdpId",
          "type": "uint256"
        }
      ],
      "name": "boost",
      "outputs": [],
      "payable": false,
      "stateMutability": "nonpayable",
      "type": "function"
    },
    {
      "constant": false,
      "inputs": [
        {
          "name": "registry_",
          "type": "address"
        },
        {
          "name": "tub_",
          "type": "address"
        },
        {
          "name": "wad",
          "type": "uint256"
        }
      ],
      "name": "createCdp",
      "outputs": [
        {
          "name": "proxy",
          "type": "address"
        },
        {
          "name": "cup",
          "type": "bytes32"
        }
      ],
      "payable": true,
      "stateMutability": "payable",
      "type": "function"
    },
    {
      "constant": false,
      "inputs": [
        {
          "name": "_tub",
          "type": "address"
        },
        {
          "name": "_vox",
          "type": "address"
        },
        {
          "name": "_cdpId",
          "type": "bytes32"
        }
      ],
      "name": "maxFreeCollateral",
      "outputs": [
        {
          "name": "",
          "type": "uint256"
        }
      ],
      "payable": false,
      "stateMutability": "nonpayable",
      "type": "function"
    },
    {
      "constant": false,
      "inputs": [
        {
          "name": "_tub",
          "type": "address"
        },
        {
          "name": "_cdpId",
          "type": "bytes32"
        }
      ],
      "name": "maxFreeDai",
      "outputs": [
        {
          "name": "",
          "type": "uint256"
        }
      ],
      "payable": false,
      "stateMutability": "nonpayable",
      "type": "function"
    },
    {
      "constant": false,
      "inputs": [
        {
          "name": "_tub",
          "type": "address"
        },
        {
          "name": "_cdpId",
          "type": "bytes32"
        }
      ],
      "name": "getRatio",
      "outputs": [
        {
          "name": "",
          "type": "uint256"
        }
      ],
      "payable": false,
      "stateMutability": "nonpayable",
      "type": "function"
    }
  ],
  "bytecode": "0x608060405234801561001057600080fd5b50615355806100206000396000f3fe608060405260043610610107576000357c0100000000000000000000000000000000000000000000000000000000900463ffffffff1680630344a36f1461010c5780631b55d19e146101715780631b968160146101ac5780631edf0c1e1461022e57806334bd9c2614610286578063371fd8e6146102f557806347bd40aa14610330578063516e9aec146103e55780635612a8b7146104475780636905ede6146104b8578063730fd68014610549578063792037e3146105b8578063b95460f814610633578063bc244c1114610698578063bc25a810146106f3578063da93dfcf14610741578063edcd503f146107bc578063f0df15ea1461082d578063faed77ab146108bc575b600080fd5b34801561011857600080fd5b5061016f6004803603606081101561012f57600080fd5b81019080803573ffffffffffffffffffffffffffffffffffffffff169060200190929190803590602001909291908035906020019092919050505061091e565b005b34801561017d57600080fd5b506101aa6004803603602081101561019457600080fd5b8101908080359060200190929190505050610b3f565b005b61022c600480360360a08110156101c257600080fd5b81019080803573ffffffffffffffffffffffffffffffffffffffff169060200190929190803590602001909291908035906020019092919080359060200190929190803573ffffffffffffffffffffffffffffffffffffffff169060200190929190505050610c69565b005b6102846004803603606081101561024457600080fd5b81019080803573ffffffffffffffffffffffffffffffffffffffff1690602001909291908035906020019092919080359060200190929190505050610c8b565b005b34801561029257600080fd5b506102df600480360360408110156102a957600080fd5b81019080803573ffffffffffffffffffffffffffffffffffffffff16906020019092919080359060200190929190505050610ca5565b6040518082815260200191505060405180910390f35b34801561030157600080fd5b5061032e6004803603602081101561031857600080fd5b8101908080359060200190929190505050610ed1565b005b61039c6004803603606081101561034657600080fd5b81019080803573ffffffffffffffffffffffffffffffffffffffff169060200190929190803573ffffffffffffffffffffffffffffffffffffffff16906020019092919080359060200190929190505050610f45565b604051808373ffffffffffffffffffffffffffffffffffffffff1673ffffffffffffffffffffffffffffffffffffffff1681526020018281526020019250505060405180910390f35b610431600480360360408110156103fb57600080fd5b81019080803573ffffffffffffffffffffffffffffffffffffffff16906020019092919080359060200190929190505050610f50565b6040518082815260200191505060405180910390f35b34801561045357600080fd5b506104b66004803603608081101561046a57600080fd5b81019080803573ffffffffffffffffffffffffffffffffffffffff1690602001909291908035906020019092919080359060200190929190803515159060200190929190505050610f6e565b005b3480156104c457600080fd5b50610547600480360360a08110156104db57600080fd5b81019080803573ffffffffffffffffffffffffffffffffffffffff1690602001909291908035906020019092919080359060200190929190803573ffffffffffffffffffffffffffffffffffffffff169060200190929190803515159060200190929190505050611605565b005b34801561055557600080fd5b506105a26004803603604081101561056c57600080fd5b81019080803573ffffffffffffffffffffffffffffffffffffffff16906020019092919080359060200190929190505050612067565b6040518082815260200191505060405180910390f35b3480156105c457600080fd5b50610631600480360360608110156105db57600080fd5b81019080803573ffffffffffffffffffffffffffffffffffffffff16906020019092919080359060200190929190803573ffffffffffffffffffffffffffffffffffffffff16906020019092919050505061232c565b005b34801561063f57600080fd5b506106826004803603602081101561065657600080fd5b81019080803573ffffffffffffffffffffffffffffffffffffffff1690602001909291905050506125c4565b6040518082815260200191505060405180910390f35b3480156106a457600080fd5b506106f1600480360360408110156106bb57600080fd5b81019080803573ffffffffffffffffffffffffffffffffffffffff1690602001909291908035906020019092919050505061266c565b005b61073f6004803603604081101561070957600080fd5b81019080803573ffffffffffffffffffffffffffffffffffffffff16906020019092919080359060200190929190505050612902565b005b34801561074d57600080fd5b506107ba6004803603606081101561076457600080fd5b81019080803573ffffffffffffffffffffffffffffffffffffffff16906020019092919080359060200190929190803573ffffffffffffffffffffffffffffffffffffffff169060200190929190505050613288565b005b3480156107c857600080fd5b5061082b600480360360808110156107df57600080fd5b81019080803573ffffffffffffffffffffffffffffffffffffffff1690602001909291908035906020019092919080359060200190929190803515159060200190929190505050613348565b005b34801561083957600080fd5b506108a66004803603606081101561085057600080fd5b81019080803573ffffffffffffffffffffffffffffffffffffffff169060200190929190803573ffffffffffffffffffffffffffffffffffffffff1690602001909291908035906020019092919050505061335c565b6040518082815260200191505060405180910390f35b61091c600480360360808110156108d257600080fd5b81019080803573ffffffffffffffffffffffffffffffffffffffff1690602001909291908035906020019092919080359060200190929190803590602001909291905050506136c9565b005b6000811115610b3a5760008390508073ffffffffffffffffffffffffffffffffffffffff1663440f19ba84846040518363ffffffff167c01000000000000000000000000000000000000000000000000000000000281526004018083815260200182815260200192505050600060405180830381600087803b1580156109a357600080fd5b505af11580156109b7573d6000803e3d6000fd5b505050508073ffffffffffffffffffffffffffffffffffffffff16639166cba46040518163ffffffff167c0100000000000000000000000000000000000000000000000000000000028152600401602060405180830381600087803b158015610a1f57600080fd5b505af1158015610a33573d6000803e3d6000fd5b505050506040513d6020811015610a4957600080fd5b810190808051906020019092919050505073ffffffffffffffffffffffffffffffffffffffff1663a9059cbb33846040518363ffffffff167c0100000000000000000000000000000000000000000000000000000000028152600401808373ffffffffffffffffffffffffffffffffffffffff1673ffffffffffffffffffffffffffffffffffffffff16815260200182815260200192505050602060405180830381600087803b158015610afc57600080fd5b505af1158015610b10573d6000803e3d6000fd5b505050506040513d6020811015610b2657600080fd5b810190808051906020019092919050505050505b505050565b600073a71937147b55deb8a530c7229c442fd3f31b7db2905060008260010290506000610b6c8383612067565b90508273ffffffffffffffffffffffffffffffffffffffff1663440f19ba83836040518363ffffffff167c01000000000000000000000000000000000000000000000000000000000281526004018083815260200182815260200192505050600060405180830381600087803b158015610be557600080fd5b505af1158015610bf9573d6000803e3d6000fd5b505050506000610c0a8484846136e9565b90503373ffffffffffffffffffffffffffffffffffffffff167faadc628cb4fd3bb7a62795eb460290459458bdc6f387ffde727c740f42c183378383604051808381526020018281526020019250505060405180910390a25050505050565b610c77858584846000611605565b610c848585856000610f6e565b5050505050565b610c958383612902565b610ca083838361091e565b505050565b600062989680610ebf610e10610e028673ffffffffffffffffffffffffffffffffffffffff16631f3634ed876040518263ffffffff167c010000000000000000000000000000000000000000000000000000000002815260040180828152602001915050602060405180830381600087803b158015610d2357600080fd5b505af1158015610d37573d6000803e3d6000fd5b505050506040513d6020811015610d4d57600080fd5b81019080805190602001909291905050508773ffffffffffffffffffffffffffffffffffffffff166351f910666040518163ffffffff167c0100000000000000000000000000000000000000000000000000000000028152600401602060405180830381600087803b158015610dc257600080fd5b505af1158015610dd6573d6000803e3d6000fd5b505050506040513d6020811015610dec57600080fd5b8101908080519060200190929190505050614089565b670de0b6b3a7640000614089565b8573ffffffffffffffffffffffffffffffffffffffff1663f7c8d634866040518263ffffffff167c010000000000000000000000000000000000000000000000000000000002815260040180828152602001915050602060405180830381600087803b158015610e7f57600080fd5b505af1158015610e93573d6000803e3d6000fd5b505050506040513d6020811015610ea957600080fd5b81019080805190602001909291905050506140d5565b811515610ec857fe5b04905092915050565b600073a71937147b55deb8a530c7229c442fd3f31b7db290503373ffffffffffffffffffffffffffffffffffffffff167f77c6871227e5d2dec8dadd5354f78453203e22e669cd0ec4c19d9a8c5edb31d0606480604051808381526020018281526020019250505060405180910390a25050565b600080935093915050565b6000610f5b836125c4565b9050610f68838284610c8b565b92915050565b60008211156115ff5760008490506000611026848373ffffffffffffffffffffffffffffffffffffffff16637ec9c3b86040518163ffffffff167c0100000000000000000000000000000000000000000000000000000000028152600401602060405180830381600087803b158015610fe657600080fd5b505af1158015610ffa573d6000803e3d6000fd5b505050506040513d602081101561101057600080fd5b8101908080519060200190929190505050614111565b90508173ffffffffffffffffffffffffffffffffffffffff1663a5cd184e86836040518363ffffffff167c01000000000000000000000000000000000000000000000000000000000281526004018083815260200182815260200192505050600060405180830381600087803b15801561109f57600080fd5b505af11580156110b3573d6000803e3d6000fd5b505050507fffffffffffffffffffffffffffffffffffffffffffffffffffffffffffffffff8273ffffffffffffffffffffffffffffffffffffffff16630f8a771e6040518163ffffffff167c0100000000000000000000000000000000000000000000000000000000028152600401602060405180830381600087803b15801561113c57600080fd5b505af1158015611150573d6000803e3d6000fd5b505050506040513d602081101561116657600080fd5b810190808051906020019092919050505073ffffffffffffffffffffffffffffffffffffffff1663dd62ed3e30856040518363ffffffff167c0100000000000000000000000000000000000000000000000000000000028152600401808373ffffffffffffffffffffffffffffffffffffffff1673ffffffffffffffffffffffffffffffffffffffff1681526020018273ffffffffffffffffffffffffffffffffffffffff1673ffffffffffffffffffffffffffffffffffffffff16815260200192505050602060405180830381600087803b15801561124557600080fd5b505af1158015611259573d6000803e3d6000fd5b505050506040513d602081101561126f57600080fd5b8101908080519060200190929190505050141515611401578173ffffffffffffffffffffffffffffffffffffffff16630f8a771e6040518163ffffffff167c0100000000000000000000000000000000000000000000000000000000028152600401602060405180830381600087803b1580156112eb57600080fd5b505af11580156112ff573d6000803e3d6000fd5b505050506040513d602081101561131557600080fd5b810190808051906020019092919050505073ffffffffffffffffffffffffffffffffffffffff1663095ea7b3837fffffffffffffffffffffffffffffffffffffffffffffffffffffffffffffffff6040518363ffffffff167c0100000000000000000000000000000000000000000000000000000000028152600401808373ffffffffffffffffffffffffffffffffffffffff1673ffffffffffffffffffffffffffffffffffffffff16815260200182815260200192505050600060405180830381600087803b1580156113e857600080fd5b505af11580156113fc573d6000803e3d6000fd5b505050505b8173ffffffffffffffffffffffffffffffffffffffff16637f8661a1826040518263ffffffff167c010000000000000000000000000000000000000000000000000000000002815260040180828152602001915050600060405180830381600087803b15801561147057600080fd5b505af1158015611484573d6000803e3d6000fd5b505050508173ffffffffffffffffffffffffffffffffffffffff16637bd2bea76040518163ffffffff167c0100000000000000000000000000000000000000000000000000000000028152600401602060405180830381600087803b1580156114ec57600080fd5b505af1158015611500573d6000803e3d6000fd5b505050506040513d602081101561151657600080fd5b810190808051906020019092919050505073ffffffffffffffffffffffffffffffffffffffff16632e1a7d4d856040518263ffffffff167c010000000000000000000000000000000000000000000000000000000002815260040180828152602001915050600060405180830381600087803b15801561159557600080fd5b505af11580156115a9573d6000803e3d6000fd5b505050508215156115fc573373ffffffffffffffffffffffffffffffffffffffff166108fc859081150290604051600060405180830381858888f193505050501580156115fa573d6000803e3d6000fd5b505b50505b50505050565b60008311156120605760008590508115156117cc578073ffffffffffffffffffffffffffffffffffffffff16639166cba46040518163ffffffff167c0100000000000000000000000000000000000000000000000000000000028152600401602060405180830381600087803b15801561167e57600080fd5b505af1158015611692573d6000803e3d6000fd5b505050506040513d60208110156116a857600080fd5b810190808051906020019092919050505073ffffffffffffffffffffffffffffffffffffffff166323b872dd3330876040518463ffffffff167c0100000000000000000000000000000000000000000000000000000000028152600401808473ffffffffffffffffffffffffffffffffffffffff1673ffffffffffffffffffffffffffffffffffffffff1681526020018373ffffffffffffffffffffffffffffffffffffffff1673ffffffffffffffffffffffffffffffffffffffff1681526020018281526020019350505050602060405180830381600087803b15801561178f57600080fd5b505af11580156117a3573d6000803e3d6000fd5b505050506040513d60208110156117b957600080fd5b8101908080519060200190929190505050505b61193b81611935866119308573ffffffffffffffffffffffffffffffffffffffff16636f78ee0d8b6040518263ffffffff167c010000000000000000000000000000000000000000000000000000000002815260040180828152602001915050602060405180830381600087803b15801561184657600080fd5b505af115801561185a573d6000803e3d6000fd5b505050506040513d602081101561187057600080fd5b81019080805190602001909291905050508673ffffffffffffffffffffffffffffffffffffffff1663f7c8d6348c6040518263ffffffff167c010000000000000000000000000000000000000000000000000000000002815260040180828152602001915050602060405180830381600087803b1580156118f057600080fd5b505af1158015611904573d6000803e3d6000fd5b505050506040513d602081101561191a57600080fd5b8101908080519060200190929190505050614111565b614089565b85614151565b7fffffffffffffffffffffffffffffffffffffffffffffffffffffffffffffffff8173ffffffffffffffffffffffffffffffffffffffff16639166cba46040518163ffffffff167c0100000000000000000000000000000000000000000000000000000000028152600401602060405180830381600087803b1580156119c057600080fd5b505af11580156119d4573d6000803e3d6000fd5b505050506040513d60208110156119ea57600080fd5b810190808051906020019092919050505073ffffffffffffffffffffffffffffffffffffffff1663dd62ed3e30846040518363ffffffff167c0100000000000000000000000000000000000000000000000000000000028152600401808373ffffffffffffffffffffffffffffffffffffffff1673ffffffffffffffffffffffffffffffffffffffff1681526020018273ffffffffffffffffffffffffffffffffffffffff1673ffffffffffffffffffffffffffffffffffffffff16815260200192505050602060405180830381600087803b158015611ac957600080fd5b505af1158015611add573d6000803e3d6000fd5b505050506040513d6020811015611af357600080fd5b8101908080519060200190929190505050141515611c85578073ffffffffffffffffffffffffffffffffffffffff16639166cba46040518163ffffffff167c0100000000000000000000000000000000000000000000000000000000028152600401602060405180830381600087803b158015611b6f57600080fd5b505af1158015611b83573d6000803e3d6000fd5b505050506040513d6020811015611b9957600080fd5b810190808051906020019092919050505073ffffffffffffffffffffffffffffffffffffffff1663095ea7b3827fffffffffffffffffffffffffffffffffffffffffffffffffffffffffffffffff6040518363ffffffff167c0100000000000000000000000000000000000000000000000000000000028152600401808373ffffffffffffffffffffffffffffffffffffffff1673ffffffffffffffffffffffffffffffffffffffff16815260200182815260200192505050600060405180830381600087803b158015611c6c57600080fd5b505af1158015611c80573d6000803e3d6000fd5b505050505b7fffffffffffffffffffffffffffffffffffffffffffffffffffffffffffffffff8173ffffffffffffffffffffffffffffffffffffffff166312d43a516040518163ffffffff167c0100000000000000000000000000000000000000000000000000000000028152600401602060405180830381600087803b158015611d0a57600080fd5b505af1158015611d1e573d6000803e3d6000fd5b505050506040513d6020811015611d3457600080fd5b810190808051906020019092919050505073ffffffffffffffffffffffffffffffffffffffff1663dd62ed3e30846040518363ffffffff167c0100000000000000000000000000000000000000000000000000000000028152600401808373ffffffffffffffffffffffffffffffffffffffff1673ffffffffffffffffffffffffffffffffffffffff1681526020018273ffffffffffffffffffffffffffffffffffffffff1673ffffffffffffffffffffffffffffffffffffffff16815260200192505050602060405180830381600087803b158015611e1357600080fd5b505af1158015611e27573d6000803e3d6000fd5b505050506040513d6020811015611e3d57600080fd5b8101908080519060200190929190505050141515611fcf578073ffffffffffffffffffffffffffffffffffffffff166312d43a516040518163ffffffff167c0100000000000000000000000000000000000000000000000000000000028152600401602060405180830381600087803b158015611eb957600080fd5b505af1158015611ecd573d6000803e3d6000fd5b505050506040513d6020811015611ee357600080fd5b810190808051906020019092919050505073ffffffffffffffffffffffffffffffffffffffff1663095ea7b3827fffffffffffffffffffffffffffffffffffffffffffffffffffffffffffffffff6040518363ffffffff167c0100000000000000000000000000000000000000000000000000000000028152600401808373ffffffffffffffffffffffffffffffffffffffff1673ffffffffffffffffffffffffffffffffffffffff16815260200182815260200192505050600060405180830381600087803b158015611fb657600080fd5b505af1158015611fca573d6000803e3d6000fd5b505050505b8073ffffffffffffffffffffffffffffffffffffffff166373b3810186866040518363ffffffff167c01000000000000000000000000000000000000000000000000000000000281526004018083815260200182815260200192505050600060405180830381600087803b15801561204657600080fd5b505af115801561205a573d6000803e3d6000fd5b50505050505b5050505050565b60006123246122756121c08573ffffffffffffffffffffffffffffffffffffffff16631f3634ed866040518263ffffffff167c010000000000000000000000000000000000000000000000000000000002815260040180828152602001915050602060405180830381600087803b1580156120e157600080fd5b505af11580156120f5573d6000803e3d6000fd5b505050506040513d602081101561210b57600080fd5b81019080805190602001909291905050508673ffffffffffffffffffffffffffffffffffffffff166351f910666040518163ffffffff167c0100000000000000000000000000000000000000000000000000000000028152600401602060405180830381600087803b15801561218057600080fd5b505af1158015612194573d6000803e3d6000fd5b505050506040513d60208110156121aa57600080fd5b8101908080519060200190929190505050614089565b6122708673ffffffffffffffffffffffffffffffffffffffff1663ab0783da6040518163ffffffff167c0100000000000000000000000000000000000000000000000000000000028152600401602060405180830381600087803b15801561222757600080fd5b505af115801561223b573d6000803e3d6000fd5b505050506040513d602081101561225157600080fd5b8101908080519060200190929190505050670de0b6b3a7640000614089565b6140d5565b8473ffffffffffffffffffffffffffffffffffffffff1663f7c8d634856040518263ffffffff167c010000000000000000000000000000000000000000000000000000000002815260040180828152602001915050602060405180830381600087803b1580156122e457600080fd5b505af11580156122f8573d6000803e3d6000fd5b505050506040513d602081101561230e57600080fd5b8101908080519060200190929190505050614e63565b905092915050565b600083905061253784846124878473ffffffffffffffffffffffffffffffffffffffff16631f3634ed886040518263ffffffff167c010000000000000000000000000000000000000000000000000000000002815260040180828152602001915050602060405180830381600087803b1580156123a857600080fd5b505af11580156123bc573d6000803e3d6000fd5b505050506040513d60208110156123d257600080fd5b81019080805190602001909291905050508573ffffffffffffffffffffffffffffffffffffffff16637ec9c3b86040518163ffffffff167c0100000000000000000000000000000000000000000000000000000000028152600401602060405180830381600087803b15801561244757600080fd5b505af115801561245b573d6000803e3d6000fd5b505050506040513d602081101561247157600080fd5b8101908080519060200190929190505050614089565b8473ffffffffffffffffffffffffffffffffffffffff1663f7c8d634886040518263ffffffff167c010000000000000000000000000000000000000000000000000000000002815260040180828152602001915050602060405180830381600087803b1580156124f657600080fd5b505af115801561250a573d6000803e3d6000fd5b505050506040513d602081101561252057600080fd5b810190808051906020019092919050505086610c69565b8073ffffffffffffffffffffffffffffffffffffffff1663b84d2106846040518263ffffffff167c010000000000000000000000000000000000000000000000000000000002815260040180828152602001915050600060405180830381600087803b1580156125a657600080fd5b505af11580156125ba573d6000803e3d6000fd5b5050505050505050565b60008173ffffffffffffffffffffffffffffffffffffffff1663fcfff16f6040518163ffffffff167c0100000000000000000000000000000000000000000000000000000000028152600401602060405180830381600087803b15801561262a57600080fd5b505af115801561263e573d6000803e3d6000fd5b505050506040513d602081101561265457600080fd5b81019080805190602001909291905050509050919050565b600082905061287683836127c78473ffffffffffffffffffffffffffffffffffffffff16631f3634ed876040518263ffffffff167c010000000000000000000000000000000000000000000000000000000002815260040180828152602001915050602060405180830381600087803b1580156126e857600080fd5b505af11580156126fc573d6000803e3d6000fd5b505050506040513d602081101561271257600080fd5b81019080805190602001909291905050508573ffffffffffffffffffffffffffffffffffffffff16637ec9c3b86040518163ffffffff167c0100000000000000000000000000000000000000000000000000000000028152600401602060405180830381600087803b15801561278757600080fd5b505af115801561279b573d6000803e3d6000fd5b505050506040513d60208110156127b157600080fd5b8101908080519060200190929190505050614089565b8473ffffffffffffffffffffffffffffffffffffffff1663f7c8d634876040518263ffffffff167c010000000000000000000000000000000000000000000000000000000002815260040180828152602001915050602060405180830381600087803b15801561283657600080fd5b505af115801561284a573d6000803e3d6000fd5b505050506040513d602081101561286057600080fd5b81019080805190602001909291905050506136c9565b8073ffffffffffffffffffffffffffffffffffffffff1663b84d2106836040518263ffffffff167c010000000000000000000000000000000000000000000000000000000002815260040180828152602001915050600060405180830381600087803b1580156128e557600080fd5b505af11580156128f9573d6000803e3d6000fd5b50505050505050565b60003411156132845760008290508073ffffffffffffffffffffffffffffffffffffffff16637bd2bea76040518163ffffffff167c0100000000000000000000000000000000000000000000000000000000028152600401602060405180830381600087803b15801561297457600080fd5b505af1158015612988573d6000803e3d6000fd5b505050506040513d602081101561299e57600080fd5b810190808051906020019092919050505073ffffffffffffffffffffffffffffffffffffffff1663d0e30db0346040518263ffffffff167c01000000000000000000000000000000000000000000000000000000000281526004016000604051808303818588803b158015612a1257600080fd5b505af1158015612a26573d6000803e3d6000fd5b50505050506000612ad5348373ffffffffffffffffffffffffffffffffffffffff16637ec9c3b86040518163ffffffff167c0100000000000000000000000000000000000000000000000000000000028152600401602060405180830381600087803b158015612a9557600080fd5b505af1158015612aa9573d6000803e3d6000fd5b505050506040513d6020811015612abf57600080fd5b8101908080519060200190929190505050614111565b90507fffffffffffffffffffffffffffffffffffffffffffffffffffffffffffffffff8273ffffffffffffffffffffffffffffffffffffffff16637bd2bea76040518163ffffffff167c0100000000000000000000000000000000000000000000000000000000028152600401602060405180830381600087803b158015612b5c57600080fd5b505af1158015612b70573d6000803e3d6000fd5b505050506040513d6020811015612b8657600080fd5b810190808051906020019092919050505073ffffffffffffffffffffffffffffffffffffffff1663dd62ed3e30856040518363ffffffff167c0100000000000000000000000000000000000000000000000000000000028152600401808373ffffffffffffffffffffffffffffffffffffffff1673ffffffffffffffffffffffffffffffffffffffff1681526020018273ffffffffffffffffffffffffffffffffffffffff1673ffffffffffffffffffffffffffffffffffffffff16815260200192505050602060405180830381600087803b158015612c6557600080fd5b505af1158015612c79573d6000803e3d6000fd5b505050506040513d6020811015612c8f57600080fd5b8101908080519060200190929190505050141515612e21578173ffffffffffffffffffffffffffffffffffffffff16637bd2bea76040518163ffffffff167c0100000000000000000000000000000000000000000000000000000000028152600401602060405180830381600087803b158015612d0b57600080fd5b505af1158015612d1f573d6000803e3d6000fd5b505050506040513d6020811015612d3557600080fd5b810190808051906020019092919050505073ffffffffffffffffffffffffffffffffffffffff1663095ea7b3837fffffffffffffffffffffffffffffffffffffffffffffffffffffffffffffffff6040518363ffffffff167c0100000000000000000000000000000000000000000000000000000000028152600401808373ffffffffffffffffffffffffffffffffffffffff1673ffffffffffffffffffffffffffffffffffffffff16815260200182815260200192505050600060405180830381600087803b158015612e0857600080fd5b505af1158015612e1c573d6000803e3d6000fd5b505050505b8173ffffffffffffffffffffffffffffffffffffffff1663049878f3826040518263ffffffff167c010000000000000000000000000000000000000000000000000000000002815260040180828152602001915050600060405180830381600087803b158015612e9057600080fd5b505af1158015612ea4573d6000803e3d6000fd5b505050507fffffffffffffffffffffffffffffffffffffffffffffffffffffffffffffffff8273ffffffffffffffffffffffffffffffffffffffff16630f8a771e6040518163ffffffff167c0100000000000000000000000000000000000000000000000000000000028152600401602060405180830381600087803b158015612f2d57600080fd5b505af1158015612f41573d6000803e3d6000fd5b505050506040513d6020811015612f5757600080fd5b810190808051906020019092919050505073ffffffffffffffffffffffffffffffffffffffff1663dd62ed3e30856040518363ffffffff167c0100000000000000000000000000000000000000000000000000000000028152600401808373ffffffffffffffffffffffffffffffffffffffff1673ffffffffffffffffffffffffffffffffffffffff1681526020018273ffffffffffffffffffffffffffffffffffffffff1673ffffffffffffffffffffffffffffffffffffffff16815260200192505050602060405180830381600087803b15801561303657600080fd5b505af115801561304a573d6000803e3d6000fd5b505050506040513d602081101561306057600080fd5b81019080805190602001909291905050501415156131f2578173ffffffffffffffffffffffffffffffffffffffff16630f8a771e6040518163ffffffff167c0100000000000000000000000000000000000000000000000000000000028152600401602060405180830381600087803b1580156130dc57600080fd5b505af11580156130f0573d6000803e3d6000fd5b505050506040513d602081101561310657600080fd5b810190808051906020019092919050505073ffffffffffffffffffffffffffffffffffffffff1663095ea7b3837fffffffffffffffffffffffffffffffffffffffffffffffffffffffffffffffff6040518363ffffffff167c0100000000000000000000000000000000000000000000000000000000028152600401808373ffffffffffffffffffffffffffffffffffffffff1673ffffffffffffffffffffffffffffffffffffffff16815260200182815260200192505050600060405180830381600087803b1580156131d957600080fd5b505af11580156131ed573d6000803e3d6000fd5b505050505b8173ffffffffffffffffffffffffffffffffffffffff1663b3b77a5184836040518363ffffffff167c01000000000000000000000000000000000000000000000000000000000281526004018083815260200182815260200192505050600060405180830381600087803b15801561326957600080fd5b505af115801561327d573d6000803e3d6000fd5b5050505050505b5050565b8273ffffffffffffffffffffffffffffffffffffffff1663baa8529c83836040518363ffffffff167c0100000000000000000000000000000000000000000000000000000000028152600401808381526020018273ffffffffffffffffffffffffffffffffffffffff1673ffffffffffffffffffffffffffffffffffffffff16815260200192505050600060405180830381600087803b15801561332b57600080fd5b505af115801561333f573d6000803e3d6000fd5b50505050505050565b613356848484600085611605565b50505050565b60006136c08473ffffffffffffffffffffffffffffffffffffffff16631f3634ed846040518263ffffffff167c010000000000000000000000000000000000000000000000000000000002815260040180828152602001915050602060405180830381600087803b1580156133d057600080fd5b505af11580156133e4573d6000803e3d6000fd5b505050506040513d60208110156133fa57600080fd5b81019080805190602001909291905050506136bb6136176135738873ffffffffffffffffffffffffffffffffffffffff1663f7c8d634886040518263ffffffff167c010000000000000000000000000000000000000000000000000000000002815260040180828152602001915050602060405180830381600087803b15801561348357600080fd5b505af1158015613497573d6000803e3d6000fd5b505050506040513d60208110156134ad57600080fd5b810190808051906020019092919050505061356e8a73ffffffffffffffffffffffffffffffffffffffff1663ab0783da6040518163ffffffff167c0100000000000000000000000000000000000000000000000000000000028152600401602060405180830381600087803b15801561352557600080fd5b505af1158015613539573d6000803e3d6000fd5b505050506040513d602081101561354f57600080fd5b8101908080519060200190929190505050670de0b6b3a7640000614089565b614e7f565b8773ffffffffffffffffffffffffffffffffffffffff1663495d32cb6040518163ffffffff167c0100000000000000000000000000000000000000000000000000000000028152600401602060405180830381600087803b1580156135d757600080fd5b505af11580156135eb573d6000803e3d6000fd5b505050506040513d602081101561360157600080fd5b8101908080519060200190929190505050614e7f565b8773ffffffffffffffffffffffffffffffffffffffff166351f910666040518163ffffffff167c0100000000000000000000000000000000000000000000000000000000028152600401602060405180830381600087803b15801561367b57600080fd5b505af115801561368f573d6000803e3d6000fd5b505050506040513d60208110156136a557600080fd5b81019080805190602001909291905050506140d5565b614e63565b90509392505050565b6136d68484836000613348565b6136e38484846000610f6e565b50505050565b60008061370a73c4375b7de8af5a38a93548eb8453a498222c4ff284614ec3565b90508473ffffffffffffffffffffffffffffffffffffffff16637bd2bea76040518163ffffffff167c0100000000000000000000000000000000000000000000000000000000028152600401602060405180830381600087803b15801561377057600080fd5b505af1158015613784573d6000803e3d6000fd5b505050506040513d602081101561379a57600080fd5b810190808051906020019092919050505073ffffffffffffffffffffffffffffffffffffffff1663d0e30db0826040518263ffffffff167c01000000000000000000000000000000000000000000000000000000000281526004016000604051808303818588803b15801561380e57600080fd5b505af1158015613822573d6000803e3d6000fd5b505050505060006138d1828773ffffffffffffffffffffffffffffffffffffffff16637ec9c3b86040518163ffffffff167c0100000000000000000000000000000000000000000000000000000000028152600401602060405180830381600087803b15801561389157600080fd5b505af11580156138a5573d6000803e3d6000fd5b505050506040513d60208110156138bb57600080fd5b8101908080519060200190929190505050614111565b90507fffffffffffffffffffffffffffffffffffffffffffffffffffffffffffffffff8673ffffffffffffffffffffffffffffffffffffffff16637bd2bea76040518163ffffffff167c0100000000000000000000000000000000000000000000000000000000028152600401602060405180830381600087803b15801561395857600080fd5b505af115801561396c573d6000803e3d6000fd5b505050506040513d602081101561398257600080fd5b810190808051906020019092919050505073ffffffffffffffffffffffffffffffffffffffff1663dd62ed3e30896040518363ffffffff167c0100000000000000000000000000000000000000000000000000000000028152600401808373ffffffffffffffffffffffffffffffffffffffff1673ffffffffffffffffffffffffffffffffffffffff1681526020018273ffffffffffffffffffffffffffffffffffffffff1673ffffffffffffffffffffffffffffffffffffffff16815260200192505050602060405180830381600087803b158015613a6157600080fd5b505af1158015613a75573d6000803e3d6000fd5b505050506040513d6020811015613a8b57600080fd5b8101908080519060200190929190505050141515613c1d578573ffffffffffffffffffffffffffffffffffffffff16637bd2bea76040518163ffffffff167c0100000000000000000000000000000000000000000000000000000000028152600401602060405180830381600087803b158015613b0757600080fd5b505af1158015613b1b573d6000803e3d6000fd5b505050506040513d6020811015613b3157600080fd5b810190808051906020019092919050505073ffffffffffffffffffffffffffffffffffffffff1663095ea7b3877fffffffffffffffffffffffffffffffffffffffffffffffffffffffffffffffff6040518363ffffffff167c0100000000000000000000000000000000000000000000000000000000028152600401808373ffffffffffffffffffffffffffffffffffffffff1673ffffffffffffffffffffffffffffffffffffffff16815260200182815260200192505050600060405180830381600087803b158015613c0457600080fd5b505af1158015613c18573d6000803e3d6000fd5b505050505b8573ffffffffffffffffffffffffffffffffffffffff1663049878f3826040518263ffffffff167c010000000000000000000000000000000000000000000000000000000002815260040180828152602001915050600060405180830381600087803b158015613c8c57600080fd5b505af1158015613ca0573d6000803e3d6000fd5b505050507fffffffffffffffffffffffffffffffffffffffffffffffffffffffffffffffff8673ffffffffffffffffffffffffffffffffffffffff16630f8a771e6040518163ffffffff167c0100000000000000000000000000000000000000000000000000000000028152600401602060405180830381600087803b158015613d2957600080fd5b505af1158015613d3d573d6000803e3d6000fd5b505050506040513d6020811015613d5357600080fd5b810190808051906020019092919050505073ffffffffffffffffffffffffffffffffffffffff1663dd62ed3e30896040518363ffffffff167c0100000000000000000000000000000000000000000000000000000000028152600401808373ffffffffffffffffffffffffffffffffffffffff1673ffffffffffffffffffffffffffffffffffffffff1681526020018273ffffffffffffffffffffffffffffffffffffffff1673ffffffffffffffffffffffffffffffffffffffff16815260200192505050602060405180830381600087803b158015613e3257600080fd5b505af1158015613e46573d6000803e3d6000fd5b505050506040513d6020811015613e5c57600080fd5b8101908080519060200190929190505050141515613fee578573ffffffffffffffffffffffffffffffffffffffff16630f8a771e6040518163ffffffff167c0100000000000000000000000000000000000000000000000000000000028152600401602060405180830381600087803b158015613ed857600080fd5b505af1158015613eec573d6000803e3d6000fd5b505050506040513d6020811015613f0257600080fd5b810190808051906020019092919050505073ffffffffffffffffffffffffffffffffffffffff1663095ea7b3877fffffffffffffffffffffffffffffffffffffffffffffffffffffffffffffffff6040518363ffffffff167c0100000000000000000000000000000000000000000000000000000000028152600401808373ffffffffffffffffffffffffffffffffffffffff1673ffffffffffffffffffffffffffffffffffffffff16815260200182815260200192505050600060405180830381600087803b158015613fd557600080fd5b505af1158015613fe9573d6000803e3d6000fd5b505050505b8573ffffffffffffffffffffffffffffffffffffffff1663b3b77a5186836040518363ffffffff167c01000000000000000000000000000000000000000000000000000000000281526004018083815260200182815260200192505050600060405180830381600087803b15801561406557600080fd5b505af1158015614079573d6000803e3d6000fd5b5050505081925050509392505050565b60006b033b2e3c9fd0803ce80000006140c36140a585856152dd565b60026b033b2e3c9fd0803ce80000008115156140bd57fe5b0461530d565b8115156140cc57fe5b04905092915050565b6000816140ff6140ed85670de0b6b3a76400006152dd565b6002858115156140f957fe5b0461530d565b81151561410857fe5b04905092915050565b60008161413f61412d856b033b2e3c9fd0803ce80000006152dd565b60028581151561413957fe5b0461530d565b81151561414857fe5b04905092915050565b6000808473ffffffffffffffffffffffffffffffffffffffff1663ace237f56040518163ffffffff167c0100000000000000000000000000000000000000000000000000000000028152600401602060405180830381600087803b1580156141b857600080fd5b505af11580156141cc573d6000803e3d6000fd5b505050506040513d60208110156141e257600080fd5b810190808051906020019092919050505073ffffffffffffffffffffffffffffffffffffffff166359e02dd76040518163ffffffff167c01000000000000000000000000000000000000000000000000000000000281526004016040805180830381600087803b15801561425557600080fd5b505af1158015614269573d6000803e3d6000fd5b505050506040513d604081101561427f57600080fd5b81019080805190602001909291908051906020019092919050505080925081935050508080156142b3575060006001028214155b15614e5c5760006142c88584600190046140d5565b9050600073ffffffffffffffffffffffffffffffffffffffff168473ffffffffffffffffffffffffffffffffffffffff16141515614ca85760008473ffffffffffffffffffffffffffffffffffffffff1663ff1fd9748873ffffffffffffffffffffffffffffffffffffffff16639166cba46040518163ffffffff167c0100000000000000000000000000000000000000000000000000000000028152600401602060405180830381600087803b15801561438257600080fd5b505af1158015614396573d6000803e3d6000fd5b505050506040513d60208110156143ac57600080fd5b81019080805190602001909291905050508973ffffffffffffffffffffffffffffffffffffffff166312d43a516040518163ffffffff167c0100000000000000000000000000000000000000000000000000000000028152600401602060405180830381600087803b15801561442157600080fd5b505af1158015614435573d6000803e3d6000fd5b505050506040513d602081101561444b57600080fd5b8101908080519060200190929190505050856040518463ffffffff167c0100000000000000000000000000000000000000000000000000000000028152600401808473ffffffffffffffffffffffffffffffffffffffff1673ffffffffffffffffffffffffffffffffffffffff1681526020018373ffffffffffffffffffffffffffffffffffffffff1673ffffffffffffffffffffffffffffffffffffffff168152602001828152602001935050505060206040518083038186803b15801561451357600080fd5b505afa158015614527573d6000803e3d6000fd5b505050506040513d602081101561453d57600080fd5b810190808051906020019092919050505090507fffffffffffffffffffffffffffffffffffffffffffffffffffffffffffffffff8773ffffffffffffffffffffffffffffffffffffffff16639166cba46040518163ffffffff167c0100000000000000000000000000000000000000000000000000000000028152600401602060405180830381600087803b1580156145d557600080fd5b505af11580156145e9573d6000803e3d6000fd5b505050506040513d60208110156145ff57600080fd5b810190808051906020019092919050505073ffffffffffffffffffffffffffffffffffffffff1663dd62ed3e30886040518363ffffffff167c0100000000000000000000000000000000000000000000000000000000028152600401808373ffffffffffffffffffffffffffffffffffffffff1673ffffffffffffffffffffffffffffffffffffffff1681526020018273ffffffffffffffffffffffffffffffffffffffff1673ffffffffffffffffffffffffffffffffffffffff16815260200192505050602060405180830381600087803b1580156146de57600080fd5b505af11580156146f2573d6000803e3d6000fd5b505050506040513d602081101561470857600080fd5b810190808051906020019092919050505014151561489a578673ffffffffffffffffffffffffffffffffffffffff16639166cba46040518163ffffffff167c0100000000000000000000000000000000000000000000000000000000028152600401602060405180830381600087803b15801561478457600080fd5b505af1158015614798573d6000803e3d6000fd5b505050506040513d60208110156147ae57600080fd5b810190808051906020019092919050505073ffffffffffffffffffffffffffffffffffffffff1663095ea7b3867fffffffffffffffffffffffffffffffffffffffffffffffffffffffffffffffff6040518363ffffffff167c0100000000000000000000000000000000000000000000000000000000028152600401808373ffffffffffffffffffffffffffffffffffffffff1673ffffffffffffffffffffffffffffffffffffffff16815260200182815260200192505050600060405180830381600087803b15801561488157600080fd5b505af1158015614895573d6000803e3d6000fd5b505050505b8673ffffffffffffffffffffffffffffffffffffffff16639166cba46040518163ffffffff167c0100000000000000000000000000000000000000000000000000000000028152600401602060405180830381600087803b1580156148fe57600080fd5b505af1158015614912573d6000803e3d6000fd5b505050506040513d602081101561492857600080fd5b810190808051906020019092919050505073ffffffffffffffffffffffffffffffffffffffff166323b872dd3330846040518463ffffffff167c0100000000000000000000000000000000000000000000000000000000028152600401808473ffffffffffffffffffffffffffffffffffffffff1673ffffffffffffffffffffffffffffffffffffffff1681526020018373ffffffffffffffffffffffffffffffffffffffff1673ffffffffffffffffffffffffffffffffffffffff1681526020018281526020019350505050602060405180830381600087803b158015614a0f57600080fd5b505af1158015614a23573d6000803e3d6000fd5b505050506040513d6020811015614a3957600080fd5b8101908080519060200190929190505050508473ffffffffffffffffffffffffffffffffffffffff16638185402b8873ffffffffffffffffffffffffffffffffffffffff166312d43a516040518163ffffffff167c0100000000000000000000000000000000000000000000000000000000028152600401602060405180830381600087803b158015614acb57600080fd5b505af1158015614adf573d6000803e3d6000fd5b505050506040513d6020811015614af557600080fd5b8101908080519060200190929190505050848a73ffffffffffffffffffffffffffffffffffffffff16639166cba46040518163ffffffff167c0100000000000000000000000000000000000000000000000000000000028152600401602060405180830381600087803b158015614b6b57600080fd5b505af1158015614b7f573d6000803e3d6000fd5b505050506040513d6020811015614b9557600080fd5b8101908080519060200190929190505050856040518563ffffffff167c0100000000000000000000000000000000000000000000000000000000028152600401808573ffffffffffffffffffffffffffffffffffffffff1673ffffffffffffffffffffffffffffffffffffffff1681526020018481526020018373ffffffffffffffffffffffffffffffffffffffff1673ffffffffffffffffffffffffffffffffffffffff168152602001828152602001945050505050602060405180830381600087803b158015614c6657600080fd5b505af1158015614c7a573d6000803e3d6000fd5b505050506040513d6020811015614c9057600080fd5b81019080805190602001909291905050505050614e5a565b8573ffffffffffffffffffffffffffffffffffffffff166312d43a516040518163ffffffff167c0100000000000000000000000000000000000000000000000000000000028152600401602060405180830381600087803b158015614d0c57600080fd5b505af1158015614d20573d6000803e3d6000fd5b505050506040513d6020811015614d3657600080fd5b810190808051906020019092919050505073ffffffffffffffffffffffffffffffffffffffff166323b872dd3330846040518463ffffffff167c0100000000000000000000000000000000000000000000000000000000028152600401808473ffffffffffffffffffffffffffffffffffffffff1673ffffffffffffffffffffffffffffffffffffffff1681526020018373ffffffffffffffffffffffffffffffffffffffff1673ffffffffffffffffffffffffffffffffffffffff1681526020018281526020019350505050602060405180830381600087803b158015614e1d57600080fd5b505af1158015614e31573d6000803e3d6000fd5b505050506040513d6020811015614e4757600080fd5b8101908080519060200190929190505050505b505b5050505050565b60008282840391508111151515614e7957600080fd5b92915050565b6000670de0b6b3a7640000614eb1614e9785856152dd565b6002670de0b6b3a7640000811515614eab57fe5b0461530d565b811515614eba57fe5b04905092915050565b600080600073eeeeeeeeeeeeeeeeeeeeeeeeeeeeeeeeeeeeeeee905060008590506000737e6b8b9510d71bf8ef0f893902ebb9c865eef4df90508073ffffffffffffffffffffffffffffffffffffffff1663809a9e558385896040518463ffffffff167c0100000000000000000000000000000000000000000000000000000000028152600401808473ffffffffffffffffffffffffffffffffffffffff1673ffffffffffffffffffffffffffffffffffffffff1681526020018373ffffffffffffffffffffffffffffffffffffffff1673ffffffffffffffffffffffffffffffffffffffff1681526020018281526020019350505050604080518083038186803b158015614fd157600080fd5b505afa158015614fe5573d6000803e3d6000fd5b505050506040513d6040811015614ffb57600080fd5b8101908080519060200190929190805190602001909291905050509050809450508173ffffffffffffffffffffffffffffffffffffffff1663095ea7b38260006040518363ffffffff167c0100000000000000000000000000000000000000000000000000000000028152600401808373ffffffffffffffffffffffffffffffffffffffff1673ffffffffffffffffffffffffffffffffffffffff16815260200182815260200192505050602060405180830381600087803b1580156150c057600080fd5b505af11580156150d4573d6000803e3d6000fd5b505050506040513d60208110156150ea57600080fd5b8101908080519060200190929190505050151561510657600080fd5b8173ffffffffffffffffffffffffffffffffffffffff1663095ea7b382886040518363ffffffff167c0100000000000000000000000000000000000000000000000000000000028152600401808373ffffffffffffffffffffffffffffffffffffffff1673ffffffffffffffffffffffffffffffffffffffff16815260200182815260200192505050602060405180830381600087803b1580156151a957600080fd5b505af11580156151bd573d6000803e3d6000fd5b505050506040513d60208110156151d357600080fd5b81019080805190602001909291905050505060008173ffffffffffffffffffffffffffffffffffffffff16633bba21dc8489886040518463ffffffff167c0100000000000000000000000000000000000000000000000000000000028152600401808473ffffffffffffffffffffffffffffffffffffffff1673ffffffffffffffffffffffffffffffffffffffff1681526020018381526020018281526020019350505050602060405180830381600087803b15801561529257600080fd5b505af11580156152a6573d6000803e3d6000fd5b505050506040513d60208110156152bc57600080fd5b81019080805190602001909291905050509050809550505050505092915050565b6000808214806152fc575082828385029250828115156152f957fe5b04145b151561530757600080fd5b92915050565b6000828284019150811015151561532357600080fd5b9291505056fea165627a7a72305820e81c3519699cda1e9141f188831bc60f731e9a49412b08a66c4291829959acff0029",
  "source": "pragma solidity ^0.5.0;\n\nimport \"./interfaces/TubInterface.sol\";\nimport \"./interfaces/ERC20.sol\";\nimport \"./interfaces/KyberNetworkProxyInterface.sol\";\nimport \"./interfaces/ProxyRegistryInterface.sol\";\nimport \"./SaiProxy.sol\";\n\ncontract IVox {\n    function par() public returns (uint); //ref per dai\n}\n\ncontract SaverProxy is SaiProxy {\n    \n    event Repay(address indexed owner, uint collateralAmount, uint daiAmount);\n    event Boost(address indexed owner, uint daiAmount, uint collateralAmount);\n    \n    //KOVAN\n    address constant ETHER_ADDRESS = 0xEeeeeEeeeEeEeeEeEeEeeEEEeeeeEeeeeeeeEEeE;\n    address constant WETH_ADDRESS = 0xd0A1E359811322d97991E03f863a0C30C2cF029C;\n    address constant DAI_ADDRESS = 0xC4375B7De8af5a38a93548eb8453a498222C4fF2;\n    address constant KYBER_INTERFACE = 0x7e6b8b9510D71BF8EF0f893902EbB9C865eEF4Df;\n    address constant TUB_ADDRESS = 0xa71937147b55Deb8a530C7229C442Fd3F31b7db2;\n    address constant VOX_ADDRESS = 0xBb4339c0aB5B1d9f14Bd6e3426444A1e9d86A1d9;\n    \n    ///@dev User has to own MKR and aprrove the DSProxy address\n    function repay(uint _cdpId) public {\n        TubInterface tub = TubInterface(TUB_ADDRESS);\n        // bytes32 cup = bytes32(_cdpId);\n\n        // uint maxCollateral = maxFreeCollateral(tub, VOX_ADDRESS, cup);\n\n        // free(address(tub), cup, maxCollateral, true);\n\n        // //TODO: don't use contract balance \n        // uint daiAmount = swapEtherToToken(address(this).balance, DAI_ADDRESS);\n        \n        // //TODO: check so we don't spend more dai than there is debt\n        // wipe(address(tub), cup, daiAmount, true);\n\n        emit Repay(msg.sender, 100, 100); //maxCollateral, daiAmount);\n    }\n\n    function boost(uint _cdpId) public {\n        TubInterface tub = TubInterface(TUB_ADDRESS);\n        bytes32 cup = bytes32(_cdpId);\n        \n        uint maxDai = maxFreeDai(tub, cup);\n        \n        tub.draw(cup, maxDai);\n        \n        uint ethAmount = lockPeth(tub, cup, maxDai);\n        \n        emit Boost(msg.sender, maxDai, ethAmount);\n    }\n\n    function createCdp(address registry_, address tub_, uint wad) public payable returns (address proxy, bytes32 cup) {\n        // proxy = ProxyRegistryInterface(registry_).build(msg.sender);\n        // cup = open(tub_);\n        // lockAndDraw(tub_, cup, wad);\n        // TubInterface(tub_).give(cup, proxy);\n    }\n\n    function maxFreeCollateral(TubInterface _tub, address _vox, bytes32 _cdpId) public returns (uint) {\n        return sub(_tub.ink(_cdpId), wdiv(wmul(wmul(_tub.tab(_cdpId), rmul(_tub.mat(), WAD)), IVox(_vox).par()), _tub.tag()));\n    }\n    \n    function maxFreeDai(TubInterface _tub, bytes32 _cdpId) public returns (uint) {\n        return sub(wdiv(rmul(_tub.ink(_cdpId), _tub.tag()), rmul(_tub.mat(), WAD)), _tub.tab(_cdpId));\n    }\n\n    function getRatio(TubInterface _tub, bytes32 _cdpId) public returns(uint) {\n        return (wdiv(rmul(rmul(_tub.ink(_cdpId), _tub.tag()), WAD), _tub.tab(_cdpId)))/10000000;\n    }\n    \n    function lockPeth(TubInterface _tub, bytes32 cup, uint maxDai) internal returns(uint) {\n        uint ethAmount = swapTokenToEther(DAI_ADDRESS, maxDai);\n        \n        _tub.gem().deposit.value(ethAmount)();\n\n        uint ink = rdiv(ethAmount, _tub.per());\n        if (_tub.gem().allowance(address(this), address(_tub)) != uint(-1)) {\n            _tub.gem().approve(address(_tub), uint(-1));\n        }\n        _tub.join(ink);\n\n        if (_tub.skr().allowance(address(this), address(_tub)) != uint(-1)) {\n            _tub.skr().approve(address(_tub), uint(-1));\n        }\n        _tub.lock(cup, ink);\n        \n        return ethAmount;\n    }\n    \n    // KYBER\n\n    //TODO: watch out for gas price limits\n    function swapEtherToToken (uint _ethAmount, address _tokenAddress) internal returns(uint) {\n\n        uint minRate;\n        ERC20 ETH_TOKEN_ADDRESS = ERC20(ETHER_ADDRESS);\n        ERC20 token = ERC20(_tokenAddress);\n\n        KyberNetworkProxyInterface _kyberNetworkProxy = KyberNetworkProxyInterface(KYBER_INTERFACE);\n\n        (, minRate) = _kyberNetworkProxy.getExpectedRate(ETH_TOKEN_ADDRESS, token, _ethAmount);\n\n        //will send back tokens to this contract's address\n        uint destAmount = _kyberNetworkProxy.swapEtherToToken.value(_ethAmount)(token, minRate);\n\n        return destAmount;\n    }\n    \n    function swapTokenToEther (address _tokenAddress, uint _amount) internal returns(uint) {\n\n        uint minRate;\n        ERC20 ETH_TOKEN_ADDRESS = ERC20(ETHER_ADDRESS);\n        ERC20 token = ERC20(_tokenAddress);\n        \n        KyberNetworkProxyInterface _kyberNetworkProxy = KyberNetworkProxyInterface(KYBER_INTERFACE);\n        \n        (, minRate) = _kyberNetworkProxy.getExpectedRate(token, ETH_TOKEN_ADDRESS, _amount);\n\n        // Mitigate ERC20 Approve front-running attack, by initially setting, allowance to 0\n        require(token.approve(address(_kyberNetworkProxy), 0));\n\n        // Approve tokens so network can take them during the swap\n        token.approve(address(_kyberNetworkProxy), _amount);\n        uint destAmount = _kyberNetworkProxy.swapTokenToEther(token, _amount, minRate);\n\n        return destAmount;\n    }\n\n}\n",
  "sourcePath": "/Users/nenadpalinkasevic/Desktop/blockchain/cdpsaver/contracts/SaverProxy.sol",
  "compiler": {
    "name": "solc",
    "version": "0.5.0+commit.1d4f565a.Emscripten.clang"
  },
  "schemaVersion": "3.0.0",
  "updatedAt": "2019-01-14T08:46:45.710Z",
  "devdoc": {
    "methods": {
      "repay(uint256)": {
        "details": "User has to own MKR and aprrove the DSProxy address"
      }
    }
  },
  "userdoc": {
    "methods": {}
  }
}