{
  "contractName": "SaverProxy",
  "abi": [
    {
      "constant": false,
      "inputs": [
        {
          "name": "tub_",
          "type": "address"
        },
        {
          "name": "cup",
          "type": "bytes32"
        },
        {
          "name": "wad",
          "type": "uint256"
        }
      ],
      "name": "draw",
      "outputs": [],
      "payable": false,
      "stateMutability": "nonpayable",
      "type": "function",
      "signature": "0x0344a36f"
    },
    {
      "constant": false,
      "inputs": [
        {
          "name": "tub_",
          "type": "address"
        },
        {
          "name": "cup",
          "type": "bytes32"
        },
        {
          "name": "jam",
          "type": "uint256"
        },
        {
          "name": "wad",
          "type": "uint256"
        },
        {
          "name": "otc_",
          "type": "address"
        }
      ],
      "name": "wipeAndFree",
      "outputs": [],
      "payable": true,
      "stateMutability": "payable",
      "type": "function",
      "signature": "0x1b968160"
    },
    {
      "constant": false,
      "inputs": [
        {
          "name": "tub_",
          "type": "address"
        },
        {
          "name": "cup",
          "type": "bytes32"
        },
        {
          "name": "wad",
          "type": "uint256"
        }
      ],
      "name": "lockAndDraw",
      "outputs": [],
      "payable": true,
      "stateMutability": "payable",
      "type": "function",
      "signature": "0x1edf0c1e"
    },
    {
      "constant": false,
      "inputs": [
        {
          "name": "tub_",
          "type": "address"
        },
        {
          "name": "wad",
          "type": "uint256"
        }
      ],
      "name": "lockAndDraw",
      "outputs": [
        {
          "name": "cup",
          "type": "bytes32"
        }
      ],
      "payable": true,
      "stateMutability": "payable",
      "type": "function",
      "signature": "0x516e9aec"
    },
    {
      "constant": false,
      "inputs": [
        {
          "name": "tub_",
          "type": "address"
        },
        {
          "name": "cup",
          "type": "bytes32"
        },
        {
          "name": "jam",
          "type": "uint256"
        },
        {
          "name": "fromContract",
          "type": "bool"
        }
      ],
      "name": "free",
      "outputs": [],
      "payable": false,
      "stateMutability": "nonpayable",
      "type": "function",
      "signature": "0x5612a8b7"
    },
    {
      "constant": false,
      "inputs": [
        {
          "name": "tub_",
          "type": "address"
        },
        {
          "name": "cup",
          "type": "bytes32"
        },
        {
          "name": "wad",
          "type": "uint256"
        },
        {
          "name": "otc_",
          "type": "address"
        },
        {
          "name": "fromContract",
          "type": "bool"
        }
      ],
      "name": "wipe",
      "outputs": [],
      "payable": false,
      "stateMutability": "nonpayable",
      "type": "function",
      "signature": "0x6905ede6"
    },
    {
      "constant": false,
      "inputs": [
        {
          "name": "tub_",
          "type": "address"
        },
        {
          "name": "cup",
          "type": "bytes32"
        },
        {
          "name": "otc_",
          "type": "address"
        }
      ],
      "name": "shut",
      "outputs": [],
      "payable": false,
      "stateMutability": "nonpayable",
      "type": "function",
      "signature": "0x792037e3"
    },
    {
      "constant": false,
      "inputs": [
        {
          "name": "tub_",
          "type": "address"
        }
      ],
      "name": "open",
      "outputs": [
        {
          "name": "",
          "type": "bytes32"
        }
      ],
      "payable": false,
      "stateMutability": "nonpayable",
      "type": "function",
      "signature": "0xb95460f8"
    },
    {
      "constant": false,
      "inputs": [
        {
          "name": "tub_",
          "type": "address"
        },
        {
          "name": "cup",
          "type": "bytes32"
        }
      ],
      "name": "shut",
      "outputs": [],
      "payable": false,
      "stateMutability": "nonpayable",
      "type": "function",
      "signature": "0xbc244c11"
    },
    {
      "constant": false,
      "inputs": [
        {
          "name": "tub_",
          "type": "address"
        },
        {
          "name": "cup",
          "type": "bytes32"
        }
      ],
      "name": "lock",
      "outputs": [],
      "payable": true,
      "stateMutability": "payable",
      "type": "function",
      "signature": "0xbc25a810"
    },
    {
      "constant": false,
      "inputs": [
        {
          "name": "tub_",
          "type": "address"
        },
        {
          "name": "cup",
          "type": "bytes32"
        },
        {
          "name": "lad",
          "type": "address"
        }
      ],
      "name": "give",
      "outputs": [],
      "payable": false,
      "stateMutability": "nonpayable",
      "type": "function",
      "signature": "0xda93dfcf"
    },
    {
      "constant": false,
      "inputs": [
        {
          "name": "tub_",
          "type": "address"
        },
        {
          "name": "cup",
          "type": "bytes32"
        },
        {
          "name": "wad",
          "type": "uint256"
        },
        {
          "name": "fromContract",
          "type": "bool"
        }
      ],
      "name": "wipe",
      "outputs": [],
      "payable": false,
      "stateMutability": "nonpayable",
      "type": "function",
      "signature": "0xedcd503f"
    },
    {
      "constant": false,
      "inputs": [
        {
          "name": "tub_",
          "type": "address"
        },
        {
          "name": "cup",
          "type": "bytes32"
        },
        {
          "name": "jam",
          "type": "uint256"
        },
        {
          "name": "wad",
          "type": "uint256"
        }
      ],
      "name": "wipeAndFree",
      "outputs": [],
      "payable": true,
      "stateMutability": "payable",
      "type": "function",
      "signature": "0xfaed77ab"
    },
    {
      "anonymous": false,
      "inputs": [
        {
          "indexed": true,
          "name": "owner",
          "type": "address"
        },
        {
          "indexed": false,
          "name": "collateralAmount",
          "type": "uint256"
        },
        {
          "indexed": false,
          "name": "daiAmount",
          "type": "uint256"
        }
      ],
      "name": "Repay",
      "type": "event",
      "signature": "0x77c6871227e5d2dec8dadd5354f78453203e22e669cd0ec4c19d9a8c5edb31d0"
    },
    {
      "anonymous": false,
      "inputs": [
        {
          "indexed": true,
          "name": "owner",
          "type": "address"
        },
        {
          "indexed": false,
          "name": "daiAmount",
          "type": "uint256"
        },
        {
          "indexed": false,
          "name": "collateralAmount",
          "type": "uint256"
        }
      ],
      "name": "Boost",
      "type": "event",
      "signature": "0xaadc628cb4fd3bb7a62795eb460290459458bdc6f387ffde727c740f42c18337"
    },
    {
      "constant": false,
      "inputs": [
        {
          "name": "_cdpId",
          "type": "uint256"
        }
      ],
      "name": "repay",
      "outputs": [],
      "payable": false,
      "stateMutability": "nonpayable",
      "type": "function",
      "signature": "0x371fd8e6"
    },
    {
      "constant": false,
      "inputs": [
        {
          "name": "_cdpId",
          "type": "uint256"
        }
      ],
      "name": "boost",
      "outputs": [],
      "payable": false,
      "stateMutability": "nonpayable",
      "type": "function",
      "signature": "0x1b55d19e"
    },
    {
      "constant": false,
      "inputs": [
        {
          "name": "_daiAmount",
          "type": "uint256"
        }
      ],
      "name": "createCdp",
      "outputs": [
        {
          "name": "proxy",
          "type": "address"
        },
        {
          "name": "cup",
          "type": "bytes32"
        }
      ],
      "payable": true,
      "stateMutability": "payable",
      "type": "function",
      "signature": "0x808966ce"
    },
    {
      "constant": false,
      "inputs": [
        {
          "name": "_tub",
          "type": "address"
        },
        {
          "name": "_vox",
          "type": "address"
        },
        {
          "name": "_cdpId",
          "type": "bytes32"
        }
      ],
      "name": "maxFreeCollateral",
      "outputs": [
        {
          "name": "",
          "type": "uint256"
        }
      ],
      "payable": false,
      "stateMutability": "nonpayable",
      "type": "function",
      "signature": "0xf0df15ea"
    },
    {
      "constant": false,
      "inputs": [
        {
          "name": "_tub",
          "type": "address"
        },
        {
          "name": "_cdpId",
          "type": "bytes32"
        }
      ],
      "name": "maxFreeDai",
      "outputs": [
        {
          "name": "",
          "type": "uint256"
        }
      ],
      "payable": false,
      "stateMutability": "nonpayable",
      "type": "function",
      "signature": "0x730fd680"
    },
    {
      "constant": false,
      "inputs": [
        {
          "name": "_tub",
          "type": "address"
        },
        {
          "name": "_cdpId",
          "type": "bytes32"
        }
      ],
      "name": "getRatio",
      "outputs": [
        {
          "name": "",
          "type": "uint256"
        }
      ],
      "payable": false,
      "stateMutability": "nonpayable",
      "type": "function",
      "signature": "0x34bd9c26"
    }
  ],
  "bytecode": "0x608060405234801561001057600080fd5b50615f6c80620000216000396000f3fe608060405260043610610107576000357c0100000000000000000000000000000000000000000000000000000000900463ffffffff1680630344a36f1461010c5780631b55d19e146101715780631b968160146101ac5780631edf0c1e1461022e57806334bd9c2614610286578063371fd8e6146102f5578063516e9aec146103305780635612a8b7146103925780636905ede614610403578063730fd68014610494578063792037e314610503578063808966ce1461057e578063b95460f8146105f3578063bc244c1114610658578063bc25a810146106b3578063da93dfcf14610701578063edcd503f1461077c578063f0df15ea146107ed578063faed77ab1461087c575b600080fd5b34801561011857600080fd5b5061016f6004803603606081101561012f57600080fd5b81019080803573ffffffffffffffffffffffffffffffffffffffff16906020019092919080359060200190929190803590602001909291905050506108de565b005b34801561017d57600080fd5b506101aa6004803603602081101561019457600080fd5b8101908080359060200190929190505050610aff565b005b61022c600480360360a08110156101c257600080fd5b81019080803573ffffffffffffffffffffffffffffffffffffffff169060200190929190803590602001909291908035906020019092919080359060200190929190803573ffffffffffffffffffffffffffffffffffffffff169060200190929190505050610c29565b005b6102846004803603606081101561024457600080fd5b81019080803573ffffffffffffffffffffffffffffffffffffffff1690602001909291908035906020019092919080359060200190929190505050610c4b565b005b34801561029257600080fd5b506102df600480360360408110156102a957600080fd5b81019080803573ffffffffffffffffffffffffffffffffffffffff16906020019092919080359060200190929190505050610c65565b6040518082815260200191505060405180910390f35b34801561030157600080fd5b5061032e6004803603602081101561031857600080fd5b8101908080359060200190929190505050610e91565b005b61037c6004803603604081101561034657600080fd5b81019080803573ffffffffffffffffffffffffffffffffffffffff16906020019092919080359060200190929190505050610f98565b6040518082815260200191505060405180910390f35b34801561039e57600080fd5b50610401600480360360808110156103b557600080fd5b81019080803573ffffffffffffffffffffffffffffffffffffffff1690602001909291908035906020019092919080359060200190929190803515159060200190929190505050610fb6565b005b34801561040f57600080fd5b50610492600480360360a081101561042657600080fd5b81019080803573ffffffffffffffffffffffffffffffffffffffff1690602001909291908035906020019092919080359060200190929190803573ffffffffffffffffffffffffffffffffffffffff16906020019092919080351515906020019092919050505061164d565b005b3480156104a057600080fd5b506104ed600480360360408110156104b757600080fd5b81019080803573ffffffffffffffffffffffffffffffffffffffff169060200190929190803590602001909291905050506120af565b6040518082815260200191505060405180910390f35b34801561050f57600080fd5b5061057c6004803603606081101561052657600080fd5b81019080803573ffffffffffffffffffffffffffffffffffffffff16906020019092919080359060200190929190803573ffffffffffffffffffffffffffffffffffffffff169060200190929190505050612374565b005b6105aa6004803603602081101561059457600080fd5b810190808035906020019092919050505061260c565b604051808373ffffffffffffffffffffffffffffffffffffffff1673ffffffffffffffffffffffffffffffffffffffff1681526020018281526020019250505060405180910390f35b3480156105ff57600080fd5b506106426004803603602081101561061657600080fd5b81019080803573ffffffffffffffffffffffffffffffffffffffff16906020019092919050505061280d565b6040518082815260200191505060405180910390f35b34801561066457600080fd5b506106b16004803603604081101561067b57600080fd5b81019080803573ffffffffffffffffffffffffffffffffffffffff169060200190929190803590602001909291905050506128b5565b005b6106ff600480360360408110156106c957600080fd5b81019080803573ffffffffffffffffffffffffffffffffffffffff16906020019092919080359060200190929190505050612b4b565b005b34801561070d57600080fd5b5061077a6004803603606081101561072457600080fd5b81019080803573ffffffffffffffffffffffffffffffffffffffff16906020019092919080359060200190929190803573ffffffffffffffffffffffffffffffffffffffff1690602001909291905050506134d1565b005b34801561078857600080fd5b506107eb6004803603608081101561079f57600080fd5b81019080803573ffffffffffffffffffffffffffffffffffffffff1690602001909291908035906020019092919080359060200190929190803515159060200190929190505050613591565b005b3480156107f957600080fd5b506108666004803603606081101561081057600080fd5b81019080803573ffffffffffffffffffffffffffffffffffffffff169060200190929190803573ffffffffffffffffffffffffffffffffffffffff169060200190929190803590602001909291905050506135a5565b6040518082815260200191505060405180910390f35b6108dc6004803603608081101561089257600080fd5b81019080803573ffffffffffffffffffffffffffffffffffffffff169060200190929190803590602001909291908035906020019092919080359060200190929190505050613912565b005b6000811115610afa5760008390508073ffffffffffffffffffffffffffffffffffffffff1663440f19ba84846040518363ffffffff167c01000000000000000000000000000000000000000000000000000000000281526004018083815260200182815260200192505050600060405180830381600087803b15801561096357600080fd5b505af1158015610977573d6000803e3d6000fd5b505050508073ffffffffffffffffffffffffffffffffffffffff16639166cba46040518163ffffffff167c0100000000000000000000000000000000000000000000000000000000028152600401602060405180830381600087803b1580156109df57600080fd5b505af11580156109f3573d6000803e3d6000fd5b505050506040513d6020811015610a0957600080fd5b810190808051906020019092919050505073ffffffffffffffffffffffffffffffffffffffff1663a9059cbb33846040518363ffffffff167c0100000000000000000000000000000000000000000000000000000000028152600401808373ffffffffffffffffffffffffffffffffffffffff1673ffffffffffffffffffffffffffffffffffffffff16815260200182815260200192505050602060405180830381600087803b158015610abc57600080fd5b505af1158015610ad0573d6000803e3d6000fd5b505050506040513d6020811015610ae657600080fd5b810190808051906020019092919050505050505b505050565b600073a71937147b55deb8a530c7229c442fd3f31b7db2905060008260010290506000610b2c83836120af565b90508273ffffffffffffffffffffffffffffffffffffffff1663440f19ba83836040518363ffffffff167c01000000000000000000000000000000000000000000000000000000000281526004018083815260200182815260200192505050600060405180830381600087803b158015610ba557600080fd5b505af1158015610bb9573d6000803e3d6000fd5b505050506000610bca848484613932565b90503373ffffffffffffffffffffffffffffffffffffffff167faadc628cb4fd3bb7a62795eb460290459458bdc6f387ffde727c740f42c183378383604051808381526020018281526020019250505060405180910390a25050505050565b610c3785858484600061164d565b610c448585856000610fb6565b5050505050565b610c558383612b4b565b610c608383836108de565b505050565b600062989680610e7f610dd0610dc28673ffffffffffffffffffffffffffffffffffffffff16631f3634ed876040518263ffffffff167c010000000000000000000000000000000000000000000000000000000002815260040180828152602001915050602060405180830381600087803b158015610ce357600080fd5b505af1158015610cf7573d6000803e3d6000fd5b505050506040513d6020811015610d0d57600080fd5b81019080805190602001909291905050508773ffffffffffffffffffffffffffffffffffffffff166351f910666040518163ffffffff167c0100000000000000000000000000000000000000000000000000000000028152600401602060405180830381600087803b158015610d8257600080fd5b505af1158015610d96573d6000803e3d6000fd5b505050506040513d6020811015610dac57600080fd5b81019080805190602001909291905050506142d2565b670de0b6b3a76400006142d2565b8573ffffffffffffffffffffffffffffffffffffffff1663f7c8d634866040518263ffffffff167c010000000000000000000000000000000000000000000000000000000002815260040180828152602001915050602060405180830381600087803b158015610e3f57600080fd5b505af1158015610e53573d6000803e3d6000fd5b505050506040513d6020811015610e6957600080fd5b810190808051906020019092919050505061431e565b811515610e8857fe5b04905092915050565b600073a71937147b55deb8a530c7229c442fd3f31b7db2905060008260010290506000610ed38373bb4339c0ab5b1d9f14bd6e3426444a1e9d86a1d9846135a5565b9050610ee28383836001610fb6565b6000610f028273c4375b7de8af5a38a93548eb8453a498222c4ff261435a565b90506000610f268573db3b642ebc6ff85a3ab335cff9af2954f921599486856145a4565b90508082039150610f3a8585846001613591565b3373ffffffffffffffffffffffffffffffffffffffff167f77c6871227e5d2dec8dadd5354f78453203e22e669cd0ec4c19d9a8c5edb31d08484604051808381526020018281526020019250505060405180910390a2505050505050565b6000610fa38361280d565b9050610fb0838284610c4b565b92915050565b6000821115611647576000849050600061106e848373ffffffffffffffffffffffffffffffffffffffff16637ec9c3b86040518163ffffffff167c0100000000000000000000000000000000000000000000000000000000028152600401602060405180830381600087803b15801561102e57600080fd5b505af1158015611042573d6000803e3d6000fd5b505050506040513d602081101561105857600080fd5b8101908080519060200190929190505050614d28565b90508173ffffffffffffffffffffffffffffffffffffffff1663a5cd184e86836040518363ffffffff167c01000000000000000000000000000000000000000000000000000000000281526004018083815260200182815260200192505050600060405180830381600087803b1580156110e757600080fd5b505af11580156110fb573d6000803e3d6000fd5b505050507fffffffffffffffffffffffffffffffffffffffffffffffffffffffffffffffff8273ffffffffffffffffffffffffffffffffffffffff16630f8a771e6040518163ffffffff167c0100000000000000000000000000000000000000000000000000000000028152600401602060405180830381600087803b15801561118457600080fd5b505af1158015611198573d6000803e3d6000fd5b505050506040513d60208110156111ae57600080fd5b810190808051906020019092919050505073ffffffffffffffffffffffffffffffffffffffff1663dd62ed3e30856040518363ffffffff167c0100000000000000000000000000000000000000000000000000000000028152600401808373ffffffffffffffffffffffffffffffffffffffff1673ffffffffffffffffffffffffffffffffffffffff1681526020018273ffffffffffffffffffffffffffffffffffffffff1673ffffffffffffffffffffffffffffffffffffffff16815260200192505050602060405180830381600087803b15801561128d57600080fd5b505af11580156112a1573d6000803e3d6000fd5b505050506040513d60208110156112b757600080fd5b8101908080519060200190929190505050141515611449578173ffffffffffffffffffffffffffffffffffffffff16630f8a771e6040518163ffffffff167c0100000000000000000000000000000000000000000000000000000000028152600401602060405180830381600087803b15801561133357600080fd5b505af1158015611347573d6000803e3d6000fd5b505050506040513d602081101561135d57600080fd5b810190808051906020019092919050505073ffffffffffffffffffffffffffffffffffffffff1663095ea7b3837fffffffffffffffffffffffffffffffffffffffffffffffffffffffffffffffff6040518363ffffffff167c0100000000000000000000000000000000000000000000000000000000028152600401808373ffffffffffffffffffffffffffffffffffffffff1673ffffffffffffffffffffffffffffffffffffffff16815260200182815260200192505050600060405180830381600087803b15801561143057600080fd5b505af1158015611444573d6000803e3d6000fd5b505050505b8173ffffffffffffffffffffffffffffffffffffffff16637f8661a1826040518263ffffffff167c010000000000000000000000000000000000000000000000000000000002815260040180828152602001915050600060405180830381600087803b1580156114b857600080fd5b505af11580156114cc573d6000803e3d6000fd5b505050508173ffffffffffffffffffffffffffffffffffffffff16637bd2bea76040518163ffffffff167c0100000000000000000000000000000000000000000000000000000000028152600401602060405180830381600087803b15801561153457600080fd5b505af1158015611548573d6000803e3d6000fd5b505050506040513d602081101561155e57600080fd5b810190808051906020019092919050505073ffffffffffffffffffffffffffffffffffffffff16632e1a7d4d856040518263ffffffff167c010000000000000000000000000000000000000000000000000000000002815260040180828152602001915050600060405180830381600087803b1580156115dd57600080fd5b505af11580156115f1573d6000803e3d6000fd5b50505050821515611644573373ffffffffffffffffffffffffffffffffffffffff166108fc859081150290604051600060405180830381858888f19350505050158015611642573d6000803e3d6000fd5b505b50505b50505050565b60008311156120a8576000859050811515611983578073ffffffffffffffffffffffffffffffffffffffff16639166cba46040518163ffffffff167c0100000000000000000000000000000000000000000000000000000000028152600401602060405180830381600087803b1580156116c657600080fd5b505af11580156116da573d6000803e3d6000fd5b505050506040513d60208110156116f057600080fd5b810190808051906020019092919050505073ffffffffffffffffffffffffffffffffffffffff166323b872dd3330876040518463ffffffff167c0100000000000000000000000000000000000000000000000000000000028152600401808473ffffffffffffffffffffffffffffffffffffffff1673ffffffffffffffffffffffffffffffffffffffff1681526020018373ffffffffffffffffffffffffffffffffffffffff1673ffffffffffffffffffffffffffffffffffffffff1681526020018281526020019350505050602060405180830381600087803b1580156117d757600080fd5b505af11580156117eb573d6000803e3d6000fd5b505050506040513d602081101561180157600080fd5b8101908080519060200190929190505050506119828161197c866119778573ffffffffffffffffffffffffffffffffffffffff16636f78ee0d8b6040518263ffffffff167c010000000000000000000000000000000000000000000000000000000002815260040180828152602001915050602060405180830381600087803b15801561188d57600080fd5b505af11580156118a1573d6000803e3d6000fd5b505050506040513d60208110156118b757600080fd5b81019080805190602001909291905050508673ffffffffffffffffffffffffffffffffffffffff1663f7c8d6348c6040518263ffffffff167c010000000000000000000000000000000000000000000000000000000002815260040180828152602001915050602060405180830381600087803b15801561193757600080fd5b505af115801561194b573d6000803e3d6000fd5b505050506040513d602081101561196157600080fd5b8101908080519060200190929190505050614d28565b6142d2565b85614d68565b5b7fffffffffffffffffffffffffffffffffffffffffffffffffffffffffffffffff8173ffffffffffffffffffffffffffffffffffffffff16639166cba46040518163ffffffff167c0100000000000000000000000000000000000000000000000000000000028152600401602060405180830381600087803b158015611a0857600080fd5b505af1158015611a1c573d6000803e3d6000fd5b505050506040513d6020811015611a3257600080fd5b810190808051906020019092919050505073ffffffffffffffffffffffffffffffffffffffff1663dd62ed3e30846040518363ffffffff167c0100000000000000000000000000000000000000000000000000000000028152600401808373ffffffffffffffffffffffffffffffffffffffff1673ffffffffffffffffffffffffffffffffffffffff1681526020018273ffffffffffffffffffffffffffffffffffffffff1673ffffffffffffffffffffffffffffffffffffffff16815260200192505050602060405180830381600087803b158015611b1157600080fd5b505af1158015611b25573d6000803e3d6000fd5b505050506040513d6020811015611b3b57600080fd5b8101908080519060200190929190505050141515611ccd578073ffffffffffffffffffffffffffffffffffffffff16639166cba46040518163ffffffff167c0100000000000000000000000000000000000000000000000000000000028152600401602060405180830381600087803b158015611bb757600080fd5b505af1158015611bcb573d6000803e3d6000fd5b505050506040513d6020811015611be157600080fd5b810190808051906020019092919050505073ffffffffffffffffffffffffffffffffffffffff1663095ea7b3827fffffffffffffffffffffffffffffffffffffffffffffffffffffffffffffffff6040518363ffffffff167c0100000000000000000000000000000000000000000000000000000000028152600401808373ffffffffffffffffffffffffffffffffffffffff1673ffffffffffffffffffffffffffffffffffffffff16815260200182815260200192505050600060405180830381600087803b158015611cb457600080fd5b505af1158015611cc8573d6000803e3d6000fd5b505050505b7fffffffffffffffffffffffffffffffffffffffffffffffffffffffffffffffff8173ffffffffffffffffffffffffffffffffffffffff166312d43a516040518163ffffffff167c0100000000000000000000000000000000000000000000000000000000028152600401602060405180830381600087803b158015611d5257600080fd5b505af1158015611d66573d6000803e3d6000fd5b505050506040513d6020811015611d7c57600080fd5b810190808051906020019092919050505073ffffffffffffffffffffffffffffffffffffffff1663dd62ed3e30846040518363ffffffff167c0100000000000000000000000000000000000000000000000000000000028152600401808373ffffffffffffffffffffffffffffffffffffffff1673ffffffffffffffffffffffffffffffffffffffff1681526020018273ffffffffffffffffffffffffffffffffffffffff1673ffffffffffffffffffffffffffffffffffffffff16815260200192505050602060405180830381600087803b158015611e5b57600080fd5b505af1158015611e6f573d6000803e3d6000fd5b505050506040513d6020811015611e8557600080fd5b8101908080519060200190929190505050141515612017578073ffffffffffffffffffffffffffffffffffffffff166312d43a516040518163ffffffff167c0100000000000000000000000000000000000000000000000000000000028152600401602060405180830381600087803b158015611f0157600080fd5b505af1158015611f15573d6000803e3d6000fd5b505050506040513d6020811015611f2b57600080fd5b810190808051906020019092919050505073ffffffffffffffffffffffffffffffffffffffff1663095ea7b3827fffffffffffffffffffffffffffffffffffffffffffffffffffffffffffffffff6040518363ffffffff167c0100000000000000000000000000000000000000000000000000000000028152600401808373ffffffffffffffffffffffffffffffffffffffff1673ffffffffffffffffffffffffffffffffffffffff16815260200182815260200192505050600060405180830381600087803b158015611ffe57600080fd5b505af1158015612012573d6000803e3d6000fd5b505050505b8073ffffffffffffffffffffffffffffffffffffffff166373b3810186866040518363ffffffff167c01000000000000000000000000000000000000000000000000000000000281526004018083815260200182815260200192505050600060405180830381600087803b15801561208e57600080fd5b505af11580156120a2573d6000803e3d6000fd5b50505050505b5050505050565b600061236c6122bd6122088573ffffffffffffffffffffffffffffffffffffffff16631f3634ed866040518263ffffffff167c010000000000000000000000000000000000000000000000000000000002815260040180828152602001915050602060405180830381600087803b15801561212957600080fd5b505af115801561213d573d6000803e3d6000fd5b505050506040513d602081101561215357600080fd5b81019080805190602001909291905050508673ffffffffffffffffffffffffffffffffffffffff166351f910666040518163ffffffff167c0100000000000000000000000000000000000000000000000000000000028152600401602060405180830381600087803b1580156121c857600080fd5b505af11580156121dc573d6000803e3d6000fd5b505050506040513d60208110156121f257600080fd5b81019080805190602001909291905050506142d2565b6122b88673ffffffffffffffffffffffffffffffffffffffff1663ab0783da6040518163ffffffff167c0100000000000000000000000000000000000000000000000000000000028152600401602060405180830381600087803b15801561226f57600080fd5b505af1158015612283573d6000803e3d6000fd5b505050506040513d602081101561229957600080fd5b8101908080519060200190929190505050670de0b6b3a76400006142d2565b61431e565b8473ffffffffffffffffffffffffffffffffffffffff1663f7c8d634856040518263ffffffff167c010000000000000000000000000000000000000000000000000000000002815260040180828152602001915050602060405180830381600087803b15801561232c57600080fd5b505af1158015612340573d6000803e3d6000fd5b505050506040513d602081101561235657600080fd5b8101908080519060200190929190505050615a7a565b905092915050565b600083905061257f84846124cf8473ffffffffffffffffffffffffffffffffffffffff16631f3634ed886040518263ffffffff167c010000000000000000000000000000000000000000000000000000000002815260040180828152602001915050602060405180830381600087803b1580156123f057600080fd5b505af1158015612404573d6000803e3d6000fd5b505050506040513d602081101561241a57600080fd5b81019080805190602001909291905050508573ffffffffffffffffffffffffffffffffffffffff16637ec9c3b86040518163ffffffff167c0100000000000000000000000000000000000000000000000000000000028152600401602060405180830381600087803b15801561248f57600080fd5b505af11580156124a3573d6000803e3d6000fd5b505050506040513d60208110156124b957600080fd5b81019080805190602001909291905050506142d2565b8473ffffffffffffffffffffffffffffffffffffffff1663f7c8d634886040518263ffffffff167c010000000000000000000000000000000000000000000000000000000002815260040180828152602001915050602060405180830381600087803b15801561253e57600080fd5b505af1158015612552573d6000803e3d6000fd5b505050506040513d602081101561256857600080fd5b810190808051906020019092919050505086610c29565b8073ffffffffffffffffffffffffffffffffffffffff1663b84d2106846040518263ffffffff167c010000000000000000000000000000000000000000000000000000000002815260040180828152602001915050600060405180830381600087803b1580156125ee57600080fd5b505af1158015612602573d6000803e3d6000fd5b5050505050505050565b6000807364a436ae831c1672ae81f674cab8b6775df3475c73ffffffffffffffffffffffffffffffffffffffff1663f3701da2336040518263ffffffff167c0100000000000000000000000000000000000000000000000000000000028152600401808273ffffffffffffffffffffffffffffffffffffffff1673ffffffffffffffffffffffffffffffffffffffff168152602001915050602060405180830381600087803b1580156126be57600080fd5b505af11580156126d2573d6000803e3d6000fd5b505050506040513d60208110156126e857600080fd5b8101908080519060200190929190505050915061271873a71937147b55deb8a530c7229c442fd3f31b7db261280d565b905061273973a71937147b55deb8a530c7229c442fd3f31b7db28285610c4b565b73a71937147b55deb8a530c7229c442fd3f31b7db273ffffffffffffffffffffffffffffffffffffffff1663baa8529c82846040518363ffffffff167c0100000000000000000000000000000000000000000000000000000000028152600401808381526020018273ffffffffffffffffffffffffffffffffffffffff1673ffffffffffffffffffffffffffffffffffffffff16815260200192505050600060405180830381600087803b1580156127f057600080fd5b505af1158015612804573d6000803e3d6000fd5b50505050915091565b60008173ffffffffffffffffffffffffffffffffffffffff1663fcfff16f6040518163ffffffff167c0100000000000000000000000000000000000000000000000000000000028152600401602060405180830381600087803b15801561287357600080fd5b505af1158015612887573d6000803e3d6000fd5b505050506040513d602081101561289d57600080fd5b81019080805190602001909291905050509050919050565b6000829050612abf8383612a108473ffffffffffffffffffffffffffffffffffffffff16631f3634ed876040518263ffffffff167c010000000000000000000000000000000000000000000000000000000002815260040180828152602001915050602060405180830381600087803b15801561293157600080fd5b505af1158015612945573d6000803e3d6000fd5b505050506040513d602081101561295b57600080fd5b81019080805190602001909291905050508573ffffffffffffffffffffffffffffffffffffffff16637ec9c3b86040518163ffffffff167c0100000000000000000000000000000000000000000000000000000000028152600401602060405180830381600087803b1580156129d057600080fd5b505af11580156129e4573d6000803e3d6000fd5b505050506040513d60208110156129fa57600080fd5b81019080805190602001909291905050506142d2565b8473ffffffffffffffffffffffffffffffffffffffff1663f7c8d634876040518263ffffffff167c010000000000000000000000000000000000000000000000000000000002815260040180828152602001915050602060405180830381600087803b158015612a7f57600080fd5b505af1158015612a93573d6000803e3d6000fd5b505050506040513d6020811015612aa957600080fd5b8101908080519060200190929190505050613912565b8073ffffffffffffffffffffffffffffffffffffffff1663b84d2106836040518263ffffffff167c010000000000000000000000000000000000000000000000000000000002815260040180828152602001915050600060405180830381600087803b158015612b2e57600080fd5b505af1158015612b42573d6000803e3d6000fd5b50505050505050565b60003411156134cd5760008290508073ffffffffffffffffffffffffffffffffffffffff16637bd2bea76040518163ffffffff167c0100000000000000000000000000000000000000000000000000000000028152600401602060405180830381600087803b158015612bbd57600080fd5b505af1158015612bd1573d6000803e3d6000fd5b505050506040513d6020811015612be757600080fd5b810190808051906020019092919050505073ffffffffffffffffffffffffffffffffffffffff1663d0e30db0346040518263ffffffff167c01000000000000000000000000000000000000000000000000000000000281526004016000604051808303818588803b158015612c5b57600080fd5b505af1158015612c6f573d6000803e3d6000fd5b50505050506000612d1e348373ffffffffffffffffffffffffffffffffffffffff16637ec9c3b86040518163ffffffff167c0100000000000000000000000000000000000000000000000000000000028152600401602060405180830381600087803b158015612cde57600080fd5b505af1158015612cf2573d6000803e3d6000fd5b505050506040513d6020811015612d0857600080fd5b8101908080519060200190929190505050614d28565b90507fffffffffffffffffffffffffffffffffffffffffffffffffffffffffffffffff8273ffffffffffffffffffffffffffffffffffffffff16637bd2bea76040518163ffffffff167c0100000000000000000000000000000000000000000000000000000000028152600401602060405180830381600087803b158015612da557600080fd5b505af1158015612db9573d6000803e3d6000fd5b505050506040513d6020811015612dcf57600080fd5b810190808051906020019092919050505073ffffffffffffffffffffffffffffffffffffffff1663dd62ed3e30856040518363ffffffff167c0100000000000000000000000000000000000000000000000000000000028152600401808373ffffffffffffffffffffffffffffffffffffffff1673ffffffffffffffffffffffffffffffffffffffff1681526020018273ffffffffffffffffffffffffffffffffffffffff1673ffffffffffffffffffffffffffffffffffffffff16815260200192505050602060405180830381600087803b158015612eae57600080fd5b505af1158015612ec2573d6000803e3d6000fd5b505050506040513d6020811015612ed857600080fd5b810190808051906020019092919050505014151561306a578173ffffffffffffffffffffffffffffffffffffffff16637bd2bea76040518163ffffffff167c0100000000000000000000000000000000000000000000000000000000028152600401602060405180830381600087803b158015612f5457600080fd5b505af1158015612f68573d6000803e3d6000fd5b505050506040513d6020811015612f7e57600080fd5b810190808051906020019092919050505073ffffffffffffffffffffffffffffffffffffffff1663095ea7b3837fffffffffffffffffffffffffffffffffffffffffffffffffffffffffffffffff6040518363ffffffff167c0100000000000000000000000000000000000000000000000000000000028152600401808373ffffffffffffffffffffffffffffffffffffffff1673ffffffffffffffffffffffffffffffffffffffff16815260200182815260200192505050600060405180830381600087803b15801561305157600080fd5b505af1158015613065573d6000803e3d6000fd5b505050505b8173ffffffffffffffffffffffffffffffffffffffff1663049878f3826040518263ffffffff167c010000000000000000000000000000000000000000000000000000000002815260040180828152602001915050600060405180830381600087803b1580156130d957600080fd5b505af11580156130ed573d6000803e3d6000fd5b505050507fffffffffffffffffffffffffffffffffffffffffffffffffffffffffffffffff8273ffffffffffffffffffffffffffffffffffffffff16630f8a771e6040518163ffffffff167c0100000000000000000000000000000000000000000000000000000000028152600401602060405180830381600087803b15801561317657600080fd5b505af115801561318a573d6000803e3d6000fd5b505050506040513d60208110156131a057600080fd5b810190808051906020019092919050505073ffffffffffffffffffffffffffffffffffffffff1663dd62ed3e30856040518363ffffffff167c0100000000000000000000000000000000000000000000000000000000028152600401808373ffffffffffffffffffffffffffffffffffffffff1673ffffffffffffffffffffffffffffffffffffffff1681526020018273ffffffffffffffffffffffffffffffffffffffff1673ffffffffffffffffffffffffffffffffffffffff16815260200192505050602060405180830381600087803b15801561327f57600080fd5b505af1158015613293573d6000803e3d6000fd5b505050506040513d60208110156132a957600080fd5b810190808051906020019092919050505014151561343b578173ffffffffffffffffffffffffffffffffffffffff16630f8a771e6040518163ffffffff167c0100000000000000000000000000000000000000000000000000000000028152600401602060405180830381600087803b15801561332557600080fd5b505af1158015613339573d6000803e3d6000fd5b505050506040513d602081101561334f57600080fd5b810190808051906020019092919050505073ffffffffffffffffffffffffffffffffffffffff1663095ea7b3837fffffffffffffffffffffffffffffffffffffffffffffffffffffffffffffffff6040518363ffffffff167c0100000000000000000000000000000000000000000000000000000000028152600401808373ffffffffffffffffffffffffffffffffffffffff1673ffffffffffffffffffffffffffffffffffffffff16815260200182815260200192505050600060405180830381600087803b15801561342257600080fd5b505af1158015613436573d6000803e3d6000fd5b505050505b8173ffffffffffffffffffffffffffffffffffffffff1663b3b77a5184836040518363ffffffff167c01000000000000000000000000000000000000000000000000000000000281526004018083815260200182815260200192505050600060405180830381600087803b1580156134b257600080fd5b505af11580156134c6573d6000803e3d6000fd5b5050505050505b5050565b8273ffffffffffffffffffffffffffffffffffffffff1663baa8529c83836040518363ffffffff167c0100000000000000000000000000000000000000000000000000000000028152600401808381526020018273ffffffffffffffffffffffffffffffffffffffff1673ffffffffffffffffffffffffffffffffffffffff16815260200192505050600060405180830381600087803b15801561357457600080fd5b505af1158015613588573d6000803e3d6000fd5b50505050505050565b61359f84848460008561164d565b50505050565b60006139098473ffffffffffffffffffffffffffffffffffffffff16631f3634ed846040518263ffffffff167c010000000000000000000000000000000000000000000000000000000002815260040180828152602001915050602060405180830381600087803b15801561361957600080fd5b505af115801561362d573d6000803e3d6000fd5b505050506040513d602081101561364357600080fd5b81019080805190602001909291905050506139046138606137bc8873ffffffffffffffffffffffffffffffffffffffff1663f7c8d634886040518263ffffffff167c010000000000000000000000000000000000000000000000000000000002815260040180828152602001915050602060405180830381600087803b1580156136cc57600080fd5b505af11580156136e0573d6000803e3d6000fd5b505050506040513d60208110156136f657600080fd5b81019080805190602001909291905050506137b78a73ffffffffffffffffffffffffffffffffffffffff1663ab0783da6040518163ffffffff167c0100000000000000000000000000000000000000000000000000000000028152600401602060405180830381600087803b15801561376e57600080fd5b505af1158015613782573d6000803e3d6000fd5b505050506040513d602081101561379857600080fd5b8101908080519060200190929190505050670de0b6b3a76400006142d2565b615a96565b8773ffffffffffffffffffffffffffffffffffffffff1663495d32cb6040518163ffffffff167c0100000000000000000000000000000000000000000000000000000000028152600401602060405180830381600087803b15801561382057600080fd5b505af1158015613834573d6000803e3d6000fd5b505050506040513d602081101561384a57600080fd5b8101908080519060200190929190505050615a96565b8773ffffffffffffffffffffffffffffffffffffffff166351f910666040518163ffffffff167c0100000000000000000000000000000000000000000000000000000000028152600401602060405180830381600087803b1580156138c457600080fd5b505af11580156138d8573d6000803e3d6000fd5b505050506040513d60208110156138ee57600080fd5b810190808051906020019092919050505061431e565b615a7a565b90509392505050565b61391f8484836000613591565b61392c8484846000610fb6565b50505050565b60008061395373c4375b7de8af5a38a93548eb8453a498222c4ff284615ada565b90508473ffffffffffffffffffffffffffffffffffffffff16637bd2bea76040518163ffffffff167c0100000000000000000000000000000000000000000000000000000000028152600401602060405180830381600087803b1580156139b957600080fd5b505af11580156139cd573d6000803e3d6000fd5b505050506040513d60208110156139e357600080fd5b810190808051906020019092919050505073ffffffffffffffffffffffffffffffffffffffff1663d0e30db0826040518263ffffffff167c01000000000000000000000000000000000000000000000000000000000281526004016000604051808303818588803b158015613a5757600080fd5b505af1158015613a6b573d6000803e3d6000fd5b50505050506000613b1a828773ffffffffffffffffffffffffffffffffffffffff16637ec9c3b86040518163ffffffff167c0100000000000000000000000000000000000000000000000000000000028152600401602060405180830381600087803b158015613ada57600080fd5b505af1158015613aee573d6000803e3d6000fd5b505050506040513d6020811015613b0457600080fd5b8101908080519060200190929190505050614d28565b90507fffffffffffffffffffffffffffffffffffffffffffffffffffffffffffffffff8673ffffffffffffffffffffffffffffffffffffffff16637bd2bea76040518163ffffffff167c0100000000000000000000000000000000000000000000000000000000028152600401602060405180830381600087803b158015613ba157600080fd5b505af1158015613bb5573d6000803e3d6000fd5b505050506040513d6020811015613bcb57600080fd5b810190808051906020019092919050505073ffffffffffffffffffffffffffffffffffffffff1663dd62ed3e30896040518363ffffffff167c0100000000000000000000000000000000000000000000000000000000028152600401808373ffffffffffffffffffffffffffffffffffffffff1673ffffffffffffffffffffffffffffffffffffffff1681526020018273ffffffffffffffffffffffffffffffffffffffff1673ffffffffffffffffffffffffffffffffffffffff16815260200192505050602060405180830381600087803b158015613caa57600080fd5b505af1158015613cbe573d6000803e3d6000fd5b505050506040513d6020811015613cd457600080fd5b8101908080519060200190929190505050141515613e66578573ffffffffffffffffffffffffffffffffffffffff16637bd2bea76040518163ffffffff167c0100000000000000000000000000000000000000000000000000000000028152600401602060405180830381600087803b158015613d5057600080fd5b505af1158015613d64573d6000803e3d6000fd5b505050506040513d6020811015613d7a57600080fd5b810190808051906020019092919050505073ffffffffffffffffffffffffffffffffffffffff1663095ea7b3877fffffffffffffffffffffffffffffffffffffffffffffffffffffffffffffffff6040518363ffffffff167c0100000000000000000000000000000000000000000000000000000000028152600401808373ffffffffffffffffffffffffffffffffffffffff1673ffffffffffffffffffffffffffffffffffffffff16815260200182815260200192505050600060405180830381600087803b158015613e4d57600080fd5b505af1158015613e61573d6000803e3d6000fd5b505050505b8573ffffffffffffffffffffffffffffffffffffffff1663049878f3826040518263ffffffff167c010000000000000000000000000000000000000000000000000000000002815260040180828152602001915050600060405180830381600087803b158015613ed557600080fd5b505af1158015613ee9573d6000803e3d6000fd5b505050507fffffffffffffffffffffffffffffffffffffffffffffffffffffffffffffffff8673ffffffffffffffffffffffffffffffffffffffff16630f8a771e6040518163ffffffff167c0100000000000000000000000000000000000000000000000000000000028152600401602060405180830381600087803b158015613f7257600080fd5b505af1158015613f86573d6000803e3d6000fd5b505050506040513d6020811015613f9c57600080fd5b810190808051906020019092919050505073ffffffffffffffffffffffffffffffffffffffff1663dd62ed3e30896040518363ffffffff167c0100000000000000000000000000000000000000000000000000000000028152600401808373ffffffffffffffffffffffffffffffffffffffff1673ffffffffffffffffffffffffffffffffffffffff1681526020018273ffffffffffffffffffffffffffffffffffffffff1673ffffffffffffffffffffffffffffffffffffffff16815260200192505050602060405180830381600087803b15801561407b57600080fd5b505af115801561408f573d6000803e3d6000fd5b505050506040513d60208110156140a557600080fd5b8101908080519060200190929190505050141515614237578573ffffffffffffffffffffffffffffffffffffffff16630f8a771e6040518163ffffffff167c0100000000000000000000000000000000000000000000000000000000028152600401602060405180830381600087803b15801561412157600080fd5b505af1158015614135573d6000803e3d6000fd5b505050506040513d602081101561414b57600080fd5b810190808051906020019092919050505073ffffffffffffffffffffffffffffffffffffffff1663095ea7b3877fffffffffffffffffffffffffffffffffffffffffffffffffffffffffffffffff6040518363ffffffff167c0100000000000000000000000000000000000000000000000000000000028152600401808373ffffffffffffffffffffffffffffffffffffffff1673ffffffffffffffffffffffffffffffffffffffff16815260200182815260200192505050600060405180830381600087803b15801561421e57600080fd5b505af1158015614232573d6000803e3d6000fd5b505050505b8573ffffffffffffffffffffffffffffffffffffffff1663b3b77a5186836040518363ffffffff167c01000000000000000000000000000000000000000000000000000000000281526004018083815260200182815260200192505050600060405180830381600087803b1580156142ae57600080fd5b505af11580156142c2573d6000803e3d6000fd5b5050505081925050509392505050565b60006b033b2e3c9fd0803ce800000061430c6142ee8585615ef4565b60026b033b2e3c9fd0803ce800000081151561430657fe5b04615f24565b81151561431557fe5b04905092915050565b60008161434861433685670de0b6b3a7640000615ef4565b60028581151561434257fe5b04615f24565b81151561435157fe5b04905092915050565b600080600073eeeeeeeeeeeeeeeeeeeeeeeeeeeeeeeeeeeeeeee905060008490506000737e6b8b9510d71bf8ef0f893902ebb9c865eef4df90508073ffffffffffffffffffffffffffffffffffffffff1663809a9e5584848a6040518463ffffffff167c0100000000000000000000000000000000000000000000000000000000028152600401808473ffffffffffffffffffffffffffffffffffffffff1673ffffffffffffffffffffffffffffffffffffffff1681526020018373ffffffffffffffffffffffffffffffffffffffff1673ffffffffffffffffffffffffffffffffffffffff1681526020018281526020019350505050604080518083038186803b15801561446857600080fd5b505afa15801561447c573d6000803e3d6000fd5b505050506040513d604081101561449257600080fd5b81019080805190602001909291908051906020019092919050505090508094505060008173ffffffffffffffffffffffffffffffffffffffff16637a2a04568985886040518463ffffffff167c0100000000000000000000000000000000000000000000000000000000028152600401808373ffffffffffffffffffffffffffffffffffffffff1673ffffffffffffffffffffffffffffffffffffffff168152602001828152602001925050506020604051808303818588803b15801561455857600080fd5b505af115801561456c573d6000803e3d6000fd5b50505050506040513d602081101561458357600080fd5b81019080805190602001909291905050509050809550505050505092915050565b60008060008061470f8561470a8a73ffffffffffffffffffffffffffffffffffffffff16636f78ee0d8a6040518263ffffffff167c010000000000000000000000000000000000000000000000000000000002815260040180828152602001915050602060405180830381600087803b15801561462057600080fd5b505af1158015614634573d6000803e3d6000fd5b505050506040513d602081101561464a57600080fd5b81019080805190602001909291905050508b73ffffffffffffffffffffffffffffffffffffffff1663f7c8d6348b6040518263ffffffff167c010000000000000000000000000000000000000000000000000000000002815260040180828152602001915050602060405180830381600087803b1580156146ca57600080fd5b505af11580156146de573d6000803e3d6000fd5b505050506040513d60208110156146f457600080fd5b8101908080519060200190929190505050614d28565b6142d2565b90508773ffffffffffffffffffffffffffffffffffffffff1663ace237f56040518163ffffffff167c0100000000000000000000000000000000000000000000000000000000028152600401602060405180830381600087803b15801561477557600080fd5b505af1158015614789573d6000803e3d6000fd5b505050506040513d602081101561479f57600080fd5b810190808051906020019092919050505073ffffffffffffffffffffffffffffffffffffffff166359e02dd76040518163ffffffff167c01000000000000000000000000000000000000000000000000000000000281526004016040805180830381600087803b15801561481257600080fd5b505af1158015614826573d6000803e3d6000fd5b505050506040513d604081101561483c57600080fd5b8101908080519060200190929190805190602001909291905050508093508194505050600061486f82856001900461431e565b905060008873ffffffffffffffffffffffffffffffffffffffff1663ff1fd9748b73ffffffffffffffffffffffffffffffffffffffff16639166cba46040518163ffffffff167c0100000000000000000000000000000000000000000000000000000000028152600401602060405180830381600087803b1580156148f357600080fd5b505af1158015614907573d6000803e3d6000fd5b505050506040513d602081101561491d57600080fd5b81019080805190602001909291905050508c73ffffffffffffffffffffffffffffffffffffffff166312d43a516040518163ffffffff167c0100000000000000000000000000000000000000000000000000000000028152600401602060405180830381600087803b15801561499257600080fd5b505af11580156149a6573d6000803e3d6000fd5b505050506040513d60208110156149bc57600080fd5b8101908080519060200190929190505050856040518463ffffffff167c0100000000000000000000000000000000000000000000000000000000028152600401808473ffffffffffffffffffffffffffffffffffffffff1673ffffffffffffffffffffffffffffffffffffffff1681526020018373ffffffffffffffffffffffffffffffffffffffff1673ffffffffffffffffffffffffffffffffffffffff168152602001828152602001935050505060206040518083038186803b158015614a8457600080fd5b505afa158015614a98573d6000803e3d6000fd5b505050506040513d6020811015614aae57600080fd5b810190808051906020019092919050505090508873ffffffffffffffffffffffffffffffffffffffff16638185402b8b73ffffffffffffffffffffffffffffffffffffffff166312d43a516040518163ffffffff167c0100000000000000000000000000000000000000000000000000000000028152600401602060405180830381600087803b158015614b4157600080fd5b505af1158015614b55573d6000803e3d6000fd5b505050506040513d6020811015614b6b57600080fd5b8101908080519060200190929190505050848d73ffffffffffffffffffffffffffffffffffffffff16639166cba46040518163ffffffff167c0100000000000000000000000000000000000000000000000000000000028152600401602060405180830381600087803b158015614be157600080fd5b505af1158015614bf5573d6000803e3d6000fd5b505050506040513d6020811015614c0b57600080fd5b8101908080519060200190929190505050856040518563ffffffff167c0100000000000000000000000000000000000000000000000000000000028152600401808573ffffffffffffffffffffffffffffffffffffffff1673ffffffffffffffffffffffffffffffffffffffff1681526020018481526020018373ffffffffffffffffffffffffffffffffffffffff1673ffffffffffffffffffffffffffffffffffffffff168152602001828152602001945050505050602060405180830381600087803b158015614cdc57600080fd5b505af1158015614cf0573d6000803e3d6000fd5b505050506040513d6020811015614d0657600080fd5b8101908080519060200190929190505050508095505050505050949350505050565b600081614d56614d44856b033b2e3c9fd0803ce8000000615ef4565b600285811515614d5057fe5b04615f24565b811515614d5f57fe5b04905092915050565b6000808473ffffffffffffffffffffffffffffffffffffffff1663ace237f56040518163ffffffff167c0100000000000000000000000000000000000000000000000000000000028152600401602060405180830381600087803b158015614dcf57600080fd5b505af1158015614de3573d6000803e3d6000fd5b505050506040513d6020811015614df957600080fd5b810190808051906020019092919050505073ffffffffffffffffffffffffffffffffffffffff166359e02dd76040518163ffffffff167c01000000000000000000000000000000000000000000000000000000000281526004016040805180830381600087803b158015614e6c57600080fd5b505af1158015614e80573d6000803e3d6000fd5b505050506040513d6040811015614e9657600080fd5b8101908080519060200190929190805190602001909291905050508092508193505050808015614eca575060006001028214155b15615a73576000614edf85846001900461431e565b9050600073ffffffffffffffffffffffffffffffffffffffff168473ffffffffffffffffffffffffffffffffffffffff161415156158bf5760008473ffffffffffffffffffffffffffffffffffffffff1663ff1fd9748873ffffffffffffffffffffffffffffffffffffffff16639166cba46040518163ffffffff167c0100000000000000000000000000000000000000000000000000000000028152600401602060405180830381600087803b158015614f9957600080fd5b505af1158015614fad573d6000803e3d6000fd5b505050506040513d6020811015614fc357600080fd5b81019080805190602001909291905050508973ffffffffffffffffffffffffffffffffffffffff166312d43a516040518163ffffffff167c0100000000000000000000000000000000000000000000000000000000028152600401602060405180830381600087803b15801561503857600080fd5b505af115801561504c573d6000803e3d6000fd5b505050506040513d602081101561506257600080fd5b8101908080519060200190929190505050856040518463ffffffff167c0100000000000000000000000000000000000000000000000000000000028152600401808473ffffffffffffffffffffffffffffffffffffffff1673ffffffffffffffffffffffffffffffffffffffff1681526020018373ffffffffffffffffffffffffffffffffffffffff1673ffffffffffffffffffffffffffffffffffffffff168152602001828152602001935050505060206040518083038186803b15801561512a57600080fd5b505afa15801561513e573d6000803e3d6000fd5b505050506040513d602081101561515457600080fd5b810190808051906020019092919050505090507fffffffffffffffffffffffffffffffffffffffffffffffffffffffffffffffff8773ffffffffffffffffffffffffffffffffffffffff16639166cba46040518163ffffffff167c0100000000000000000000000000000000000000000000000000000000028152600401602060405180830381600087803b1580156151ec57600080fd5b505af1158015615200573d6000803e3d6000fd5b505050506040513d602081101561521657600080fd5b810190808051906020019092919050505073ffffffffffffffffffffffffffffffffffffffff1663dd62ed3e30886040518363ffffffff167c0100000000000000000000000000000000000000000000000000000000028152600401808373ffffffffffffffffffffffffffffffffffffffff1673ffffffffffffffffffffffffffffffffffffffff1681526020018273ffffffffffffffffffffffffffffffffffffffff1673ffffffffffffffffffffffffffffffffffffffff16815260200192505050602060405180830381600087803b1580156152f557600080fd5b505af1158015615309573d6000803e3d6000fd5b505050506040513d602081101561531f57600080fd5b81019080805190602001909291905050501415156154b1578673ffffffffffffffffffffffffffffffffffffffff16639166cba46040518163ffffffff167c0100000000000000000000000000000000000000000000000000000000028152600401602060405180830381600087803b15801561539b57600080fd5b505af11580156153af573d6000803e3d6000fd5b505050506040513d60208110156153c557600080fd5b810190808051906020019092919050505073ffffffffffffffffffffffffffffffffffffffff1663095ea7b3867fffffffffffffffffffffffffffffffffffffffffffffffffffffffffffffffff6040518363ffffffff167c0100000000000000000000000000000000000000000000000000000000028152600401808373ffffffffffffffffffffffffffffffffffffffff1673ffffffffffffffffffffffffffffffffffffffff16815260200182815260200192505050600060405180830381600087803b15801561549857600080fd5b505af11580156154ac573d6000803e3d6000fd5b505050505b8673ffffffffffffffffffffffffffffffffffffffff16639166cba46040518163ffffffff167c0100000000000000000000000000000000000000000000000000000000028152600401602060405180830381600087803b15801561551557600080fd5b505af1158015615529573d6000803e3d6000fd5b505050506040513d602081101561553f57600080fd5b810190808051906020019092919050505073ffffffffffffffffffffffffffffffffffffffff166323b872dd3330846040518463ffffffff167c0100000000000000000000000000000000000000000000000000000000028152600401808473ffffffffffffffffffffffffffffffffffffffff1673ffffffffffffffffffffffffffffffffffffffff1681526020018373ffffffffffffffffffffffffffffffffffffffff1673ffffffffffffffffffffffffffffffffffffffff1681526020018281526020019350505050602060405180830381600087803b15801561562657600080fd5b505af115801561563a573d6000803e3d6000fd5b505050506040513d602081101561565057600080fd5b8101908080519060200190929190505050508473ffffffffffffffffffffffffffffffffffffffff16638185402b8873ffffffffffffffffffffffffffffffffffffffff166312d43a516040518163ffffffff167c0100000000000000000000000000000000000000000000000000000000028152600401602060405180830381600087803b1580156156e257600080fd5b505af11580156156f6573d6000803e3d6000fd5b505050506040513d602081101561570c57600080fd5b8101908080519060200190929190505050848a73ffffffffffffffffffffffffffffffffffffffff16639166cba46040518163ffffffff167c0100000000000000000000000000000000000000000000000000000000028152600401602060405180830381600087803b15801561578257600080fd5b505af1158015615796573d6000803e3d6000fd5b505050506040513d60208110156157ac57600080fd5b8101908080519060200190929190505050856040518563ffffffff167c0100000000000000000000000000000000000000000000000000000000028152600401808573ffffffffffffffffffffffffffffffffffffffff1673ffffffffffffffffffffffffffffffffffffffff1681526020018481526020018373ffffffffffffffffffffffffffffffffffffffff1673ffffffffffffffffffffffffffffffffffffffff168152602001828152602001945050505050602060405180830381600087803b15801561587d57600080fd5b505af1158015615891573d6000803e3d6000fd5b505050506040513d60208110156158a757600080fd5b81019080805190602001909291905050505050615a71565b8573ffffffffffffffffffffffffffffffffffffffff166312d43a516040518163ffffffff167c0100000000000000000000000000000000000000000000000000000000028152600401602060405180830381600087803b15801561592357600080fd5b505af1158015615937573d6000803e3d6000fd5b505050506040513d602081101561594d57600080fd5b810190808051906020019092919050505073ffffffffffffffffffffffffffffffffffffffff166323b872dd3330846040518463ffffffff167c0100000000000000000000000000000000000000000000000000000000028152600401808473ffffffffffffffffffffffffffffffffffffffff1673ffffffffffffffffffffffffffffffffffffffff1681526020018373ffffffffffffffffffffffffffffffffffffffff1673ffffffffffffffffffffffffffffffffffffffff1681526020018281526020019350505050602060405180830381600087803b158015615a3457600080fd5b505af1158015615a48573d6000803e3d6000fd5b505050506040513d6020811015615a5e57600080fd5b8101908080519060200190929190505050505b505b5050505050565b60008282840391508111151515615a9057600080fd5b92915050565b6000670de0b6b3a7640000615ac8615aae8585615ef4565b6002670de0b6b3a7640000811515615ac257fe5b04615f24565b811515615ad157fe5b04905092915050565b600080600073eeeeeeeeeeeeeeeeeeeeeeeeeeeeeeeeeeeeeeee905060008590506000737e6b8b9510d71bf8ef0f893902ebb9c865eef4df90508073ffffffffffffffffffffffffffffffffffffffff1663809a9e558385896040518463ffffffff167c0100000000000000000000000000000000000000000000000000000000028152600401808473ffffffffffffffffffffffffffffffffffffffff1673ffffffffffffffffffffffffffffffffffffffff1681526020018373ffffffffffffffffffffffffffffffffffffffff1673ffffffffffffffffffffffffffffffffffffffff1681526020018281526020019350505050604080518083038186803b158015615be857600080fd5b505afa158015615bfc573d6000803e3d6000fd5b505050506040513d6040811015615c1257600080fd5b8101908080519060200190929190805190602001909291905050509050809450508173ffffffffffffffffffffffffffffffffffffffff1663095ea7b38260006040518363ffffffff167c0100000000000000000000000000000000000000000000000000000000028152600401808373ffffffffffffffffffffffffffffffffffffffff1673ffffffffffffffffffffffffffffffffffffffff16815260200182815260200192505050602060405180830381600087803b158015615cd757600080fd5b505af1158015615ceb573d6000803e3d6000fd5b505050506040513d6020811015615d0157600080fd5b81019080805190602001909291905050501515615d1d57600080fd5b8173ffffffffffffffffffffffffffffffffffffffff1663095ea7b382886040518363ffffffff167c0100000000000000000000000000000000000000000000000000000000028152600401808373ffffffffffffffffffffffffffffffffffffffff1673ffffffffffffffffffffffffffffffffffffffff16815260200182815260200192505050602060405180830381600087803b158015615dc057600080fd5b505af1158015615dd4573d6000803e3d6000fd5b505050506040513d6020811015615dea57600080fd5b81019080805190602001909291905050505060008173ffffffffffffffffffffffffffffffffffffffff16633bba21dc8489886040518463ffffffff167c0100000000000000000000000000000000000000000000000000000000028152600401808473ffffffffffffffffffffffffffffffffffffffff1673ffffffffffffffffffffffffffffffffffffffff1681526020018381526020018281526020019350505050602060405180830381600087803b158015615ea957600080fd5b505af1158015615ebd573d6000803e3d6000fd5b505050506040513d6020811015615ed357600080fd5b81019080805190602001909291905050509050809550505050505092915050565b600080821480615f1357508282838502925082811515615f1057fe5b04145b1515615f1e57600080fd5b92915050565b60008282840191508110151515615f3a57600080fd5b9291505056fea165627a7a723058207b354aee68b79d7e9d20d9b78be9e57554f57b2ab3094502e688bc25710b95ad0029",
  "source": "pragma solidity ^0.5.0;\n\nimport \"./interfaces/TubInterface.sol\";\nimport \"./interfaces/ERC20.sol\";\nimport \"./interfaces/KyberNetworkProxyInterface.sol\";\nimport \"./interfaces/ProxyRegistryInterface.sol\";\nimport \"./SaiProxy.sol\";\n\ncontract IVox {\n    function par() public returns (uint); //ref per dai\n}\n\ncontract SaverProxy is SaiProxy {\n    \n    event Repay(address indexed owner, uint collateralAmount, uint daiAmount);\n    event Boost(address indexed owner, uint daiAmount, uint collateralAmount);\n    \n    //KOVAN\n    address constant ETHER_ADDRESS = 0xEeeeeEeeeEeEeeEeEeEeeEEEeeeeEeeeeeeeEEeE;\n    address constant WETH_ADDRESS = 0xd0A1E359811322d97991E03f863a0C30C2cF029C;\n    address constant DAI_ADDRESS = 0xC4375B7De8af5a38a93548eb8453a498222C4fF2;\n    address constant KYBER_INTERFACE = 0x7e6b8b9510D71BF8EF0f893902EbB9C865eEF4Df;\n    address constant TUB_ADDRESS = 0xa71937147b55Deb8a530C7229C442Fd3F31b7db2;\n    address constant VOX_ADDRESS = 0xBb4339c0aB5B1d9f14Bd6e3426444A1e9d86A1d9;\n    address constant REGISTRY_ADDRESS = 0x64A436ae831C1672AE81F674CAb8B6775df3475C;\n    address constant OTC_ADDRESS = 0xdB3b642eBc6Ff85A3AB335CFf9af2954F9215994;\n    \n    ///@dev User has to own MKR and aprrove the DSProxy address\n    function repay(uint _cdpId) public {\n        TubInterface tub = TubInterface(TUB_ADDRESS);\n        bytes32 cup = bytes32(_cdpId);\n\n        //TODO: check so we don't get more eth than need to repay debt\n        uint maxCollateral = maxFreeCollateral(tub, VOX_ADDRESS, cup);\n\n        free(address(tub), cup, maxCollateral, true);\n\n        uint daiAmount = swapEtherToToken(maxCollateral, DAI_ADDRESS);\n        \n        uint fee = payStabilityFee(tub, OTC_ADDRESS, cup, daiAmount);\n        daiAmount -= fee;\n\n        wipe(address(tub), cup, daiAmount, true);\n\n        emit Repay(msg.sender, maxCollateral, daiAmount);\n    }\n\n    function boost(uint _cdpId) public {\n        TubInterface tub = TubInterface(TUB_ADDRESS);\n        bytes32 cup = bytes32(_cdpId);\n        \n        uint maxDai = maxFreeDai(tub, cup);\n        \n        tub.draw(cup, maxDai);\n        \n        uint ethAmount = lockPeth(tub, cup, maxDai);\n        \n        emit Boost(msg.sender, maxDai, ethAmount);\n    }\n\n    function createCdp(uint _daiAmount) public payable returns (address proxy, bytes32 cup) {\n        proxy = ProxyRegistryInterface(REGISTRY_ADDRESS).build(msg.sender);\n        cup = open(TUB_ADDRESS);\n        lockAndDraw(TUB_ADDRESS, cup, _daiAmount);\n        TubInterface(TUB_ADDRESS).give(cup, proxy);\n    }\n\n    function maxFreeCollateral(TubInterface _tub, address _vox, bytes32 _cdpId) public returns (uint) {\n        return sub(_tub.ink(_cdpId), wdiv(wmul(wmul(_tub.tab(_cdpId), rmul(_tub.mat(), WAD)), IVox(_vox).par()), _tub.tag()));\n    }\n    \n    function maxFreeDai(TubInterface _tub, bytes32 _cdpId) public returns (uint) {\n        return sub(wdiv(rmul(_tub.ink(_cdpId), _tub.tag()), rmul(_tub.mat(), WAD)), _tub.tab(_cdpId));\n    }\n\n    function getRatio(TubInterface _tub, bytes32 _cdpId) public returns(uint) {\n        return (wdiv(rmul(rmul(_tub.ink(_cdpId), _tub.tag()), WAD), _tub.tab(_cdpId)))/10000000;\n    }\n    \n    function lockPeth(TubInterface _tub, bytes32 cup, uint maxDai) internal returns(uint) {\n        uint ethAmount = swapTokenToEther(DAI_ADDRESS, maxDai);\n        \n        _tub.gem().deposit.value(ethAmount)();\n\n        uint ink = rdiv(ethAmount, _tub.per());\n        if (_tub.gem().allowance(address(this), address(_tub)) != uint(-1)) {\n            _tub.gem().approve(address(_tub), uint(-1));\n        }\n        _tub.join(ink);\n\n        if (_tub.skr().allowance(address(this), address(_tub)) != uint(-1)) {\n            _tub.skr().approve(address(_tub), uint(-1));\n        }\n        _tub.lock(cup, ink);\n        \n        return ethAmount;\n    }\n\n    //TODO: precise calc. of the _daiRepay amount\n    function payStabilityFee(TubInterface _tub, address _otc, bytes32 _cup, uint _daiRepay) internal returns(uint) {\n        bytes32 mkrPrice;\n        bool ok;\n\n        uint feeInDai = rmul(_daiRepay, rdiv(_tub.rap(_cup), _tub.tab(_cup)));\n\n        (mkrPrice, ok) = _tub.pep().peek();\n\n        uint govAmt = wdiv(feeInDai, uint(mkrPrice));\n\n        uint mkrAmountInDai = OtcInterface(_otc).getPayAmount(address(_tub.sai()), address(_tub.gov()), govAmt);\n\n        //approve \n        OtcInterface(_otc).buyAllAmount(address(_tub.gov()), govAmt, address(_tub.sai()), mkrAmountInDai);\n\n        return mkrAmountInDai;\n    }\n    \n    // KYBER\n\n    //TODO: watch out for gas price limits\n    function swapEtherToToken (uint _ethAmount, address _tokenAddress) internal returns(uint) {\n\n        uint minRate;\n        ERC20 ETH_TOKEN_ADDRESS = ERC20(ETHER_ADDRESS);\n        ERC20 token = ERC20(_tokenAddress);\n\n        KyberNetworkProxyInterface _kyberNetworkProxy = KyberNetworkProxyInterface(KYBER_INTERFACE);\n\n        (, minRate) = _kyberNetworkProxy.getExpectedRate(ETH_TOKEN_ADDRESS, token, _ethAmount);\n\n        //will send back tokens to this contract's address\n        uint destAmount = _kyberNetworkProxy.swapEtherToToken.value(_ethAmount)(token, minRate);\n\n        return destAmount;\n    }\n    \n    function swapTokenToEther (address _tokenAddress, uint _amount) internal returns(uint) {\n\n        uint minRate;\n        ERC20 ETH_TOKEN_ADDRESS = ERC20(ETHER_ADDRESS);\n        ERC20 token = ERC20(_tokenAddress);\n        \n        KyberNetworkProxyInterface _kyberNetworkProxy = KyberNetworkProxyInterface(KYBER_INTERFACE);\n        \n        (, minRate) = _kyberNetworkProxy.getExpectedRate(token, ETH_TOKEN_ADDRESS, _amount);\n\n        // Mitigate ERC20 Approve front-running attack, by initially setting, allowance to 0\n        require(token.approve(address(_kyberNetworkProxy), 0));\n\n        // Approve tokens so network can take them during the swap\n        token.approve(address(_kyberNetworkProxy), _amount);\n        uint destAmount = _kyberNetworkProxy.swapTokenToEther(token, _amount, minRate);\n\n        return destAmount;\n    }\n\n}\n",
  "sourcePath": "/Users/nenadpalinkasevic/Desktop/blockchain/cdpsaver/contracts/SaverProxy.sol",
  "compiler": {
    "name": "solc",
    "version": "0.5.0+commit.1d4f565a.Emscripten.clang"
  },
  "schemaVersion": "3.0.0",
  "updatedAt": "2019-01-14T13:27:18.485Z",
  "devdoc": {
    "methods": {
      "repay(uint256)": {
        "details": "User has to own MKR and aprrove the DSProxy address"
      }
    }
  },
  "userdoc": {
    "methods": {}
  }
}