{
  "contractName": "SaverProxy",
  "abi": [
    {
      "constant": false,
      "inputs": [
        {
          "name": "tub_",
          "type": "address"
        },
        {
          "name": "cup",
          "type": "bytes32"
        },
        {
          "name": "wad",
          "type": "uint256"
        }
      ],
      "name": "draw",
      "outputs": [],
      "payable": false,
      "stateMutability": "nonpayable",
      "type": "function",
      "signature": "0x0344a36f"
    },
    {
      "constant": false,
      "inputs": [
        {
          "name": "tub_",
          "type": "address"
        },
        {
          "name": "cup",
          "type": "bytes32"
        },
        {
          "name": "jam",
          "type": "uint256"
        },
        {
          "name": "wad",
          "type": "uint256"
        },
        {
          "name": "otc_",
          "type": "address"
        }
      ],
      "name": "wipeAndFree",
      "outputs": [],
      "payable": true,
      "stateMutability": "payable",
      "type": "function",
      "signature": "0x1b968160"
    },
    {
      "constant": false,
      "inputs": [
        {
          "name": "tub_",
          "type": "address"
        },
        {
          "name": "cup",
          "type": "bytes32"
        },
        {
          "name": "wad",
          "type": "uint256"
        }
      ],
      "name": "lockAndDraw",
      "outputs": [],
      "payable": true,
      "stateMutability": "payable",
      "type": "function",
      "signature": "0x1edf0c1e"
    },
    {
      "constant": false,
      "inputs": [
        {
          "name": "tub_",
          "type": "address"
        },
        {
          "name": "wad",
          "type": "uint256"
        }
      ],
      "name": "lockAndDraw",
      "outputs": [
        {
          "name": "cup",
          "type": "bytes32"
        }
      ],
      "payable": true,
      "stateMutability": "payable",
      "type": "function",
      "signature": "0x516e9aec"
    },
    {
      "constant": false,
      "inputs": [
        {
          "name": "tub_",
          "type": "address"
        },
        {
          "name": "cup",
          "type": "bytes32"
        },
        {
          "name": "jam",
          "type": "uint256"
        },
        {
          "name": "fromContract",
          "type": "bool"
        }
      ],
      "name": "free",
      "outputs": [],
      "payable": false,
      "stateMutability": "nonpayable",
      "type": "function",
      "signature": "0x5612a8b7"
    },
    {
      "constant": false,
      "inputs": [
        {
          "name": "tub_",
          "type": "address"
        },
        {
          "name": "cup",
          "type": "bytes32"
        },
        {
          "name": "wad",
          "type": "uint256"
        },
        {
          "name": "otc_",
          "type": "address"
        },
        {
          "name": "fromContract",
          "type": "bool"
        }
      ],
      "name": "wipe",
      "outputs": [],
      "payable": false,
      "stateMutability": "nonpayable",
      "type": "function",
      "signature": "0x6905ede6"
    },
    {
      "constant": false,
      "inputs": [
        {
          "name": "tub_",
          "type": "address"
        },
        {
          "name": "cup",
          "type": "bytes32"
        },
        {
          "name": "otc_",
          "type": "address"
        }
      ],
      "name": "shut",
      "outputs": [],
      "payable": false,
      "stateMutability": "nonpayable",
      "type": "function",
      "signature": "0x792037e3"
    },
    {
      "constant": false,
      "inputs": [
        {
          "name": "tub_",
          "type": "address"
        }
      ],
      "name": "open",
      "outputs": [
        {
          "name": "",
          "type": "bytes32"
        }
      ],
      "payable": false,
      "stateMutability": "nonpayable",
      "type": "function",
      "signature": "0xb95460f8"
    },
    {
      "constant": false,
      "inputs": [
        {
          "name": "tub_",
          "type": "address"
        },
        {
          "name": "cup",
          "type": "bytes32"
        }
      ],
      "name": "shut",
      "outputs": [],
      "payable": false,
      "stateMutability": "nonpayable",
      "type": "function",
      "signature": "0xbc244c11"
    },
    {
      "constant": false,
      "inputs": [
        {
          "name": "tub_",
          "type": "address"
        },
        {
          "name": "cup",
          "type": "bytes32"
        }
      ],
      "name": "lock",
      "outputs": [],
      "payable": true,
      "stateMutability": "payable",
      "type": "function",
      "signature": "0xbc25a810"
    },
    {
      "constant": false,
      "inputs": [
        {
          "name": "tub_",
          "type": "address"
        },
        {
          "name": "cup",
          "type": "bytes32"
        },
        {
          "name": "lad",
          "type": "address"
        }
      ],
      "name": "give",
      "outputs": [],
      "payable": false,
      "stateMutability": "nonpayable",
      "type": "function",
      "signature": "0xda93dfcf"
    },
    {
      "constant": false,
      "inputs": [
        {
          "name": "tub_",
          "type": "address"
        },
        {
          "name": "cup",
          "type": "bytes32"
        },
        {
          "name": "wad",
          "type": "uint256"
        },
        {
          "name": "fromContract",
          "type": "bool"
        }
      ],
      "name": "wipe",
      "outputs": [],
      "payable": false,
      "stateMutability": "nonpayable",
      "type": "function",
      "signature": "0xedcd503f"
    },
    {
      "constant": false,
      "inputs": [
        {
          "name": "tub_",
          "type": "address"
        },
        {
          "name": "cup",
          "type": "bytes32"
        },
        {
          "name": "jam",
          "type": "uint256"
        },
        {
          "name": "wad",
          "type": "uint256"
        }
      ],
      "name": "wipeAndFree",
      "outputs": [],
      "payable": true,
      "stateMutability": "payable",
      "type": "function",
      "signature": "0xfaed77ab"
    },
    {
      "anonymous": false,
      "inputs": [
        {
          "indexed": true,
          "name": "owner",
          "type": "address"
        },
        {
          "indexed": false,
          "name": "collateralAmount",
          "type": "uint256"
        },
        {
          "indexed": false,
          "name": "daiAmount",
          "type": "uint256"
        }
      ],
      "name": "Repay",
      "type": "event",
      "signature": "0x77c6871227e5d2dec8dadd5354f78453203e22e669cd0ec4c19d9a8c5edb31d0"
    },
    {
      "anonymous": false,
      "inputs": [
        {
          "indexed": true,
          "name": "owner",
          "type": "address"
        },
        {
          "indexed": false,
          "name": "daiAmount",
          "type": "uint256"
        },
        {
          "indexed": false,
          "name": "collateralAmount",
          "type": "uint256"
        }
      ],
      "name": "Boost",
      "type": "event",
      "signature": "0xaadc628cb4fd3bb7a62795eb460290459458bdc6f387ffde727c740f42c18337"
    },
    {
      "constant": false,
      "inputs": [
        {
          "name": "_cdpId",
          "type": "uint256"
        }
      ],
      "name": "repay",
      "outputs": [],
      "payable": false,
      "stateMutability": "nonpayable",
      "type": "function",
      "signature": "0x371fd8e6"
    },
    {
      "constant": false,
      "inputs": [
        {
          "name": "_cdpId",
          "type": "uint256"
        }
      ],
      "name": "boost",
      "outputs": [],
      "payable": false,
      "stateMutability": "nonpayable",
      "type": "function",
      "signature": "0x1b55d19e"
    },
    {
      "constant": false,
      "inputs": [
        {
          "name": "_tub",
          "type": "address"
        },
        {
          "name": "_vox",
          "type": "address"
        },
        {
          "name": "_cdpId",
          "type": "bytes32"
        }
      ],
      "name": "maxFreeCollateral",
      "outputs": [
        {
          "name": "",
          "type": "uint256"
        }
      ],
      "payable": false,
      "stateMutability": "nonpayable",
      "type": "function",
      "signature": "0xf0df15ea"
    },
    {
      "constant": false,
      "inputs": [
        {
          "name": "_tub",
          "type": "address"
        },
        {
          "name": "_vox",
          "type": "address"
        },
        {
          "name": "_cdpId",
          "type": "bytes32"
        }
      ],
      "name": "maxFreeDai",
      "outputs": [
        {
          "name": "",
          "type": "uint256"
        }
      ],
      "payable": false,
      "stateMutability": "nonpayable",
      "type": "function",
      "signature": "0xc9502d7f"
    },
    {
      "constant": false,
      "inputs": [
        {
          "name": "_tub",
          "type": "address"
        },
        {
          "name": "_cdpId",
          "type": "bytes32"
        }
      ],
      "name": "getRatio",
      "outputs": [
        {
          "name": "",
          "type": "uint256"
        }
      ],
      "payable": false,
      "stateMutability": "nonpayable",
      "type": "function",
      "signature": "0x34bd9c26"
    }
  ],
  "bytecode": "0x608060405234801561001057600080fd5b5061558a80620000216000396000f3fe6080604052600436106100fc576000357c0100000000000000000000000000000000000000000000000000000000900463ffffffff1680630344a36f146101015780631b55d19e146101665780631b968160146101a15780631edf0c1e1461022357806334bd9c261461027b578063371fd8e6146102ea578063516e9aec146103255780635612a8b7146103875780636905ede6146103f8578063792037e314610489578063b95460f814610504578063bc244c1114610569578063bc25a810146105c4578063c9502d7f14610612578063da93dfcf146106a1578063edcd503f1461071c578063f0df15ea1461078d578063faed77ab1461081c575b600080fd5b34801561010d57600080fd5b506101646004803603606081101561012457600080fd5b81019080803573ffffffffffffffffffffffffffffffffffffffff169060200190929190803590602001909291908035906020019092919050505061087e565b005b34801561017257600080fd5b5061019f6004803603602081101561018957600080fd5b8101908080359060200190929190505050610a9f565b005b610221600480360360a08110156101b757600080fd5b81019080803573ffffffffffffffffffffffffffffffffffffffff169060200190929190803590602001909291908035906020019092919080359060200190929190803573ffffffffffffffffffffffffffffffffffffffff169060200190929190505050610bde565b005b6102796004803603606081101561023957600080fd5b81019080803573ffffffffffffffffffffffffffffffffffffffff1690602001909291908035906020019092919080359060200190929190505050610c00565b005b34801561028757600080fd5b506102d46004803603604081101561029e57600080fd5b81019080803573ffffffffffffffffffffffffffffffffffffffff16906020019092919080359060200190929190505050610c1a565b6040518082815260200191505060405180910390f35b3480156102f657600080fd5b506103236004803603602081101561030d57600080fd5b8101908080359060200190929190505050610e46565b005b6103716004803603604081101561033b57600080fd5b81019080803573ffffffffffffffffffffffffffffffffffffffff16906020019092919080359060200190929190505050610f3a565b6040518082815260200191505060405180910390f35b34801561039357600080fd5b506103f6600480360360808110156103aa57600080fd5b81019080803573ffffffffffffffffffffffffffffffffffffffff1690602001909291908035906020019092919080359060200190929190803515159060200190929190505050610f58565b005b34801561040457600080fd5b50610487600480360360a081101561041b57600080fd5b81019080803573ffffffffffffffffffffffffffffffffffffffff1690602001909291908035906020019092919080359060200190929190803573ffffffffffffffffffffffffffffffffffffffff1690602001909291908035151590602001909291905050506115ef565b005b34801561049557600080fd5b50610502600480360360608110156104ac57600080fd5b81019080803573ffffffffffffffffffffffffffffffffffffffff16906020019092919080359060200190929190803573ffffffffffffffffffffffffffffffffffffffff169060200190929190505050612051565b005b34801561051057600080fd5b506105536004803603602081101561052757600080fd5b81019080803573ffffffffffffffffffffffffffffffffffffffff1690602001909291905050506122e9565b6040518082815260200191505060405180910390f35b34801561057557600080fd5b506105c26004803603604081101561058c57600080fd5b81019080803573ffffffffffffffffffffffffffffffffffffffff16906020019092919080359060200190929190505050612391565b005b610610600480360360408110156105da57600080fd5b81019080803573ffffffffffffffffffffffffffffffffffffffff16906020019092919080359060200190929190505050612627565b005b34801561061e57600080fd5b5061068b6004803603606081101561063557600080fd5b81019080803573ffffffffffffffffffffffffffffffffffffffff169060200190929190803573ffffffffffffffffffffffffffffffffffffffff16906020019092919080359060200190929190505050612fad565b6040518082815260200191505060405180910390f35b3480156106ad57600080fd5b5061071a600480360360608110156106c457600080fd5b81019080803573ffffffffffffffffffffffffffffffffffffffff16906020019092919080359060200190929190803573ffffffffffffffffffffffffffffffffffffffff169060200190929190505050613273565b005b34801561072857600080fd5b5061078b6004803603608081101561073f57600080fd5b81019080803573ffffffffffffffffffffffffffffffffffffffff1690602001909291908035906020019092919080359060200190929190803515159060200190929190505050613333565b005b34801561079957600080fd5b50610806600480360360608110156107b057600080fd5b81019080803573ffffffffffffffffffffffffffffffffffffffff169060200190929190803573ffffffffffffffffffffffffffffffffffffffff16906020019092919080359060200190929190505050613347565b6040518082815260200191505060405180910390f35b61087c6004803603608081101561083257600080fd5b81019080803573ffffffffffffffffffffffffffffffffffffffff1690602001909291908035906020019092919080359060200190929190803590602001909291905050506136b4565b005b6000811115610a9a5760008390508073ffffffffffffffffffffffffffffffffffffffff1663440f19ba84846040518363ffffffff167c01000000000000000000000000000000000000000000000000000000000281526004018083815260200182815260200192505050600060405180830381600087803b15801561090357600080fd5b505af1158015610917573d6000803e3d6000fd5b505050508073ffffffffffffffffffffffffffffffffffffffff16639166cba46040518163ffffffff167c0100000000000000000000000000000000000000000000000000000000028152600401602060405180830381600087803b15801561097f57600080fd5b505af1158015610993573d6000803e3d6000fd5b505050506040513d60208110156109a957600080fd5b810190808051906020019092919050505073ffffffffffffffffffffffffffffffffffffffff1663a9059cbb33846040518363ffffffff167c0100000000000000000000000000000000000000000000000000000000028152600401808373ffffffffffffffffffffffffffffffffffffffff1673ffffffffffffffffffffffffffffffffffffffff16815260200182815260200192505050602060405180830381600087803b158015610a5c57600080fd5b505af1158015610a70573d6000803e3d6000fd5b505050506040513d6020811015610a8657600080fd5b810190808051906020019092919050505050505b505050565b600073a71937147b55deb8a530c7229c442fd3f31b7db2905060008260010290506000610ae18373bb4339c0ab5b1d9f14bd6e3426444a1e9d86a1d984612fad565b90508273ffffffffffffffffffffffffffffffffffffffff1663440f19ba83836040518363ffffffff167c01000000000000000000000000000000000000000000000000000000000281526004018083815260200182815260200192505050600060405180830381600087803b158015610b5a57600080fd5b505af1158015610b6e573d6000803e3d6000fd5b505050506000610b7f8484846136d4565b90503373ffffffffffffffffffffffffffffffffffffffff167faadc628cb4fd3bb7a62795eb460290459458bdc6f387ffde727c740f42c183378383604051808381526020018281526020019250505060405180910390a25050505050565b610bec8585848460006115ef565b610bf98585856000610f58565b5050505050565b610c0a8383612627565b610c1583838361087e565b505050565b600062989680610e34610d85610d778673ffffffffffffffffffffffffffffffffffffffff16631f3634ed876040518263ffffffff167c010000000000000000000000000000000000000000000000000000000002815260040180828152602001915050602060405180830381600087803b158015610c9857600080fd5b505af1158015610cac573d6000803e3d6000fd5b505050506040513d6020811015610cc257600080fd5b81019080805190602001909291905050508773ffffffffffffffffffffffffffffffffffffffff166351f910666040518163ffffffff167c0100000000000000000000000000000000000000000000000000000000028152600401602060405180830381600087803b158015610d3757600080fd5b505af1158015610d4b573d6000803e3d6000fd5b505050506040513d6020811015610d6157600080fd5b8101908080519060200190929190505050614074565b670de0b6b3a7640000614074565b8573ffffffffffffffffffffffffffffffffffffffff1663f7c8d634866040518263ffffffff167c010000000000000000000000000000000000000000000000000000000002815260040180828152602001915050602060405180830381600087803b158015610df457600080fd5b505af1158015610e08573d6000803e3d6000fd5b505050506040513d6020811015610e1e57600080fd5b81019080805190602001909291905050506140c0565b811515610e3d57fe5b04905092915050565b600073a71937147b55deb8a530c7229c442fd3f31b7db2905060008260010290506000610e888373bb4339c0ab5b1d9f14bd6e3426444a1e9d86a1d984613347565b9050610e978383836001610f58565b6000610ece3073ffffffffffffffffffffffffffffffffffffffff163173c4375b7de8af5a38a93548eb8453a498222c4ff26140fc565b9050610edd8484836001613333565b3373ffffffffffffffffffffffffffffffffffffffff167f77c6871227e5d2dec8dadd5354f78453203e22e669cd0ec4c19d9a8c5edb31d08383604051808381526020018281526020019250505060405180910390a25050505050565b6000610f45836122e9565b9050610f52838284610c00565b92915050565b60008211156115e95760008490506000611010848373ffffffffffffffffffffffffffffffffffffffff16637ec9c3b86040518163ffffffff167c0100000000000000000000000000000000000000000000000000000000028152600401602060405180830381600087803b158015610fd057600080fd5b505af1158015610fe4573d6000803e3d6000fd5b505050506040513d6020811015610ffa57600080fd5b8101908080519060200190929190505050614346565b90508173ffffffffffffffffffffffffffffffffffffffff1663a5cd184e86836040518363ffffffff167c01000000000000000000000000000000000000000000000000000000000281526004018083815260200182815260200192505050600060405180830381600087803b15801561108957600080fd5b505af115801561109d573d6000803e3d6000fd5b505050507fffffffffffffffffffffffffffffffffffffffffffffffffffffffffffffffff8273ffffffffffffffffffffffffffffffffffffffff16630f8a771e6040518163ffffffff167c0100000000000000000000000000000000000000000000000000000000028152600401602060405180830381600087803b15801561112657600080fd5b505af115801561113a573d6000803e3d6000fd5b505050506040513d602081101561115057600080fd5b810190808051906020019092919050505073ffffffffffffffffffffffffffffffffffffffff1663dd62ed3e30856040518363ffffffff167c0100000000000000000000000000000000000000000000000000000000028152600401808373ffffffffffffffffffffffffffffffffffffffff1673ffffffffffffffffffffffffffffffffffffffff1681526020018273ffffffffffffffffffffffffffffffffffffffff1673ffffffffffffffffffffffffffffffffffffffff16815260200192505050602060405180830381600087803b15801561122f57600080fd5b505af1158015611243573d6000803e3d6000fd5b505050506040513d602081101561125957600080fd5b81019080805190602001909291905050501415156113eb578173ffffffffffffffffffffffffffffffffffffffff16630f8a771e6040518163ffffffff167c0100000000000000000000000000000000000000000000000000000000028152600401602060405180830381600087803b1580156112d557600080fd5b505af11580156112e9573d6000803e3d6000fd5b505050506040513d60208110156112ff57600080fd5b810190808051906020019092919050505073ffffffffffffffffffffffffffffffffffffffff1663095ea7b3837fffffffffffffffffffffffffffffffffffffffffffffffffffffffffffffffff6040518363ffffffff167c0100000000000000000000000000000000000000000000000000000000028152600401808373ffffffffffffffffffffffffffffffffffffffff1673ffffffffffffffffffffffffffffffffffffffff16815260200182815260200192505050600060405180830381600087803b1580156113d257600080fd5b505af11580156113e6573d6000803e3d6000fd5b505050505b8173ffffffffffffffffffffffffffffffffffffffff16637f8661a1826040518263ffffffff167c010000000000000000000000000000000000000000000000000000000002815260040180828152602001915050600060405180830381600087803b15801561145a57600080fd5b505af115801561146e573d6000803e3d6000fd5b505050508173ffffffffffffffffffffffffffffffffffffffff16637bd2bea76040518163ffffffff167c0100000000000000000000000000000000000000000000000000000000028152600401602060405180830381600087803b1580156114d657600080fd5b505af11580156114ea573d6000803e3d6000fd5b505050506040513d602081101561150057600080fd5b810190808051906020019092919050505073ffffffffffffffffffffffffffffffffffffffff16632e1a7d4d856040518263ffffffff167c010000000000000000000000000000000000000000000000000000000002815260040180828152602001915050600060405180830381600087803b15801561157f57600080fd5b505af1158015611593573d6000803e3d6000fd5b505050508215156115e6573373ffffffffffffffffffffffffffffffffffffffff166108fc859081150290604051600060405180830381858888f193505050501580156115e4573d6000803e3d6000fd5b505b50505b50505050565b600083111561204a5760008590508115156117b6578073ffffffffffffffffffffffffffffffffffffffff16639166cba46040518163ffffffff167c0100000000000000000000000000000000000000000000000000000000028152600401602060405180830381600087803b15801561166857600080fd5b505af115801561167c573d6000803e3d6000fd5b505050506040513d602081101561169257600080fd5b810190808051906020019092919050505073ffffffffffffffffffffffffffffffffffffffff166323b872dd3330876040518463ffffffff167c0100000000000000000000000000000000000000000000000000000000028152600401808473ffffffffffffffffffffffffffffffffffffffff1673ffffffffffffffffffffffffffffffffffffffff1681526020018373ffffffffffffffffffffffffffffffffffffffff1673ffffffffffffffffffffffffffffffffffffffff1681526020018281526020019350505050602060405180830381600087803b15801561177957600080fd5b505af115801561178d573d6000803e3d6000fd5b505050506040513d60208110156117a357600080fd5b8101908080519060200190929190505050505b6119258161191f8661191a8573ffffffffffffffffffffffffffffffffffffffff16636f78ee0d8b6040518263ffffffff167c010000000000000000000000000000000000000000000000000000000002815260040180828152602001915050602060405180830381600087803b15801561183057600080fd5b505af1158015611844573d6000803e3d6000fd5b505050506040513d602081101561185a57600080fd5b81019080805190602001909291905050508673ffffffffffffffffffffffffffffffffffffffff1663f7c8d6348c6040518263ffffffff167c010000000000000000000000000000000000000000000000000000000002815260040180828152602001915050602060405180830381600087803b1580156118da57600080fd5b505af11580156118ee573d6000803e3d6000fd5b505050506040513d602081101561190457600080fd5b8101908080519060200190929190505050614346565b614074565b85614386565b7fffffffffffffffffffffffffffffffffffffffffffffffffffffffffffffffff8173ffffffffffffffffffffffffffffffffffffffff16639166cba46040518163ffffffff167c0100000000000000000000000000000000000000000000000000000000028152600401602060405180830381600087803b1580156119aa57600080fd5b505af11580156119be573d6000803e3d6000fd5b505050506040513d60208110156119d457600080fd5b810190808051906020019092919050505073ffffffffffffffffffffffffffffffffffffffff1663dd62ed3e30846040518363ffffffff167c0100000000000000000000000000000000000000000000000000000000028152600401808373ffffffffffffffffffffffffffffffffffffffff1673ffffffffffffffffffffffffffffffffffffffff1681526020018273ffffffffffffffffffffffffffffffffffffffff1673ffffffffffffffffffffffffffffffffffffffff16815260200192505050602060405180830381600087803b158015611ab357600080fd5b505af1158015611ac7573d6000803e3d6000fd5b505050506040513d6020811015611add57600080fd5b8101908080519060200190929190505050141515611c6f578073ffffffffffffffffffffffffffffffffffffffff16639166cba46040518163ffffffff167c0100000000000000000000000000000000000000000000000000000000028152600401602060405180830381600087803b158015611b5957600080fd5b505af1158015611b6d573d6000803e3d6000fd5b505050506040513d6020811015611b8357600080fd5b810190808051906020019092919050505073ffffffffffffffffffffffffffffffffffffffff1663095ea7b3827fffffffffffffffffffffffffffffffffffffffffffffffffffffffffffffffff6040518363ffffffff167c0100000000000000000000000000000000000000000000000000000000028152600401808373ffffffffffffffffffffffffffffffffffffffff1673ffffffffffffffffffffffffffffffffffffffff16815260200182815260200192505050600060405180830381600087803b158015611c5657600080fd5b505af1158015611c6a573d6000803e3d6000fd5b505050505b7fffffffffffffffffffffffffffffffffffffffffffffffffffffffffffffffff8173ffffffffffffffffffffffffffffffffffffffff166312d43a516040518163ffffffff167c0100000000000000000000000000000000000000000000000000000000028152600401602060405180830381600087803b158015611cf457600080fd5b505af1158015611d08573d6000803e3d6000fd5b505050506040513d6020811015611d1e57600080fd5b810190808051906020019092919050505073ffffffffffffffffffffffffffffffffffffffff1663dd62ed3e30846040518363ffffffff167c0100000000000000000000000000000000000000000000000000000000028152600401808373ffffffffffffffffffffffffffffffffffffffff1673ffffffffffffffffffffffffffffffffffffffff1681526020018273ffffffffffffffffffffffffffffffffffffffff1673ffffffffffffffffffffffffffffffffffffffff16815260200192505050602060405180830381600087803b158015611dfd57600080fd5b505af1158015611e11573d6000803e3d6000fd5b505050506040513d6020811015611e2757600080fd5b8101908080519060200190929190505050141515611fb9578073ffffffffffffffffffffffffffffffffffffffff166312d43a516040518163ffffffff167c0100000000000000000000000000000000000000000000000000000000028152600401602060405180830381600087803b158015611ea357600080fd5b505af1158015611eb7573d6000803e3d6000fd5b505050506040513d6020811015611ecd57600080fd5b810190808051906020019092919050505073ffffffffffffffffffffffffffffffffffffffff1663095ea7b3827fffffffffffffffffffffffffffffffffffffffffffffffffffffffffffffffff6040518363ffffffff167c0100000000000000000000000000000000000000000000000000000000028152600401808373ffffffffffffffffffffffffffffffffffffffff1673ffffffffffffffffffffffffffffffffffffffff16815260200182815260200192505050600060405180830381600087803b158015611fa057600080fd5b505af1158015611fb4573d6000803e3d6000fd5b505050505b8073ffffffffffffffffffffffffffffffffffffffff166373b3810186866040518363ffffffff167c01000000000000000000000000000000000000000000000000000000000281526004018083815260200182815260200192505050600060405180830381600087803b15801561203057600080fd5b505af1158015612044573d6000803e3d6000fd5b50505050505b5050505050565b600083905061225c84846121ac8473ffffffffffffffffffffffffffffffffffffffff16631f3634ed886040518263ffffffff167c010000000000000000000000000000000000000000000000000000000002815260040180828152602001915050602060405180830381600087803b1580156120cd57600080fd5b505af11580156120e1573d6000803e3d6000fd5b505050506040513d60208110156120f757600080fd5b81019080805190602001909291905050508573ffffffffffffffffffffffffffffffffffffffff16637ec9c3b86040518163ffffffff167c0100000000000000000000000000000000000000000000000000000000028152600401602060405180830381600087803b15801561216c57600080fd5b505af1158015612180573d6000803e3d6000fd5b505050506040513d602081101561219657600080fd5b8101908080519060200190929190505050614074565b8473ffffffffffffffffffffffffffffffffffffffff1663f7c8d634886040518263ffffffff167c010000000000000000000000000000000000000000000000000000000002815260040180828152602001915050602060405180830381600087803b15801561221b57600080fd5b505af115801561222f573d6000803e3d6000fd5b505050506040513d602081101561224557600080fd5b810190808051906020019092919050505086610bde565b8073ffffffffffffffffffffffffffffffffffffffff1663b84d2106846040518263ffffffff167c010000000000000000000000000000000000000000000000000000000002815260040180828152602001915050600060405180830381600087803b1580156122cb57600080fd5b505af11580156122df573d6000803e3d6000fd5b5050505050505050565b60008173ffffffffffffffffffffffffffffffffffffffff1663fcfff16f6040518163ffffffff167c0100000000000000000000000000000000000000000000000000000000028152600401602060405180830381600087803b15801561234f57600080fd5b505af1158015612363573d6000803e3d6000fd5b505050506040513d602081101561237957600080fd5b81019080805190602001909291905050509050919050565b600082905061259b83836124ec8473ffffffffffffffffffffffffffffffffffffffff16631f3634ed876040518263ffffffff167c010000000000000000000000000000000000000000000000000000000002815260040180828152602001915050602060405180830381600087803b15801561240d57600080fd5b505af1158015612421573d6000803e3d6000fd5b505050506040513d602081101561243757600080fd5b81019080805190602001909291905050508573ffffffffffffffffffffffffffffffffffffffff16637ec9c3b86040518163ffffffff167c0100000000000000000000000000000000000000000000000000000000028152600401602060405180830381600087803b1580156124ac57600080fd5b505af11580156124c0573d6000803e3d6000fd5b505050506040513d60208110156124d657600080fd5b8101908080519060200190929190505050614074565b8473ffffffffffffffffffffffffffffffffffffffff1663f7c8d634876040518263ffffffff167c010000000000000000000000000000000000000000000000000000000002815260040180828152602001915050602060405180830381600087803b15801561255b57600080fd5b505af115801561256f573d6000803e3d6000fd5b505050506040513d602081101561258557600080fd5b81019080805190602001909291905050506136b4565b8073ffffffffffffffffffffffffffffffffffffffff1663b84d2106836040518263ffffffff167c010000000000000000000000000000000000000000000000000000000002815260040180828152602001915050600060405180830381600087803b15801561260a57600080fd5b505af115801561261e573d6000803e3d6000fd5b50505050505050565b6000341115612fa95760008290508073ffffffffffffffffffffffffffffffffffffffff16637bd2bea76040518163ffffffff167c0100000000000000000000000000000000000000000000000000000000028152600401602060405180830381600087803b15801561269957600080fd5b505af11580156126ad573d6000803e3d6000fd5b505050506040513d60208110156126c357600080fd5b810190808051906020019092919050505073ffffffffffffffffffffffffffffffffffffffff1663d0e30db0346040518263ffffffff167c01000000000000000000000000000000000000000000000000000000000281526004016000604051808303818588803b15801561273757600080fd5b505af115801561274b573d6000803e3d6000fd5b505050505060006127fa348373ffffffffffffffffffffffffffffffffffffffff16637ec9c3b86040518163ffffffff167c0100000000000000000000000000000000000000000000000000000000028152600401602060405180830381600087803b1580156127ba57600080fd5b505af11580156127ce573d6000803e3d6000fd5b505050506040513d60208110156127e457600080fd5b8101908080519060200190929190505050614346565b90507fffffffffffffffffffffffffffffffffffffffffffffffffffffffffffffffff8273ffffffffffffffffffffffffffffffffffffffff16637bd2bea76040518163ffffffff167c0100000000000000000000000000000000000000000000000000000000028152600401602060405180830381600087803b15801561288157600080fd5b505af1158015612895573d6000803e3d6000fd5b505050506040513d60208110156128ab57600080fd5b810190808051906020019092919050505073ffffffffffffffffffffffffffffffffffffffff1663dd62ed3e30856040518363ffffffff167c0100000000000000000000000000000000000000000000000000000000028152600401808373ffffffffffffffffffffffffffffffffffffffff1673ffffffffffffffffffffffffffffffffffffffff1681526020018273ffffffffffffffffffffffffffffffffffffffff1673ffffffffffffffffffffffffffffffffffffffff16815260200192505050602060405180830381600087803b15801561298a57600080fd5b505af115801561299e573d6000803e3d6000fd5b505050506040513d60208110156129b457600080fd5b8101908080519060200190929190505050141515612b46578173ffffffffffffffffffffffffffffffffffffffff16637bd2bea76040518163ffffffff167c0100000000000000000000000000000000000000000000000000000000028152600401602060405180830381600087803b158015612a3057600080fd5b505af1158015612a44573d6000803e3d6000fd5b505050506040513d6020811015612a5a57600080fd5b810190808051906020019092919050505073ffffffffffffffffffffffffffffffffffffffff1663095ea7b3837fffffffffffffffffffffffffffffffffffffffffffffffffffffffffffffffff6040518363ffffffff167c0100000000000000000000000000000000000000000000000000000000028152600401808373ffffffffffffffffffffffffffffffffffffffff1673ffffffffffffffffffffffffffffffffffffffff16815260200182815260200192505050600060405180830381600087803b158015612b2d57600080fd5b505af1158015612b41573d6000803e3d6000fd5b505050505b8173ffffffffffffffffffffffffffffffffffffffff1663049878f3826040518263ffffffff167c010000000000000000000000000000000000000000000000000000000002815260040180828152602001915050600060405180830381600087803b158015612bb557600080fd5b505af1158015612bc9573d6000803e3d6000fd5b505050507fffffffffffffffffffffffffffffffffffffffffffffffffffffffffffffffff8273ffffffffffffffffffffffffffffffffffffffff16630f8a771e6040518163ffffffff167c0100000000000000000000000000000000000000000000000000000000028152600401602060405180830381600087803b158015612c5257600080fd5b505af1158015612c66573d6000803e3d6000fd5b505050506040513d6020811015612c7c57600080fd5b810190808051906020019092919050505073ffffffffffffffffffffffffffffffffffffffff1663dd62ed3e30856040518363ffffffff167c0100000000000000000000000000000000000000000000000000000000028152600401808373ffffffffffffffffffffffffffffffffffffffff1673ffffffffffffffffffffffffffffffffffffffff1681526020018273ffffffffffffffffffffffffffffffffffffffff1673ffffffffffffffffffffffffffffffffffffffff16815260200192505050602060405180830381600087803b158015612d5b57600080fd5b505af1158015612d6f573d6000803e3d6000fd5b505050506040513d6020811015612d8557600080fd5b8101908080519060200190929190505050141515612f17578173ffffffffffffffffffffffffffffffffffffffff16630f8a771e6040518163ffffffff167c0100000000000000000000000000000000000000000000000000000000028152600401602060405180830381600087803b158015612e0157600080fd5b505af1158015612e15573d6000803e3d6000fd5b505050506040513d6020811015612e2b57600080fd5b810190808051906020019092919050505073ffffffffffffffffffffffffffffffffffffffff1663095ea7b3837fffffffffffffffffffffffffffffffffffffffffffffffffffffffffffffffff6040518363ffffffff167c0100000000000000000000000000000000000000000000000000000000028152600401808373ffffffffffffffffffffffffffffffffffffffff1673ffffffffffffffffffffffffffffffffffffffff16815260200182815260200192505050600060405180830381600087803b158015612efe57600080fd5b505af1158015612f12573d6000803e3d6000fd5b505050505b8173ffffffffffffffffffffffffffffffffffffffff1663b3b77a5184836040518363ffffffff167c01000000000000000000000000000000000000000000000000000000000281526004018083815260200182815260200192505050600060405180830381600087803b158015612f8e57600080fd5b505af1158015612fa2573d6000803e3d6000fd5b5050505050505b5050565b600061326a6131bb6131068673ffffffffffffffffffffffffffffffffffffffff16631f3634ed866040518263ffffffff167c010000000000000000000000000000000000000000000000000000000002815260040180828152602001915050602060405180830381600087803b15801561302757600080fd5b505af115801561303b573d6000803e3d6000fd5b505050506040513d602081101561305157600080fd5b81019080805190602001909291905050508773ffffffffffffffffffffffffffffffffffffffff166351f910666040518163ffffffff167c0100000000000000000000000000000000000000000000000000000000028152600401602060405180830381600087803b1580156130c657600080fd5b505af11580156130da573d6000803e3d6000fd5b505050506040513d60208110156130f057600080fd5b8101908080519060200190929190505050614074565b6131b68773ffffffffffffffffffffffffffffffffffffffff1663ab0783da6040518163ffffffff167c0100000000000000000000000000000000000000000000000000000000028152600401602060405180830381600087803b15801561316d57600080fd5b505af1158015613181573d6000803e3d6000fd5b505050506040513d602081101561319757600080fd5b8101908080519060200190929190505050670de0b6b3a7640000614074565b6140c0565b8573ffffffffffffffffffffffffffffffffffffffff1663f7c8d634856040518263ffffffff167c010000000000000000000000000000000000000000000000000000000002815260040180828152602001915050602060405180830381600087803b15801561322a57600080fd5b505af115801561323e573d6000803e3d6000fd5b505050506040513d602081101561325457600080fd5b8101908080519060200190929190505050615098565b90509392505050565b8273ffffffffffffffffffffffffffffffffffffffff1663baa8529c83836040518363ffffffff167c0100000000000000000000000000000000000000000000000000000000028152600401808381526020018273ffffffffffffffffffffffffffffffffffffffff1673ffffffffffffffffffffffffffffffffffffffff16815260200192505050600060405180830381600087803b15801561331657600080fd5b505af115801561332a573d6000803e3d6000fd5b50505050505050565b6133418484846000856115ef565b50505050565b60006136ab8473ffffffffffffffffffffffffffffffffffffffff16631f3634ed846040518263ffffffff167c010000000000000000000000000000000000000000000000000000000002815260040180828152602001915050602060405180830381600087803b1580156133bb57600080fd5b505af11580156133cf573d6000803e3d6000fd5b505050506040513d60208110156133e557600080fd5b81019080805190602001909291905050506136a661360261355e8873ffffffffffffffffffffffffffffffffffffffff1663f7c8d634886040518263ffffffff167c010000000000000000000000000000000000000000000000000000000002815260040180828152602001915050602060405180830381600087803b15801561346e57600080fd5b505af1158015613482573d6000803e3d6000fd5b505050506040513d602081101561349857600080fd5b81019080805190602001909291905050506135598a73ffffffffffffffffffffffffffffffffffffffff1663ab0783da6040518163ffffffff167c0100000000000000000000000000000000000000000000000000000000028152600401602060405180830381600087803b15801561351057600080fd5b505af1158015613524573d6000803e3d6000fd5b505050506040513d602081101561353a57600080fd5b8101908080519060200190929190505050670de0b6b3a7640000614074565b6150b4565b8773ffffffffffffffffffffffffffffffffffffffff1663495d32cb6040518163ffffffff167c0100000000000000000000000000000000000000000000000000000000028152600401602060405180830381600087803b1580156135c257600080fd5b505af11580156135d6573d6000803e3d6000fd5b505050506040513d60208110156135ec57600080fd5b81019080805190602001909291905050506150b4565b8773ffffffffffffffffffffffffffffffffffffffff166351f910666040518163ffffffff167c0100000000000000000000000000000000000000000000000000000000028152600401602060405180830381600087803b15801561366657600080fd5b505af115801561367a573d6000803e3d6000fd5b505050506040513d602081101561369057600080fd5b81019080805190602001909291905050506140c0565b615098565b90509392505050565b6136c18484836000613333565b6136ce8484846000610f58565b50505050565b6000806136f573c4375b7de8af5a38a93548eb8453a498222c4ff2846150f8565b90508473ffffffffffffffffffffffffffffffffffffffff16637bd2bea76040518163ffffffff167c0100000000000000000000000000000000000000000000000000000000028152600401602060405180830381600087803b15801561375b57600080fd5b505af115801561376f573d6000803e3d6000fd5b505050506040513d602081101561378557600080fd5b810190808051906020019092919050505073ffffffffffffffffffffffffffffffffffffffff1663d0e30db0826040518263ffffffff167c01000000000000000000000000000000000000000000000000000000000281526004016000604051808303818588803b1580156137f957600080fd5b505af115801561380d573d6000803e3d6000fd5b505050505060006138bc828773ffffffffffffffffffffffffffffffffffffffff16637ec9c3b86040518163ffffffff167c0100000000000000000000000000000000000000000000000000000000028152600401602060405180830381600087803b15801561387c57600080fd5b505af1158015613890573d6000803e3d6000fd5b505050506040513d60208110156138a657600080fd5b8101908080519060200190929190505050614346565b90507fffffffffffffffffffffffffffffffffffffffffffffffffffffffffffffffff8673ffffffffffffffffffffffffffffffffffffffff16637bd2bea76040518163ffffffff167c0100000000000000000000000000000000000000000000000000000000028152600401602060405180830381600087803b15801561394357600080fd5b505af1158015613957573d6000803e3d6000fd5b505050506040513d602081101561396d57600080fd5b810190808051906020019092919050505073ffffffffffffffffffffffffffffffffffffffff1663dd62ed3e30896040518363ffffffff167c0100000000000000000000000000000000000000000000000000000000028152600401808373ffffffffffffffffffffffffffffffffffffffff1673ffffffffffffffffffffffffffffffffffffffff1681526020018273ffffffffffffffffffffffffffffffffffffffff1673ffffffffffffffffffffffffffffffffffffffff16815260200192505050602060405180830381600087803b158015613a4c57600080fd5b505af1158015613a60573d6000803e3d6000fd5b505050506040513d6020811015613a7657600080fd5b8101908080519060200190929190505050141515613c08578573ffffffffffffffffffffffffffffffffffffffff16637bd2bea76040518163ffffffff167c0100000000000000000000000000000000000000000000000000000000028152600401602060405180830381600087803b158015613af257600080fd5b505af1158015613b06573d6000803e3d6000fd5b505050506040513d6020811015613b1c57600080fd5b810190808051906020019092919050505073ffffffffffffffffffffffffffffffffffffffff1663095ea7b3877fffffffffffffffffffffffffffffffffffffffffffffffffffffffffffffffff6040518363ffffffff167c0100000000000000000000000000000000000000000000000000000000028152600401808373ffffffffffffffffffffffffffffffffffffffff1673ffffffffffffffffffffffffffffffffffffffff16815260200182815260200192505050600060405180830381600087803b158015613bef57600080fd5b505af1158015613c03573d6000803e3d6000fd5b505050505b8573ffffffffffffffffffffffffffffffffffffffff1663049878f3826040518263ffffffff167c010000000000000000000000000000000000000000000000000000000002815260040180828152602001915050600060405180830381600087803b158015613c7757600080fd5b505af1158015613c8b573d6000803e3d6000fd5b505050507fffffffffffffffffffffffffffffffffffffffffffffffffffffffffffffffff8673ffffffffffffffffffffffffffffffffffffffff16630f8a771e6040518163ffffffff167c0100000000000000000000000000000000000000000000000000000000028152600401602060405180830381600087803b158015613d1457600080fd5b505af1158015613d28573d6000803e3d6000fd5b505050506040513d6020811015613d3e57600080fd5b810190808051906020019092919050505073ffffffffffffffffffffffffffffffffffffffff1663dd62ed3e30896040518363ffffffff167c0100000000000000000000000000000000000000000000000000000000028152600401808373ffffffffffffffffffffffffffffffffffffffff1673ffffffffffffffffffffffffffffffffffffffff1681526020018273ffffffffffffffffffffffffffffffffffffffff1673ffffffffffffffffffffffffffffffffffffffff16815260200192505050602060405180830381600087803b158015613e1d57600080fd5b505af1158015613e31573d6000803e3d6000fd5b505050506040513d6020811015613e4757600080fd5b8101908080519060200190929190505050141515613fd9578573ffffffffffffffffffffffffffffffffffffffff16630f8a771e6040518163ffffffff167c0100000000000000000000000000000000000000000000000000000000028152600401602060405180830381600087803b158015613ec357600080fd5b505af1158015613ed7573d6000803e3d6000fd5b505050506040513d6020811015613eed57600080fd5b810190808051906020019092919050505073ffffffffffffffffffffffffffffffffffffffff1663095ea7b3877fffffffffffffffffffffffffffffffffffffffffffffffffffffffffffffffff6040518363ffffffff167c0100000000000000000000000000000000000000000000000000000000028152600401808373ffffffffffffffffffffffffffffffffffffffff1673ffffffffffffffffffffffffffffffffffffffff16815260200182815260200192505050600060405180830381600087803b158015613fc057600080fd5b505af1158015613fd4573d6000803e3d6000fd5b505050505b8573ffffffffffffffffffffffffffffffffffffffff1663b3b77a5186836040518363ffffffff167c01000000000000000000000000000000000000000000000000000000000281526004018083815260200182815260200192505050600060405180830381600087803b15801561405057600080fd5b505af1158015614064573d6000803e3d6000fd5b5050505081925050509392505050565b60006b033b2e3c9fd0803ce80000006140ae6140908585615512565b60026b033b2e3c9fd0803ce80000008115156140a857fe5b04615542565b8115156140b757fe5b04905092915050565b6000816140ea6140d885670de0b6b3a7640000615512565b6002858115156140e457fe5b04615542565b8115156140f357fe5b04905092915050565b600080600073eeeeeeeeeeeeeeeeeeeeeeeeeeeeeeeeeeeeeeee905060008490506000737e6b8b9510d71bf8ef0f893902ebb9c865eef4df90508073ffffffffffffffffffffffffffffffffffffffff1663809a9e5584848a6040518463ffffffff167c0100000000000000000000000000000000000000000000000000000000028152600401808473ffffffffffffffffffffffffffffffffffffffff1673ffffffffffffffffffffffffffffffffffffffff1681526020018373ffffffffffffffffffffffffffffffffffffffff1673ffffffffffffffffffffffffffffffffffffffff1681526020018281526020019350505050604080518083038186803b15801561420a57600080fd5b505afa15801561421e573d6000803e3d6000fd5b505050506040513d604081101561423457600080fd5b81019080805190602001909291908051906020019092919050505090508094505060008173ffffffffffffffffffffffffffffffffffffffff16637a2a04568985886040518463ffffffff167c0100000000000000000000000000000000000000000000000000000000028152600401808373ffffffffffffffffffffffffffffffffffffffff1673ffffffffffffffffffffffffffffffffffffffff168152602001828152602001925050506020604051808303818588803b1580156142fa57600080fd5b505af115801561430e573d6000803e3d6000fd5b50505050506040513d602081101561432557600080fd5b81019080805190602001909291905050509050809550505050505092915050565b600081614374614362856b033b2e3c9fd0803ce8000000615512565b60028581151561436e57fe5b04615542565b81151561437d57fe5b04905092915050565b6000808473ffffffffffffffffffffffffffffffffffffffff1663ace237f56040518163ffffffff167c0100000000000000000000000000000000000000000000000000000000028152600401602060405180830381600087803b1580156143ed57600080fd5b505af1158015614401573d6000803e3d6000fd5b505050506040513d602081101561441757600080fd5b810190808051906020019092919050505073ffffffffffffffffffffffffffffffffffffffff166359e02dd76040518163ffffffff167c01000000000000000000000000000000000000000000000000000000000281526004016040805180830381600087803b15801561448a57600080fd5b505af115801561449e573d6000803e3d6000fd5b505050506040513d60408110156144b457600080fd5b81019080805190602001909291908051906020019092919050505080925081935050508080156144e8575060006001028214155b156150915760006144fd8584600190046140c0565b9050600073ffffffffffffffffffffffffffffffffffffffff168473ffffffffffffffffffffffffffffffffffffffff16141515614edd5760008473ffffffffffffffffffffffffffffffffffffffff1663ff1fd9748873ffffffffffffffffffffffffffffffffffffffff16639166cba46040518163ffffffff167c0100000000000000000000000000000000000000000000000000000000028152600401602060405180830381600087803b1580156145b757600080fd5b505af11580156145cb573d6000803e3d6000fd5b505050506040513d60208110156145e157600080fd5b81019080805190602001909291905050508973ffffffffffffffffffffffffffffffffffffffff166312d43a516040518163ffffffff167c0100000000000000000000000000000000000000000000000000000000028152600401602060405180830381600087803b15801561465657600080fd5b505af115801561466a573d6000803e3d6000fd5b505050506040513d602081101561468057600080fd5b8101908080519060200190929190505050856040518463ffffffff167c0100000000000000000000000000000000000000000000000000000000028152600401808473ffffffffffffffffffffffffffffffffffffffff1673ffffffffffffffffffffffffffffffffffffffff1681526020018373ffffffffffffffffffffffffffffffffffffffff1673ffffffffffffffffffffffffffffffffffffffff168152602001828152602001935050505060206040518083038186803b15801561474857600080fd5b505afa15801561475c573d6000803e3d6000fd5b505050506040513d602081101561477257600080fd5b810190808051906020019092919050505090507fffffffffffffffffffffffffffffffffffffffffffffffffffffffffffffffff8773ffffffffffffffffffffffffffffffffffffffff16639166cba46040518163ffffffff167c0100000000000000000000000000000000000000000000000000000000028152600401602060405180830381600087803b15801561480a57600080fd5b505af115801561481e573d6000803e3d6000fd5b505050506040513d602081101561483457600080fd5b810190808051906020019092919050505073ffffffffffffffffffffffffffffffffffffffff1663dd62ed3e30886040518363ffffffff167c0100000000000000000000000000000000000000000000000000000000028152600401808373ffffffffffffffffffffffffffffffffffffffff1673ffffffffffffffffffffffffffffffffffffffff1681526020018273ffffffffffffffffffffffffffffffffffffffff1673ffffffffffffffffffffffffffffffffffffffff16815260200192505050602060405180830381600087803b15801561491357600080fd5b505af1158015614927573d6000803e3d6000fd5b505050506040513d602081101561493d57600080fd5b8101908080519060200190929190505050141515614acf578673ffffffffffffffffffffffffffffffffffffffff16639166cba46040518163ffffffff167c0100000000000000000000000000000000000000000000000000000000028152600401602060405180830381600087803b1580156149b957600080fd5b505af11580156149cd573d6000803e3d6000fd5b505050506040513d60208110156149e357600080fd5b810190808051906020019092919050505073ffffffffffffffffffffffffffffffffffffffff1663095ea7b3867fffffffffffffffffffffffffffffffffffffffffffffffffffffffffffffffff6040518363ffffffff167c0100000000000000000000000000000000000000000000000000000000028152600401808373ffffffffffffffffffffffffffffffffffffffff1673ffffffffffffffffffffffffffffffffffffffff16815260200182815260200192505050600060405180830381600087803b158015614ab657600080fd5b505af1158015614aca573d6000803e3d6000fd5b505050505b8673ffffffffffffffffffffffffffffffffffffffff16639166cba46040518163ffffffff167c0100000000000000000000000000000000000000000000000000000000028152600401602060405180830381600087803b158015614b3357600080fd5b505af1158015614b47573d6000803e3d6000fd5b505050506040513d6020811015614b5d57600080fd5b810190808051906020019092919050505073ffffffffffffffffffffffffffffffffffffffff166323b872dd3330846040518463ffffffff167c0100000000000000000000000000000000000000000000000000000000028152600401808473ffffffffffffffffffffffffffffffffffffffff1673ffffffffffffffffffffffffffffffffffffffff1681526020018373ffffffffffffffffffffffffffffffffffffffff1673ffffffffffffffffffffffffffffffffffffffff1681526020018281526020019350505050602060405180830381600087803b158015614c4457600080fd5b505af1158015614c58573d6000803e3d6000fd5b505050506040513d6020811015614c6e57600080fd5b8101908080519060200190929190505050508473ffffffffffffffffffffffffffffffffffffffff16638185402b8873ffffffffffffffffffffffffffffffffffffffff166312d43a516040518163ffffffff167c0100000000000000000000000000000000000000000000000000000000028152600401602060405180830381600087803b158015614d0057600080fd5b505af1158015614d14573d6000803e3d6000fd5b505050506040513d6020811015614d2a57600080fd5b8101908080519060200190929190505050848a73ffffffffffffffffffffffffffffffffffffffff16639166cba46040518163ffffffff167c0100000000000000000000000000000000000000000000000000000000028152600401602060405180830381600087803b158015614da057600080fd5b505af1158015614db4573d6000803e3d6000fd5b505050506040513d6020811015614dca57600080fd5b8101908080519060200190929190505050856040518563ffffffff167c0100000000000000000000000000000000000000000000000000000000028152600401808573ffffffffffffffffffffffffffffffffffffffff1673ffffffffffffffffffffffffffffffffffffffff1681526020018481526020018373ffffffffffffffffffffffffffffffffffffffff1673ffffffffffffffffffffffffffffffffffffffff168152602001828152602001945050505050602060405180830381600087803b158015614e9b57600080fd5b505af1158015614eaf573d6000803e3d6000fd5b505050506040513d6020811015614ec557600080fd5b8101908080519060200190929190505050505061508f565b8573ffffffffffffffffffffffffffffffffffffffff166312d43a516040518163ffffffff167c0100000000000000000000000000000000000000000000000000000000028152600401602060405180830381600087803b158015614f4157600080fd5b505af1158015614f55573d6000803e3d6000fd5b505050506040513d6020811015614f6b57600080fd5b810190808051906020019092919050505073ffffffffffffffffffffffffffffffffffffffff166323b872dd3330846040518463ffffffff167c0100000000000000000000000000000000000000000000000000000000028152600401808473ffffffffffffffffffffffffffffffffffffffff1673ffffffffffffffffffffffffffffffffffffffff1681526020018373ffffffffffffffffffffffffffffffffffffffff1673ffffffffffffffffffffffffffffffffffffffff1681526020018281526020019350505050602060405180830381600087803b15801561505257600080fd5b505af1158015615066573d6000803e3d6000fd5b505050506040513d602081101561507c57600080fd5b8101908080519060200190929190505050505b505b5050505050565b600082828403915081111515156150ae57600080fd5b92915050565b6000670de0b6b3a76400006150e66150cc8585615512565b6002670de0b6b3a76400008115156150e057fe5b04615542565b8115156150ef57fe5b04905092915050565b600080600073eeeeeeeeeeeeeeeeeeeeeeeeeeeeeeeeeeeeeeee905060008590506000737e6b8b9510d71bf8ef0f893902ebb9c865eef4df90508073ffffffffffffffffffffffffffffffffffffffff1663809a9e558385896040518463ffffffff167c0100000000000000000000000000000000000000000000000000000000028152600401808473ffffffffffffffffffffffffffffffffffffffff1673ffffffffffffffffffffffffffffffffffffffff1681526020018373ffffffffffffffffffffffffffffffffffffffff1673ffffffffffffffffffffffffffffffffffffffff1681526020018281526020019350505050604080518083038186803b15801561520657600080fd5b505afa15801561521a573d6000803e3d6000fd5b505050506040513d604081101561523057600080fd5b8101908080519060200190929190805190602001909291905050509050809450508173ffffffffffffffffffffffffffffffffffffffff1663095ea7b38260006040518363ffffffff167c0100000000000000000000000000000000000000000000000000000000028152600401808373ffffffffffffffffffffffffffffffffffffffff1673ffffffffffffffffffffffffffffffffffffffff16815260200182815260200192505050602060405180830381600087803b1580156152f557600080fd5b505af1158015615309573d6000803e3d6000fd5b505050506040513d602081101561531f57600080fd5b8101908080519060200190929190505050151561533b57600080fd5b8173ffffffffffffffffffffffffffffffffffffffff1663095ea7b382886040518363ffffffff167c0100000000000000000000000000000000000000000000000000000000028152600401808373ffffffffffffffffffffffffffffffffffffffff1673ffffffffffffffffffffffffffffffffffffffff16815260200182815260200192505050602060405180830381600087803b1580156153de57600080fd5b505af11580156153f2573d6000803e3d6000fd5b505050506040513d602081101561540857600080fd5b81019080805190602001909291905050505060008173ffffffffffffffffffffffffffffffffffffffff16633bba21dc8489886040518463ffffffff167c0100000000000000000000000000000000000000000000000000000000028152600401808473ffffffffffffffffffffffffffffffffffffffff1673ffffffffffffffffffffffffffffffffffffffff1681526020018381526020018281526020019350505050602060405180830381600087803b1580156154c757600080fd5b505af11580156154db573d6000803e3d6000fd5b505050506040513d60208110156154f157600080fd5b81019080805190602001909291905050509050809550505050505092915050565b6000808214806155315750828283850292508281151561552e57fe5b04145b151561553c57600080fd5b92915050565b6000828284019150811015151561555857600080fd5b9291505056fea165627a7a7230582068aeebf7b9cfea04653b7669cc4f4d25973dcb35c489d94a93bad72643349bb00029",
  "source": "pragma solidity ^0.5.0;\n\nimport \"./interfaces/TubInterface.sol\";\nimport \"./interfaces/ERC20.sol\";\nimport \"./interfaces/KyberNetworkProxyInterface.sol\";\nimport \"./SaiProxy.sol\";\n\ncontract IVox {\n    function par() public returns (uint); //ref per dai\n}\n\ncontract SaverProxy is SaiProxy {\n    \n    event Repay(address indexed owner, uint collateralAmount, uint daiAmount);\n    event Boost(address indexed owner, uint daiAmount, uint collateralAmount);\n    \n    //KOVAN\n    address constant ETHER_ADDRESS = 0xEeeeeEeeeEeEeeEeEeEeeEEEeeeeEeeeeeeeEEeE;\n    address constant WETH_ADDRESS = 0xd0A1E359811322d97991E03f863a0C30C2cF029C;\n    address constant DAI_ADDRESS = 0xC4375B7De8af5a38a93548eb8453a498222C4fF2;\n    address constant KYBER_INTERFACE = 0x7e6b8b9510D71BF8EF0f893902EbB9C865eEF4Df;\n    address constant TUB_ADDRESS = 0xa71937147b55Deb8a530C7229C442Fd3F31b7db2;\n    address constant VOX_ADDRESS = 0xBb4339c0aB5B1d9f14Bd6e3426444A1e9d86A1d9;\n    \n    ///@dev User has to own MKR and aprrove the DSProxy address\n    function repay(uint _cdpId) public {\n        TubInterface tub = TubInterface(TUB_ADDRESS);\n        bytes32 cup = bytes32(_cdpId);\n\n        uint maxCollateral = maxFreeCollateral(tub, VOX_ADDRESS, cup);\n\n        free(address(tub), cup, maxCollateral, true);\n\n        //TODO: don't use contract balance \n        uint daiAmount = swapEtherToToken(address(this).balance, DAI_ADDRESS);\n        \n        //TODO: check so we don't spend more dai than there is debt\n        wipe(address(tub), cup, daiAmount, true);\n\n        emit Repay(msg.sender, maxCollateral, daiAmount);\n    }\n\n    function boost(uint _cdpId) public {\n        TubInterface tub = TubInterface(TUB_ADDRESS);\n        bytes32 cup = bytes32(_cdpId);\n        \n        uint maxDai = maxFreeDai(tub, VOX_ADDRESS, cup);\n        \n        tub.draw(cup, maxDai);\n        \n        uint ethAmount = lockPeth(tub, cup, maxDai);\n        \n        emit Boost(msg.sender, maxDai, ethAmount);\n    }\n\n    function maxFreeCollateral(TubInterface _tub, address _vox, bytes32 _cdpId) public returns (uint) {\n        return sub(_tub.ink(_cdpId), wdiv(wmul(wmul(_tub.tab(_cdpId), rmul(_tub.mat(), WAD)), IVox(_vox).par()), _tub.tag()));\n    }\n    \n    function maxFreeDai(TubInterface _tub, address _vox, bytes32 _cdpId) public returns (uint) {\n        return sub(wdiv(rmul(_tub.ink(_cdpId), _tub.tag()), rmul(_tub.mat(), WAD)), _tub.tab(_cdpId));\n    }\n\n    function getRatio(TubInterface _tub, bytes32 _cdpId) public returns(uint) {\n        return (wdiv(rmul(rmul(_tub.ink(_cdpId), _tub.tag()), WAD), _tub.tab(_cdpId)))/10000000;\n    }\n    \n    function lockPeth(TubInterface _tub, bytes32 cup, uint maxDai) internal returns(uint) {\n        uint ethAmount = swapTokenToEther(DAI_ADDRESS, maxDai);\n        \n        _tub.gem().deposit.value(ethAmount)();\n\n        uint ink = rdiv(ethAmount, _tub.per());\n        if (_tub.gem().allowance(address(this), address(_tub)) != uint(-1)) {\n            _tub.gem().approve(address(_tub), uint(-1));\n        }\n        _tub.join(ink);\n\n        if (_tub.skr().allowance(address(this), address(_tub)) != uint(-1)) {\n            _tub.skr().approve(address(_tub), uint(-1));\n        }\n        _tub.lock(cup, ink);\n        \n        return ethAmount;\n    }\n    \n    // KYBER\n\n    //TODO: watch out for gas price limits\n    function swapEtherToToken (uint _ethAmount, address _tokenAddress) internal returns(uint) {\n\n        uint minRate;\n        ERC20 ETH_TOKEN_ADDRESS = ERC20(ETHER_ADDRESS);\n        ERC20 token = ERC20(_tokenAddress);\n\n        KyberNetworkProxyInterface _kyberNetworkProxy = KyberNetworkProxyInterface(KYBER_INTERFACE);\n\n        (, minRate) = _kyberNetworkProxy.getExpectedRate(ETH_TOKEN_ADDRESS, token, _ethAmount);\n\n        //will send back tokens to this contract's address\n        uint destAmount = _kyberNetworkProxy.swapEtherToToken.value(_ethAmount)(token, minRate);\n\n        return destAmount;\n    }\n    \n    function swapTokenToEther (address _tokenAddress, uint _amount) internal returns(uint) {\n\n        uint minRate;\n        ERC20 ETH_TOKEN_ADDRESS = ERC20(ETHER_ADDRESS);\n        ERC20 token = ERC20(_tokenAddress);\n        \n        KyberNetworkProxyInterface _kyberNetworkProxy = KyberNetworkProxyInterface(KYBER_INTERFACE);\n        \n        (, minRate) = _kyberNetworkProxy.getExpectedRate(token, ETH_TOKEN_ADDRESS, _amount);\n\n        // Mitigate ERC20 Approve front-running attack, by initially setting, allowance to 0\n        require(token.approve(address(_kyberNetworkProxy), 0));\n\n        // Approve tokens so network can take them during the swap\n        token.approve(address(_kyberNetworkProxy), _amount);\n        uint destAmount = _kyberNetworkProxy.swapTokenToEther(token, _amount, minRate);\n\n        return destAmount;\n    }\n\n}\n",
  "sourcePath": "/Users/nenadpalinkasevic/Desktop/blockchain/cdpsaver/contracts/SaverProxy.sol",
  "compiler": {
    "name": "solc",
    "version": "0.5.0+commit.1d4f565a.Emscripten.clang"
  },
  "schemaVersion": "3.0.0",
  "updatedAt": "2019-01-10T13:35:59.699Z",
  "devdoc": {
    "methods": {
      "repay(uint256)": {
        "details": "User has to own MKR and aprrove the DSProxy address"
      }
    }
  },
  "userdoc": {
    "methods": {}
  }
}