{
  "contractName": "SaverProxy",
  "abi": [
    {
      "constant": false,
      "inputs": [
        {
          "name": "_tub",
          "type": "address"
        },
        {
          "name": "_cdpId",
          "type": "uint256"
        }
      ],
      "name": "unwind",
      "outputs": [],
      "payable": false,
      "stateMutability": "nonpayable",
      "type": "function",
      "signature": "0xf966d975"
    },
    {
      "constant": false,
      "inputs": [
        {
          "name": "_tub",
          "type": "address"
        },
        {
          "name": "_cdpId",
          "type": "uint256"
        },
        {
          "name": "_marketplace",
          "type": "address"
        }
      ],
      "name": "createUserProxyAndTransfer",
      "outputs": [],
      "payable": false,
      "stateMutability": "nonpayable",
      "type": "function",
      "signature": "0xa40aaf7c"
    }
  ],
  "bytecode": "0x608060405234801561001057600080fd5b50611c0c806100206000396000f3fe60806040526004361061004c576000357c0100000000000000000000000000000000000000000000000000000000900463ffffffff168063a40aaf7c14610051578063f966d975146100cc575b600080fd5b34801561005d57600080fd5b506100ca6004803603606081101561007457600080fd5b81019080803573ffffffffffffffffffffffffffffffffffffffff16906020019092919080359060200190929190803573ffffffffffffffffffffffffffffffffffffffff169060200190929190505050610127565b005b3480156100d857600080fd5b50610125600480360360408110156100ef57600080fd5b81019080803573ffffffffffffffffffffffffffffffffffffffff1690602001909291908035906020019092919050505061039e565b005b60008390508073ffffffffffffffffffffffffffffffffffffffff1663de5f5517846001026040518263ffffffff167c01000000000000000000000000000000000000000000000000000000000281526004018082815260200191505060206040518083038186803b15801561019c57600080fd5b505afa1580156101b0573d6000803e3d6000fd5b505050506040513d60208110156101c657600080fd5b810190808051906020019092919050505073ffffffffffffffffffffffffffffffffffffffff163373ffffffffffffffffffffffffffffffffffffffff16141515610279576040517f08c379a00000000000000000000000000000000000000000000000000000000081526004018080602001828103825260208152602001807f5468652063616c6c6572206d7573742062652074686520636470206f776e657281525060200191505060405180910390fd5b60008061028461074b565b808273ffffffffffffffffffffffffffffffffffffffff1673ffffffffffffffffffffffffffffffffffffffff168152602001915050604051809103906000f0801580156102d6573d6000803e3d6000fd5b5090508173ffffffffffffffffffffffffffffffffffffffff1663baa8529c85600102836040518363ffffffff167c0100000000000000000000000000000000000000000000000000000000028152600401808381526020018273ffffffffffffffffffffffffffffffffffffffff1673ffffffffffffffffffffffffffffffffffffffff16815260200192505050600060405180830381600087803b15801561037f57600080fd5b505af1158015610393573d6000803e3d6000fd5b505050505050505050565b600082905060006103ad6104e6565b90508173ffffffffffffffffffffffffffffffffffffffff1663a5cd184e84600102836040518363ffffffff167c01000000000000000000000000000000000000000000000000000000000281526004018083815260200182815260200192505050600060405180830381600087803b15801561042957600080fd5b505af115801561043d573d6000803e3d6000fd5b50505050600061044b6104f0565b90508273ffffffffffffffffffffffffffffffffffffffff166373b3810185600102836040518363ffffffff167c01000000000000000000000000000000000000000000000000000000000281526004018083815260200182815260200192505050600060405180830381600087803b1580156104c757600080fd5b505af11580156104db573d6000803e3d6000fd5b505050505050505050565b6000612710905090565b600080600073eeeeeeeeeeeeeeeeeeeeeeeeeeeeeeeeeeeeeeee9050600073c4375b7de8af5a38a93548eb8453a498222c4ff290506000737e6b8b9510d71bf8ef0f893902ebb9c865eef4df90508073ffffffffffffffffffffffffffffffffffffffff1663809a9e558484346040518463ffffffff167c0100000000000000000000000000000000000000000000000000000000028152600401808473ffffffffffffffffffffffffffffffffffffffff1673ffffffffffffffffffffffffffffffffffffffff1681526020018373ffffffffffffffffffffffffffffffffffffffff1673ffffffffffffffffffffffffffffffffffffffff1681526020018281526020019350505050604080518083038186803b15801561061257600080fd5b505afa158015610626573d6000803e3d6000fd5b505050506040513d604081101561063c57600080fd5b81019080805190602001909291908051906020019092919050505090508094505060008173ffffffffffffffffffffffffffffffffffffffff16637a2a04563485886040518463ffffffff167c0100000000000000000000000000000000000000000000000000000000028152600401808373ffffffffffffffffffffffffffffffffffffffff1673ffffffffffffffffffffffffffffffffffffffff168152602001828152602001925050506020604051808303818588803b15801561070257600080fd5b505af1158015610716573d6000803e3d6000fd5b50505050506040513d602081101561072d57600080fd5b81019080805190602001909291905050509050809550505050505090565b6040516114858061075c8339019056fe60806040523480156200001157600080fd5b5060405160208062001485833981018060405260208110156200003357600080fd5b810190808051906020019092919050505033600160006101000a81548173ffffffffffffffffffffffffffffffffffffffff021916908373ffffffffffffffffffffffffffffffffffffffff1602179055503373ffffffffffffffffffffffffffffffffffffffff167fce241d7ca1f669fee44b6fc00b8eba2df3bb514eed0f6f668f8f89096e81ed9460405160405180910390a2620000e281620000f5640100000000026401000000009004565b1515620000ee57600080fd5b50620004fe565b600062000136336000357fffffffff000000000000000000000000000000000000000000000000000000001662000280640100000000026401000000009004565b15156200014257600080fd5b6000806004359150602435905080823373ffffffffffffffffffffffffffffffffffffffff166000357fffffffff00000000000000000000000000000000000000000000000000000000167bffffffffffffffffffffffffffffffffffffffffffffffffffffffff19163460003660405180848152602001806020018281038252848482818152602001925080828437600081840152601f19601f82011690508083019250505094505050505060405180910390a4600073ffffffffffffffffffffffffffffffffffffffff168473ffffffffffffffffffffffffffffffffffffffff16141515156200023457600080fd5b83600260006101000a81548173ffffffffffffffffffffffffffffffffffffffff021916908373ffffffffffffffffffffffffffffffffffffffff160217905550600192505050919050565b60003073ffffffffffffffffffffffffffffffffffffffff168373ffffffffffffffffffffffffffffffffffffffff161415620002c15760019050620004f8565b600160009054906101000a900473ffffffffffffffffffffffffffffffffffffffff1673ffffffffffffffffffffffffffffffffffffffff168373ffffffffffffffffffffffffffffffffffffffff161415620003225760019050620004f8565b600073ffffffffffffffffffffffffffffffffffffffff166000809054906101000a900473ffffffffffffffffffffffffffffffffffffffff1673ffffffffffffffffffffffffffffffffffffffff161415620003835760009050620004f8565b6000809054906101000a900473ffffffffffffffffffffffffffffffffffffffff1673ffffffffffffffffffffffffffffffffffffffff1663b70096138430856040518463ffffffff167c0100000000000000000000000000000000000000000000000000000000028152600401808473ffffffffffffffffffffffffffffffffffffffff1673ffffffffffffffffffffffffffffffffffffffff1681526020018373ffffffffffffffffffffffffffffffffffffffff1673ffffffffffffffffffffffffffffffffffffffff168152602001827bffffffffffffffffffffffffffffffffffffffffffffffffffffffff19167bffffffffffffffffffffffffffffffffffffffffffffffffffffffff19168152602001935050505060206040518083038186803b158015620004b857600080fd5b505afa158015620004cd573d6000803e3d6000fd5b505050506040513d6020811015620004e457600080fd5b810190808051906020019092919050505090505b92915050565b610f77806200050e6000396000f3fe60806040526004361061008e576000357c0100000000000000000000000000000000000000000000000000000000900463ffffffff16806313af4035146100905780631cff79cd146100e15780631f6a1eb9146101d057806360c7d295146103695780637a9e5e4b146103c05780638da5cb5b14610411578063948f507614610468578063bf7e214f146104c4575b005b34801561009c57600080fd5b506100df600480360360208110156100b357600080fd5b81019080803573ffffffffffffffffffffffffffffffffffffffff16906020019092919050505061051b565b005b6101ba600480360360408110156100f757600080fd5b81019080803573ffffffffffffffffffffffffffffffffffffffff1690602001909291908035906020019064010000000081111561013457600080fd5b82018360208201111561014657600080fd5b8035906020019184600183028401116401000000008311171561016857600080fd5b91908080601f016020809104026020016040519081016040528093929190818152602001838380828437600081840152601f19601f8201169050808301925050505050505091929192905050506105fd565b6040518082815260200191505060405180910390f35b610320600480360360408110156101e657600080fd5b810190808035906020019064010000000081111561020357600080fd5b82018360208201111561021557600080fd5b8035906020019184600183028401116401000000008311171561023757600080fd5b91908080601f016020809104026020016040519081016040528093929190818152602001838380828437600081840152601f19601f8201169050808301925050505050505091929192908035906020019064010000000081111561029a57600080fd5b8201836020820111156102ac57600080fd5b803590602001918460018302840111640100000000831117156102ce57600080fd5b91908080601f016020809104026020016040519081016040528093929190818152602001838380828437600081840152601f19601f82011690508083019250505050505050919291929050505061075d565b604051808373ffffffffffffffffffffffffffffffffffffffff1673ffffffffffffffffffffffffffffffffffffffff1681526020018281526020019250505060405180910390f35b34801561037557600080fd5b5061037e610a0d565b604051808273ffffffffffffffffffffffffffffffffffffffff1673ffffffffffffffffffffffffffffffffffffffff16815260200191505060405180910390f35b3480156103cc57600080fd5b5061040f600480360360208110156103e357600080fd5b81019080803573ffffffffffffffffffffffffffffffffffffffff169060200190929190505050610a33565b005b34801561041d57600080fd5b50610426610b13565b604051808273ffffffffffffffffffffffffffffffffffffffff1673ffffffffffffffffffffffffffffffffffffffff16815260200191505060405180910390f35b6104aa6004803603602081101561047e57600080fd5b81019080803573ffffffffffffffffffffffffffffffffffffffff169060200190929190505050610b39565b604051808215151515815260200191505060405180910390f35b3480156104d057600080fd5b506104d9610cb1565b604051808273ffffffffffffffffffffffffffffffffffffffff1673ffffffffffffffffffffffffffffffffffffffff16815260200191505060405180910390f35b610549336000357fffffffff0000000000000000000000000000000000000000000000000000000016610cd6565b151561055457600080fd5b80600160006101000a81548173ffffffffffffffffffffffffffffffffffffffff021916908373ffffffffffffffffffffffffffffffffffffffff160217905550600160009054906101000a900473ffffffffffffffffffffffffffffffffffffffff1673ffffffffffffffffffffffffffffffffffffffff167fce241d7ca1f669fee44b6fc00b8eba2df3bb514eed0f6f668f8f89096e81ed9460405160405180910390a250565b600061062d336000357fffffffff0000000000000000000000000000000000000000000000000000000016610cd6565b151561063857600080fd5b6000806004359150602435905080823373ffffffffffffffffffffffffffffffffffffffff166000357fffffffff00000000000000000000000000000000000000000000000000000000167bffffffffffffffffffffffffffffffffffffffffffffffffffffffff19163460003660405180848152602001806020018281038252848482818152602001925080828437600081840152601f19601f82011690508083019250505094505050505060405180910390a4600073ffffffffffffffffffffffffffffffffffffffff168573ffffffffffffffffffffffffffffffffffffffff161415151561072957600080fd5b60206000855160208701886113885a03f4600051935080156001811461074e57610753565b600080fd5b5050505092915050565b600080600260009054906101000a900473ffffffffffffffffffffffffffffffffffffffff1673ffffffffffffffffffffffffffffffffffffffff16638bf4515c856040518263ffffffff167c01000000000000000000000000000000000000000000000000000000000281526004018080602001828103825283818151815260200191508051906020019080838360005b8381101561080a5780820151818401526020810190506107ef565b50505050905090810190601f1680156108375780820380516001836020036101000a031916815260200191505b509250505060206040518083038186803b15801561085457600080fd5b505afa158015610868573d6000803e3d6000fd5b505050506040513d602081101561087e57600080fd5b81019080805190602001909291905050509150600073ffffffffffffffffffffffffffffffffffffffff168273ffffffffffffffffffffffffffffffffffffffff1614156109fa57600260009054906101000a900473ffffffffffffffffffffffffffffffffffffffff1673ffffffffffffffffffffffffffffffffffffffff16637ed0c3b2856040518263ffffffff167c01000000000000000000000000000000000000000000000000000000000281526004018080602001828103825283818151815260200191508051906020019080838360005b83811015610970578082015181840152602081019050610955565b50505050905090810190601f16801561099d5780820380516001836020036101000a031916815260200191505b5092505050602060405180830381600087803b1580156109bc57600080fd5b505af11580156109d0573d6000803e3d6000fd5b505050506040513d60208110156109e657600080fd5b810190808051906020019092919050505091505b610a0482846105fd565b90509250929050565b600260009054906101000a900473ffffffffffffffffffffffffffffffffffffffff1681565b610a61336000357fffffffff0000000000000000000000000000000000000000000000000000000016610cd6565b1515610a6c57600080fd5b806000806101000a81548173ffffffffffffffffffffffffffffffffffffffff021916908373ffffffffffffffffffffffffffffffffffffffff1602179055506000809054906101000a900473ffffffffffffffffffffffffffffffffffffffff1673ffffffffffffffffffffffffffffffffffffffff167f1abebea81bfa2637f28358c371278fb15ede7ea8dd28d2e03b112ff6d936ada460405160405180910390a250565b600160009054906101000a900473ffffffffffffffffffffffffffffffffffffffff1681565b6000610b69336000357fffffffff0000000000000000000000000000000000000000000000000000000016610cd6565b1515610b7457600080fd5b6000806004359150602435905080823373ffffffffffffffffffffffffffffffffffffffff166000357fffffffff00000000000000000000000000000000000000000000000000000000167bffffffffffffffffffffffffffffffffffffffffffffffffffffffff19163460003660405180848152602001806020018281038252848482818152602001925080828437600081840152601f19601f82011690508083019250505094505050505060405180910390a4600073ffffffffffffffffffffffffffffffffffffffff168473ffffffffffffffffffffffffffffffffffffffff1614151515610c6557600080fd5b83600260006101000a81548173ffffffffffffffffffffffffffffffffffffffff021916908373ffffffffffffffffffffffffffffffffffffffff160217905550600192505050919050565b6000809054906101000a900473ffffffffffffffffffffffffffffffffffffffff1681565b60003073ffffffffffffffffffffffffffffffffffffffff168373ffffffffffffffffffffffffffffffffffffffff161415610d155760019050610f45565b600160009054906101000a900473ffffffffffffffffffffffffffffffffffffffff1673ffffffffffffffffffffffffffffffffffffffff168373ffffffffffffffffffffffffffffffffffffffff161415610d745760019050610f45565b600073ffffffffffffffffffffffffffffffffffffffff166000809054906101000a900473ffffffffffffffffffffffffffffffffffffffff1673ffffffffffffffffffffffffffffffffffffffff161415610dd35760009050610f45565b6000809054906101000a900473ffffffffffffffffffffffffffffffffffffffff1673ffffffffffffffffffffffffffffffffffffffff1663b70096138430856040518463ffffffff167c0100000000000000000000000000000000000000000000000000000000028152600401808473ffffffffffffffffffffffffffffffffffffffff1673ffffffffffffffffffffffffffffffffffffffff1681526020018373ffffffffffffffffffffffffffffffffffffffff1673ffffffffffffffffffffffffffffffffffffffff168152602001827bffffffffffffffffffffffffffffffffffffffffffffffffffffffff19167bffffffffffffffffffffffffffffffffffffffffffffffffffffffff19168152602001935050505060206040518083038186803b158015610f0757600080fd5b505afa158015610f1b573d6000803e3d6000fd5b505050506040513d6020811015610f3157600080fd5b810190808051906020019092919050505090505b9291505056fea165627a7a72305820f09b0381a04262cc5eb150d4f4ec8f759ff5358b3fd650e08d2f59a04c8bbacb0029a165627a7a723058206c1305d7b1222ab876d142b50e3a009cf8fbc3c148a6cf30ffbf0ae4475fc6db0029",
  "source": "pragma solidity ^0.5.0;\n\nimport \"./interfaces/CDPInterface.sol\";\nimport \"./interfaces/ERC20.sol\";\nimport \"./interfaces/KyberNetworkProxyInterface.sol\";\nimport \"./DS/DSProxy.sol\";\n\ncontract SaverProxy {\n    function unwind(address _tub, uint _cdpId) public {\n        CDPInterface cdp = CDPInterface(_tub);\n\n        uint maxCollateral = getMaxFreeCollateral();\n\n        cdp.free(bytes32(_cdpId), maxCollateral);\n\n        uint daiAmount = swapEtherToToken();\n\n        //User needs maker\n        cdp.wipe(bytes32(_cdpId), daiAmount);\n    }\n\n    //TODO: watch out for gas price limits\n    function swapEtherToToken () internal returns(uint) {\n\n        uint minRate;\n        ERC20 ETH_TOKEN_ADDRESS = ERC20(0xEeeeeEeeeEeEeeEeEeEeeEEEeeeeEeeeeeeeEEeE);\n        ERC20 daiToken = ERC20(0xC4375B7De8af5a38a93548eb8453a498222C4fF2); //KOVAN ADDRESS\n\n        KyberNetworkProxyInterface _kyberNetworkProxy = KyberNetworkProxyInterface(0x7e6b8b9510D71BF8EF0f893902EbB9C865eEF4Df); //KOVAN ADDRESS\n\n        (, minRate) = _kyberNetworkProxy.getExpectedRate(ETH_TOKEN_ADDRESS, daiToken, msg.value);\n\n        //will send back tokens to this contract's address\n        uint destAmount = _kyberNetworkProxy.swapEtherToToken.value(msg.value)(daiToken, minRate);\n\n        return destAmount;\n    }\n\n    //TODO: calculate what is the max amount of collateral you can get\n    function getMaxFreeCollateral() pure internal returns(uint) {\n        return 10000;\n    }\n\n    ///@notice Creates a new UserProxy and transfer and existing cdp to it\n    function createUserProxyAndTransfer(address _tub, uint _cdpId, address _marketplace) public {\n        CDPInterface cdp = CDPInterface(_tub);\n\n        require(msg.sender == cdp.lad(bytes32(_cdpId)), \"The caller must be the cdp owner\");\n\n        DSProxy newProxy = new DSProxy(address(0)); //TODO: should we set a cache address?\n\n        cdp.give(bytes32(_cdpId), address(newProxy));\n    }\n}",
  "sourcePath": "/Users/nenadpalinkasevic/Desktop/blockchain/cdpsaver/contracts/SaverProxy.sol",
  "compiler": {
    "name": "solc",
    "version": "0.5.0+commit.1d4f565a.Emscripten.clang"
  },
  "schemaVersion": "3.0.0",
  "updatedAt": "2019-01-08T08:07:59.105Z",
  "devdoc": {
    "methods": {}
  },
  "userdoc": {
    "methods": {
      "createUserProxyAndTransfer(address,uint256,address)": {
        "notice": "Creates a new UserProxy and transfer and existing cdp to it"
      }
    }
  }
}