{
  "contractName": "SaverAuthority",
  "abi": [
    {
      "constant": true,
      "inputs": [],
      "name": "monitor",
      "outputs": [
        {
          "name": "",
          "type": "address"
        }
      ],
      "payable": false,
      "stateMutability": "view",
      "type": "function",
      "signature": "0x3241992a"
    },
    {
      "inputs": [
        {
          "name": "_monitor",
          "type": "address"
        }
      ],
      "payable": false,
      "stateMutability": "nonpayable",
      "type": "constructor",
      "signature": "constructor"
    },
    {
      "constant": true,
      "inputs": [
        {
          "name": "src",
          "type": "address"
        },
        {
          "name": "dst",
          "type": "address"
        },
        {
          "name": "sig",
          "type": "bytes4"
        }
      ],
      "name": "canCall",
      "outputs": [
        {
          "name": "",
          "type": "bool"
        }
      ],
      "payable": false,
      "stateMutability": "view",
      "type": "function",
      "signature": "0xb7009613"
    }
  ],
  "bytecode": "0x608060405234801561001057600080fd5b506040516020806102a88339810180604052602081101561003057600080fd5b8101908080519060200190929190505050806000806101000a81548173ffffffffffffffffffffffffffffffffffffffff021916908373ffffffffffffffffffffffffffffffffffffffff16021790555050610217806100916000396000f3fe60806040526004361061004c576000357c0100000000000000000000000000000000000000000000000000000000900463ffffffff1680633241992a14610051578063b7009613146100a8575b600080fd5b34801561005d57600080fd5b5061006661015a565b604051808273ffffffffffffffffffffffffffffffffffffffff1673ffffffffffffffffffffffffffffffffffffffff16815260200191505060405180910390f35b3480156100b457600080fd5b50610140600480360360608110156100cb57600080fd5b81019080803573ffffffffffffffffffffffffffffffffffffffff169060200190929190803573ffffffffffffffffffffffffffffffffffffffff16906020019092919080357bffffffffffffffffffffffffffffffffffffffffffffffffffffffff1916906020019092919050505061017f565b604051808215151515815260200191505060405180910390f35b6000809054906101000a900473ffffffffffffffffffffffffffffffffffffffff1681565b60008060009054906101000a900473ffffffffffffffffffffffffffffffffffffffff1673ffffffffffffffffffffffffffffffffffffffff168473ffffffffffffffffffffffffffffffffffffffff1614156101df57600190506101e4565b600090505b939250505056fea165627a7a723058209bb9bbeb094645e4e7bc0ada55ca30356f3fd14e1c76a1bc4dc44068ccb9178c0029",
  "source": "pragma solidity ^0.5.0;\n\nimport \"./DS/DSAuthority.sol\";\n\ncontract SaverAuthority is DSAuthority {\n    address public monitor;\n\n    constructor(address _monitor) public {\n        monitor = _monitor;\n    }\n\n    ///@notice Access modifier, giving permission to Monitor contract to call DSProxy\n    ///@param src From which address did the call come from, must be monitor address\n    ///@param dst Always set to the address of the DSProxy itself\n    ///@param sig Signature of the function call we can execute\n    //TODO: additional check for sig?\n    function canCall(address src, address dst, bytes4 sig) public view returns (bool) {\n        if (src == monitor) {\n            return true;\n        } else {\n            return false;\n        }\n    }\n}",
  "sourcePath": "/Users/nikolaklipa/Decenter/cdpsaver/contracts/SaverAuthority.sol",
  "compiler": {
    "name": "solc",
    "version": "0.5.0+commit.1d4f565a.Emscripten.clang"
  },
  "schemaVersion": "3.0.1",
  "updatedAt": "2019-01-14T11:32:21.390Z",
  "devdoc": {
    "methods": {
      "canCall(address,address,bytes4)": {
        "params": {
          "dst": "Always set to the address of the DSProxy itself",
          "sig": "Signature of the function call we can execute",
          "src": "From which address did the call come from, must be monitor address"
        }
      }
    }
  },
  "userdoc": {
    "methods": {
      "canCall(address,address,bytes4)": {
        "notice": "Access modifier, giving permission to Monitor contract to call DSProxy"
      }
    }
  }
}