{
  "contractName": "SaverProxy",
  "abi": [
    {
      "anonymous": false,
      "inputs": [
        {
          "indexed": true,
          "name": "owner",
          "type": "address"
        },
        {
          "indexed": false,
          "name": "collateralAmount",
          "type": "uint256"
        },
        {
          "indexed": false,
          "name": "daiAmount",
          "type": "uint256"
        }
      ],
      "name": "Repay",
      "type": "event",
      "signature": "0x77c6871227e5d2dec8dadd5354f78453203e22e669cd0ec4c19d9a8c5edb31d0"
    },
    {
      "anonymous": false,
      "inputs": [
        {
          "indexed": true,
          "name": "owner",
          "type": "address"
        },
        {
          "indexed": false,
          "name": "daiAmount",
          "type": "uint256"
        },
        {
          "indexed": false,
          "name": "collateralAmount",
          "type": "uint256"
        }
      ],
      "name": "Boost",
      "type": "event",
      "signature": "0xaadc628cb4fd3bb7a62795eb460290459458bdc6f387ffde727c740f42c18337"
    },
    {
      "constant": false,
      "inputs": [
        {
          "name": "_cdpId",
          "type": "uint256"
        },
        {
          "name": "_wrapperAddress",
          "type": "address"
        }
      ],
      "name": "repay",
      "outputs": [],
      "payable": false,
      "stateMutability": "nonpayable",
      "type": "function",
      "signature": "0xacb70815"
    },
    {
      "constant": false,
      "inputs": [
        {
          "name": "_cdpId",
          "type": "uint256"
        },
        {
          "name": "_wrapperAddress",
          "type": "address"
        }
      ],
      "name": "boost",
      "outputs": [],
      "payable": false,
      "stateMutability": "nonpayable",
      "type": "function",
      "signature": "0x0e3b0141"
    },
    {
      "constant": false,
      "inputs": [
        {
          "name": "_daiAmount",
          "type": "uint256"
        }
      ],
      "name": "createCdp",
      "outputs": [
        {
          "name": "proxy",
          "type": "address"
        },
        {
          "name": "cup",
          "type": "bytes32"
        }
      ],
      "payable": true,
      "stateMutability": "payable",
      "type": "function",
      "signature": "0x808966ce"
    },
    {
      "constant": false,
      "inputs": [
        {
          "name": "_tub",
          "type": "address"
        },
        {
          "name": "_vox",
          "type": "address"
        },
        {
          "name": "_cdpId",
          "type": "bytes32"
        }
      ],
      "name": "maxFreeCollateral",
      "outputs": [
        {
          "name": "",
          "type": "uint256"
        }
      ],
      "payable": false,
      "stateMutability": "nonpayable",
      "type": "function",
      "signature": "0xf0df15ea"
    },
    {
      "constant": false,
      "inputs": [
        {
          "name": "_tub",
          "type": "address"
        },
        {
          "name": "_cdpId",
          "type": "bytes32"
        }
      ],
      "name": "maxFreeDai",
      "outputs": [
        {
          "name": "",
          "type": "uint256"
        }
      ],
      "payable": false,
      "stateMutability": "nonpayable",
      "type": "function",
      "signature": "0x730fd680"
    },
    {
      "constant": false,
      "inputs": [
        {
          "name": "_tub",
          "type": "address"
        },
        {
          "name": "_cdpId",
          "type": "bytes32"
        }
      ],
      "name": "getRatio",
      "outputs": [
        {
          "name": "",
          "type": "uint256"
        }
      ],
      "payable": false,
      "stateMutability": "nonpayable",
      "type": "function",
      "signature": "0x34bd9c26"
    }
  ],
  "bytecode": "0x608060405234801561001057600080fd5b5061244f806100206000396000f3fe608060405260043610610078576000357c0100000000000000000000000000000000000000000000000000000000900463ffffffff1680630e3b01411461007d57806334bd9c26146100d8578063730fd68014610147578063808966ce146101b6578063acb708151461022b578063f0df15ea14610286575b600080fd5b34801561008957600080fd5b506100d6600480360360408110156100a057600080fd5b8101908080359060200190929190803573ffffffffffffffffffffffffffffffffffffffff169060200190929190505050610315565b005b3480156100e457600080fd5b50610131600480360360408110156100fb57600080fd5b81019080803573ffffffffffffffffffffffffffffffffffffffff16906020019092919080359060200190929190505050610441565b6040518082815260200191505060405180910390f35b34801561015357600080fd5b506101a06004803603604081101561016a57600080fd5b81019080803573ffffffffffffffffffffffffffffffffffffffff1690602001909291908035906020019092919050505061066d565b6040518082815260200191505060405180910390f35b6101e2600480360360208110156101cc57600080fd5b8101908080359060200190929190505050610932565b604051808373ffffffffffffffffffffffffffffffffffffffff1673ffffffffffffffffffffffffffffffffffffffff1681526020018281526020019250505060405180910390f35b34801561023757600080fd5b506102846004803603604081101561024e57600080fd5b8101908080359060200190929190803573ffffffffffffffffffffffffffffffffffffffff169060200190929190505050610c87565b005b34801561029257600080fd5b506102ff600480360360608110156102a957600080fd5b81019080803573ffffffffffffffffffffffffffffffffffffffff169060200190929190803573ffffffffffffffffffffffffffffffffffffffff16906020019092919080359060200190929190505050610e4b565b6040518082815260200191505060405180910390f35b600073a71937147b55deb8a530c7229c442fd3f31b7db2905060008360010290506000610342838361066d565b90508273ffffffffffffffffffffffffffffffffffffffff1663440f19ba83836040518363ffffffff167c01000000000000000000000000000000000000000000000000000000000281526004018083815260200182815260200192505050600060405180830381600087803b1580156103bb57600080fd5b505af11580156103cf573d6000803e3d6000fd5b5050505060006103e1848484886111b8565b90503373ffffffffffffffffffffffffffffffffffffffff167faadc628cb4fd3bb7a62795eb460290459458bdc6f387ffde727c740f42c183378383604051808381526020018281526020019250505060405180910390a2505050505050565b60006298968061065b6105ac61059e8673ffffffffffffffffffffffffffffffffffffffff16631f3634ed876040518263ffffffff167c010000000000000000000000000000000000000000000000000000000002815260040180828152602001915050602060405180830381600087803b1580156104bf57600080fd5b505af11580156104d3573d6000803e3d6000fd5b505050506040513d60208110156104e957600080fd5b81019080805190602001909291905050508773ffffffffffffffffffffffffffffffffffffffff166351f910666040518163ffffffff167c0100000000000000000000000000000000000000000000000000000000028152600401602060405180830381600087803b15801561055e57600080fd5b505af1158015610572573d6000803e3d6000fd5b505050506040513d602081101561058857600080fd5b81019080805190602001909291905050506116e9565b670de0b6b3a76400006116e9565b8573ffffffffffffffffffffffffffffffffffffffff1663f7c8d634866040518263ffffffff167c010000000000000000000000000000000000000000000000000000000002815260040180828152602001915050602060405180830381600087803b15801561061b57600080fd5b505af115801561062f573d6000803e3d6000fd5b505050506040513d602081101561064557600080fd5b8101908080519060200190929190505050611735565b81151561066457fe5b04905092915050565b600061092a61087b6107c68573ffffffffffffffffffffffffffffffffffffffff16631f3634ed866040518263ffffffff167c010000000000000000000000000000000000000000000000000000000002815260040180828152602001915050602060405180830381600087803b1580156106e757600080fd5b505af11580156106fb573d6000803e3d6000fd5b505050506040513d602081101561071157600080fd5b81019080805190602001909291905050508673ffffffffffffffffffffffffffffffffffffffff166351f910666040518163ffffffff167c0100000000000000000000000000000000000000000000000000000000028152600401602060405180830381600087803b15801561078657600080fd5b505af115801561079a573d6000803e3d6000fd5b505050506040513d60208110156107b057600080fd5b81019080805190602001909291905050506116e9565b6108768673ffffffffffffffffffffffffffffffffffffffff1663ab0783da6040518163ffffffff167c0100000000000000000000000000000000000000000000000000000000028152600401602060405180830381600087803b15801561082d57600080fd5b505af1158015610841573d6000803e3d6000fd5b505050506040513d602081101561085757600080fd5b8101908080519060200190929190505050670de0b6b3a76400006116e9565b611735565b8473ffffffffffffffffffffffffffffffffffffffff1663f7c8d634856040518263ffffffff167c010000000000000000000000000000000000000000000000000000000002815260040180828152602001915050602060405180830381600087803b1580156108ea57600080fd5b505af11580156108fe573d6000803e3d6000fd5b505050506040513d602081101561091457600080fd5b8101908080519060200190929190505050611771565b905092915050565b6000807364a436ae831c1672ae81f674cab8b6775df3475c73ffffffffffffffffffffffffffffffffffffffff1663f3701da2336040518263ffffffff167c0100000000000000000000000000000000000000000000000000000000028152600401808273ffffffffffffffffffffffffffffffffffffffff1673ffffffffffffffffffffffffffffffffffffffff168152602001915050602060405180830381600087803b1580156109e457600080fd5b505af11580156109f8573d6000803e3d6000fd5b505050506040513d6020811015610a0e57600080fd5b81019080805190602001909291905050509150600073a71937147b55deb8a530c7229c442fd3f31b7db290508073ffffffffffffffffffffffffffffffffffffffff1663fcfff16f6040518163ffffffff167c0100000000000000000000000000000000000000000000000000000000028152600401602060405180830381600087803b158015610a9e57600080fd5b505af1158015610ab2573d6000803e3d6000fd5b505050506040513d6020811015610ac857600080fd5b8101908080519060200190929190505050915073adb7c74bce932fc6c27dda3ac2344707d2fbb0e673ffffffffffffffffffffffffffffffffffffffff16631edf0c1e73a71937147b55deb8a530c7229c442fd3f31b7db284876040518463ffffffff167c0100000000000000000000000000000000000000000000000000000000028152600401808473ffffffffffffffffffffffffffffffffffffffff1673ffffffffffffffffffffffffffffffffffffffff1681526020018381526020018281526020019350505050600060405180830381600087803b158015610bae57600080fd5b505af1158015610bc2573d6000803e3d6000fd5b505050508073ffffffffffffffffffffffffffffffffffffffff1663baa8529c83856040518363ffffffff167c0100000000000000000000000000000000000000000000000000000000028152600401808381526020018273ffffffffffffffffffffffffffffffffffffffff1673ffffffffffffffffffffffffffffffffffffffff16815260200192505050600060405180830381600087803b158015610c6957600080fd5b505af1158015610c7d573d6000803e3d6000fd5b5050505050915091565b600073a71937147b55deb8a530c7229c442fd3f31b7db2905060008360010290506000610cc98373bb4339c0ab5b1d9f14bd6e3426444a1e9d86a1d984610e4b565b9050610cd683838361178d565b60008473ffffffffffffffffffffffffffffffffffffffff166389c786268373c4375b7de8af5a38a93548eb8453a498222c4ff26040518363ffffffff167c0100000000000000000000000000000000000000000000000000000000028152600401808381526020018273ffffffffffffffffffffffffffffffffffffffff1673ffffffffffffffffffffffffffffffffffffffff16815260200192505050602060405180830381600087803b158015610d8f57600080fd5b505af1158015610da3573d6000803e3d6000fd5b505050506040513d6020811015610db957600080fd5b810190808051906020019092919050505090506000610dda85878685611b32565b90508082039150610dec858584611f4d565b3373ffffffffffffffffffffffffffffffffffffffff167f77c6871227e5d2dec8dadd5354f78453203e22e669cd0ec4c19d9a8c5edb31d08484604051808381526020018281526020019250505060405180910390a250505050505050565b60006111af8473ffffffffffffffffffffffffffffffffffffffff16631f3634ed846040518263ffffffff167c010000000000000000000000000000000000000000000000000000000002815260040180828152602001915050602060405180830381600087803b158015610ebf57600080fd5b505af1158015610ed3573d6000803e3d6000fd5b505050506040513d6020811015610ee957600080fd5b81019080805190602001909291905050506111aa6111066110628873ffffffffffffffffffffffffffffffffffffffff1663f7c8d634886040518263ffffffff167c010000000000000000000000000000000000000000000000000000000002815260040180828152602001915050602060405180830381600087803b158015610f7257600080fd5b505af1158015610f86573d6000803e3d6000fd5b505050506040513d6020811015610f9c57600080fd5b810190808051906020019092919050505061105d8a73ffffffffffffffffffffffffffffffffffffffff1663ab0783da6040518163ffffffff167c0100000000000000000000000000000000000000000000000000000000028152600401602060405180830381600087803b15801561101457600080fd5b505af1158015611028573d6000803e3d6000fd5b505050506040513d602081101561103e57600080fd5b8101908080519060200190929190505050670de0b6b3a76400006116e9565b612141565b8773ffffffffffffffffffffffffffffffffffffffff1663495d32cb6040518163ffffffff167c0100000000000000000000000000000000000000000000000000000000028152600401602060405180830381600087803b1580156110c657600080fd5b505af11580156110da573d6000803e3d6000fd5b505050506040513d60208110156110f057600080fd5b8101908080519060200190929190505050612141565b8773ffffffffffffffffffffffffffffffffffffffff166351f910666040518163ffffffff167c0100000000000000000000000000000000000000000000000000000000028152600401602060405180830381600087803b15801561116a57600080fd5b505af115801561117e573d6000803e3d6000fd5b505050506040513d602081101561119457600080fd5b8101908080519060200190929190505050611735565b611771565b90509392505050565b6000808273ffffffffffffffffffffffffffffffffffffffff166326680ef873c4375b7de8af5a38a93548eb8453a498222c4ff2866040518363ffffffff167c0100000000000000000000000000000000000000000000000000000000028152600401808373ffffffffffffffffffffffffffffffffffffffff1673ffffffffffffffffffffffffffffffffffffffff16815260200182815260200192505050602060405180830381600087803b15801561127257600080fd5b505af1158015611286573d6000803e3d6000fd5b505050506040513d602081101561129c57600080fd5b810190808051906020019092919050505090508573ffffffffffffffffffffffffffffffffffffffff16637bd2bea76040518163ffffffff167c0100000000000000000000000000000000000000000000000000000000028152600401602060405180830381600087803b15801561131357600080fd5b505af1158015611327573d6000803e3d6000fd5b505050506040513d602081101561133d57600080fd5b810190808051906020019092919050505073ffffffffffffffffffffffffffffffffffffffff1663d0e30db0826040518263ffffffff167c01000000000000000000000000000000000000000000000000000000000281526004016000604051808303818588803b1580156113b157600080fd5b505af11580156113c5573d6000803e3d6000fd5b50505050506000611474828873ffffffffffffffffffffffffffffffffffffffff16637ec9c3b86040518163ffffffff167c0100000000000000000000000000000000000000000000000000000000028152600401602060405180830381600087803b15801561143457600080fd5b505af1158015611448573d6000803e3d6000fd5b505050506040513d602081101561145e57600080fd5b8101908080519060200190929190505050612185565b905061151e878873ffffffffffffffffffffffffffffffffffffffff16637bd2bea76040518163ffffffff167c0100000000000000000000000000000000000000000000000000000000028152600401602060405180830381600087803b1580156114de57600080fd5b505af11580156114f2573d6000803e3d6000fd5b505050506040513d602081101561150857600080fd5b81019080805190602001909291905050506121c5565b8673ffffffffffffffffffffffffffffffffffffffff1663049878f3826040518263ffffffff167c010000000000000000000000000000000000000000000000000000000002815260040180828152602001915050600060405180830381600087803b15801561158d57600080fd5b505af11580156115a1573d6000803e3d6000fd5b5050505061164d878873ffffffffffffffffffffffffffffffffffffffff16630f8a771e6040518163ffffffff167c0100000000000000000000000000000000000000000000000000000000028152600401602060405180830381600087803b15801561160d57600080fd5b505af1158015611621573d6000803e3d6000fd5b505050506040513d602081101561163757600080fd5b81019080805190602001909291905050506121c5565b8673ffffffffffffffffffffffffffffffffffffffff1663b3b77a5187836040518363ffffffff167c01000000000000000000000000000000000000000000000000000000000281526004018083815260200182815260200192505050600060405180830381600087803b1580156116c457600080fd5b505af11580156116d8573d6000803e3d6000fd5b505050508192505050949350505050565b60006b033b2e3c9fd0803ce800000061172361170585856123d7565b60026b033b2e3c9fd0803ce800000081151561171d57fe5b04612407565b81151561172c57fe5b04905092915050565b60008161175f61174d85670de0b6b3a76400006123d7565b60028581151561175957fe5b04612407565b81151561176857fe5b04905092915050565b6000828284039150811115151561178757600080fd5b92915050565b6000811115611b2d5760008390506000611845838373ffffffffffffffffffffffffffffffffffffffff16637ec9c3b86040518163ffffffff167c0100000000000000000000000000000000000000000000000000000000028152600401602060405180830381600087803b15801561180557600080fd5b505af1158015611819573d6000803e3d6000fd5b505050506040513d602081101561182f57600080fd5b8101908080519060200190929190505050612185565b90508173ffffffffffffffffffffffffffffffffffffffff1663a5cd184e85836040518363ffffffff167c01000000000000000000000000000000000000000000000000000000000281526004018083815260200182815260200192505050600060405180830381600087803b1580156118be57600080fd5b505af11580156118d2573d6000803e3d6000fd5b5050505061197e828373ffffffffffffffffffffffffffffffffffffffff16630f8a771e6040518163ffffffff167c0100000000000000000000000000000000000000000000000000000000028152600401602060405180830381600087803b15801561193e57600080fd5b505af1158015611952573d6000803e3d6000fd5b505050506040513d602081101561196857600080fd5b81019080805190602001909291905050506121c5565b8173ffffffffffffffffffffffffffffffffffffffff16637f8661a1826040518263ffffffff167c010000000000000000000000000000000000000000000000000000000002815260040180828152602001915050600060405180830381600087803b1580156119ed57600080fd5b505af1158015611a01573d6000803e3d6000fd5b505050508173ffffffffffffffffffffffffffffffffffffffff16637bd2bea76040518163ffffffff167c0100000000000000000000000000000000000000000000000000000000028152600401602060405180830381600087803b158015611a6957600080fd5b505af1158015611a7d573d6000803e3d6000fd5b505050506040513d6020811015611a9357600080fd5b810190808051906020019092919050505073ffffffffffffffffffffffffffffffffffffffff16632e1a7d4d846040518263ffffffff167c010000000000000000000000000000000000000000000000000000000002815260040180828152602001915050600060405180830381600087803b158015611b1257600080fd5b505af1158015611b26573d6000803e3d6000fd5b5050505050505b505050565b600080600080611c9d85611c988a73ffffffffffffffffffffffffffffffffffffffff16636f78ee0d8a6040518263ffffffff167c010000000000000000000000000000000000000000000000000000000002815260040180828152602001915050602060405180830381600087803b158015611bae57600080fd5b505af1158015611bc2573d6000803e3d6000fd5b505050506040513d6020811015611bd857600080fd5b81019080805190602001909291905050508b73ffffffffffffffffffffffffffffffffffffffff1663f7c8d6348b6040518263ffffffff167c010000000000000000000000000000000000000000000000000000000002815260040180828152602001915050602060405180830381600087803b158015611c5857600080fd5b505af1158015611c6c573d6000803e3d6000fd5b505050506040513d6020811015611c8257600080fd5b8101908080519060200190929190505050612185565b6116e9565b90508773ffffffffffffffffffffffffffffffffffffffff1663ace237f56040518163ffffffff167c0100000000000000000000000000000000000000000000000000000000028152600401602060405180830381600087803b158015611d0357600080fd5b505af1158015611d17573d6000803e3d6000fd5b505050506040513d6020811015611d2d57600080fd5b810190808051906020019092919050505073ffffffffffffffffffffffffffffffffffffffff166359e02dd76040518163ffffffff167c01000000000000000000000000000000000000000000000000000000000281526004016040805180830381600087803b158015611da057600080fd5b505af1158015611db4573d6000803e3d6000fd5b505050506040513d6040811015611dca57600080fd5b81019080805190602001909291908051906020019092919050505080935081945050506000611dfd828560019004611735565b905060008873ffffffffffffffffffffffffffffffffffffffff166313712c9f73c4375b7de8af5a38a93548eb8453a498222c4ff273aaf64bfcc32d0f15873a02163e7e500671a4ffcd856040518463ffffffff167c0100000000000000000000000000000000000000000000000000000000028152600401808473ffffffffffffffffffffffffffffffffffffffff1673ffffffffffffffffffffffffffffffffffffffff1681526020018373ffffffffffffffffffffffffffffffffffffffff1673ffffffffffffffffffffffffffffffffffffffff1681526020018281526020019350505050602060405180830381600087803b158015611f0057600080fd5b505af1158015611f14573d6000803e3d6000fd5b505050506040513d6020811015611f2a57600080fd5b810190808051906020019092919050505090508095505050505050949350505050565b600081111561213c576000839050612003818273ffffffffffffffffffffffffffffffffffffffff16639166cba46040518163ffffffff167c0100000000000000000000000000000000000000000000000000000000028152600401602060405180830381600087803b158015611fc357600080fd5b505af1158015611fd7573d6000803e3d6000fd5b505050506040513d6020811015611fed57600080fd5b81019080805190602001909291905050506121c5565b6120ab818273ffffffffffffffffffffffffffffffffffffffff166312d43a516040518163ffffffff167c0100000000000000000000000000000000000000000000000000000000028152600401602060405180830381600087803b15801561206b57600080fd5b505af115801561207f573d6000803e3d6000fd5b505050506040513d602081101561209557600080fd5b81019080805190602001909291905050506121c5565b8073ffffffffffffffffffffffffffffffffffffffff166373b3810184846040518363ffffffff167c01000000000000000000000000000000000000000000000000000000000281526004018083815260200182815260200192505050600060405180830381600087803b15801561212257600080fd5b505af1158015612136573d6000803e3d6000fd5b50505050505b505050565b6000670de0b6b3a764000061217361215985856123d7565b6002670de0b6b3a764000081151561216d57fe5b04612407565b81151561217c57fe5b04905092915050565b6000816121b36121a1856b033b2e3c9fd0803ce80000006123d7565b6002858115156121ad57fe5b04612407565b8115156121bc57fe5b04905092915050565b7fffffffffffffffffffffffffffffffffffffffffffffffffffffffffffffffff8173ffffffffffffffffffffffffffffffffffffffff1663dd62ed3e30856040518363ffffffff167c0100000000000000000000000000000000000000000000000000000000028152600401808373ffffffffffffffffffffffffffffffffffffffff1673ffffffffffffffffffffffffffffffffffffffff1681526020018273ffffffffffffffffffffffffffffffffffffffff1673ffffffffffffffffffffffffffffffffffffffff16815260200192505050602060405180830381600087803b1580156122b557600080fd5b505af11580156122c9573d6000803e3d6000fd5b505050506040513d60208110156122df57600080fd5b81019080805190602001909291905050501415156123d3578073ffffffffffffffffffffffffffffffffffffffff1663095ea7b3837fffffffffffffffffffffffffffffffffffffffffffffffffffffffffffffffff6040518363ffffffff167c0100000000000000000000000000000000000000000000000000000000028152600401808373ffffffffffffffffffffffffffffffffffffffff1673ffffffffffffffffffffffffffffffffffffffff16815260200182815260200192505050600060405180830381600087803b1580156123ba57600080fd5b505af11580156123ce573d6000803e3d6000fd5b505050505b5050565b6000808214806123f6575082828385029250828115156123f357fe5b04145b151561240157600080fd5b92915050565b6000828284019150811015151561241d57600080fd5b9291505056fea165627a7a72305820b19d670be4c97934d0105f6deaa7ddc5298fd5e7f204c7ac57af7d7f280aef1a0029",
  "source": "pragma solidity ^0.5.0;\n\nimport \"./interfaces/TubInterface.sol\";\nimport \"./interfaces/ProxyRegistryInterface.sol\";\nimport \"./interfaces/ExchangeInterface.sol\";\nimport \"./interfaces/SaiProxyInterface.sol\";\nimport \"./DS/DSMath.sol\";\n\ncontract IVox {\n    function par() public returns (uint); //ref per dai\n}\n\ncontract SaverProxy is DSMath {\n    \n    event Repay(address indexed owner, uint collateralAmount, uint daiAmount);\n    event Boost(address indexed owner, uint daiAmount, uint collateralAmount);\n    \n    //KOVAN\n    address constant WETH_ADDRESS = 0xd0A1E359811322d97991E03f863a0C30C2cF029C;\n    address constant DAI_ADDRESS = 0xC4375B7De8af5a38a93548eb8453a498222C4fF2;\n    address constant MKR_ADDRESS = 0xAaF64BFCC32d0F15873a02163e7E500671a4ffcD;\n    address constant TUB_ADDRESS = 0xa71937147b55Deb8a530C7229C442Fd3F31b7db2;\n    address constant VOX_ADDRESS = 0xBb4339c0aB5B1d9f14Bd6e3426444A1e9d86A1d9;\n    address constant REGISTRY_ADDRESS = 0x64A436ae831C1672AE81F674CAb8B6775df3475C;\n    address constant SAI_PROXY = 0xADB7c74bCe932fC6C27ddA3Ac2344707d2fBb0E6;\n    \n    ///@dev User has to own MKR and aprrove the DSProxy address\n    function repay(uint _cdpId, address _wrapperAddress) public {\n        TubInterface tub = TubInterface(TUB_ADDRESS);\n        bytes32 cup = bytes32(_cdpId);\n\n        //TODO: check so we don't get more eth than need to repay debt\n        uint maxCollateral = maxFreeCollateral(tub, VOX_ADDRESS, cup);\n\n        free(address(tub), cup, maxCollateral);\n\n        uint daiAmount = ExchangeInterface(_wrapperAddress).swapEtherToToken(maxCollateral, DAI_ADDRESS);\n        \n        uint fee = payStabilityFee(tub, _wrapperAddress, cup, daiAmount);\n        daiAmount -= fee;\n\n        wipe(address(tub), cup, daiAmount);\n\n        emit Repay(msg.sender, maxCollateral, daiAmount);\n    }\n\n    function boost(uint _cdpId, address _wrapperAddress) public {\n        TubInterface tub = TubInterface(TUB_ADDRESS);\n        bytes32 cup = bytes32(_cdpId);\n        \n        uint maxDai = maxFreeDai(tub, cup);\n        \n        tub.draw(cup, maxDai);\n        \n        uint ethAmount = lockPeth(tub, cup, maxDai, _wrapperAddress);\n        \n        emit Boost(msg.sender, maxDai, ethAmount);\n    }\n\n    function createCdp(uint _daiAmount) public payable returns (address proxy, bytes32 cup) {\n        proxy = ProxyRegistryInterface(REGISTRY_ADDRESS).build(msg.sender);\n        TubInterface tub = TubInterface(TUB_ADDRESS);\n\n        cup = TubInterface(tub).open();\n        SaiProxyInterface(SAI_PROXY).lockAndDraw(TUB_ADDRESS, cup, _daiAmount);\n        tub.give(cup, proxy);\n    }\n\n    function maxFreeCollateral(TubInterface _tub, address _vox, bytes32 _cdpId) public returns (uint) {\n        return sub(_tub.ink(_cdpId), wdiv(wmul(wmul(_tub.tab(_cdpId), rmul(_tub.mat(), WAD)), IVox(_vox).par()), _tub.tag()));\n    }\n    \n    function maxFreeDai(TubInterface _tub, bytes32 _cdpId) public returns (uint) {\n        return sub(wdiv(rmul(_tub.ink(_cdpId), _tub.tag()), rmul(_tub.mat(), WAD)), _tub.tab(_cdpId));\n    }\n\n    function getRatio(TubInterface _tub, bytes32 _cdpId) public returns(uint) {\n        return (wdiv(rmul(rmul(_tub.ink(_cdpId), _tub.tag()), WAD), _tub.tab(_cdpId)))/10000000;\n    }\n    \n    function lockPeth(TubInterface _tub, bytes32 cup, uint maxDai, address _wrapperAddress) internal returns(uint) {\n        uint ethAmount = ExchangeInterface(_wrapperAddress).swapTokenToEther(DAI_ADDRESS, maxDai);\n        \n        _tub.gem().deposit.value(ethAmount)();\n\n        uint ink = rdiv(ethAmount, _tub.per());\n        \n        allowOnce(_tub, _tub.gem());\n\n        _tub.join(ink);\n\n        allowOnce(_tub, _tub.skr());\n\n        _tub.lock(cup, ink);\n        \n        return ethAmount;\n    }\n\n    //TODO: precise calc. of the _daiRepay amount\n    function payStabilityFee(TubInterface _tub, address _wrapperAddress, bytes32 _cup, uint _daiRepay) internal returns(uint) {\n        bytes32 mkrPrice;\n        bool ok;\n\n        uint feeInDai = rmul(_daiRepay, rdiv(_tub.rap(_cup), _tub.tab(_cup)));\n\n        (mkrPrice, ok) = _tub.pep().peek();\n\n        uint govAmt = wdiv(feeInDai, uint(mkrPrice));\n\n        uint mkrAmountInDai = ExchangeInterface(_wrapperAddress).swapTokenToToken(DAI_ADDRESS, MKR_ADDRESS, govAmt);\n\n        return mkrAmountInDai;\n    }\n\n    // SaiProxy methods, small changes\n    function free(address tub_, bytes32 cup, uint jam) internal {\n        if (jam > 0) {\n            TubInterface tub = TubInterface(tub_);\n            uint ink = rdiv(jam, tub.per());\n            tub.free(cup, ink);\n            \n            allowOnce(tub, tub.skr());\n\n            tub.exit(ink);\n            tub.gem().withdraw(jam);\n        }\n    }\n\n    function wipe(address tub_, bytes32 cup, uint wad) internal {\n        if (wad > 0) {\n            TubInterface tub = TubInterface(tub_);\n\n            allowOnce(tub, tub.sai());\n           \n            allowOnce(tub, tub.gov());\n            tub.wipe(cup, wad);\n        }\n    }\n\n    function allowOnce(TubInterface _tub, TokenInterface _token) internal {\n        if (_token.allowance(address(this), address(_tub)) != uint(-1)) {\n            _token.approve(address(_tub), uint(-1));\n        }\n    }\n}\n",
  "sourcePath": "/Users/nenadpalinkasevic/Desktop/blockchain/cdpsaver/contracts/SaverProxy.sol",
  "compiler": {
    "name": "solc",
    "version": "0.5.0+commit.1d4f565a.Emscripten.clang"
  },
  "schemaVersion": "3.0.0",
  "updatedAt": "2019-01-15T13:17:19.687Z",
  "devdoc": {
    "methods": {
      "repay(uint256,address)": {
        "details": "User has to own MKR and aprrove the DSProxy address"
      }
    }
  },
  "userdoc": {
    "methods": {}
  }
}