{
  "contractName": "SaverProxy",
  "abi": [
    {
      "constant": false,
      "inputs": [
        {
          "name": "tub_",
          "type": "address"
        },
        {
          "name": "cup",
          "type": "bytes32"
        },
        {
          "name": "wad",
          "type": "uint256"
        }
      ],
      "name": "draw",
      "outputs": [],
      "payable": false,
      "stateMutability": "nonpayable",
      "type": "function",
      "signature": "0x0344a36f"
    },
    {
      "constant": false,
      "inputs": [
        {
          "name": "tub_",
          "type": "address"
        },
        {
          "name": "cup",
          "type": "bytes32"
        },
        {
          "name": "jam",
          "type": "uint256"
        },
        {
          "name": "wad",
          "type": "uint256"
        },
        {
          "name": "otc_",
          "type": "address"
        }
      ],
      "name": "wipeAndFree",
      "outputs": [],
      "payable": true,
      "stateMutability": "payable",
      "type": "function",
      "signature": "0x1b968160"
    },
    {
      "constant": false,
      "inputs": [
        {
          "name": "tub_",
          "type": "address"
        },
        {
          "name": "cup",
          "type": "bytes32"
        },
        {
          "name": "wad",
          "type": "uint256"
        }
      ],
      "name": "lockAndDraw",
      "outputs": [],
      "payable": true,
      "stateMutability": "payable",
      "type": "function",
      "signature": "0x1edf0c1e"
    },
    {
      "constant": false,
      "inputs": [
        {
          "name": "tub_",
          "type": "address"
        },
        {
          "name": "wad",
          "type": "uint256"
        }
      ],
      "name": "lockAndDraw",
      "outputs": [
        {
          "name": "cup",
          "type": "bytes32"
        }
      ],
      "payable": true,
      "stateMutability": "payable",
      "type": "function",
      "signature": "0x516e9aec"
    },
    {
      "constant": false,
      "inputs": [
        {
          "name": "tub_",
          "type": "address"
        },
        {
          "name": "cup",
          "type": "bytes32"
        },
        {
          "name": "jam",
          "type": "uint256"
        },
        {
          "name": "fromContract",
          "type": "bool"
        }
      ],
      "name": "free",
      "outputs": [],
      "payable": false,
      "stateMutability": "nonpayable",
      "type": "function",
      "signature": "0x5612a8b7"
    },
    {
      "constant": false,
      "inputs": [
        {
          "name": "tub_",
          "type": "address"
        },
        {
          "name": "cup",
          "type": "bytes32"
        },
        {
          "name": "wad",
          "type": "uint256"
        },
        {
          "name": "otc_",
          "type": "address"
        },
        {
          "name": "fromContract",
          "type": "bool"
        }
      ],
      "name": "wipe",
      "outputs": [],
      "payable": false,
      "stateMutability": "nonpayable",
      "type": "function",
      "signature": "0x6905ede6"
    },
    {
      "constant": false,
      "inputs": [
        {
          "name": "tub_",
          "type": "address"
        },
        {
          "name": "cup",
          "type": "bytes32"
        },
        {
          "name": "otc_",
          "type": "address"
        }
      ],
      "name": "shut",
      "outputs": [],
      "payable": false,
      "stateMutability": "nonpayable",
      "type": "function",
      "signature": "0x792037e3"
    },
    {
      "constant": false,
      "inputs": [
        {
          "name": "tub_",
          "type": "address"
        }
      ],
      "name": "open",
      "outputs": [
        {
          "name": "",
          "type": "bytes32"
        }
      ],
      "payable": false,
      "stateMutability": "nonpayable",
      "type": "function",
      "signature": "0xb95460f8"
    },
    {
      "constant": false,
      "inputs": [
        {
          "name": "tub_",
          "type": "address"
        },
        {
          "name": "cup",
          "type": "bytes32"
        }
      ],
      "name": "shut",
      "outputs": [],
      "payable": false,
      "stateMutability": "nonpayable",
      "type": "function",
      "signature": "0xbc244c11"
    },
    {
      "constant": false,
      "inputs": [
        {
          "name": "tub_",
          "type": "address"
        },
        {
          "name": "cup",
          "type": "bytes32"
        }
      ],
      "name": "lock",
      "outputs": [],
      "payable": true,
      "stateMutability": "payable",
      "type": "function",
      "signature": "0xbc25a810"
    },
    {
      "constant": false,
      "inputs": [
        {
          "name": "tub_",
          "type": "address"
        },
        {
          "name": "cup",
          "type": "bytes32"
        },
        {
          "name": "lad",
          "type": "address"
        }
      ],
      "name": "give",
      "outputs": [],
      "payable": false,
      "stateMutability": "nonpayable",
      "type": "function",
      "signature": "0xda93dfcf"
    },
    {
      "constant": false,
      "inputs": [
        {
          "name": "tub_",
          "type": "address"
        },
        {
          "name": "cup",
          "type": "bytes32"
        },
        {
          "name": "wad",
          "type": "uint256"
        },
        {
          "name": "fromContract",
          "type": "bool"
        }
      ],
      "name": "wipe",
      "outputs": [],
      "payable": false,
      "stateMutability": "nonpayable",
      "type": "function",
      "signature": "0xedcd503f"
    },
    {
      "constant": false,
      "inputs": [
        {
          "name": "tub_",
          "type": "address"
        },
        {
          "name": "cup",
          "type": "bytes32"
        },
        {
          "name": "jam",
          "type": "uint256"
        },
        {
          "name": "wad",
          "type": "uint256"
        }
      ],
      "name": "wipeAndFree",
      "outputs": [],
      "payable": true,
      "stateMutability": "payable",
      "type": "function",
      "signature": "0xfaed77ab"
    },
    {
      "anonymous": false,
      "inputs": [
        {
          "indexed": true,
          "name": "owner",
          "type": "address"
        },
        {
          "indexed": false,
          "name": "collateralAmount",
          "type": "uint256"
        },
        {
          "indexed": false,
          "name": "daiAmount",
          "type": "uint256"
        }
      ],
      "name": "Repay",
      "type": "event",
      "signature": "0x77c6871227e5d2dec8dadd5354f78453203e22e669cd0ec4c19d9a8c5edb31d0"
    },
    {
      "anonymous": false,
      "inputs": [
        {
          "indexed": true,
          "name": "owner",
          "type": "address"
        },
        {
          "indexed": false,
          "name": "daiAmount",
          "type": "uint256"
        },
        {
          "indexed": false,
          "name": "collateralAmount",
          "type": "uint256"
        }
      ],
      "name": "Boost",
      "type": "event",
      "signature": "0xaadc628cb4fd3bb7a62795eb460290459458bdc6f387ffde727c740f42c18337"
    },
    {
      "constant": false,
      "inputs": [
        {
          "name": "_cdpId",
          "type": "uint256"
        }
      ],
      "name": "repay",
      "outputs": [],
      "payable": false,
      "stateMutability": "nonpayable",
      "type": "function",
      "signature": "0x371fd8e6"
    },
    {
      "constant": false,
      "inputs": [
        {
          "name": "_cdpId",
          "type": "uint256"
        }
      ],
      "name": "boost",
      "outputs": [],
      "payable": false,
      "stateMutability": "nonpayable",
      "type": "function",
      "signature": "0x1b55d19e"
    },
    {
      "constant": false,
      "inputs": [
        {
          "name": "_daiAmount",
          "type": "uint256"
        }
      ],
      "name": "createCdp",
      "outputs": [
        {
          "name": "proxy",
          "type": "address"
        },
        {
          "name": "cup",
          "type": "bytes32"
        }
      ],
      "payable": true,
      "stateMutability": "payable",
      "type": "function",
      "signature": "0x808966ce"
    },
    {
      "constant": false,
      "inputs": [
        {
          "name": "_tub",
          "type": "address"
        },
        {
          "name": "_vox",
          "type": "address"
        },
        {
          "name": "_cdpId",
          "type": "bytes32"
        }
      ],
      "name": "maxFreeCollateral",
      "outputs": [
        {
          "name": "",
          "type": "uint256"
        }
      ],
      "payable": false,
      "stateMutability": "nonpayable",
      "type": "function",
      "signature": "0xf0df15ea"
    },
    {
      "constant": false,
      "inputs": [
        {
          "name": "_tub",
          "type": "address"
        },
        {
          "name": "_cdpId",
          "type": "bytes32"
        }
      ],
      "name": "maxFreeDai",
      "outputs": [
        {
          "name": "",
          "type": "uint256"
        }
      ],
      "payable": false,
      "stateMutability": "nonpayable",
      "type": "function",
      "signature": "0x730fd680"
    },
    {
      "constant": false,
      "inputs": [
        {
          "name": "_tub",
          "type": "address"
        },
        {
          "name": "_cdpId",
          "type": "bytes32"
        }
      ],
      "name": "getRatio",
      "outputs": [
        {
          "name": "",
          "type": "uint256"
        }
      ],
      "payable": false,
      "stateMutability": "nonpayable",
      "type": "function",
      "signature": "0x34bd9c26"
    }
  ],
  "bytecode": "0x608060405234801561001057600080fd5b50615f7a80620000216000396000f3fe608060405260043610610107576000357c0100000000000000000000000000000000000000000000000000000000900463ffffffff1680630344a36f1461010c5780631b55d19e146101715780631b968160146101ac5780631edf0c1e1461022e57806334bd9c2614610286578063371fd8e6146102f5578063516e9aec146103305780635612a8b7146103925780636905ede614610403578063730fd68014610494578063792037e314610503578063808966ce1461057e578063b95460f8146105f3578063bc244c1114610658578063bc25a810146106b3578063da93dfcf14610701578063edcd503f1461077c578063f0df15ea146107ed578063faed77ab1461087c575b600080fd5b34801561011857600080fd5b5061016f6004803603606081101561012f57600080fd5b81019080803573ffffffffffffffffffffffffffffffffffffffff16906020019092919080359060200190929190803590602001909291905050506108de565b005b34801561017d57600080fd5b506101aa6004803603602081101561019457600080fd5b8101908080359060200190929190505050610aff565b005b61022c600480360360a08110156101c257600080fd5b81019080803573ffffffffffffffffffffffffffffffffffffffff169060200190929190803590602001909291908035906020019092919080359060200190929190803573ffffffffffffffffffffffffffffffffffffffff169060200190929190505050610c29565b005b6102846004803603606081101561024457600080fd5b81019080803573ffffffffffffffffffffffffffffffffffffffff1690602001909291908035906020019092919080359060200190929190505050610c4b565b005b34801561029257600080fd5b506102df600480360360408110156102a957600080fd5b81019080803573ffffffffffffffffffffffffffffffffffffffff16906020019092919080359060200190929190505050610c65565b6040518082815260200191505060405180910390f35b34801561030157600080fd5b5061032e6004803603602081101561031857600080fd5b8101908080359060200190929190505050610e91565b005b61037c6004803603604081101561034657600080fd5b81019080803573ffffffffffffffffffffffffffffffffffffffff16906020019092919080359060200190929190505050610fa6565b6040518082815260200191505060405180910390f35b34801561039e57600080fd5b50610401600480360360808110156103b557600080fd5b81019080803573ffffffffffffffffffffffffffffffffffffffff1690602001909291908035906020019092919080359060200190929190803515159060200190929190505050610fc4565b005b34801561040f57600080fd5b50610492600480360360a081101561042657600080fd5b81019080803573ffffffffffffffffffffffffffffffffffffffff1690602001909291908035906020019092919080359060200190929190803573ffffffffffffffffffffffffffffffffffffffff16906020019092919080351515906020019092919050505061165b565b005b3480156104a057600080fd5b506104ed600480360360408110156104b757600080fd5b81019080803573ffffffffffffffffffffffffffffffffffffffff169060200190929190803590602001909291905050506120bd565b6040518082815260200191505060405180910390f35b34801561050f57600080fd5b5061057c6004803603606081101561052657600080fd5b81019080803573ffffffffffffffffffffffffffffffffffffffff16906020019092919080359060200190929190803573ffffffffffffffffffffffffffffffffffffffff169060200190929190505050612382565b005b6105aa6004803603602081101561059457600080fd5b810190808035906020019092919050505061261a565b604051808373ffffffffffffffffffffffffffffffffffffffff1673ffffffffffffffffffffffffffffffffffffffff1681526020018281526020019250505060405180910390f35b3480156105ff57600080fd5b506106426004803603602081101561061657600080fd5b81019080803573ffffffffffffffffffffffffffffffffffffffff16906020019092919050505061281b565b6040518082815260200191505060405180910390f35b34801561066457600080fd5b506106b16004803603604081101561067b57600080fd5b81019080803573ffffffffffffffffffffffffffffffffffffffff169060200190929190803590602001909291905050506128c3565b005b6106ff600480360360408110156106c957600080fd5b81019080803573ffffffffffffffffffffffffffffffffffffffff16906020019092919080359060200190929190505050612b59565b005b34801561070d57600080fd5b5061077a6004803603606081101561072457600080fd5b81019080803573ffffffffffffffffffffffffffffffffffffffff16906020019092919080359060200190929190803573ffffffffffffffffffffffffffffffffffffffff1690602001909291905050506134df565b005b34801561078857600080fd5b506107eb6004803603608081101561079f57600080fd5b81019080803573ffffffffffffffffffffffffffffffffffffffff169060200190929190803590602001909291908035906020019092919080351515906020019092919050505061359f565b005b3480156107f957600080fd5b506108666004803603606081101561081057600080fd5b81019080803573ffffffffffffffffffffffffffffffffffffffff169060200190929190803573ffffffffffffffffffffffffffffffffffffffff169060200190929190803590602001909291905050506135b3565b6040518082815260200191505060405180910390f35b6108dc6004803603608081101561089257600080fd5b81019080803573ffffffffffffffffffffffffffffffffffffffff169060200190929190803590602001909291908035906020019092919080359060200190929190505050613920565b005b6000811115610afa5760008390508073ffffffffffffffffffffffffffffffffffffffff1663440f19ba84846040518363ffffffff167c01000000000000000000000000000000000000000000000000000000000281526004018083815260200182815260200192505050600060405180830381600087803b15801561096357600080fd5b505af1158015610977573d6000803e3d6000fd5b505050508073ffffffffffffffffffffffffffffffffffffffff16639166cba46040518163ffffffff167c0100000000000000000000000000000000000000000000000000000000028152600401602060405180830381600087803b1580156109df57600080fd5b505af11580156109f3573d6000803e3d6000fd5b505050506040513d6020811015610a0957600080fd5b810190808051906020019092919050505073ffffffffffffffffffffffffffffffffffffffff1663a9059cbb33846040518363ffffffff167c0100000000000000000000000000000000000000000000000000000000028152600401808373ffffffffffffffffffffffffffffffffffffffff1673ffffffffffffffffffffffffffffffffffffffff16815260200182815260200192505050602060405180830381600087803b158015610abc57600080fd5b505af1158015610ad0573d6000803e3d6000fd5b505050506040513d6020811015610ae657600080fd5b810190808051906020019092919050505050505b505050565b600073a71937147b55deb8a530c7229c442fd3f31b7db2905060008260010290506000610b2c83836120bd565b90508273ffffffffffffffffffffffffffffffffffffffff1663440f19ba83836040518363ffffffff167c01000000000000000000000000000000000000000000000000000000000281526004018083815260200182815260200192505050600060405180830381600087803b158015610ba557600080fd5b505af1158015610bb9573d6000803e3d6000fd5b505050506000610bca848484613940565b90503373ffffffffffffffffffffffffffffffffffffffff167faadc628cb4fd3bb7a62795eb460290459458bdc6f387ffde727c740f42c183378383604051808381526020018281526020019250505060405180910390a25050505050565b610c3785858484600061165b565b610c448585856000610fc4565b5050505050565b610c558383612b59565b610c608383836108de565b505050565b600062989680610e7f610dd0610dc28673ffffffffffffffffffffffffffffffffffffffff16631f3634ed876040518263ffffffff167c010000000000000000000000000000000000000000000000000000000002815260040180828152602001915050602060405180830381600087803b158015610ce357600080fd5b505af1158015610cf7573d6000803e3d6000fd5b505050506040513d6020811015610d0d57600080fd5b81019080805190602001909291905050508773ffffffffffffffffffffffffffffffffffffffff166351f910666040518163ffffffff167c0100000000000000000000000000000000000000000000000000000000028152600401602060405180830381600087803b158015610d8257600080fd5b505af1158015610d96573d6000803e3d6000fd5b505050506040513d6020811015610dac57600080fd5b81019080805190602001909291905050506142e0565b670de0b6b3a76400006142e0565b8573ffffffffffffffffffffffffffffffffffffffff1663f7c8d634866040518263ffffffff167c010000000000000000000000000000000000000000000000000000000002815260040180828152602001915050602060405180830381600087803b158015610e3f57600080fd5b505af1158015610e53573d6000803e3d6000fd5b505050506040513d6020811015610e6957600080fd5b810190808051906020019092919050505061432c565b811515610e8857fe5b04905092915050565b600073a71937147b55deb8a530c7229c442fd3f31b7db2905060008260010290506000610ed38373bb4339c0ab5b1d9f14bd6e3426444a1e9d86a1d9846135b3565b9050610ee28383836001610fc4565b6000610f193073ffffffffffffffffffffffffffffffffffffffff163173c4375b7de8af5a38a93548eb8453a498222c4ff2614368565b9050610f3b8473db3b642ebc6ff85a3ab335cff9af2954f921599485846145b2565b50610f49848483600161359f565b3373ffffffffffffffffffffffffffffffffffffffff167f77c6871227e5d2dec8dadd5354f78453203e22e669cd0ec4c19d9a8c5edb31d08383604051808381526020018281526020019250505060405180910390a25050505050565b6000610fb18361281b565b9050610fbe838284610c4b565b92915050565b6000821115611655576000849050600061107c848373ffffffffffffffffffffffffffffffffffffffff16637ec9c3b86040518163ffffffff167c0100000000000000000000000000000000000000000000000000000000028152600401602060405180830381600087803b15801561103c57600080fd5b505af1158015611050573d6000803e3d6000fd5b505050506040513d602081101561106657600080fd5b8101908080519060200190929190505050614d36565b90508173ffffffffffffffffffffffffffffffffffffffff1663a5cd184e86836040518363ffffffff167c01000000000000000000000000000000000000000000000000000000000281526004018083815260200182815260200192505050600060405180830381600087803b1580156110f557600080fd5b505af1158015611109573d6000803e3d6000fd5b505050507fffffffffffffffffffffffffffffffffffffffffffffffffffffffffffffffff8273ffffffffffffffffffffffffffffffffffffffff16630f8a771e6040518163ffffffff167c0100000000000000000000000000000000000000000000000000000000028152600401602060405180830381600087803b15801561119257600080fd5b505af11580156111a6573d6000803e3d6000fd5b505050506040513d60208110156111bc57600080fd5b810190808051906020019092919050505073ffffffffffffffffffffffffffffffffffffffff1663dd62ed3e30856040518363ffffffff167c0100000000000000000000000000000000000000000000000000000000028152600401808373ffffffffffffffffffffffffffffffffffffffff1673ffffffffffffffffffffffffffffffffffffffff1681526020018273ffffffffffffffffffffffffffffffffffffffff1673ffffffffffffffffffffffffffffffffffffffff16815260200192505050602060405180830381600087803b15801561129b57600080fd5b505af11580156112af573d6000803e3d6000fd5b505050506040513d60208110156112c557600080fd5b8101908080519060200190929190505050141515611457578173ffffffffffffffffffffffffffffffffffffffff16630f8a771e6040518163ffffffff167c0100000000000000000000000000000000000000000000000000000000028152600401602060405180830381600087803b15801561134157600080fd5b505af1158015611355573d6000803e3d6000fd5b505050506040513d602081101561136b57600080fd5b810190808051906020019092919050505073ffffffffffffffffffffffffffffffffffffffff1663095ea7b3837fffffffffffffffffffffffffffffffffffffffffffffffffffffffffffffffff6040518363ffffffff167c0100000000000000000000000000000000000000000000000000000000028152600401808373ffffffffffffffffffffffffffffffffffffffff1673ffffffffffffffffffffffffffffffffffffffff16815260200182815260200192505050600060405180830381600087803b15801561143e57600080fd5b505af1158015611452573d6000803e3d6000fd5b505050505b8173ffffffffffffffffffffffffffffffffffffffff16637f8661a1826040518263ffffffff167c010000000000000000000000000000000000000000000000000000000002815260040180828152602001915050600060405180830381600087803b1580156114c657600080fd5b505af11580156114da573d6000803e3d6000fd5b505050508173ffffffffffffffffffffffffffffffffffffffff16637bd2bea76040518163ffffffff167c0100000000000000000000000000000000000000000000000000000000028152600401602060405180830381600087803b15801561154257600080fd5b505af1158015611556573d6000803e3d6000fd5b505050506040513d602081101561156c57600080fd5b810190808051906020019092919050505073ffffffffffffffffffffffffffffffffffffffff16632e1a7d4d856040518263ffffffff167c010000000000000000000000000000000000000000000000000000000002815260040180828152602001915050600060405180830381600087803b1580156115eb57600080fd5b505af11580156115ff573d6000803e3d6000fd5b50505050821515611652573373ffffffffffffffffffffffffffffffffffffffff166108fc859081150290604051600060405180830381858888f19350505050158015611650573d6000803e3d6000fd5b505b50505b50505050565b60008311156120b6576000859050811515611991578073ffffffffffffffffffffffffffffffffffffffff16639166cba46040518163ffffffff167c0100000000000000000000000000000000000000000000000000000000028152600401602060405180830381600087803b1580156116d457600080fd5b505af11580156116e8573d6000803e3d6000fd5b505050506040513d60208110156116fe57600080fd5b810190808051906020019092919050505073ffffffffffffffffffffffffffffffffffffffff166323b872dd3330876040518463ffffffff167c0100000000000000000000000000000000000000000000000000000000028152600401808473ffffffffffffffffffffffffffffffffffffffff1673ffffffffffffffffffffffffffffffffffffffff1681526020018373ffffffffffffffffffffffffffffffffffffffff1673ffffffffffffffffffffffffffffffffffffffff1681526020018281526020019350505050602060405180830381600087803b1580156117e557600080fd5b505af11580156117f9573d6000803e3d6000fd5b505050506040513d602081101561180f57600080fd5b8101908080519060200190929190505050506119908161198a866119858573ffffffffffffffffffffffffffffffffffffffff16636f78ee0d8b6040518263ffffffff167c010000000000000000000000000000000000000000000000000000000002815260040180828152602001915050602060405180830381600087803b15801561189b57600080fd5b505af11580156118af573d6000803e3d6000fd5b505050506040513d60208110156118c557600080fd5b81019080805190602001909291905050508673ffffffffffffffffffffffffffffffffffffffff1663f7c8d6348c6040518263ffffffff167c010000000000000000000000000000000000000000000000000000000002815260040180828152602001915050602060405180830381600087803b15801561194557600080fd5b505af1158015611959573d6000803e3d6000fd5b505050506040513d602081101561196f57600080fd5b8101908080519060200190929190505050614d36565b6142e0565b85614d76565b5b7fffffffffffffffffffffffffffffffffffffffffffffffffffffffffffffffff8173ffffffffffffffffffffffffffffffffffffffff16639166cba46040518163ffffffff167c0100000000000000000000000000000000000000000000000000000000028152600401602060405180830381600087803b158015611a1657600080fd5b505af1158015611a2a573d6000803e3d6000fd5b505050506040513d6020811015611a4057600080fd5b810190808051906020019092919050505073ffffffffffffffffffffffffffffffffffffffff1663dd62ed3e30846040518363ffffffff167c0100000000000000000000000000000000000000000000000000000000028152600401808373ffffffffffffffffffffffffffffffffffffffff1673ffffffffffffffffffffffffffffffffffffffff1681526020018273ffffffffffffffffffffffffffffffffffffffff1673ffffffffffffffffffffffffffffffffffffffff16815260200192505050602060405180830381600087803b158015611b1f57600080fd5b505af1158015611b33573d6000803e3d6000fd5b505050506040513d6020811015611b4957600080fd5b8101908080519060200190929190505050141515611cdb578073ffffffffffffffffffffffffffffffffffffffff16639166cba46040518163ffffffff167c0100000000000000000000000000000000000000000000000000000000028152600401602060405180830381600087803b158015611bc557600080fd5b505af1158015611bd9573d6000803e3d6000fd5b505050506040513d6020811015611bef57600080fd5b810190808051906020019092919050505073ffffffffffffffffffffffffffffffffffffffff1663095ea7b3827fffffffffffffffffffffffffffffffffffffffffffffffffffffffffffffffff6040518363ffffffff167c0100000000000000000000000000000000000000000000000000000000028152600401808373ffffffffffffffffffffffffffffffffffffffff1673ffffffffffffffffffffffffffffffffffffffff16815260200182815260200192505050600060405180830381600087803b158015611cc257600080fd5b505af1158015611cd6573d6000803e3d6000fd5b505050505b7fffffffffffffffffffffffffffffffffffffffffffffffffffffffffffffffff8173ffffffffffffffffffffffffffffffffffffffff166312d43a516040518163ffffffff167c0100000000000000000000000000000000000000000000000000000000028152600401602060405180830381600087803b158015611d6057600080fd5b505af1158015611d74573d6000803e3d6000fd5b505050506040513d6020811015611d8a57600080fd5b810190808051906020019092919050505073ffffffffffffffffffffffffffffffffffffffff1663dd62ed3e30846040518363ffffffff167c0100000000000000000000000000000000000000000000000000000000028152600401808373ffffffffffffffffffffffffffffffffffffffff1673ffffffffffffffffffffffffffffffffffffffff1681526020018273ffffffffffffffffffffffffffffffffffffffff1673ffffffffffffffffffffffffffffffffffffffff16815260200192505050602060405180830381600087803b158015611e6957600080fd5b505af1158015611e7d573d6000803e3d6000fd5b505050506040513d6020811015611e9357600080fd5b8101908080519060200190929190505050141515612025578073ffffffffffffffffffffffffffffffffffffffff166312d43a516040518163ffffffff167c0100000000000000000000000000000000000000000000000000000000028152600401602060405180830381600087803b158015611f0f57600080fd5b505af1158015611f23573d6000803e3d6000fd5b505050506040513d6020811015611f3957600080fd5b810190808051906020019092919050505073ffffffffffffffffffffffffffffffffffffffff1663095ea7b3827fffffffffffffffffffffffffffffffffffffffffffffffffffffffffffffffff6040518363ffffffff167c0100000000000000000000000000000000000000000000000000000000028152600401808373ffffffffffffffffffffffffffffffffffffffff1673ffffffffffffffffffffffffffffffffffffffff16815260200182815260200192505050600060405180830381600087803b15801561200c57600080fd5b505af1158015612020573d6000803e3d6000fd5b505050505b8073ffffffffffffffffffffffffffffffffffffffff166373b3810186866040518363ffffffff167c01000000000000000000000000000000000000000000000000000000000281526004018083815260200182815260200192505050600060405180830381600087803b15801561209c57600080fd5b505af11580156120b0573d6000803e3d6000fd5b50505050505b5050505050565b600061237a6122cb6122168573ffffffffffffffffffffffffffffffffffffffff16631f3634ed866040518263ffffffff167c010000000000000000000000000000000000000000000000000000000002815260040180828152602001915050602060405180830381600087803b15801561213757600080fd5b505af115801561214b573d6000803e3d6000fd5b505050506040513d602081101561216157600080fd5b81019080805190602001909291905050508673ffffffffffffffffffffffffffffffffffffffff166351f910666040518163ffffffff167c0100000000000000000000000000000000000000000000000000000000028152600401602060405180830381600087803b1580156121d657600080fd5b505af11580156121ea573d6000803e3d6000fd5b505050506040513d602081101561220057600080fd5b81019080805190602001909291905050506142e0565b6122c68673ffffffffffffffffffffffffffffffffffffffff1663ab0783da6040518163ffffffff167c0100000000000000000000000000000000000000000000000000000000028152600401602060405180830381600087803b15801561227d57600080fd5b505af1158015612291573d6000803e3d6000fd5b505050506040513d60208110156122a757600080fd5b8101908080519060200190929190505050670de0b6b3a76400006142e0565b61432c565b8473ffffffffffffffffffffffffffffffffffffffff1663f7c8d634856040518263ffffffff167c010000000000000000000000000000000000000000000000000000000002815260040180828152602001915050602060405180830381600087803b15801561233a57600080fd5b505af115801561234e573d6000803e3d6000fd5b505050506040513d602081101561236457600080fd5b8101908080519060200190929190505050615a88565b905092915050565b600083905061258d84846124dd8473ffffffffffffffffffffffffffffffffffffffff16631f3634ed886040518263ffffffff167c010000000000000000000000000000000000000000000000000000000002815260040180828152602001915050602060405180830381600087803b1580156123fe57600080fd5b505af1158015612412573d6000803e3d6000fd5b505050506040513d602081101561242857600080fd5b81019080805190602001909291905050508573ffffffffffffffffffffffffffffffffffffffff16637ec9c3b86040518163ffffffff167c0100000000000000000000000000000000000000000000000000000000028152600401602060405180830381600087803b15801561249d57600080fd5b505af11580156124b1573d6000803e3d6000fd5b505050506040513d60208110156124c757600080fd5b81019080805190602001909291905050506142e0565b8473ffffffffffffffffffffffffffffffffffffffff1663f7c8d634886040518263ffffffff167c010000000000000000000000000000000000000000000000000000000002815260040180828152602001915050602060405180830381600087803b15801561254c57600080fd5b505af1158015612560573d6000803e3d6000fd5b505050506040513d602081101561257657600080fd5b810190808051906020019092919050505086610c29565b8073ffffffffffffffffffffffffffffffffffffffff1663b84d2106846040518263ffffffff167c010000000000000000000000000000000000000000000000000000000002815260040180828152602001915050600060405180830381600087803b1580156125fc57600080fd5b505af1158015612610573d6000803e3d6000fd5b5050505050505050565b6000807364a436ae831c1672ae81f674cab8b6775df3475c73ffffffffffffffffffffffffffffffffffffffff1663f3701da2336040518263ffffffff167c0100000000000000000000000000000000000000000000000000000000028152600401808273ffffffffffffffffffffffffffffffffffffffff1673ffffffffffffffffffffffffffffffffffffffff168152602001915050602060405180830381600087803b1580156126cc57600080fd5b505af11580156126e0573d6000803e3d6000fd5b505050506040513d60208110156126f657600080fd5b8101908080519060200190929190505050915061272673a71937147b55deb8a530c7229c442fd3f31b7db261281b565b905061274773a71937147b55deb8a530c7229c442fd3f31b7db28285610c4b565b73a71937147b55deb8a530c7229c442fd3f31b7db273ffffffffffffffffffffffffffffffffffffffff1663baa8529c82846040518363ffffffff167c0100000000000000000000000000000000000000000000000000000000028152600401808381526020018273ffffffffffffffffffffffffffffffffffffffff1673ffffffffffffffffffffffffffffffffffffffff16815260200192505050600060405180830381600087803b1580156127fe57600080fd5b505af1158015612812573d6000803e3d6000fd5b50505050915091565b60008173ffffffffffffffffffffffffffffffffffffffff1663fcfff16f6040518163ffffffff167c0100000000000000000000000000000000000000000000000000000000028152600401602060405180830381600087803b15801561288157600080fd5b505af1158015612895573d6000803e3d6000fd5b505050506040513d60208110156128ab57600080fd5b81019080805190602001909291905050509050919050565b6000829050612acd8383612a1e8473ffffffffffffffffffffffffffffffffffffffff16631f3634ed876040518263ffffffff167c010000000000000000000000000000000000000000000000000000000002815260040180828152602001915050602060405180830381600087803b15801561293f57600080fd5b505af1158015612953573d6000803e3d6000fd5b505050506040513d602081101561296957600080fd5b81019080805190602001909291905050508573ffffffffffffffffffffffffffffffffffffffff16637ec9c3b86040518163ffffffff167c0100000000000000000000000000000000000000000000000000000000028152600401602060405180830381600087803b1580156129de57600080fd5b505af11580156129f2573d6000803e3d6000fd5b505050506040513d6020811015612a0857600080fd5b81019080805190602001909291905050506142e0565b8473ffffffffffffffffffffffffffffffffffffffff1663f7c8d634876040518263ffffffff167c010000000000000000000000000000000000000000000000000000000002815260040180828152602001915050602060405180830381600087803b158015612a8d57600080fd5b505af1158015612aa1573d6000803e3d6000fd5b505050506040513d6020811015612ab757600080fd5b8101908080519060200190929190505050613920565b8073ffffffffffffffffffffffffffffffffffffffff1663b84d2106836040518263ffffffff167c010000000000000000000000000000000000000000000000000000000002815260040180828152602001915050600060405180830381600087803b158015612b3c57600080fd5b505af1158015612b50573d6000803e3d6000fd5b50505050505050565b60003411156134db5760008290508073ffffffffffffffffffffffffffffffffffffffff16637bd2bea76040518163ffffffff167c0100000000000000000000000000000000000000000000000000000000028152600401602060405180830381600087803b158015612bcb57600080fd5b505af1158015612bdf573d6000803e3d6000fd5b505050506040513d6020811015612bf557600080fd5b810190808051906020019092919050505073ffffffffffffffffffffffffffffffffffffffff1663d0e30db0346040518263ffffffff167c01000000000000000000000000000000000000000000000000000000000281526004016000604051808303818588803b158015612c6957600080fd5b505af1158015612c7d573d6000803e3d6000fd5b50505050506000612d2c348373ffffffffffffffffffffffffffffffffffffffff16637ec9c3b86040518163ffffffff167c0100000000000000000000000000000000000000000000000000000000028152600401602060405180830381600087803b158015612cec57600080fd5b505af1158015612d00573d6000803e3d6000fd5b505050506040513d6020811015612d1657600080fd5b8101908080519060200190929190505050614d36565b90507fffffffffffffffffffffffffffffffffffffffffffffffffffffffffffffffff8273ffffffffffffffffffffffffffffffffffffffff16637bd2bea76040518163ffffffff167c0100000000000000000000000000000000000000000000000000000000028152600401602060405180830381600087803b158015612db357600080fd5b505af1158015612dc7573d6000803e3d6000fd5b505050506040513d6020811015612ddd57600080fd5b810190808051906020019092919050505073ffffffffffffffffffffffffffffffffffffffff1663dd62ed3e30856040518363ffffffff167c0100000000000000000000000000000000000000000000000000000000028152600401808373ffffffffffffffffffffffffffffffffffffffff1673ffffffffffffffffffffffffffffffffffffffff1681526020018273ffffffffffffffffffffffffffffffffffffffff1673ffffffffffffffffffffffffffffffffffffffff16815260200192505050602060405180830381600087803b158015612ebc57600080fd5b505af1158015612ed0573d6000803e3d6000fd5b505050506040513d6020811015612ee657600080fd5b8101908080519060200190929190505050141515613078578173ffffffffffffffffffffffffffffffffffffffff16637bd2bea76040518163ffffffff167c0100000000000000000000000000000000000000000000000000000000028152600401602060405180830381600087803b158015612f6257600080fd5b505af1158015612f76573d6000803e3d6000fd5b505050506040513d6020811015612f8c57600080fd5b810190808051906020019092919050505073ffffffffffffffffffffffffffffffffffffffff1663095ea7b3837fffffffffffffffffffffffffffffffffffffffffffffffffffffffffffffffff6040518363ffffffff167c0100000000000000000000000000000000000000000000000000000000028152600401808373ffffffffffffffffffffffffffffffffffffffff1673ffffffffffffffffffffffffffffffffffffffff16815260200182815260200192505050600060405180830381600087803b15801561305f57600080fd5b505af1158015613073573d6000803e3d6000fd5b505050505b8173ffffffffffffffffffffffffffffffffffffffff1663049878f3826040518263ffffffff167c010000000000000000000000000000000000000000000000000000000002815260040180828152602001915050600060405180830381600087803b1580156130e757600080fd5b505af11580156130fb573d6000803e3d6000fd5b505050507fffffffffffffffffffffffffffffffffffffffffffffffffffffffffffffffff8273ffffffffffffffffffffffffffffffffffffffff16630f8a771e6040518163ffffffff167c0100000000000000000000000000000000000000000000000000000000028152600401602060405180830381600087803b15801561318457600080fd5b505af1158015613198573d6000803e3d6000fd5b505050506040513d60208110156131ae57600080fd5b810190808051906020019092919050505073ffffffffffffffffffffffffffffffffffffffff1663dd62ed3e30856040518363ffffffff167c0100000000000000000000000000000000000000000000000000000000028152600401808373ffffffffffffffffffffffffffffffffffffffff1673ffffffffffffffffffffffffffffffffffffffff1681526020018273ffffffffffffffffffffffffffffffffffffffff1673ffffffffffffffffffffffffffffffffffffffff16815260200192505050602060405180830381600087803b15801561328d57600080fd5b505af11580156132a1573d6000803e3d6000fd5b505050506040513d60208110156132b757600080fd5b8101908080519060200190929190505050141515613449578173ffffffffffffffffffffffffffffffffffffffff16630f8a771e6040518163ffffffff167c0100000000000000000000000000000000000000000000000000000000028152600401602060405180830381600087803b15801561333357600080fd5b505af1158015613347573d6000803e3d6000fd5b505050506040513d602081101561335d57600080fd5b810190808051906020019092919050505073ffffffffffffffffffffffffffffffffffffffff1663095ea7b3837fffffffffffffffffffffffffffffffffffffffffffffffffffffffffffffffff6040518363ffffffff167c0100000000000000000000000000000000000000000000000000000000028152600401808373ffffffffffffffffffffffffffffffffffffffff1673ffffffffffffffffffffffffffffffffffffffff16815260200182815260200192505050600060405180830381600087803b15801561343057600080fd5b505af1158015613444573d6000803e3d6000fd5b505050505b8173ffffffffffffffffffffffffffffffffffffffff1663b3b77a5184836040518363ffffffff167c01000000000000000000000000000000000000000000000000000000000281526004018083815260200182815260200192505050600060405180830381600087803b1580156134c057600080fd5b505af11580156134d4573d6000803e3d6000fd5b5050505050505b5050565b8273ffffffffffffffffffffffffffffffffffffffff1663baa8529c83836040518363ffffffff167c0100000000000000000000000000000000000000000000000000000000028152600401808381526020018273ffffffffffffffffffffffffffffffffffffffff1673ffffffffffffffffffffffffffffffffffffffff16815260200192505050600060405180830381600087803b15801561358257600080fd5b505af1158015613596573d6000803e3d6000fd5b50505050505050565b6135ad84848460008561165b565b50505050565b60006139178473ffffffffffffffffffffffffffffffffffffffff16631f3634ed846040518263ffffffff167c010000000000000000000000000000000000000000000000000000000002815260040180828152602001915050602060405180830381600087803b15801561362757600080fd5b505af115801561363b573d6000803e3d6000fd5b505050506040513d602081101561365157600080fd5b810190808051906020019092919050505061391261386e6137ca8873ffffffffffffffffffffffffffffffffffffffff1663f7c8d634886040518263ffffffff167c010000000000000000000000000000000000000000000000000000000002815260040180828152602001915050602060405180830381600087803b1580156136da57600080fd5b505af11580156136ee573d6000803e3d6000fd5b505050506040513d602081101561370457600080fd5b81019080805190602001909291905050506137c58a73ffffffffffffffffffffffffffffffffffffffff1663ab0783da6040518163ffffffff167c0100000000000000000000000000000000000000000000000000000000028152600401602060405180830381600087803b15801561377c57600080fd5b505af1158015613790573d6000803e3d6000fd5b505050506040513d60208110156137a657600080fd5b8101908080519060200190929190505050670de0b6b3a76400006142e0565b615aa4565b8773ffffffffffffffffffffffffffffffffffffffff1663495d32cb6040518163ffffffff167c0100000000000000000000000000000000000000000000000000000000028152600401602060405180830381600087803b15801561382e57600080fd5b505af1158015613842573d6000803e3d6000fd5b505050506040513d602081101561385857600080fd5b8101908080519060200190929190505050615aa4565b8773ffffffffffffffffffffffffffffffffffffffff166351f910666040518163ffffffff167c0100000000000000000000000000000000000000000000000000000000028152600401602060405180830381600087803b1580156138d257600080fd5b505af11580156138e6573d6000803e3d6000fd5b505050506040513d60208110156138fc57600080fd5b810190808051906020019092919050505061432c565b615a88565b90509392505050565b61392d848483600061359f565b61393a8484846000610fc4565b50505050565b60008061396173c4375b7de8af5a38a93548eb8453a498222c4ff284615ae8565b90508473ffffffffffffffffffffffffffffffffffffffff16637bd2bea76040518163ffffffff167c0100000000000000000000000000000000000000000000000000000000028152600401602060405180830381600087803b1580156139c757600080fd5b505af11580156139db573d6000803e3d6000fd5b505050506040513d60208110156139f157600080fd5b810190808051906020019092919050505073ffffffffffffffffffffffffffffffffffffffff1663d0e30db0826040518263ffffffff167c01000000000000000000000000000000000000000000000000000000000281526004016000604051808303818588803b158015613a6557600080fd5b505af1158015613a79573d6000803e3d6000fd5b50505050506000613b28828773ffffffffffffffffffffffffffffffffffffffff16637ec9c3b86040518163ffffffff167c0100000000000000000000000000000000000000000000000000000000028152600401602060405180830381600087803b158015613ae857600080fd5b505af1158015613afc573d6000803e3d6000fd5b505050506040513d6020811015613b1257600080fd5b8101908080519060200190929190505050614d36565b90507fffffffffffffffffffffffffffffffffffffffffffffffffffffffffffffffff8673ffffffffffffffffffffffffffffffffffffffff16637bd2bea76040518163ffffffff167c0100000000000000000000000000000000000000000000000000000000028152600401602060405180830381600087803b158015613baf57600080fd5b505af1158015613bc3573d6000803e3d6000fd5b505050506040513d6020811015613bd957600080fd5b810190808051906020019092919050505073ffffffffffffffffffffffffffffffffffffffff1663dd62ed3e30896040518363ffffffff167c0100000000000000000000000000000000000000000000000000000000028152600401808373ffffffffffffffffffffffffffffffffffffffff1673ffffffffffffffffffffffffffffffffffffffff1681526020018273ffffffffffffffffffffffffffffffffffffffff1673ffffffffffffffffffffffffffffffffffffffff16815260200192505050602060405180830381600087803b158015613cb857600080fd5b505af1158015613ccc573d6000803e3d6000fd5b505050506040513d6020811015613ce257600080fd5b8101908080519060200190929190505050141515613e74578573ffffffffffffffffffffffffffffffffffffffff16637bd2bea76040518163ffffffff167c0100000000000000000000000000000000000000000000000000000000028152600401602060405180830381600087803b158015613d5e57600080fd5b505af1158015613d72573d6000803e3d6000fd5b505050506040513d6020811015613d8857600080fd5b810190808051906020019092919050505073ffffffffffffffffffffffffffffffffffffffff1663095ea7b3877fffffffffffffffffffffffffffffffffffffffffffffffffffffffffffffffff6040518363ffffffff167c0100000000000000000000000000000000000000000000000000000000028152600401808373ffffffffffffffffffffffffffffffffffffffff1673ffffffffffffffffffffffffffffffffffffffff16815260200182815260200192505050600060405180830381600087803b158015613e5b57600080fd5b505af1158015613e6f573d6000803e3d6000fd5b505050505b8573ffffffffffffffffffffffffffffffffffffffff1663049878f3826040518263ffffffff167c010000000000000000000000000000000000000000000000000000000002815260040180828152602001915050600060405180830381600087803b158015613ee357600080fd5b505af1158015613ef7573d6000803e3d6000fd5b505050507fffffffffffffffffffffffffffffffffffffffffffffffffffffffffffffffff8673ffffffffffffffffffffffffffffffffffffffff16630f8a771e6040518163ffffffff167c0100000000000000000000000000000000000000000000000000000000028152600401602060405180830381600087803b158015613f8057600080fd5b505af1158015613f94573d6000803e3d6000fd5b505050506040513d6020811015613faa57600080fd5b810190808051906020019092919050505073ffffffffffffffffffffffffffffffffffffffff1663dd62ed3e30896040518363ffffffff167c0100000000000000000000000000000000000000000000000000000000028152600401808373ffffffffffffffffffffffffffffffffffffffff1673ffffffffffffffffffffffffffffffffffffffff1681526020018273ffffffffffffffffffffffffffffffffffffffff1673ffffffffffffffffffffffffffffffffffffffff16815260200192505050602060405180830381600087803b15801561408957600080fd5b505af115801561409d573d6000803e3d6000fd5b505050506040513d60208110156140b357600080fd5b8101908080519060200190929190505050141515614245578573ffffffffffffffffffffffffffffffffffffffff16630f8a771e6040518163ffffffff167c0100000000000000000000000000000000000000000000000000000000028152600401602060405180830381600087803b15801561412f57600080fd5b505af1158015614143573d6000803e3d6000fd5b505050506040513d602081101561415957600080fd5b810190808051906020019092919050505073ffffffffffffffffffffffffffffffffffffffff1663095ea7b3877fffffffffffffffffffffffffffffffffffffffffffffffffffffffffffffffff6040518363ffffffff167c0100000000000000000000000000000000000000000000000000000000028152600401808373ffffffffffffffffffffffffffffffffffffffff1673ffffffffffffffffffffffffffffffffffffffff16815260200182815260200192505050600060405180830381600087803b15801561422c57600080fd5b505af1158015614240573d6000803e3d6000fd5b505050505b8573ffffffffffffffffffffffffffffffffffffffff1663b3b77a5186836040518363ffffffff167c01000000000000000000000000000000000000000000000000000000000281526004018083815260200182815260200192505050600060405180830381600087803b1580156142bc57600080fd5b505af11580156142d0573d6000803e3d6000fd5b5050505081925050509392505050565b60006b033b2e3c9fd0803ce800000061431a6142fc8585615f02565b60026b033b2e3c9fd0803ce800000081151561431457fe5b04615f32565b81151561432357fe5b04905092915050565b60008161435661434485670de0b6b3a7640000615f02565b60028581151561435057fe5b04615f32565b81151561435f57fe5b04905092915050565b600080600073eeeeeeeeeeeeeeeeeeeeeeeeeeeeeeeeeeeeeeee905060008490506000737e6b8b9510d71bf8ef0f893902ebb9c865eef4df90508073ffffffffffffffffffffffffffffffffffffffff1663809a9e5584848a6040518463ffffffff167c0100000000000000000000000000000000000000000000000000000000028152600401808473ffffffffffffffffffffffffffffffffffffffff1673ffffffffffffffffffffffffffffffffffffffff1681526020018373ffffffffffffffffffffffffffffffffffffffff1673ffffffffffffffffffffffffffffffffffffffff1681526020018281526020019350505050604080518083038186803b15801561447657600080fd5b505afa15801561448a573d6000803e3d6000fd5b505050506040513d60408110156144a057600080fd5b81019080805190602001909291908051906020019092919050505090508094505060008173ffffffffffffffffffffffffffffffffffffffff16637a2a04568985886040518463ffffffff167c0100000000000000000000000000000000000000000000000000000000028152600401808373ffffffffffffffffffffffffffffffffffffffff1673ffffffffffffffffffffffffffffffffffffffff168152602001828152602001925050506020604051808303818588803b15801561456657600080fd5b505af115801561457a573d6000803e3d6000fd5b50505050506040513d602081101561459157600080fd5b81019080805190602001909291905050509050809550505050505092915050565b60008060008061471d856147188a73ffffffffffffffffffffffffffffffffffffffff16636f78ee0d8a6040518263ffffffff167c010000000000000000000000000000000000000000000000000000000002815260040180828152602001915050602060405180830381600087803b15801561462e57600080fd5b505af1158015614642573d6000803e3d6000fd5b505050506040513d602081101561465857600080fd5b81019080805190602001909291905050508b73ffffffffffffffffffffffffffffffffffffffff1663f7c8d6348b6040518263ffffffff167c010000000000000000000000000000000000000000000000000000000002815260040180828152602001915050602060405180830381600087803b1580156146d857600080fd5b505af11580156146ec573d6000803e3d6000fd5b505050506040513d602081101561470257600080fd5b8101908080519060200190929190505050614d36565b6142e0565b90508773ffffffffffffffffffffffffffffffffffffffff1663ace237f56040518163ffffffff167c0100000000000000000000000000000000000000000000000000000000028152600401602060405180830381600087803b15801561478357600080fd5b505af1158015614797573d6000803e3d6000fd5b505050506040513d60208110156147ad57600080fd5b810190808051906020019092919050505073ffffffffffffffffffffffffffffffffffffffff166359e02dd76040518163ffffffff167c01000000000000000000000000000000000000000000000000000000000281526004016040805180830381600087803b15801561482057600080fd5b505af1158015614834573d6000803e3d6000fd5b505050506040513d604081101561484a57600080fd5b8101908080519060200190929190805190602001909291905050508093508194505050600061487d82856001900461432c565b905060008873ffffffffffffffffffffffffffffffffffffffff1663ff1fd9748b73ffffffffffffffffffffffffffffffffffffffff16639166cba46040518163ffffffff167c0100000000000000000000000000000000000000000000000000000000028152600401602060405180830381600087803b15801561490157600080fd5b505af1158015614915573d6000803e3d6000fd5b505050506040513d602081101561492b57600080fd5b81019080805190602001909291905050508c73ffffffffffffffffffffffffffffffffffffffff166312d43a516040518163ffffffff167c0100000000000000000000000000000000000000000000000000000000028152600401602060405180830381600087803b1580156149a057600080fd5b505af11580156149b4573d6000803e3d6000fd5b505050506040513d60208110156149ca57600080fd5b8101908080519060200190929190505050856040518463ffffffff167c0100000000000000000000000000000000000000000000000000000000028152600401808473ffffffffffffffffffffffffffffffffffffffff1673ffffffffffffffffffffffffffffffffffffffff1681526020018373ffffffffffffffffffffffffffffffffffffffff1673ffffffffffffffffffffffffffffffffffffffff168152602001828152602001935050505060206040518083038186803b158015614a9257600080fd5b505afa158015614aa6573d6000803e3d6000fd5b505050506040513d6020811015614abc57600080fd5b810190808051906020019092919050505090508873ffffffffffffffffffffffffffffffffffffffff16638185402b8b73ffffffffffffffffffffffffffffffffffffffff166312d43a516040518163ffffffff167c0100000000000000000000000000000000000000000000000000000000028152600401602060405180830381600087803b158015614b4f57600080fd5b505af1158015614b63573d6000803e3d6000fd5b505050506040513d6020811015614b7957600080fd5b8101908080519060200190929190505050848d73ffffffffffffffffffffffffffffffffffffffff16639166cba46040518163ffffffff167c0100000000000000000000000000000000000000000000000000000000028152600401602060405180830381600087803b158015614bef57600080fd5b505af1158015614c03573d6000803e3d6000fd5b505050506040513d6020811015614c1957600080fd5b8101908080519060200190929190505050856040518563ffffffff167c0100000000000000000000000000000000000000000000000000000000028152600401808573ffffffffffffffffffffffffffffffffffffffff1673ffffffffffffffffffffffffffffffffffffffff1681526020018481526020018373ffffffffffffffffffffffffffffffffffffffff1673ffffffffffffffffffffffffffffffffffffffff168152602001828152602001945050505050602060405180830381600087803b158015614cea57600080fd5b505af1158015614cfe573d6000803e3d6000fd5b505050506040513d6020811015614d1457600080fd5b8101908080519060200190929190505050508095505050505050949350505050565b600081614d64614d52856b033b2e3c9fd0803ce8000000615f02565b600285811515614d5e57fe5b04615f32565b811515614d6d57fe5b04905092915050565b6000808473ffffffffffffffffffffffffffffffffffffffff1663ace237f56040518163ffffffff167c0100000000000000000000000000000000000000000000000000000000028152600401602060405180830381600087803b158015614ddd57600080fd5b505af1158015614df1573d6000803e3d6000fd5b505050506040513d6020811015614e0757600080fd5b810190808051906020019092919050505073ffffffffffffffffffffffffffffffffffffffff166359e02dd76040518163ffffffff167c01000000000000000000000000000000000000000000000000000000000281526004016040805180830381600087803b158015614e7a57600080fd5b505af1158015614e8e573d6000803e3d6000fd5b505050506040513d6040811015614ea457600080fd5b8101908080519060200190929190805190602001909291905050508092508193505050808015614ed8575060006001028214155b15615a81576000614eed85846001900461432c565b9050600073ffffffffffffffffffffffffffffffffffffffff168473ffffffffffffffffffffffffffffffffffffffff161415156158cd5760008473ffffffffffffffffffffffffffffffffffffffff1663ff1fd9748873ffffffffffffffffffffffffffffffffffffffff16639166cba46040518163ffffffff167c0100000000000000000000000000000000000000000000000000000000028152600401602060405180830381600087803b158015614fa757600080fd5b505af1158015614fbb573d6000803e3d6000fd5b505050506040513d6020811015614fd157600080fd5b81019080805190602001909291905050508973ffffffffffffffffffffffffffffffffffffffff166312d43a516040518163ffffffff167c0100000000000000000000000000000000000000000000000000000000028152600401602060405180830381600087803b15801561504657600080fd5b505af115801561505a573d6000803e3d6000fd5b505050506040513d602081101561507057600080fd5b8101908080519060200190929190505050856040518463ffffffff167c0100000000000000000000000000000000000000000000000000000000028152600401808473ffffffffffffffffffffffffffffffffffffffff1673ffffffffffffffffffffffffffffffffffffffff1681526020018373ffffffffffffffffffffffffffffffffffffffff1673ffffffffffffffffffffffffffffffffffffffff168152602001828152602001935050505060206040518083038186803b15801561513857600080fd5b505afa15801561514c573d6000803e3d6000fd5b505050506040513d602081101561516257600080fd5b810190808051906020019092919050505090507fffffffffffffffffffffffffffffffffffffffffffffffffffffffffffffffff8773ffffffffffffffffffffffffffffffffffffffff16639166cba46040518163ffffffff167c0100000000000000000000000000000000000000000000000000000000028152600401602060405180830381600087803b1580156151fa57600080fd5b505af115801561520e573d6000803e3d6000fd5b505050506040513d602081101561522457600080fd5b810190808051906020019092919050505073ffffffffffffffffffffffffffffffffffffffff1663dd62ed3e30886040518363ffffffff167c0100000000000000000000000000000000000000000000000000000000028152600401808373ffffffffffffffffffffffffffffffffffffffff1673ffffffffffffffffffffffffffffffffffffffff1681526020018273ffffffffffffffffffffffffffffffffffffffff1673ffffffffffffffffffffffffffffffffffffffff16815260200192505050602060405180830381600087803b15801561530357600080fd5b505af1158015615317573d6000803e3d6000fd5b505050506040513d602081101561532d57600080fd5b81019080805190602001909291905050501415156154bf578673ffffffffffffffffffffffffffffffffffffffff16639166cba46040518163ffffffff167c0100000000000000000000000000000000000000000000000000000000028152600401602060405180830381600087803b1580156153a957600080fd5b505af11580156153bd573d6000803e3d6000fd5b505050506040513d60208110156153d357600080fd5b810190808051906020019092919050505073ffffffffffffffffffffffffffffffffffffffff1663095ea7b3867fffffffffffffffffffffffffffffffffffffffffffffffffffffffffffffffff6040518363ffffffff167c0100000000000000000000000000000000000000000000000000000000028152600401808373ffffffffffffffffffffffffffffffffffffffff1673ffffffffffffffffffffffffffffffffffffffff16815260200182815260200192505050600060405180830381600087803b1580156154a657600080fd5b505af11580156154ba573d6000803e3d6000fd5b505050505b8673ffffffffffffffffffffffffffffffffffffffff16639166cba46040518163ffffffff167c0100000000000000000000000000000000000000000000000000000000028152600401602060405180830381600087803b15801561552357600080fd5b505af1158015615537573d6000803e3d6000fd5b505050506040513d602081101561554d57600080fd5b810190808051906020019092919050505073ffffffffffffffffffffffffffffffffffffffff166323b872dd3330846040518463ffffffff167c0100000000000000000000000000000000000000000000000000000000028152600401808473ffffffffffffffffffffffffffffffffffffffff1673ffffffffffffffffffffffffffffffffffffffff1681526020018373ffffffffffffffffffffffffffffffffffffffff1673ffffffffffffffffffffffffffffffffffffffff1681526020018281526020019350505050602060405180830381600087803b15801561563457600080fd5b505af1158015615648573d6000803e3d6000fd5b505050506040513d602081101561565e57600080fd5b8101908080519060200190929190505050508473ffffffffffffffffffffffffffffffffffffffff16638185402b8873ffffffffffffffffffffffffffffffffffffffff166312d43a516040518163ffffffff167c0100000000000000000000000000000000000000000000000000000000028152600401602060405180830381600087803b1580156156f057600080fd5b505af1158015615704573d6000803e3d6000fd5b505050506040513d602081101561571a57600080fd5b8101908080519060200190929190505050848a73ffffffffffffffffffffffffffffffffffffffff16639166cba46040518163ffffffff167c0100000000000000000000000000000000000000000000000000000000028152600401602060405180830381600087803b15801561579057600080fd5b505af11580156157a4573d6000803e3d6000fd5b505050506040513d60208110156157ba57600080fd5b8101908080519060200190929190505050856040518563ffffffff167c0100000000000000000000000000000000000000000000000000000000028152600401808573ffffffffffffffffffffffffffffffffffffffff1673ffffffffffffffffffffffffffffffffffffffff1681526020018481526020018373ffffffffffffffffffffffffffffffffffffffff1673ffffffffffffffffffffffffffffffffffffffff168152602001828152602001945050505050602060405180830381600087803b15801561588b57600080fd5b505af115801561589f573d6000803e3d6000fd5b505050506040513d60208110156158b557600080fd5b81019080805190602001909291905050505050615a7f565b8573ffffffffffffffffffffffffffffffffffffffff166312d43a516040518163ffffffff167c0100000000000000000000000000000000000000000000000000000000028152600401602060405180830381600087803b15801561593157600080fd5b505af1158015615945573d6000803e3d6000fd5b505050506040513d602081101561595b57600080fd5b810190808051906020019092919050505073ffffffffffffffffffffffffffffffffffffffff166323b872dd3330846040518463ffffffff167c0100000000000000000000000000000000000000000000000000000000028152600401808473ffffffffffffffffffffffffffffffffffffffff1673ffffffffffffffffffffffffffffffffffffffff1681526020018373ffffffffffffffffffffffffffffffffffffffff1673ffffffffffffffffffffffffffffffffffffffff1681526020018281526020019350505050602060405180830381600087803b158015615a4257600080fd5b505af1158015615a56573d6000803e3d6000fd5b505050506040513d6020811015615a6c57600080fd5b8101908080519060200190929190505050505b505b5050505050565b60008282840391508111151515615a9e57600080fd5b92915050565b6000670de0b6b3a7640000615ad6615abc8585615f02565b6002670de0b6b3a7640000811515615ad057fe5b04615f32565b811515615adf57fe5b04905092915050565b600080600073eeeeeeeeeeeeeeeeeeeeeeeeeeeeeeeeeeeeeeee905060008590506000737e6b8b9510d71bf8ef0f893902ebb9c865eef4df90508073ffffffffffffffffffffffffffffffffffffffff1663809a9e558385896040518463ffffffff167c0100000000000000000000000000000000000000000000000000000000028152600401808473ffffffffffffffffffffffffffffffffffffffff1673ffffffffffffffffffffffffffffffffffffffff1681526020018373ffffffffffffffffffffffffffffffffffffffff1673ffffffffffffffffffffffffffffffffffffffff1681526020018281526020019350505050604080518083038186803b158015615bf657600080fd5b505afa158015615c0a573d6000803e3d6000fd5b505050506040513d6040811015615c2057600080fd5b8101908080519060200190929190805190602001909291905050509050809450508173ffffffffffffffffffffffffffffffffffffffff1663095ea7b38260006040518363ffffffff167c0100000000000000000000000000000000000000000000000000000000028152600401808373ffffffffffffffffffffffffffffffffffffffff1673ffffffffffffffffffffffffffffffffffffffff16815260200182815260200192505050602060405180830381600087803b158015615ce557600080fd5b505af1158015615cf9573d6000803e3d6000fd5b505050506040513d6020811015615d0f57600080fd5b81019080805190602001909291905050501515615d2b57600080fd5b8173ffffffffffffffffffffffffffffffffffffffff1663095ea7b382886040518363ffffffff167c0100000000000000000000000000000000000000000000000000000000028152600401808373ffffffffffffffffffffffffffffffffffffffff1673ffffffffffffffffffffffffffffffffffffffff16815260200182815260200192505050602060405180830381600087803b158015615dce57600080fd5b505af1158015615de2573d6000803e3d6000fd5b505050506040513d6020811015615df857600080fd5b81019080805190602001909291905050505060008173ffffffffffffffffffffffffffffffffffffffff16633bba21dc8489886040518463ffffffff167c0100000000000000000000000000000000000000000000000000000000028152600401808473ffffffffffffffffffffffffffffffffffffffff1673ffffffffffffffffffffffffffffffffffffffff1681526020018381526020018281526020019350505050602060405180830381600087803b158015615eb757600080fd5b505af1158015615ecb573d6000803e3d6000fd5b505050506040513d6020811015615ee157600080fd5b81019080805190602001909291905050509050809550505050505092915050565b600080821480615f2157508282838502925082811515615f1e57fe5b04145b1515615f2c57600080fd5b92915050565b60008282840191508110151515615f4857600080fd5b9291505056fea165627a7a72305820230f8f1c03e0e88d1ed11ee3fb3d0811d3bec34d639f3610f24e487bf4f7c47d0029",
  "source": "pragma solidity ^0.5.0;\n\nimport \"./interfaces/TubInterface.sol\";\nimport \"./interfaces/ERC20.sol\";\nimport \"./interfaces/KyberNetworkProxyInterface.sol\";\nimport \"./interfaces/ProxyRegistryInterface.sol\";\nimport \"./SaiProxy.sol\";\n\ncontract IVox {\n    function par() public returns (uint); //ref per dai\n}\n\ncontract SaverProxy is SaiProxy {\n    \n    event Repay(address indexed owner, uint collateralAmount, uint daiAmount);\n    event Boost(address indexed owner, uint daiAmount, uint collateralAmount);\n    \n    //KOVAN\n    address constant ETHER_ADDRESS = 0xEeeeeEeeeEeEeeEeEeEeeEEEeeeeEeeeeeeeEEeE;\n    address constant WETH_ADDRESS = 0xd0A1E359811322d97991E03f863a0C30C2cF029C;\n    address constant DAI_ADDRESS = 0xC4375B7De8af5a38a93548eb8453a498222C4fF2;\n    address constant KYBER_INTERFACE = 0x7e6b8b9510D71BF8EF0f893902EbB9C865eEF4Df;\n    address constant TUB_ADDRESS = 0xa71937147b55Deb8a530C7229C442Fd3F31b7db2;\n    address constant VOX_ADDRESS = 0xBb4339c0aB5B1d9f14Bd6e3426444A1e9d86A1d9;\n    address constant REGISTRY_ADDRESS = 0x64A436ae831C1672AE81F674CAb8B6775df3475C;\n    address constant OTC_ADDRESS = 0xdB3b642eBc6Ff85A3AB335CFf9af2954F9215994;\n    \n    ///@dev User has to own MKR and aprrove the DSProxy address\n    function repay(uint _cdpId) public {\n        TubInterface tub = TubInterface(TUB_ADDRESS);\n        bytes32 cup = bytes32(_cdpId);\n\n        uint maxCollateral = maxFreeCollateral(tub, VOX_ADDRESS, cup);\n\n        free(address(tub), cup, maxCollateral, true);\n\n        //TODO: don't use contract balance \n        uint daiAmount = swapEtherToToken(address(this).balance, DAI_ADDRESS);\n        \n        //TODO: check so we don't spend more dai than there is debt\n        payStabilityFee(tub, OTC_ADDRESS, cup, daiAmount);\n\n        wipe(address(tub), cup, daiAmount, true);\n\n        emit Repay(msg.sender, maxCollateral, daiAmount);\n    }\n\n    function boost(uint _cdpId) public {\n        TubInterface tub = TubInterface(TUB_ADDRESS);\n        bytes32 cup = bytes32(_cdpId);\n        \n        uint maxDai = maxFreeDai(tub, cup);\n        \n        tub.draw(cup, maxDai);\n        \n        uint ethAmount = lockPeth(tub, cup, maxDai);\n        \n        emit Boost(msg.sender, maxDai, ethAmount);\n    }\n\n    function createCdp(uint _daiAmount) public payable returns (address proxy, bytes32 cup) {\n        proxy = ProxyRegistryInterface(REGISTRY_ADDRESS).build(msg.sender);\n        cup = open(TUB_ADDRESS);\n        lockAndDraw(TUB_ADDRESS, cup, _daiAmount);\n        TubInterface(TUB_ADDRESS).give(cup, proxy);\n    }\n\n    function maxFreeCollateral(TubInterface _tub, address _vox, bytes32 _cdpId) public returns (uint) {\n        return sub(_tub.ink(_cdpId), wdiv(wmul(wmul(_tub.tab(_cdpId), rmul(_tub.mat(), WAD)), IVox(_vox).par()), _tub.tag()));\n    }\n    \n    function maxFreeDai(TubInterface _tub, bytes32 _cdpId) public returns (uint) {\n        return sub(wdiv(rmul(_tub.ink(_cdpId), _tub.tag()), rmul(_tub.mat(), WAD)), _tub.tab(_cdpId));\n    }\n\n    function getRatio(TubInterface _tub, bytes32 _cdpId) public returns(uint) {\n        return (wdiv(rmul(rmul(_tub.ink(_cdpId), _tub.tag()), WAD), _tub.tab(_cdpId)))/10000000;\n    }\n    \n    function lockPeth(TubInterface _tub, bytes32 cup, uint maxDai) internal returns(uint) {\n        uint ethAmount = swapTokenToEther(DAI_ADDRESS, maxDai);\n        \n        _tub.gem().deposit.value(ethAmount)();\n\n        uint ink = rdiv(ethAmount, _tub.per());\n        if (_tub.gem().allowance(address(this), address(_tub)) != uint(-1)) {\n            _tub.gem().approve(address(_tub), uint(-1));\n        }\n        _tub.join(ink);\n\n        if (_tub.skr().allowance(address(this), address(_tub)) != uint(-1)) {\n            _tub.skr().approve(address(_tub), uint(-1));\n        }\n        _tub.lock(cup, ink);\n        \n        return ethAmount;\n    }\n\n    //TODO: precise calc. of the _daiRepay amount\n    function payStabilityFee(TubInterface _tub, address _otc, bytes32 _cup, uint _daiRepay) internal returns(uint) {\n        bytes32 mkrPrice;\n        bool ok;\n\n        uint feeInDai = rmul(_daiRepay, rdiv(_tub.rap(_cup), _tub.tab(_cup)));\n\n        (mkrPrice, ok) = _tub.pep().peek();\n\n        uint govAmt = wdiv(feeInDai, uint(mkrPrice));\n\n        uint mkrAmountInDai = OtcInterface(_otc).getPayAmount(address(_tub.sai()), address(_tub.gov()), govAmt);\n\n        //approve \n        OtcInterface(_otc).buyAllAmount(address(_tub.gov()), govAmt, address(_tub.sai()), mkrAmountInDai);\n\n        return mkrAmountInDai;\n    }\n    \n    // KYBER\n\n    //TODO: watch out for gas price limits\n    function swapEtherToToken (uint _ethAmount, address _tokenAddress) internal returns(uint) {\n\n        uint minRate;\n        ERC20 ETH_TOKEN_ADDRESS = ERC20(ETHER_ADDRESS);\n        ERC20 token = ERC20(_tokenAddress);\n\n        KyberNetworkProxyInterface _kyberNetworkProxy = KyberNetworkProxyInterface(KYBER_INTERFACE);\n\n        (, minRate) = _kyberNetworkProxy.getExpectedRate(ETH_TOKEN_ADDRESS, token, _ethAmount);\n\n        //will send back tokens to this contract's address\n        uint destAmount = _kyberNetworkProxy.swapEtherToToken.value(_ethAmount)(token, minRate);\n\n        return destAmount;\n    }\n    \n    function swapTokenToEther (address _tokenAddress, uint _amount) internal returns(uint) {\n\n        uint minRate;\n        ERC20 ETH_TOKEN_ADDRESS = ERC20(ETHER_ADDRESS);\n        ERC20 token = ERC20(_tokenAddress);\n        \n        KyberNetworkProxyInterface _kyberNetworkProxy = KyberNetworkProxyInterface(KYBER_INTERFACE);\n        \n        (, minRate) = _kyberNetworkProxy.getExpectedRate(token, ETH_TOKEN_ADDRESS, _amount);\n\n        // Mitigate ERC20 Approve front-running attack, by initially setting, allowance to 0\n        require(token.approve(address(_kyberNetworkProxy), 0));\n\n        // Approve tokens so network can take them during the swap\n        token.approve(address(_kyberNetworkProxy), _amount);\n        uint destAmount = _kyberNetworkProxy.swapTokenToEther(token, _amount, minRate);\n\n        return destAmount;\n    }\n\n}\n",
  "sourcePath": "/Users/nikolaklipa/Decenter/cdpsaver/contracts/SaverProxy.sol",
  "compiler": {
    "name": "solc",
    "version": "0.5.0+commit.1d4f565a.Emscripten.clang"
  },
  "schemaVersion": "3.0.1",
  "updatedAt": "2019-01-14T11:32:21.408Z",
  "devdoc": {
    "methods": {
      "repay(uint256)": {
        "details": "User has to own MKR and aprrove the DSProxy address"
      }
    }
  },
  "userdoc": {
    "methods": {}
  }
}