{
  "contractName": "SaverAuthority",
  "abi": [
    {
      "constant": true,
      "inputs": [
        {
          "name": "src",
          "type": "address"
        },
        {
          "name": "dst",
          "type": "address"
        },
        {
          "name": "sig",
          "type": "bytes4"
        }
      ],
      "name": "canCall",
      "outputs": [
        {
          "name": "",
          "type": "bool"
        }
      ],
      "payable": false,
      "stateMutability": "view",
      "type": "function"
    }
  ],
  "bytecode": "0x608060405234801561001057600080fd5b50610131806100206000396000f3fe608060405260043610610041576000357c0100000000000000000000000000000000000000000000000000000000900463ffffffff168063b700961314610046575b600080fd5b34801561005257600080fd5b506100de6004803603606081101561006957600080fd5b81019080803573ffffffffffffffffffffffffffffffffffffffff169060200190929190803573ffffffffffffffffffffffffffffffffffffffff16906020019092919080357bffffffffffffffffffffffffffffffffffffffffffffffffffffffff191690602001909291905050506100f8565b604051808215151515815260200191505060405180910390f35b600060019050939250505056fea165627a7a72305820dc99f5dfebeca2f4a06b5d51456ad9822aebd7b3aee00ae7fbe950812c35c4520029",
  "source": "pragma solidity ^0.5.0;\n\nimport \"./DS/DSAuthority.sol\";\n\ncontract SaverAuthority is DSAuthority {\n\n    //TODO: implement logic on who is allowed to call\n    function canCall(address src, address dst, bytes4 sig) public view returns (bool) {\n        return true;\n    }\n}",
  "sourcePath": "/Users/nenadpalinkasevic/Desktop/blockchain/cdpsaver/contracts/SaverAuthority.sol",
  "compiler": {
    "name": "solc",
    "version": "0.5.0+commit.1d4f565a.Emscripten.clang"
  },
  "schemaVersion": "3.0.0",
  "updatedAt": "2019-01-08T09:27:20.688Z",
  "devdoc": {
    "methods": {}
  },
  "userdoc": {
    "methods": {}
  }
}